:100000000C9460000C9472060C9499060C94880071
:100010000C9488000C9488000C9488000C94880040
:100020000C9488000C9488000C9488000C94880030
:100030000C9488000C9488000C9488000C94880020
:100040000C94C0060C9488000C944F050C94810508
:100050000C9488000C9488000C9488000C94880000
:100060000C94D2100C9488000000000800020100DB
:100070000003040700000000000000000102040863
:100080001020408001020408102001020408102002
:10009000040404040404040402020202020203032E
:1000A0000303030300000000250028002B000000CC
:1000B0000000240027002A00EE03B105CF0FFE0345
:1000C00011241FBECFEFD8E0DEBFCDBF12E0A0E00D
:1000D000B1E0EAE2FEE202C005900D92A437B1075A
:1000E000D9F724E0A4E7B2E001C01D92AD32B20717
:1000F000E1F710E0CFE5D0E004C02197FE010E94B7
:100100002112CC35D107C9F70E94DF050C940817DE
:100110000C940000CF93DF93EC01C6960E9449082F
:10012000CE01C096DF91CF910C944908EF92FF92D7
:100130000F931F93CF93DF93EC017B018A010E9401
:10014000290B40E060E0CE010E94300BB701CE01E8
:100150000E942D0641E060E0CE010E94300BB80104
:10016000CE010E942D0640E060E0CE01DF91CF91EC
:100170001F910F91FF90EF900C94300B0F931F93F2
:10018000CF93DF93CDB7DEB72C970FB6F894DEBFD1
:100190000FBECDBF8C0168E472E0CE0107960E94CD
:1001A000B708F80182A593A5009719F0019741F0CF
:1001B0000EC0B801605D7F4FCE0107960E9409090D
:1001C000B8016A5C7F4FCE0107960E940909F801C9
:1001D00046A557A584A595A54817590714F415A653
:1001E00014A6F80124A535A54217530741F42B8521
:1001F0003C8594E0440F551F9A95E1F70AC02F5FA4
:100200003F4F84E0220F331F8A95E1F7A901405147
:100210005109BE01695F7F4FCE0101960E944C09D2
:10022000BE016F5F7F4FCE0107960E942909CE0164
:1002300001960E944908F80142A560E0C8010E94A9
:10024000300BBE01695F7F4FC8010E942D0640E060
:1002500060E0C8010E94300BF80104A515A50F5FEE
:100260001F4FCE0107960E944908C8012C960FB671
:10027000F894DEBF0FBECDBFDF91CF911F910F91DC
:1002800008954F925F926F927F928F929F92AF925A
:10029000BF92CF92DF92EF92FF920F931F93CF9373
:1002A000DF93CDB7DEB72C970FB6F894DEBF0FBE45
:1002B000CDBF4C013B012A01B22EC0960E94090914
:1002C000B201C401C6960E940909F401F7A6E6A688
:1002D000D3A6C2A6F80180819181F401978F868F01
:1002E000F80182819381F40191A380A3F8018481B4
:1002F0009581F40193A382A3F80186819781F4018B
:1003000095A384A3F80180859185F40197A386A322
:100310006B2DC4010E94BF09F401A4AEA1101EC040
:1003200015A614A6B201CE0101960E942009B301C0
:10033000CE0107960E942009AE014F5F5F4FBE01BC
:10034000695F7F4FC4010E949600CE0107960E940C
:100350004908CE0101960E94490806C0C4010E94C6
:10036000BE00F40195A784A72C960FB6F894DEBFC3
:100370000FBECDBFDF91CF911F910F91FF90EF90F6
:10038000DF90CF90BF90AF909F908F907F906F90B5
:100390005F904F9008958F929F92AF92CF92DF928D
:1003A000EF92FF920F931F93CF93DF93CDB7DEB7FA
:1003B000AC970FB6F894DEBF0FBECDBF4C01C8019D
:1003C000442321F0C4010E94BE009EC08E010F5F35
:1003D0001F4F6230710559F1ECF46115710509F494
:1003E00059C06130710509F055C01A8219828FEF2A
:1003F0009FEF9C838B839E838D8398878F839A87BF
:1004000089876DE371E0CE0181960E94B70868E4A8
:1004100071E021C06330710559F164307105D1F587
:100420009F938F933F932F9380E891E027C01A8288
:1004300019828FEF9FEF9C838B839E838D83988798
:100440008F839A8789876DE371E0CE0181960E9440
:10045000B70865E571E0CE0187960E94B708A12C28
:10046000CC24CA94DC2CE12CF12C23E030E03BC0FE
:100470009F938F933F932F9382E691E09F938F9367
:100480001F930F930E941E140FB6F894DEBF0FBE89
:10049000CDBF3AC08FEF9FEF9A83898381E090E0D0
:1004A0009C838B8382E090E09E838D8383E090E049
:1004B00098878F8384E090E09A87898763E171E071
:1004C000CE0181960E94B70863E371E0CE01879662
:1004D0000E94B708A12CCC24C394D12CEE24E39421
:1004E000F12C22E030E0AE014F5D5F4FBE01695D4F
:1004F0007F4FC4010E944101CE0187960E944908A6
:10050000CE0181960E944908AC960FB6F894DEBFE2
:100510000FBECDBFDF91CF911F910F91FF90EF9054
:10052000DF90CF90AF909F908F900895EF92FF92C1
:100530000F931F93CF93DF93CDB7DEB76C970FB6B2
:10054000F894DEBF0FBECDBF7C010E94910968E424
:1005500072E0C701C0960E94B70868E472E0C70164
:10056000C6960E94B708CE0101960E9491098B8120
:100570009C81F701938382838D8184838E8185831F
:100580008F8186833796DE011896C7010F962D91CD
:100590002193E817F907D9F7DE015096C701449671
:1005A0002D912193E817F907D9F78D89F701848BED
:1005B0008E89858B8F89868B888D878B898D808F9F
:1005C0008A8D818F8B8D828F8C8D838F20E042E08E
:1005D00060E1C7010E94660BC7010E94290B08E475
:1005E00012E0980140E060E070E0C7010E94CB019A
:1005F0006C960FB6F894DEBF0FBECDBFDF91CF91E2
:100600001F910F91FF90EF9008950F931F93CF9339
:10061000DF93EC010E94540C80FF06C06E8D7F8D2D
:100620006F3F9FEF790701F583FF06C068A179A1AD
:100630006F3F9FEF7907C1F482FF06C06AA17BA1DB
:100640006F3F9FEF790781F484FF06C06CA17DA105
:100650006F3F9FEF790741F481FF12C06EA17FA128
:100660006F3F8FEF780761F008E412E0980140E0F7
:10067000CE010E94CB01DF91CF911F910F91089580
:10068000CE01DF91CF911F910F910C94BE0026E017
:1006900040E855E260E070E08FEB92E00E94E604F3
:1006A00060E08AE00E94DD0760E089E00E94DD07EB
:1006B00062E082E00E94DD0743E050E060EE73E01C
:1006C00080E00E94520680E00E94B10781E08093A2
:1006D000B2021092B102089584E792E00E940503ED
:1006E00068EB7BE080E090E00E942F078091B202EF
:1006F000811103C081E08093B20208951F93CF93CC
:10070000DF9361E08AE00E94DD0761E089E00E94FA
:10071000DD0765EB71E08FEB92E00E943F0661E040
:100720008AE00E94190860E089E00E941908C8EF79
:10073000DAE210E08091B2028823B9F061E070E063
:1007400080E090E00E942F0784E792E00E9405037A
:10075000112349F060E08AE00E94190860E089E016
:100760000E94190802C0219729F760E08AE00E94E0
:10077000190860E089E00E94190860E08AE00E94A0
:10078000DD0760E089E0DF91CF911F910C94DD07D8
:1007900060E089E00E94190860E08AE00E94190880
:1007A00064EE71E08FEB92E00E943F0688EE93E0EA
:1007B0000E947E036EEE71E08FEB92E00C943F0698
:1007C0001092B20261E072E08FEB92E00E943F066D
:1007D0000E94C80381E08093B202089568E472E049
:1007E00089EB92E00E94B70868E472E083EB92E044
:1007F0000E94B70884E792E00C94960284E792E0A6
:100800000E948A0083EB92E00E94490889EB92E003
:100810000C944908FC01918D228D892F90E0805C19
:100820009F4F821B91098F7399270895FC01918D29
:10083000828D981731F0828DE80FF11D858D90E043
:1008400008958FEF9FEF0895FC01918D828D981789
:1008500061F0828DDF01A80FB11D5D968C91928DA4
:100860009F5F9F73928F90E008958FEF9FEF0895A1
:10087000FC01538D448D252F30E0842F90E0821BA6
:10088000930B541710F0CF9608950197089587EAB7
:1008900095E0892B49F080E090E0892B29F00E94B7
:1008A000A70581110C9400000895FC01848DDF01DF
:1008B000A80FB11DA35ABF4F2C91848D90E00196D3
:1008C0008F739927848FA689B7892C93A089B189C2
:1008D0008C91837080648C93938D848D981306C063
:1008E0000288F389E02D80818F7D80830895EF92C7
:1008F000FF920F931F93CF93DF93EC0181E0888FDA
:100900009B8D8C8D981305C0E889F989808185FDC0
:1009100026C0F62E0B8D10E00F5F1F4F0F731127AF
:10092000E02E8C8DE8120CC00FB607FCFACFE889D8
:10093000F989808185FFF5CFCE010E945504F1CF62
:100940008B8DFE01E80FF11DE35AFF4FF0829FB738
:10095000F8940B8FEA89FB89808180620AC09FB777
:10096000F894EE89FF896083E889F9898081837032
:10097000806480839FBF81E090E0DF91CF911F91E1
:100980000F91FF90EF900895CF93DF93EC01888D46
:100990008823C9F0EA89FB89808185FD05C0A88983
:1009A000B9898C9186FD0FC00FB607FCF5CF808109
:1009B00085FFF2CFA889B9898C9185FFEDCFCE0153
:1009C0000E945504E7CFDF91CF910895CF92DF9237
:1009D000EF92FF921F93CF93DF93EC016A017B01AB
:1009E000122FE889F98982E080834115514E610513
:1009F0007105B1F060E079E08DE390E0A701960128
:100A00000E94FF11DA01C9010197A109B109B69548
:100A1000A795979587959C01211580E13807A8F047
:100A2000E889F989108260E874E88EE190E0A70116
:100A300096010E94FF11DA01C9010197A109B109CC
:100A4000B695A795979587959C01EC85FD85308394
:100A5000EE85FF852083188EEC89FD891083EA8955
:100A6000FB89808180618083EA89FB89808188603D
:100A70008083EA89FB89808180688083EA89FB8999
:100A800080818F7D8083DF91CF911F91FF90EF90C8
:100A9000DF90CF90089580E090E0089508951F9230
:100AA0000F920FB60F9211242F938F939F93EF9372
:100AB000FF93E091CF02F091D0028081E091D502C6
:100AC000F091D60282FD12C090818091D8028F5F92
:100AD0008F732091D902821751F0E091D802F0E093
:100AE000E154FD4F958F8093D80201C08081FF9122
:100AF000EF919F918F912F910F900FBE0F901F90AC
:100B000018951F920F920FB60F9211242F933F93B7
:100B10004F935F936F937F938F939F93AF93BF9305
:100B2000EF93FF938FEB92E00E945504FF91EF91BA
:100B3000BF91AF919F918F917F916F915F914F91F5
:100B40003F912F910F900FBE0F901F9018958FEB34
:100B500092E00E940A0421E0892B09F420E0822F10
:100B60000895EFEBF2E01382128288EE93E0A0E0AA
:100B7000B0E084839583A683B78388E392E0918372
:100B8000808385EC90E09587848784EC90E097875C
:100B9000868780EC90E0918B808B81EC90E0938B4A
:100BA000828B82EC90E0958B848B86EC90E0978B27
:100BB000868B118E128E138E148E089508950E94C6
:100BC00076070E94DE050E944703C7E4D4E00E9436
:100BD0006C032097E1F30E944704F9CFCF92DF9294
:100BE000EF92FF920F931F93CF93DF936C017A01E3
:100BF0008B01C0E0D0E0CE15DF0581F0D8016D910A
:100C00008D01D601ED91FC910190F081E02DC6019E
:100C10000995892B11F02196EECF7E01C701DF9156
:100C2000CF911F910F91FF90EF90DF90CF9008959B
:100C30006115710579F0FB0101900020E9F731970A
:100C4000AF01461B570BDC01ED91FC910280F38153
:100C5000E02D099480E090E00895DB0114964D9119
:100C60005C9115976D917C91DC01ED91FC91028076
:100C7000F381E02D099466E472E00C9418060F935A
:100C80001F93CF93DF93EC010E9418068C01CE01D5
:100C90000E943B06800F911FDF91CF911F910F9112
:100CA000089508958230E8F4E82FF0E0EE0FFF1F7A
:100CB000EA5FFE4F71836083813041F0809169006B
:100CC0008C7F482B40936900E89A089580916900D1
:100CD000837F440F551F440F551F482B40936900D5
:100CE000E99A08951F920F920FB60F9211242F9335
:100CF0003F934F935F936F937F938F939F93AF93A4
:100D0000BF93EF93FF93E0910601F09107010995DE
:100D1000FF91EF91BF91AF919F918F917F916F91D3
:100D20005F914F913F912F910F900FBE0F901F90A9
:100D300018951F920F920FB60F9211242F933F9385
:100D40004F935F936F937F938F939F93AF93BF93D3
:100D5000EF93FF93E0910801F09109010995FF914C
:100D6000EF91BF91AF919F918F917F916F915F9123
:100D70004F913F912F910F900FBE0F901F9018959C
:100D80001F920F920FB60F9211242F933F938F93C0
:100D90009F93AF93BF9380915D0390915E03A09169
:100DA0005F03B091600330915C0323E0230F2D3784
:100DB00020F40196A11DB11D05C026E8230F02965F
:100DC000A11DB11D20935C0380935D0390935E038E
:100DD000A0935F03B09360038091610390916203DD
:100DE000A0916303B09164030196A11DB11D80938E
:100DF000610390936203A0936303B0936403BF9174
:100E0000AF919F918F913F912F910F900FBE0F90B7
:100E10001F9018953FB7F8948091610390916203F9
:100E2000A0916303B091640326B5A89B05C02F3F32
:100E300019F00196A11DB11D3FBFBA2FA92F982F00
:100E40008827820F911DA11DB11DBC01CD0142E07B
:100E5000660F771F881F991F4A95D1F708958F92C3
:100E60009F92AF92BF92CF92DF92EF92FF926B016F
:100E70007C010E940A074B015C01C114D104E1040A
:100E8000F10401F10E94D30F0E940A07DC01CB019B
:100E900088199909AA09BB09883E9340A105B105A3
:100EA00060F321E0C21AD108E108F10888EE880E4B
:100EB00083E0981EA11CB11CC114D104E104F1040B
:100EC00019F7DBCFFF90EF90DF90CF90BF90AF90FE
:100ED0009F908F9008958230910538F0880F991F68
:100EE000880F991F05970197F1F70895789484B5B5
:100EF000826084BD84B5816084BD85B5826085BD16
:100F000085B5816085BDEEE6F0E0808181608083FB
:100F1000E1E8F0E0108280818260808380818160DE
:100F20008083E0E8F0E0808181608083E1EBF0E0A5
:100F3000808184608083E0EBF0E080818160808349
:100F4000EAE7F0E080818460808380818260808332
:100F50008081816080838081806880831092C1005D
:100F6000089580930A010895833081F028F4813038
:100F700099F08230A1F008958730A9F08830B9F057
:100F80008430D1F4809180008F7D03C080918000F7
:100F90008F7780938000089584B58F7702C084B5E1
:100FA0008F7D84BD08958091B0008F7703C08091BC
:100FB000B0008F7D8093B0000895CF93DF9390E0D1
:100FC000FC01E458FF4F2491FC01E057FF4F84914E
:100FD000882361F190E0880F991FFC01E255FF4FD3
:100FE000C591D491FC01EC55FF4FA591B4916111CD
:100FF00009C09FB7F8948881209582238883EC915B
:101000002E230BC0623061F49FB7F8948881322F91
:10101000309583238883EC912E2B2C939FBF06C0A1
:101020008FB7F894E8812E2B28838FBFDF91CF9163
:1010300008951F93CF93DF93282F30E0F901E859EB
:10104000FF4F8491F901E458FF4FD491F901E05723
:10105000FF4FC491CC23C1F0162F81110E94B40719
:10106000EC2FF0E0EE0FFF1FEC55FF4FA591B49170
:101070009FB7F894111104C08C91D095D82302C069
:10108000EC91DE2BDC939FBFDF91CF911F910895F0
:101090000895FC01808191810C94BF12CF93DF935E
:1010A000EC0188819981009711F00E94BF1219828A
:1010B00018821D821C821B821A82DF91CF910895B3
:1010C0000F931F93CF93DF93EC018B016F5F7F4FE3
:1010D000888199810E944813009731F09983888311
:1010E0001B830A8381E001C080E0DF91CF911F91D3
:1010F0000F910895CF93DF93EC0188819981892B1B
:1011000029F08A819B818617970760F4CE010E949F
:101110006008882341F08C819D81892B19F4E88136
:10112000F981108281E0DF91CF910895EF92FF92D3
:101130000F931F93CF93DF93EC017B018A01BA01D8
:101140000E947A08811104C0CE010E944E0807C097
:101150001D830C83B701888199810E941714CE01E9
:10116000DF91CF911F910F91FF90EF900895FC01B7
:101170001182108213821282158214826115710508
:1011800051F0FB0101900020E9F73197AF01461BB8
:10119000570B0C94960808950F931F93CF93DF93EA
:1011A0008C01EB01FC01808191810097D1F0688175
:1011B00079816115710599F028E438E0232B79F0E5
:1011C000428153812C813D814217530740F00E9498
:1011D00017148C819D81F8019583848313C00E942C
:1011E000BF1288819981F801918380838A819B81D4
:1011F000938382838C819D81958384831982188255
:101200001B821A821D821C82DF91CF911F910F9148
:101210000895CF93DF93EC01FB018617970761F0E8
:10122000608171816115710529F0448155810E94A9
:10123000960802C00E944E08CE01DF91CF9108951A
:10124000FC011182108213821282158214820C9486
:101250000909CF93DF93EC018617970711F00E94DD
:10126000CC08CE01DF91CF910895CF93DF93EC01AD
:101270006115710559F0FB0101900020E9F73197E4
:10128000AF01461B570B0E94960802C00E944E08F1
:10129000CE01DF91CF910895BF92CF92DF92EF926E
:1012A000FF920F931F93CF93DF937C016B018A0111
:1012B000E9012417350720F4812F8901C42FD82F85
:1012C00068E472E0C7010E94B708D60114968D91B8
:1012D0009C91159708171907C8F48C179D0708F4F7
:1012E000EC01D601ED91FC911197EC0FFD1FB08040
:1012F00010826D917C91600F711FC7010E943509AA
:10130000D601ED91FC91EC0FFD1FB082C701DF917A
:10131000CF911F910F91FF90EF90DF90CF90BF90F2
:101320000895FC011382128289E592E09183808303
:10133000128E148A8FE084838EE085838DE086830D
:101340008CE087838BE080878AE0818789E08287D1
:10135000178681E0808B82E0818B83E0828B84E042
:10136000838B0895FC01962F828D8F3F21F0CF0152
:101370004B960C94FD0D642F892F0C9419080F9334
:101380001F93CF93DF93D62F8C01055E1F4FC1E0D3
:1013900062FB442740F94C2768E0C8010E94FD0D1C
:1013A000D1FB442740F94C2767E0C8010E94FD0D9E
:1013B0004D2F41704C2766E0C801DF91CF911F91FE
:1013C0000F910C94FD0DFC01962F828D8F3F21F023
:1013D000CF014B960C94D60C642F892F0C94DD070B
:1013E000CF93DF93EC0140E06E810E94B20981E06F
:1013F00090E00E946B0741E06E81CE010E94B2092D
:1014000081E090E00E946B0740E06E81CE010E9477
:10141000B20984E690E0DF91CF910C946B07AF9214
:10142000BF92CF92DF92EF92FF920F931F93CF93D1
:10143000DF938C01FC01828D9801295F3F4F790178
:10144000C62FD0E08F3F09F473C068013BE1C30EA3
:10145000D11CC6010E94380DF70140E050E0A1E028
:10146000B0E0B190EE24E394F12CBD010B2C02C04E
:10147000660F771F0A94E2F760957095862397238D
:101480009E01042E02C0359527950A94E2F721703B
:10149000332702C0220F331FBA94E2F7822B932B1B
:1014A0004F5F5F4F44305105E1F6E701F8010680D8
:1014B00002C0CC0FDD1F0A94E2F7C095D095C82377
:1014C000D923BE01C6010E94BB0C81E090E00E94BE
:1014D0006B07C701F801068002C0880F991F0A94A4
:1014E000E2F7C82BD92BBE01C6010E94BB0C81E0DC
:1014F00090E00E946B07B701F801068002C0660FFA
:10150000771F0A94E2F7609570956C237D23C601DE
:101510000E94BB0C84E690E0DF91CF911F910F9168
:10152000FF90EF90DF90CF90BF90AF900C946B073F
:10153000C12CD12C570141E0F70161917F01C80115
:101540000E94E309AE010C2C02C0559547950A9400
:10155000E2F74170F5016081C8010E94B209FFEF16
:10156000CF1ADF0A24E0C216D10421F7C801DF91A7
:10157000CF911F910F91FF90EF90DF90CF90BF9090
:10158000AF900C94F009AF92BF92CF92DF92EF929E
:10159000FF920F931F93CF93DF93EC015C0187E0E1
:1015A000A80EB11C00E010E0E62EF12C650141E030
:1015B000F50161915F01CE010E94E309A701002EB0
:1015C00002C0559547950A94E2F74170F601608193
:1015D000CE010E94B2090F5F1F4F0830110531F78D
:1015E000CE01DF91CF911F910F91FF90EF90DF908F
:1015F000CF90BF90AF900C94F0091F93CF93DF93DF
:10160000EC01162F6C810E94B2096D816F3F21F0B1
:1016100040E0CE010E94B2098C89612F84FF06C090
:10162000CE01DF91CF911F910C94C30A70E084E04A
:10163000759567958A95E1F7CE010E940F0A612F93
:10164000CE01DF91CF911F910C940F0A40E00C94D2
:10165000FD0A61E00E94260B80ED97E00C946B0779
:10166000CF93DF93CDB7DEB728970FB6F894DEBFE0
:101670000FBECDBF9C0188E0EBE0F1E0DE011196EA
:1016800001900D928A95E1F7F901808D841710F48D
:101690004FEF480FFE013196E40FF11DE40FF11DED
:1016A0009081690F6068C90128960FB6F894DEBF73
:1016B0000FBECDBFDF91CF910C94260BFC01658945
:1016C000262F2460258B6C600C94260B8F929F92A2
:1016D000AF92BF92CF92DF92EF92FF920F931F9340
:1016E000CF93DF93EC01D42EC22E8A8D8F3F41F42D
:1016F00081E08D1508F05EC08C8988608C8B5AC0A3
:1017000085E693E00E94340F8E01055E1F4FC801ED
:101710000E94B80C41E068E0C8010E94D60C41E08C
:1017200066E0C8010E94D60C41E067E0C8010E9453
:10173000D60C67E0CE010E94BF096D81662321F0BF
:1017400041E0C8010E94D60C41E06C81C8010E94B2
:10175000D60C41E06E81C8010E94D60C7E01E7E004
:10176000EE0EF11C5E01FBE0AF0EB11CF7016191C2
:101770007F0141E0C8010E94D60CEA14FB04B1F7D6
:101780007E01FFE0EF0EF11C5E0184E1A80EB11CAA
:10179000470140E0F70161917F01C8010E94D60C2A
:1017A00041E0F4016081C8010E949A0DEA14FB0433
:1017B00079F79ECFD88E198ECC2031F0F1E0DF1270
:1017C00003C08C8984608C8B80E593EC0E946B074E
:1017D00040E06C81CE010E94B20940E06E81CE01F2
:1017E0000E94B2096D816F3F21F040E0CE010E945E
:1017F000B2096C8964FD1DC063E0CE010E940F0A2E
:1018000084E991E10E946B0763E0CE010E940F0A18
:1018100084E991E10E946B0763E0CE010E940F0A08
:1018200086E990E00E946B0762E0CE010E940F0AF9
:1018300016C06062CE010E94260B84E991E10E94ED
:101840006B076C896062CE010E94260B86E990E0EE
:101850000E946B076C896062CE010E94260B6C8926
:101860006062CE010E94260B84E08D8BCE010E9427
:101870005E0BCE010E94290B82E08E8B66E0CE01CA
:10188000DF91CF911F910F91FF90EF90DF90CF905C
:10189000BF90AF909F908F900C94260B41E00E94D8
:1018A000FD0A81E090E00895DF92EF92FF920F939E
:1018B0001F93CF93DF937C012FE0E20EF11CC0E079
:1018C000D0E02FE1D22E8C01055E1F4FF701619110
:1018D0007F01C8010E94610D282F30E00C2E02C04C
:1018E000220F331F0A94E2F720953095D2222196D9
:1018F000C530D10559F78D2DDF91CF911F910F91F3
:10190000FF90EF90DF900895682F85E693E00C94A8
:10191000F50ECF93DF93EC01683008F067E0688341
:1019200085E693E00E94340F6881606270E085E68E
:1019300093E00E94500F80E00E94840C8FEF0E9481
:10194000840C85E693E00E94CC0F6881606270E0B1
:1019500085E693E00E94500F81E00E94840C8FEF97
:101960000E94840C85E693E0DF91CF910C94CC0F1C
:1019700060E00C94890CCF93DF93D62FC72FFC0126
:101980006081606270E085E693E00E94500F82E122
:101990000E94840C8D2F0E94840C8C2F0E94840C3A
:1019A00085E693E0DF91CF910C94CC0FFF920F93DB
:1019B0001F93CF93DF938C01C62FD42F603108F093
:1019C00051C0683020F0C850FF24F39401C0F12CBE
:1019D000F8016081606270E085E693E00E94500F3C
:1019E0008F2D0E94840C85E693E00E94CC0FF801B5
:1019F0006081606270E041E050E085E693E00E9423
:101A0000C90F85E693E00E946E0E21E030E0D1110F
:101A100009C0A90102C0440F551FCA95E2F7EA01A7
:101A2000C82B09C0F90102C0EE0FFF1FCA95E2F7EB
:101A3000EF01C095C823F8016081606270E085E61F
:101A400093E00E94500F8F2D0E94840C8C2F0E94D7
:101A5000840C85E693E0DF91CF911F910F91FF9069
:101A60000C94CC0FDF91CF911F910F91FF900895AF
:101A7000CF93DF93EC016881606270E085E693E0CC
:101A80000E94500F82E10E94840C85E693E00E9440
:101A9000CC0F6881606270E042E050E085E693E040
:101AA0000E94C90F85E693E00E946E0EC82F85E65E
:101AB00093E00E946E0E982F88278C2BDF91CF9198
:101AC00008950F931F93CF93DF938C01C62F60313E
:101AD00058F5683018F0C850D3E101C0D2E1F801E0
:101AE0006081606270E085E693E00E94500F8D2F68
:101AF0000E94840C85E693E00E94CC0FF80160817F
:101B0000606270E041E050E085E693E00E94C90F1A
:101B100085E693E00E946E0E992702C09595879501
:101B2000CA95E2F7817001C080E0DF91CF911F91EB
:101B30000F910895FF920F931F93CF93DF938C0122
:101B4000C62FD42F603108F052C0683020F0C85042
:101B50009DE0F92E02C08CE0F82EF80160816062F1
:101B600070E085E693E00E94500F8F2D0E94840C58
:101B700085E693E00E94CC0FF8016081606270E01E
:101B800041E050E085E693E00E94C90F85E693E0CE
:101B90000E946E0E21E030E0D13049F4A90102C06C
:101BA000440F551FCA95E2F7EA01C82B09C0F90195
:101BB00002C0EE0FFF1FCA95E2F7EF01C095C823E0
:101BC000F8016081606270E085E693E00E94500F4A
:101BD0008F2D0E94840C8C2F0E94840C85E693E04C
:101BE000DF91CF911F910F91FF900C94CC0FDF915B
:101BF000CF911F910F91FF900895EF92FF920F9355
:101C00001F93CF93DF938C01C62FE42E603108F031
:101C100056C0683028F0C850D5E193E1F92E03C0D2
:101C2000D4E182E1F82EF8016081606270E085E61F
:101C300093E00E94500F8D2F0E94840C85E693E064
:101C40000E94CC0FF8016081606270E041E050E0DA
:101C500085E693E00E94C90F85E693E00E946E0E30
:101C6000F1E021E030E0EF1209C0A90102C0440F09
:101C7000551FCA95E2F7EA01C82B09C0F90102C055
:101C8000EE0FFF1FCA95E2F7EF01C095C823F801D8
:101C90006081606270E085E693E00E94500F8F2DB6
:101CA0000E94840C8C2F0E94840C85E693E0DF91C7
:101CB000CF911F910F91FF90EF900C94CC0FDF917B
:101CC000CF911F910F91FF90EF900895809199030C
:101CD00090E020919A03821B9109089590919A03B4
:101CE00080919903981750F4E92FF0E0E556FC4FE6
:101CF000208130E09F5F90939A0302C02FEF3FEF67
:101D0000C9010895E0919A0380919903E81730F48E
:101D1000F0E0E556FC4F808190E008958FEF9FEF53
:101D200008950895CF93DF93EC01E0917103F09152
:101D300072033097F1F090919A038091990398176C
:101D4000C0F090E0292F30E02617370754F4DE0169
:101D5000A20FB31F4C91D901A556BC4F4C939F5F66
:101D6000F1CF10929A0360939903CB01DF91CF9149
:101D70000994DF91CF910895E0917303F09174037A
:101D8000309729F010927703109276030994089502
:101D9000CF92DF92EF92FF920F931F93CF93DF9337
:101DA0007C01CB018A0120917503222389F0EB018C
:101DB0006B01C40ED51ECC15DD0569F06991D70104
:101DC000ED91FC910190F081E02DC7010995F3CFD1
:101DD000642F0E949010C801DF91CF911F910F9145
:101DE000FF90EF90DF90CF900895CF93DF931F92F5
:101DF000CDB7DEB76983209175032223D1F02091FE
:101E00007603203240F021E030E0FC01338322836E
:101E100080E090E015C080917703E82FF0E0E8586B
:101E2000FC4F998190838F5F809377038093760333
:101E300005C061E0CE0101960E94901081E090E023
:101E40000F90DF91CF910895FC011382128288EEEA
:101E500093E0A0E0B0E084839583A683B78385E612
:101E600092E091838083089510929A0310929903CF
:101E700010927703109276030E94D40F8CEB9EE0B1
:101E80000E94BD1082E99EE00C94B81081E080931E
:101E90007503609398031092770310927603089568
:101EA0000C94460F0F93062F21E04091760368E7CC
:101EB00073E0809198030E943A1010927703109279
:101EC0007603109275030F9108954F925F926F926F
:101ED0007F92AF92BF92CF92EF92FF920F931F9398
:101EE000CF93DF935C01F62ED42F28013901EE2029
:101EF00021F10E94460FCE2DC43008F0C3E0C1503E
:101F0000C0F028E0C29FC0011124A301920104C0C7
:101F100056954795379527958A95D2F7CA01B90105
:101F2000D501ED91FC910190F081E02DC50109955D
:101F3000E6CF60E0C5010E94520F4D2FD13208F06C
:101F400040E22C2D6BE973E08F2D0E94F20F10926E
:101F50009A0380939903DF91CF911F910F91FF9086
:101F6000EF90CF90BF90AF907F906F905F904F9029
:101F70000895CF92EF920F931F93C22EE12C00E0B1
:101F800010E098010E94650F1F910F91EF90CF9084
:101F9000089521E00C94B90F61E00C94520F85E68E
:101FA00093E00C94240F08951092280481E080930C
:101FB00026041092250461E082E10E94190861E084
:101FC00083E10E941908E9EBF0E080818E7F808335
:101FD00080818D7F808388E48093B80085E480933E
:101FE000BC000895413208F043C09091280491113B
:101FF000FCCF91E090932804209326042FEF2093A8
:10200000BB0310920004240F2093FF039093270436
:1020100090912704880F892B8093270480912504B1
:10202000813061F410922504809127048093BB00D5
:102030008091BC0083FDF8CF85EC01C085EE8093D4
:10204000BC00809128048130E1F380910004841762
:1020500010F440910004A1E0B4E0962FFB018E2F14
:10206000891B841718F48D918193F9CF842F0895DB
:1020700080E008950F93413208F04AC090912804FF
:102080009111FCCF32E030932804009326043FEFF7
:102090003093BB03109200044093FF03562FA1E03E
:1020A000B4E0FB013E2F351B341718F431913D93FA
:1020B000F9CF1092270430912704880F832B809347
:1020C000270480912504813061F4109225048091C9
:1020D00027048093BB008091BC0083FDF8CF85EC82
:1020E00001C085EE8093BC00222321F0809128045A
:1020F0008230D1F38091BB038F3F79F08091BB0395
:10210000803241F08091BB03803331F094E005C010
:1021100091E003C092E001C093E0892F0F910895F0
:102120004091DD03262F30E0240F311D213231058F
:10213000DCF4209128042430C9F4FC0180E090E014
:10214000861758F43091DD032191DC01A152BC4F78
:10215000A30FB11D2C930196F3CF8091DD03680F7F
:102160006093DD0380E0089581E0089582E00895A2
:1021700090932204809321040895909324048093E3
:102180002304089585ED8093BC008091BC0084FDFC
:10219000FCCF10922804089585EC8093BC00109227
:1021A000280408951F920F920FB60F9211242F93B7
:1021B0003F934F935F936F937F938F939F93AF93CF
:1021C000BF93EF93FF938091B900887F803609F425
:1021D0009EC078F5883209F45DC090F4803109F42E
:1021E00056C038F4882309F4F5C0883009F44FC08C
:1021F000F5C0883109F44EC0803209F45FC0EEC0EA
:10220000803409F46AC058F4803309F457C0883325
:1022100009F0E4C08093BB030E94CC10DFC080357E
:1022200009F44FC0883509F45DC0883409F0D6C080
:10223000D3C0883909F4C4C0A8F4883709F467C04A
:1022400038F4883609F463C0803709F460C0C6C02A
:10225000883809F4B5C0803909F45FC0803809F0C6
:10226000BDC05BC0803B09F483C038F4803A09F4F8
:1022700066C0883A09F47CC0B1C0803C09F4A4C0AF
:10228000883C09F4A1C0883B09F487C0A7C08091AD
:10229000270410C0909100048091FF03981770F5F7
:1022A000E091000481E08E0F80930004F0E0EF5F86
:1022B000FB4F80818093BB0085EC83C08093BB0380
:1022C0008BC0E091000481E08E0F80930004809128
:1022D000BB00F0E0EF5FFB4F8083909100048091A2
:1022E000FF036BC0E091000481E08E0F8093000437
:1022F0008091BB00F0E0EF5FFB4F8083809126046C
:1023000081116AC081E08093250484EA5EC083E085
:10231000809328041092BC03CFCF8091BC038032FD
:1023200008F04EC0E091BC0381E08E0F8093BC03A7
:102330008091BB00F0E0E354FC4F8083BDCF0E944E
:10234000CC108091BC03803230F4E091BC03F0E00B
:10235000E354FC4F10826091BC0370E0E0912104D3
:10236000F09122048DEB93E009951092BC0336C0E6
:1023700084E0809328041092DE031092DD03E09144
:102380002304F091240409958091DD03811105C097
:1023900081E08093DD031092DF03E091DE0381E0B2
:1023A0008E0F8093DE03F0E0E152FC4F808180933A
:1023B000BB009091DE038091DD03981708F47CCF79
:1023C00085E88093BC000AC085EC8093BC00109225
:1023D000280404C01092BB030E94C210FF91EF9129
:1023E000BF91AF919F918F917F916F915F914F912D
:1023F0003F912F910F900FBE0F901F901895A1E263
:102400001A2EAA1BBB1BFD010DC0AA1FBB1FEE1F6E
:10241000FF1FA217B307E407F50720F0A21BB30BB9
:10242000E40BF50B661F771F881F991F1A9469F735
:1024300060957095809590959B01AC01BD01CF0191
:102440000895EE0FFF1F0590F491E02D09940F936E
:102450001F93CF93DF938230910510F482E090E0D8
:10246000E0912B04F0912C0420E030E0A0E0B0E0FB
:10247000309719F140815181028113814817590722
:10248000C8F08417950769F4109731F012960C93F1
:10249000129713961C9327C000932B0410932C04BF
:1024A00022C02115310519F04217530718F49A017B
:1024B000BD01EF01DF01F801DBCF21153105F9F096
:1024C000281B390B2430310580F48A819B816115EA
:1024D000710521F0FB019383828304C090932C0447
:1024E00080932B04FE01329644C0FE01E20FF31FDD
:1024F0008193919322503109398328833AC02091E6
:10250000290430912A04232B41F4209102013091B7
:10251000030130932A042093290420910001309173
:1025200001012115310541F42DB73EB74091040159
:1025300050910501241B350BE0912904F0912A04E8
:10254000E217F307A0F42E1B3F0B2817390778F08A
:10255000AC014E5F5F4F2417350748F04E0F5F1FE9
:1025600050932A04409329048193919302C0E0E0A0
:10257000F0E0CF01DF91CF911F910F910895CF939C
:10258000DF93009709F481C0FC0132971382128215
:10259000A0912B04B0912C04109781F420813181FB
:1025A000820F931F2091290430912A04281739079C
:1025B00051F5F0932A04E093290467C0ED0120E06F
:1025C00030E0CE17DF0740F44A815B819E01411560
:1025D0005105F1F0EA01F5CFD383C28340815181E7
:1025E000840F951FC817D90759F488819981840FE2
:1025F000951F0296918380838A819B819383828336
:102600002115310529F4F0932C04E0932B043DC0EF
:10261000E901FB83EA8349915991C40FD51FEC1757
:10262000FD0761F480819181840F951F0296E90175
:1026300099838883828193819B838A83E0E0F0E0A1
:1026400012968D919C911397009719F0FD01DC0172
:10265000F7CF8D919C9111979D012E5F3F4F820F77
:10266000931F2091290430912A042817390769F40F
:10267000309729F410922C0410922B0402C013827C
:102680001282B0932A04A0932904DF91CF91089578
:10269000A0E0B0E0EEE4F3E10C94D516EC01009775
:1026A00021F4CB010E942712B4C0FC01E60FF71FF2
:1026B0009C0122503109E217F30708F4A8C0D901A0
:1026C0000D911C91119706171707B0F005301105F1
:1026D00008F49BC0C80104978617970708F495C0B3
:1026E00002501109061B170B019311936D937C93F4
:1026F000CF010E94BF1289C05B01A01AB10A4C0130
:10270000800E911EA0912B04B0912C04612C712C91
:10271000E12CF12C109709F446C08D919C911197F2
:10272000A815B905B1F56C0142E0C40ED11CCA145C
:10273000DB0478F14C018A189B08640142E0C40E66
:10274000D11C1296BC9012971396AC91B5E0CB16A3
:10275000D10440F0B282A38391828082D9016D932B
:102760007C9309C00E5F1F4F800F911FF901918369
:102770008083EB2DFA2FE114F10431F0D701139689
:10278000FC93EE93129741C0F0932C04E0932B043A
:102790003CC06816790608F43C017D0112960D9044
:1027A000BC91A02DB7CF8091290490912A0488165E
:1027B0009906E1F466167706C8F4809100019091BD
:1027C0000101009741F48DB79EB7409104015091EB
:1027D0000501841B950BE817F907C8F4F0932A0448
:1027E000E0932904F901718360830FC0CB010E943B
:1027F00027127C01009759F0A801BE010E940E1417
:10280000CE010E94BF12C70104C0CE0102C080E009
:1028100090E0CDB7DEB7EEE00C94F116FB01DC01E1
:1028200002C001900D9241505040D8F70895FB012D
:10283000DC0101900D920020E1F70895AEE0B0E0D8
:10284000E4E2F4E10C94DF160D891E8986E08C83A6
:102850001A8309838FEF9FE79E838D83AE01475EC6
:102860005F4F6F89788DCE0101960E944014EF81F1
:10287000F885E00FF11F10822E96E4E00C94FB1611
:10288000ABE0B0E0E6E4F4E10C94D1166C017B011E
:102890008A01FC0117821682838181FFCCC1CE019F
:1028A00001963C01F6019381F70193FD859193FF19
:1028B00081917F01882309F4BAC1853239F493FDEF
:1028C000859193FF81917F01853229F4B60190E0D3
:1028D0000E943716E7CF912C212C312CFFE1F31504
:1028E000D8F08B3279F038F4803279F08332A1F469
:1028F000232D20611DC08D3261F0803369F4232DBA
:10290000216016C0832D8260382EE32DE4603E2EB8
:102910002AC0F32DF8601DC037FC2DC020ED280F14
:102920002A3040F08E32B9F436FC81C1232D206468
:10293000322E19C036FE06C08AE0989E200D112462
:10294000922E11C0EAE02E9E200D1124222EF32D8E
:10295000F0623F2E08C08C3621F4832D8068382E1B
:1029600002C0883641F4F70193FD859193FF819170
:102970007F018111B3CF982F9F7D9554933028F418
:102980000C5F1F4F9FE399830DC0833631F083376F
:1029900071F0833509F059C021C0F8018081898325
:1029A0000E5F1F4F88248394912C530113C028017C
:1029B000F2E04F0E511CF801A080B18036FE03C03A
:1029C000692D70E002C06FEF7FEFC5010E942C16E9
:1029D0004C018201F32DFF773F2E16C0280122E023
:1029E000420E511CF801A080B18036FE03C0692D53
:1029F00070E002C06FEF7FEFC5010E9421164C010D
:102A0000F32DF0683F2E820133FC1BC0822D90E035
:102A100088169906B0F4B60180E290E00E9437165D
:102A20002A94F4CFF50137FC859137FE81915F013F
:102A3000B60190E00E94371621102A9421E0821AF4
:102A400091088114910471F7E8C0843611F0893639
:102A500041F5F80137FE07C0608171818281938161
:102A60000C5F1F4F08C060817181072E000C880B1E
:102A7000990B0E5F1F4FF32DFF763F2E97FF09C076
:102A800090958095709561957F4F8F4F9F4FF0681F
:102A90003F2E2AE030E0A3010E947316882E86188C
:102AA00045C0853731F4232D2F7EB22E2AE030E049
:102AB00025C0932D997FB92E8F36C1F018F4883533
:102AC00079F0B5C0803719F0883721F0B0C0E92F10
:102AD000E061BE2EB4FE0DC0FB2DF460BF2E09C018
:102AE00034FE0AC0292F2660B22E06C028E030E04E
:102AF00005C020E130E002C020E132E0F801B7FE7D
:102B000007C060817181828193810C5F1F4F06C075
:102B10006081718180E090E00E5F1F4FA3010E94F1
:102B20007316882E8618FB2DFF773F2E36FE0DC0BC
:102B3000232D2E7FA22E891458F434FE0BC032FCB4
:102B400009C0832D8E7EA82E05C0B82CA32C03C0EF
:102B5000B82C01C0B92CA4FE0FC0FE01E80DF11D78
:102B60008081803321F49A2D997EA92E09C0A2FE7E
:102B700006C0B394B39404C08A2D867809F0B39448
:102B8000A3FC11C0A0FE06C0B21488F4280C922C3D
:102B90009B180EC0B21460F4B60180E290E00E946F
:102BA0003716B394F7CFB21418F42B1802C0982C30
:102BB000212CA4FE10C0B60180E390E00E943716DD
:102BC000A2FE17C0A1FC03C088E790E002C088E520
:102BD00090E0B6010CC08A2D867859F0A1FE02C0A3
:102BE0008BE201C080E2A7FC8DE2B60190E00E947A
:102BF0003716891438F4B60180E390E00E94371646
:102C00009A94F7CF8A94F301E80DF11D8081B60103
:102C100090E00E9437168110F5CF222009F442CEB1
:102C2000B60180E290E00E9437162A94F6CFF601B2
:102C30008681978102C08FEF9FEF2B96E2E10C9483
:102C4000ED16FC010590615070400110D8F7809599
:102C500090958E0F9F1F0895FC0161507040019068
:102C60000110D8F7809590958E0F9F1F08950F93B0
:102C70001F93CF93DF93FB01238121FD03C08FEFCF
:102C80009FEF2CC022FF16C04681578124813581D9
:102C90004217530744F4A081B1819D012F5F3F4F3C
:102CA000318320838C93268137812F5F3F4F378379
:102CB000268314C08B01EC01FB010084F185E02D1B
:102CC0000995892BE1F6D80116968D919C9117975D
:102CD000019617969C938E931697CE01DF91CF9114
:102CE0001F910F910895FA01AA27283051F1203140
:102CF00081F1E8946F936E7F6E5F7F4F8F4F9F4F90
:102D0000AF4FB1E03ED0B4E03CD0670F781F891FD1
:102D10009A1FA11D680F791F8A1F911DA11D6A0F9F
:102D2000711D811D911DA11D20D009F468943F9152
:102D30002AE0269F11243019305D3193DEF6CF0151
:102D40000895462F4770405D4193B3E00FD0C9F717
:102D5000F6CF462F4F70405D4A3318F0495D31FD84
:102D60004052419302D0A9F7EACFB4E0A6959795D7
:102D7000879577956795BA95C9F7009761057105AD
:102D800008959B01AC010A2E0694579547953795F7
:102D90002795BA95C9F7620F731F841F951FA01D51
:102DA00008952F923F924F925F926F927F928F92EF
:102DB0009F92AF92BF92CF92DF92EF92FF920F93CA
:102DC0001F93CF93DF93CDB7DEB7CA1BDB0B0FB6D4
:102DD000F894DEBF0FBECDBF09942A883988488891
:102DE0005F846E847D848C849B84AA84B984C88427
:102DF000DF80EE80FD800C811B81AA81B981CE0F1E
:102E0000D11D0FB6F894DEBF0FBECDBFED01089502
:102E100010E0CFE5D0E004C0FE010E94211221960F
:0A2E2000C036D107C9F7F894FFCFC0
:102E2A0000002D0420005106510601000040001444
:102E3A0000540055703A4F70656E20446E436C6FB3
:102E4A0073654C66743A4461792052743A4E6967E4
:102E5A006874004D61696E204D656E750053656C2E
:102E6A003A457363617065004F70656E696E6720DD
:102E7A00446F6F7200436C6F73696E6720446F6FA3
:102E8A007200446179204D6F646520202020202043
:102E9A002020546D703A2573204C68743A257300CB
:102EAA004E69676874204D6F6465202020202020B9
:102EBA00546D703A2573204C68743A257300436C3C
:102ECA006F73696E6700436C6F736520436F6D7033
:102EDA006C6574650052656C61792070696E732047
:102EEA0073657420746F206F7574707574004F70F9
:102EFA00656E696E67004F70656E20436F6D706C0A
:102F0A0065746500456D657267656E637900456D28
:102F1A00657267656E63792046696E697368656470
:102F2A00004552524F520045525220436865636B26
:102F3A004C696768743A20496E76616C69642054FA
:102F4A00696D654F664461792041726720506173EB
:102F5A0073656400000000007704EE053804C404B9
:102F6A000A04240416040D0A006E616E00696E6676
:102F7A00006F766600000000004E0CEE054B054E11
:102F8A000500000000F50EC80E4B05910E660E6E88
:042F9A000E820E0095
:00000001FF
