:100000000C9465000C9478050C94B4050C94360699
:100010000C948D000C94F0050C948D000C948D00C4
:100020000C948D000C948D000C948D000C948D001C
:100030000C948D000C948D000C948D000C948D000C
:100040000C94D3080C948D000C94CF070C940108E9
:100050000C948D000C948D000C948D000C948D00EC
:100060000C941A130C948D0000000008000201008B
:100070000003040700000000000000000102040863
:100080001020408001020408102001020408102002
:10009000040404040404040402020202020203032E
:1000A00003030303000000002300260029000000D2
:1000B0000000250028002B0000000000240027007D
:1000C0002A00720631081712820611241FBECFEFD4
:1000D000D8E0DEBFCDBF12E0A0E0B1E0EAEBF2E392
:1000E00002C005900D92A23CB107D9F724E0A2EC22
:1000F000B2E001C01D92A136B207E1F710E0C4E6FC
:10010000D0E004C02197FE010E946914C136D107D6
:10011000C9F70E945F080C9450190C940000EF92EC
:10012000FF920F931F93CF93DF93EC017B018A0122
:100130000E94710D40E060E0CE010E94780DB70191
:10014000CE010E94AF0841E060E0CE010E94780D30
:10015000B801CE010E94AF0840E060E0CE01DF911F
:10016000CF911F910F91FF90EF900C94780D0F930A
:100170001F93CF93DF93CDB7DEB72C970FB6F894CC
:10018000DEBF0FBECDBF8C0167E972E0CE010796DE
:100190000E94FF0AF80182A593A5009719F0019724
:1001A00041F00EC0B801605D7F4FCE0107960E94FE
:1001B000510BB8016A5C7F4FCE0107960E94510B2C
:1001C000F80146A557A584A595A54817590714F425
:1001D00015A614A6F80124A535A54217530741F426
:1001E0002B853C8594E0440F551F9A95E1F70AC092
:1001F0002F5F3F4F84E0220F331F8A95E1F7A9015B
:1002000040515109BE01695F7F4FCE0101960E94A6
:10021000940BBE016F5F7F4FCE0107960E94710B5A
:10022000CE0101960E94910AF80142A560E0C80142
:100230000E94780DBE01695F7F4FC8010E94AF0820
:1002400040E060E0C8010E94780DF80104A515A502
:100250000F5F1F4FCE0107960E94910AC8012C968E
:100260000FB6F894DEBF0FBECDBFDF91CF911F91C7
:100270000F9108954F925F926F927F928F929F920B
:10028000AF92BF92CF92DF92EF92FF920F931F93A4
:10029000CF93DF93CDB7DEB72C970FB6F894DEBFC0
:1002A0000FBECDBF4C013B012A01B22EC0960E9469
:1002B000510BB201C401C6960E94510BF401F7A67E
:1002C000E6A6D3A6C2A6F80180819181F401978F9A
:1002D000868FF80182819381F40191A380A3F801B4
:1002E00084819581F40193A382A3F801868197818B
:1002F000F40195A384A3F80180859185F40197A367
:1003000086A36B2DC4010E94070CF401A4AEA110BA
:100310001EC015A614A6B201CE0101960E94680B5C
:10032000B301CE0107960E94680BAE014F5F5F4F8D
:10033000BE01695F7F4FC4010E948F00CE01079606
:100340000E94910ACE0101960E94910A06C0C40142
:100350000E94B700F40195A784A72C960FB6F894D5
:10036000DEBF0FBECDBFDF91CF911F910F91FF90E8
:10037000EF90DF90CF90BF90AF909F908F907F9045
:100380006F905F904F9008956F927F928F929F929F
:10039000AF92CF92DF92EF92FF920F931F93CF9382
:1003A000DF93CDB7DEB7E6970FB6F894DEBF0FBE8A
:1003B000CDBF3C01442319F00E94B700FAC0CE0122
:1003C00001964C016230710509F452C0DCF46115EC
:1003D000710539F16130710509F0B2C01AA219A294
:1003E0008FEF9FEF9CA38BA39EA38DA398A78FA3B2
:1003F0009AA789A76AE371E0C4010E94FF0A65E435
:1004000071E049C06330710509F455C0643071056D
:1004100009F096C01F930F933F932F938CE791E0C1
:1004200050C08FEF9FEF9AA389A381E090E09CA337
:100430008BA382E090E09EA38DA383E090E098A739
:100440008FA384E090E09AA789A76FE071E0C401D0
:100450000E94FF0A60E371E0CE018B960E94FF0AC2
:10046000A12CCC24C394D12C52E0E52EF12C8EC0CB
:100470001AA219A28FEF9FEF9CA38BA39EA38DA31B
:1004800098A78FA39AA789A76AE371E0C4010E9485
:10049000FF0A62E571E0CE018B960E94FF0AA12C53
:1004A000CC24CA94DC2CE12CF12C8E010F5D1F4F63
:1004B00023E030E070C01F930F933F932F938FE59D
:1004C00091E09F938F939F928F920E9466161AA23B
:1004D00019A28FEF9FEF9CA38BA39EA38DA398A738
:1004E0008FA39AA789A76AE371E0CE018B960E9439
:1004F000FF0AB401CE01C1960E94FF0AA12CC12CB3
:10050000D12CEE24E394F12C8E010F5D1F4F22E0DD
:1005100030E0AE01455D5F4FBE016F5C7F4FC301B0
:100520000E943A01CE01C1960E94910ACE018B969B
:100530000E94910A0FB6F894DEBF0FBECDBF39C03E
:100540008FEF9FEF9AA389A381E090E09CA38BA3F8
:1005500082E090E09EA38DA383E090E098A78FA314
:1005600084E090E09AA789A769E971E0C4010E943C
:10057000FF0A60E371E0CE018B960E94FF0AA12C76
:10058000CC24C394D12CEE24E394F12C8E010F5D86
:100590001F4F22E030E0A401BE01655D7F4FC30123
:1005A0000E943A01CE018B960E94910AC4010E94DA
:1005B000910AE6960FB6F894DEBF0FBECDBFDF916D
:1005C000CF911F910F91FF90EF90DF90CF90AF9060
:1005D0009F908F907F906F9008950F931F93CF936C
:1005E000DF93EC01FB01828193819B838A8388EAFC
:1005F00092E09983888384818C8385818D83868131
:100600008E8388E03796DE01179601900D928A95C9
:10061000E1F785E0FB013F96DE011F9601900D9208
:100620008A95E1F7FB0184898C8B85898D8B86897E
:100630008E8B87898F8B808D888F818D898F828D1E
:100640008A8F838D8B8F67E972E0CE01C0960E94FE
:10065000FF0A67E972E0CE01C6960E94FF0A20E019
:1006600042E060E1CE010E94AE0DCE010E94710D0C
:1006700007E912E0980140E060E070E0CE010E94DE
:10068000C401DF91CF911F910F910895CF92DF9216
:10069000EF92FF920F931F93CF93DF93EC016A01C8
:1006A0007B010E949C0E80FF06C06E8D7F8D6F3F88
:1006B0002FEF720701F583FF06C068A179A16F3F94
:1006C0009FEF7907C1F482FF06C06AA17BA16F3F4B
:1006D0002FEF720781F484FF06C06CA17DA16F3FEC
:1006E0009FEF790741F481FF0EC06EA17FA16F3F9C
:1006F0002FEF720741F007E912E0980140E0CE01C8
:100700000E94C40110C00E941D0928EEC20E23E001
:10071000D21EE11CF11CC616D706E806F90628F021
:10072000CE010E94B70081E001C080E0DF91CF914F
:100730001F910F91FF90EF90DF90CF900895CF938E
:10074000DF93EC0160E089E00E94380A60E08AE013
:100750000E94380A60E089E00E94FC0960E08AE0BB
:100760000E94FC0969EB71E083EF92E00E94C108EE
:10077000BE01DD0F880B990BDF91CF910C944E09D0
:10078000089562307105B1F044F46115710581F08E
:1007900061307105B1F483E012C06430710571F00D
:1007A0005CF06530710569F4FC01828593850895DC
:1007B00082E005C084E003C08CE001C08DE00C94B1
:1007C000670A0895FC016115710521F0613071051A
:1007D00021F00895158614860895848595850196DF
:1007E000958784870895FC0184859585089560ED3B
:1007F00071E083EF92E00E94C10888EE93E00E94CE
:100800009F0380E090E00E949F036AED71E083EF18
:1008100092E00C94C108CA0161110C949F0361E03D
:100820008AE00E94FC0961E089E00E94FC096DEE0B
:1008300071E083EF92E00C94C1086115710571F0CD
:100840006130710599F06F3F7F4FC1F461E089E03D
:100850000E94380A60E08AE00E94380A60E089E07D
:100860000E94380A60E08AE00E94380A60E089E06D
:100870000E94380A61E08AE00C94380A08950F93C8
:100880001F93CF93DF93EC018B017B876A87672BE4
:1008900029F480E090E00E949F0305C040E050E012
:1008A00060E00E940B04B801CE01DF91CF911F914F
:1008B0000F910C941D04FC0162307105B1F03CF401
:1008C0006115710561F06130710561F00895643062
:1008D000710589F06CF06530710581F008955383DE
:1008E0004283089555834483089551834083089536
:1008F000578346830895518740870895BA010C9421
:100900003F04CF92DF92EF92FF927C0166E072E0AB
:1009100083EF92E00E94C10861E070E0C7010E948D
:100920003F040E941D096B017C018CE00E94670A54
:10093000892B39F462E370E080E090E00E944E0978
:10094000F4CF0E941D09DC01CB018C199D09AE0971
:10095000BF0988389341A105B10560F388EB9BE09E
:10096000FF90EF90DF90CF900C949F030F931F9315
:10097000CF93DF93CDB7DEB76C970FB6F894DEBF99
:100980000FBECDBF26E040E855E260E070E083EFA7
:1009900092E00E9466078AEC92E0FC01228133819A
:1009A0003C832B8328EA32E03A83298324812D83F8
:1009B00025812E8326812F8328E0E1EDF2E0DE0100
:1009C000189601900D922A95E1F725E0E9EDF2E005
:1009D000DE01509601900D922A95E1F7FC012489E1
:1009E0002D8B25892E8B26892F8B2789288F208D6B
:1009F000298F218D2A8F228D2B8F838D8C8F8DE3D4
:100A000090E00E946E088C01BE016F5F7F4F0E94D4
:100A1000ED021093C9020093C8028FE090E00E949B
:100A20006E088C010E94C0031093C7020093C60297
:100A300060E08AE00E94FC0960E089E00E94FC0915
:100A400062E082E00E94FC0980E00E94D0091092DE
:100A5000E602E9E6F0E080818A60808383E08DBB76
:100A6000E8E6F0E080818560808378940E941D092B
:100A70006093C2027093C3028093C4029093C50234
:100A80006DE272E083EF92E00E94C1086C960FB6AF
:100A9000F894DEBF0FBECDBFDF91CF911F910F91B4
:100AA00008956BE372E083EF92E00E94C1084091E9
:100AB000C2025091C3026091C4027091C50280913C
:100AC000C8029091C9020E944603882381F063E422
:100AD00072E083EF92E00E94C1080E941D096093BA
:100AE000C2027093C3028093C4029093C50208951A
:100AF0001F920F920FB60F9211242F933F934F9393
:100B00005F936F937F938F939F93AF93BF93EF9375
:100B1000FF936BE472E083EF92E00E94C10861E012
:100B200070E08091C6029091C7020E94E20380911A
:100B3000C6029091C7020E9481048091C6029091E2
:100B4000C7020E94F303FF91EF91BF91AF919F9174
:100B50008F917F916F915F914F913F912F910F9066
:100B60000FBE0F901F9018951F920F920FB60F9205
:100B700011242F933F934F935F936F937F938F93A2
:100B80009F93AF93BF93EF93FF9369E572E083EF79
:100B900092E00E94C10861E070E08091C6029091ED
:100BA000C7020E94E2038091C6029091C7020E9490
:100BB000F7038091C6029091C7020E94F303FF9150
:100BC000EF91BF91AF919F918F917F916F915F91C5
:100BD0004F913F912F910F900FBE0F901F9018953E
:100BE0001F920F920FB60F9211242F933F934F93A2
:100BF0005F936F937F938F939F93AF93BF93EF9385
:100C0000FF9367E672E083EF92E00E94C10865E01F
:100C100070E08091C6029091C7020E94C1030196C4
:100C2000A1F461E070E08091C6029091C7020E9439
:100C3000E2038091C6029091C7020E9481048091D4
:100C4000C6029091C7020E94F303FF91EF91BF91FA
:100C5000AF919F918F917F916F915F914F913F9154
:100C60002F910F900FBE0F901F9018951F920F920B
:100C70000FB60F9211242F933F934F935F936F936F
:100C80007F938F939F93AF93BF93EF93FF9365E70A
:100C900072E083EF92E00E94C10841E050E063E01F
:100CA00070E08091C6029091C7020E945B0440E010
:100CB00050E065E070E08091C6029091C7020E940A
:100CC0005B04FF91EF91BF91AF919F918F917F91C5
:100CD0006F915F914F913F912F910F900FBE0F90A9
:100CE0001F90189567E972E08DEE92E00E94FF0A6E
:100CF00067E972E087EE92E00E94FF0A8AEC92E0D8
:100D00000C94D90B87EE92E00E94910A8DEE92E04E
:100D10000C94910AFC01918D228D892F90E0805CCA
:100D20009F4F821B91098F7399270895FC01918D24
:100D3000828D981731F0828DE80FF11D858D90E03E
:100D400008958FEF9FEF0895FC01918D828D981784
:100D500061F0828DDF01A80FB11D5D968C91928D9F
:100D60009F5F9F73928F90E008958FEF9FEF08959C
:100D7000FC01538D448D252F30E0842F90E0821BA1
:100D8000930B541710F0CF9608950197089587E2BA
:100D900098E0892B49F080E090E0892B29F00E94AF
:100DA000270881110C9400000895FC01848DDF0157
:100DB000A80FB11DA35ABF4F2C91848D90E00196CE
:100DC0008F739927848FA689B7892C93A089B189BD
:100DD0008C91837080648C93938D848D981306C05E
:100DE0000288F389E02D80818F7D80830895EF92C2
:100DF000FF920F931F93CF93DF93EC0181E0888FD5
:100E00009B8D8C8D981305C0E889F989808185FDBB
:100E100026C0F62E0B8D10E00F5F1F4F0F731127AA
:100E2000E02E8C8DE8120CC00FB607FCFACFE889D3
:100E3000F989808185FFF5CFCE010E94D506F1CFDB
:100E40008B8DFE01E80FF11DE35AFF4FF0829FB733
:100E5000F8940B8FEA89FB89808180620AC09FB772
:100E6000F894EE89FF896083E889F989808183702D
:100E7000806480839FBF81E090E0DF91CF911F91DC
:100E80000F91FF90EF900895CF93DF93EC01888D41
:100E90008823C9F0EA89FB89808185FD05C0A8897E
:100EA000B9898C9186FD0FC00FB607FCF5CF808104
:100EB00085FFF2CFA889B9898C9185FFEDCFCE014E
:100EC0000E94D506E7CFDF91CF910895CF92DF92B0
:100ED000EF92FF921F93CF93DF93EC016A017B01A6
:100EE000122FE889F98982E080834115514E61050E
:100EF0007105B1F060E079E08DE390E0A701960123
:100F00000E944714DA01C9010197A109B109B695F8
:100F1000A795979587959C01211580E13807A8F042
:100F2000E889F989108260E874E88EE190E0A70111
:100F300096010E944714DA01C9010197A109B1097C
:100F4000B695A795979587959C01EC85FD8530838F
:100F5000EE85FF852083188EEC89FD891083EA8950
:100F6000FB89808180618083EA89FB898081886038
:100F70008083EA89FB89808180688083EA89FB8994
:100F800080818F7D8083DF91CF911F91FF90EF90C3
:100F9000DF90CF90089580E090E0089508951F922B
:100FA0000F920FB60F9211242F938F939F93EF936D
:100FB000FF93E0910303F09104038081E091090322
:100FC000F0910A0382FD12C0908180910C038F5F23
:100FD0008F7320910D03821751F0E0910C03F0E024
:100FE000ED50FD4F958F80930C0301C08081FF91E0
:100FF000EF919F918F912F910F900FBE0F901F90A7
:1010000018951F920F920FB60F9211242F933F93B2
:101010004F935F936F937F938F939F93AF93BF9300
:10102000EF93FF9383EF92E00E94D506FF91EF913B
:10103000BF91AF919F918F917F916F915F914F91F0
:101040003F912F910F900FBE0F901F90189583EF37
:1010500092E00E948A0621E0892B09F420E0822F89
:101060000895E3EFF2E01382128288EE93E0A0E0AD
:10107000B0E084839583A683B78387E892E0918369
:10108000808385EC90E09587848784EC90E0978757
:10109000868780EC90E0918B808B81EC90E0938B45
:1010A000828B82EC90E0958B848B86EC90E0978B22
:1010B000868B118E128E138E148E089508950E94C1
:1010C00095090E945E080E94B604C7ECD6E00E9413
:1010D00051052097E1F30E94C706F9CF0C946F14D5
:1010E000CF92DF92EF92FF920F931F93CF93DF93F4
:1010F0006C017A018B01C0E0D0E0CE15DF0581F0F4
:10110000D8016D918D01D601ED91FC910190F08196
:10111000E02DC6010995892B11F02196EECF7E01B5
:10112000C701DF91CF911F910F91FF90EF90DF905A
:10113000CF9008956115710579F0FB0101900020B1
:10114000E9F73197AF01461B570BDC01ED91FC919C
:101150000280F381E02D099480E090E00895DB01A6
:1011600014964D915C9115976D917C91DC01ED91F8
:10117000FC910280F381E02D099465E972E00C9402
:101180009A080F931F93CF93DF93EC010E949A0864
:101190008C01CE010E94BD08800F911FDF91CF917D
:1011A0001F910F9108951F920F920FB60F92112465
:1011B0002F933F938F939F93AF93BF93809191030E
:1011C00090919203A0919303B09194033091900376
:1011D00023E0230F2D3720F40196A11DB11D05C07A
:1011E00026E8230F0296A11DB11D20939003809342
:1011F000910390939203A0939303B09394038091EF
:10120000950390919603A0919703B091980301964E
:10121000A11DB11D8093950390939603A09397030E
:10122000B0939803BF91AF919F918F913F912F9170
:101230000F900FBE0F901F9018952FB7F8946091E4
:1012400091037091920380919303909194032FBF27
:1012500008953FB7F8948091950390919603A091DB
:101260009703B091980326B5A89B05C02F3F19F0AE
:101270000196A11DB11D3FBFBA2FA92F982F882716
:10128000820F911DA11DB11DBC01CD0142E0660F71
:10129000771F881F991F4A95D1F708958F929F92C3
:1012A000AF92BF92CF92DF92EF92FF926B017C01DF
:1012B0000E9429094B015C01C114D104E104F1042D
:1012C00001F10E941B120E942909DC01CB0188193F
:1012D0009909AA09BB09883E9340A105B10560F3AD
:1012E00021E0C21AD108E108F10888EE880E83E0F7
:1012F000981EA11CB11CC114D104E104F10419F71A
:10130000DBCFFF90EF90DF90CF90BF90AF909F909A
:101310008F9008958230910538F0880F991F880FBB
:10132000991F05970197F1F70895789484B5826025
:1013300084BD84B5816084BD85B5826085BD85B579
:10134000816085BDEEE6F0E0808181608083E1E828
:10135000F0E0108280818260808380818160808360
:10136000E0E8F0E0808181608083E1EBF0E0808163
:1013700084608083E0EBF0E0808181608083EAE735
:10138000F0E08081846080838081826080838081BE
:10139000816080838081806880831092C10008957D
:1013A000809306010895833081F028F4813099F00C
:1013B0008230A1F008958730A9F08830B9F08430E8
:1013C000D1F4809180008F7D03C0809180008F7761
:1013D00080938000089584B58F7702C084B58F7D97
:1013E00084BD08958091B0008F7703C08091B000D4
:1013F0008F7D8093B0000895CF93DF9390E0FC0140
:10140000E458FF4F2491FC01E057FF4F849188235B
:1014100061F190E0880F991FFC01E854FF4FC591DE
:10142000D491FC01E255FF4FA591B491611109C01F
:101430009FB7F8948881209582238883EC912E238E
:101440000BC0623061F49FB7F8948881322F3095D9
:1014500083238883EC912E2B2C939FBF06C08FB7DC
:10146000F894E8812E2B28838FBFDF91CF910895C8
:101470001F93CF93DF93282F30E0F901E859FF4FF6
:101480008491F901E458FF4FD491F901E057FF4FDF
:10149000C491CC23C1F0162F81110E94D309EC2FE7
:1014A000F0E0EE0FFF1FE255FF4FA591B4919FB7FB
:1014B000F894111104C08C91D095D82302C0EC91FE
:1014C000DE2BDC939FBFDF91CF911F910895CF93C7
:1014D000DF93282F30E0F901E859FF4F8491F9019B
:1014E000E458FF4FD491F901E057FF4FC491CC234A
:1014F00091F081110E94D309EC2FF0E0EE0FFF1F55
:10150000EC55FF4FA591B491EC91ED2381E090E073
:1015100021F480E002C080E090E0DF91CF91089557
:101520000895FC01808191810C940715CF93DF937E
:10153000EC0188819981009711F00E9407151982AA
:1015400018821D821C821B821A82DF91CF9108951E
:101550000F931F93CF93DF93EC018B016F5F7F4F4E
:10156000888199810E949015009731F09983888332
:101570001B830A8381E001C080E0DF91CF911F913E
:101580000F910895CF93DF93EC0188819981892B86
:1015900029F08A819B818617970760F4CE010E940B
:1015A000A80A882341F08C819D81892B19F4E88158
:1015B000F981108281E0DF91CF910895EF92FF923F
:1015C0000F931F93CF93DF93EC017B018A01BA0144
:1015D0000E94C20A811104C0CE010E94960A07C06F
:1015E0001D830C83B701888199810E945F16CE010B
:1015F000DF91CF911F910F91FF90EF900895FC0123
:101600001182108213821282158214826115710573
:1016100051F0FB0101900020E9F73197AF01461B23
:10162000570B0C94DE0A08950F931F93CF93DF930B
:101630008C01EB01FC01808191810097D1F06881E0
:1016400079816115710599F020E93AE0232B79F051
:10165000428153812C813D814217530740F00E9403
:101660005F168C819D81F8019583848313C00E944D
:10167000071588819981F801918380838A819B81F4
:10168000938382838C819D819583848319821882C0
:101690001B821A821D821C82DF91CF911F910F91B4
:1016A0000895CF93DF93EC01FB018617970761F054
:1016B000608171816115710529F0448155810E9415
:1016C000DE0A02C00E94960ACE01DF91CF910895F2
:1016D000FC011182108213821282158214820C94F2
:1016E000510BCF93DF93EC018617970711F00E94FF
:1016F000140BCE01DF91CF910895CF93DF93EC01CE
:101700006115710559F0FB0101900020E9F731974F
:10171000AF01461B570B0E94DE0A02C00E94960AC8
:10172000CE01DF91CF910895BF92CF92DF92EF92D9
:10173000FF920F931F93CF93DF937C016B018A017C
:10174000E9012417350720F4812F8901C42FD82FF0
:1017500067E972E0C7010E94FF0AD60114968D91D5
:101760009C91159708171907C8F48C179D0708F462
:10177000EC01D601ED91FC911197EC0FFD1FB080AB
:1017800010826D917C91600F711FC7010E947D0BCB
:10179000D601ED91FC91EC0FFD1FB082C701DF91E6
:1017A000CF911F910F91FF90EF90DF90CF90BF905E
:1017B0000895FC011382128288EA92E0918380836B
:1017C000128E148A8FE084838EE085838DE0868379
:1017D0008CE087838BE080878AE0818789E082873D
:1017E000178681E0808B82E0818B83E0828B84E0AE
:1017F000838B0895FC01962F828D8F3F21F0CF01BE
:101800004B960C944510642F892F0C94380A0F9333
:101810001F93CF93DF93D62F8C01055E1F4FC1E03E
:1018200062FB442740F94C2768E0C8010E9445103C
:10183000D1FB442740F94C2767E0C8010E944510BE
:101840004D2F41704C2766E0C801DF91CF911F9169
:101850000F910C944510FC01962F828D8F3F21F043
:10186000CF014B960C941E0F642F892F0C94FC090A
:10187000CF93DF93EC0140E06E810E94FA0B81E090
:1018800090E00E948A0941E06E81CE010E94FA0B2D
:1018900081E090E00E948A0940E06E81CE010E94C2
:1018A000FA0B84E690E0DF91CF910C948A09AF9215
:1018B000BF92CF92DF92EF92FF920F931F93CF933D
:1018C000DF938C01FC01828D9801295F3F4F7901E4
:1018D000C62FD0E08F3F09F473C068013BE1C30E0F
:1018E000D11CC6010E94800FF70140E050E0A1E04A
:1018F000B0E0B190EE24E394F12CBD010B2C02C0BA
:10190000660F771F0A94E2F76095709586239723F8
:101910009E01042E02C0359527950A94E2F72170A6
:10192000332702C0220F331FBA94E2F7822B932B86
:101930004F5F5F4F44305105E1F6E701F801068043
:1019400002C0CC0FDD1F0A94E2F7C095D095C823E2
:10195000D923BE01C6010E94030F81E090E00E94DE
:101960008A09C701F801068002C0880F991F0A94EE
:10197000E2F7C82BD92BBE01C6010E94030F81E0FC
:1019800090E00E948A09B701F801068002C0660F44
:10199000771F0A94E2F7609570956C237D23C6014A
:1019A0000E94030F84E690E0DF91CF911F910F9189
:1019B000FF90EF90DF90CF90BF90AF900C948A098A
:1019C000C12CD12C570141E0F70161917F01C80181
:1019D0000E942B0CAE010C2C02C0559547950A9421
:1019E000E2F74170F5016081C8010E94FA0BFFEF38
:1019F000CF1ADF0A24E0C216D10421F7C801DF9113
:101A0000CF911F910F91FF90EF90DF90CF90BF90FB
:101A1000AF900C94380CAF92BF92CF92DF92EF92BE
:101A2000FF920F931F93CF93DF93EC015C0187E04C
:101A3000A80EB11C00E010E0E62EF12C650141E09B
:101A4000F50161915F01CE010E942B0CA701002ED0
:101A500002C0559547950A94E2F74170F6016081FE
:101A6000CE010E94FA0B0F5F1F4F0830110531F7AE
:101A7000CE01DF91CF911F910F91FF90EF90DF90FA
:101A8000CF90BF90AF900C94380C1F93CF93DF93FF
:101A9000EC01162F6C810E94FA0B6D816F3F21F0D3
:101AA00040E0CE010E94FA0B8C89612F84FF06C0B2
:101AB000CE01DF91CF911F910C940B0D70E084E06B
:101AC000759567958A95E1F7CE010E94570C612FB5
:101AD000CE01DF91CF911F910C94570C40E00C94F4
:101AE000450D61E00E946E0D80ED97E00C948A092F
:101AF000CF93DF93CDB7DEB728970FB6F894DEBF4C
:101B00000FBECDBF9C0188E0E7E0F1E0DE01119659
:101B100001900D928A95E1F7F901808D841710F4F8
:101B20004FEF480FFE013196E40FF11DE40FF11D58
:101B30009081690F6068C90128960FB6F894DEBFDE
:101B40000FBECDBFDF91CF910C946E0DFC01658966
:101B5000262F2460258B6C600C946E0D8F929F92C3
:101B6000AF92BF92CF92DF92EF92FF920F931F93AB
:101B7000CF93DF93EC01D42EC22E8A8D8F3F41F498
:101B800081E08D1508F05EC08C8988608C8B5AC00E
:101B900089E993E00E947C118E01055E1F4FC80108
:101BA0000E94000F41E068E0C8010E941E0F41E062
:101BB00066E0C8010E941E0F41E067E0C8010E9474
:101BC0001E0F67E0CE010E94070C6D81662321F095
:101BD00041E0C8010E941E0F41E06C81C8010E94D3
:101BE0001E0F41E06E81C8010E941E0F7E01E7E0DA
:101BF000EE0EF11C5E01FBE0AF0EB11CF70161912E
:101C00007F0141E0C8010E941E0FEA14FB04B1F7F6
:101C10007E01FFE0EF0EF11C5E0184E1A80EB11C15
:101C2000470140E0F70161917F01C8010E941E0F4A
:101C300041E0F4016081C8010E94E20FEA14FB0454
:101C400079F79ECFD88E198ECC2031F0F1E0DF12DB
:101C500003C08C8984608C8B80E593EC0E948A0998
:101C600040E06C81CE010E94FA0B40E06E81CE0113
:101C70000E94FA0B6D816F3F21F040E0CE010E947F
:101C8000FA0B6C8964FD1DC063E0CE010E94570C05
:101C900084E991E10E948A0963E0CE010E94570C19
:101CA00084E991E10E948A0963E0CE010E94570C09
:101CB00086E990E00E948A0962E0CE010E94570CFA
:101CC00016C06062CE010E946E0D84E991E10E940F
:101CD0008A096C896062CE010E946E0D86E990E0EF
:101CE0000E948A096C896062CE010E946E0D6C8927
:101CF0006062CE010E946E0D84E08D8BCE010E9449
:101D0000A60DCE010E94710D82E08E8B66E0CE01A1
:101D1000DF91CF911F910F91FF90EF90DF90CF90C7
:101D2000BF90AF909F908F900C946E0D41E00E94F9
:101D3000450D81E090E00895DF92EF92FF920F93BE
:101D40001F93CF93DF937C012FE0E20EF11CC0E0E4
:101D5000D0E02FE1D22E8C01055E1F4FF70161917B
:101D60007F01C8010E94A90F282F30E00C2E02C06D
:101D7000220F331F0A94E2F720953095D222219644
:101D8000C530D10559F78D2DDF91CF911F910F915E
:101D9000FF90EF90DF900895682F89E993E00C940D
:101DA0003D11CF93DF93EC01683008F067E0688362
:101DB00089E993E00E947C116881606270E089E9A2
:101DC00093E00E94981180E00E94CC0E8FEF0E9459
:101DD000CC0E89E993E00E9414126881606270E081
:101DE00089E993E00E94981181E00E94CC0E8FEF68
:101DF0000E94CC0E89E993E0DF91CF910C941412EC
:101E000060E00C94D10ECF93DF93D62FC72FFC0147
:101E10006081606270E089E993E00E94981182E13C
:101E20000E94CC0E8D2F0E94CC0E8C2F0E94CC0EC7
:101E300089E993E0DF91CF910C941412FF920F93F4
:101E40001F93CF93DF938C01C62FD42F603108F0FE
:101E500051C0683020F0C850FF24F39401C0F12C29
:101E6000F8016081606270E089E993E00E94981156
:101E70008F2D0E94CC0E89E993E00E941412F80184
:101E80006081606270E041E050E089E993E00E9487
:101E9000111289E993E00E94B61021E030E0D111DF
:101EA00009C0A90102C0440F551FCA95E2F7EA0113
:101EB000C82B09C0F90102C0EE0FFF1FCA95E2F757
:101EC000EF01C095C823F8016081606270E089E984
:101ED00093E00E9498118F2D0E94CC0E8C2F0E94AF
:101EE000CC0E89E993E0DF91CF911F910F91FF9084
:101EF0000C941412DF91CF911F910F91FF900895D0
:101F0000CF93DF93EC016881606270E089E993E030
:101F10000E94981182E10E94CC0E89E993E00E9410
:101F200014126881606270E042E050E089E993E059
:101F30000E94111289E993E00E94B610C82F89E926
:101F400093E00E94B610982F88278C2BDF91CF91B9
:101F500008950F931F93CF93DF938C01C62F6031A9
:101F600058F5683018F0C850D3E101C0D2E1F8014B
:101F70006081606270E089E993E00E9498118D2F82
:101F80000E94CC0E89E993E00E941412F80160814E
:101F9000606270E041E050E089E993E00E94111234
:101FA00089E993E00E94B610992702C0959587951C
:101FB000CA95E2F7817001C080E0DF91CF911F9157
:101FC0000F910895FF920F931F93CF93DF938C018E
:101FD000C62FD42F603108F052C0683020F0C850AE
:101FE0009DE0F92E02C08CE0F82EF801608160625D
:101FF00070E089E993E00E9498118F2D0E94CC0E29
:1020000089E993E00E941412F8016081606270E037
:1020100041E050E089E993E00E94111289E993E0E0
:102020000E94B61021E030E0D13049F4A90102C08D
:10203000440F551FCA95E2F7EA01C82B09C0F90100
:1020400002C0EE0FFF1FCA95E2F7EF01C095C8234B
:10205000F8016081606270E089E993E00E94981164
:102060008F2D0E94CC0E8C2F0E94CC0E89E993E01C
:10207000DF91CF911F910F91FF900C941412DF917B
:10208000CF911F910F91FF900895EF92FF920F93C0
:102090001F93CF93DF938C01C62FE42E603108F09D
:1020A00056C0683028F0C850D5E193E1F92E03C03E
:1020B000D4E182E1F82EF8016081606270E089E984
:1020C00093E00E9498118D2F0E94CC0E89E993E035
:1020D0000E941412F8016081606270E041E050E0FB
:1020E00089E993E00E94111289E993E00E94B610F9
:1020F000F1E021E030E0EF1209C0A90102C0440F75
:10210000551FCA95E2F7EA01C82B09C0F90102C0C0
:10211000EE0FFF1FCA95E2F7EF01C095C823F80143
:102120006081606270E089E993E00E9498118F2DD0
:102130000E94CC0E8C2F0E94CC0E89E993E0DF9197
:10214000CF911F910F91FF90EF900C941412DF919B
:10215000CF911F910F91FF90EF9008958091CD0343
:1021600090E02091CE03821B910908959091CE03B7
:102170008091CD03981750F4E92FF0E0E153FC4F24
:10218000208130E09F5F9093CE0302C02FEF3FEF9E
:10219000C9010895E091CE038091CD03E81730F492
:1021A000F0E0E153FC4F808190E008958FEF9FEFC6
:1021B00008950895CF93DF93EC01E091A503F0918A
:1021C000A6033097F1F09091CE038091CD0398173C
:1021D000C0F090E0292F30E02617370754F4DE01D5
:1021E000A20FB31F4C91D901A153BC4F4C939F5FD9
:1021F000F1CF1092CE036093CD03CB01DF91CF914D
:102200000994DF91CF910895E091A703F091A8037D
:10221000309729F01092AB031092AA030994089505
:10222000CF92DF92EF92FF920F931F93CF93DF93A2
:102230007C01CB018A012091A903222389F0EB01C3
:102240006B01C40ED51ECC15DD0569F06991D7016F
:10225000ED91FC910190F081E02DC7010995F3CF3C
:10226000642F0E94D812C801DF91CF911F910F9166
:10227000FF90EF90DF90CF900895CF93DF931F9260
:10228000CDB7DEB769832091A9032223D1F0209135
:10229000AA03203240F021E030E0FC0133832283A6
:1022A00080E090E015C08091AB03E82FF0E0E455AA
:1022B000FC4F998190838F5F8093AB038093AA0337
:1022C00005C061E0CE0101960E94D81281E090E045
:1022D0000F90DF91CF910895FC011382128288EE56
:1022E00093E0A0E0B0E084839583A683B78384EB7A
:1022F00092E09183808308951092CE031092CD03D3
:102300001092AB031092AA030E941C1284E091E188
:102310000E9405138AED90E10C94001381E08093F4
:10232000A9036093CC031092AB031092AA03089503
:102330000C948E110F93062F21E04091AA036CEAB2
:1023400073E08091CC030E9482121092AB03109232
:10235000AA031092A9030F9108954F925F926F9272
:102360007F92AF92BF92CF92EF92FF920F931F9303
:10237000CF93DF935C01F62ED42F28013901EE2094
:1023800021F10E948E11CE2DC43008F0C3E0C1505F
:10239000C0F028E0C29FC0011124A301920104C033
:1023A00056954795379527958A95D2F7CA01B90171
:1023B000D501ED91FC910190F081E02DC5010995C9
:1023C000E6CF60E0C5010E949A114D2FD13208F08E
:1023D00040E22C2D6FEC73E08F2D0E943A12109288
:1023E000CE038093CD03DF91CF911F910F91FF908A
:1023F000EF90CF90BF90AF907F906F905F904F9095
:102400000895CF92EF920F931F93C22EE12C00E01C
:1024100010E098010E94AD111F910F91EF90CF90A5
:10242000089521E00C94011261E00C949A1189E95D
:1024300093E00C946C11089510925C0481E08093F9
:102440005A041092590461E082E10E94380A61E066
:1024500083E10E94380AE9EBF0E080818E7F80837F
:1024600080818D7F808388E48093B80085E48093A9
:10247000BC000895413208F043C090915C04911172
:10248000FCCF91E090935C0420935A042FEF2093AB
:10249000EF0310923404240F2093330490935B04D1
:1024A00090915B04880F892B80935B048091590481
:1024B000813061F41092590480915B048093BB00D9
:1024C0008091BC0083FDF8CF85EC01C085EE809340
:1024D000BC0080915C048130E1F380913404841766
:1024E00010F440913404A5E3B4E0962FFB018E2F45
:1024F000891B841718F48D918193F9CF842F089547
:1025000080E008950F93413208F04AC090915C0436
:102510009111FCCF32E030935C0400935A043FEFFA
:102520003093EF031092340440933304562FA5E305
:10253000B4E0FB013E2F351B341718F431913D9365
:10254000F9CF10925B0430915B04880F832B80934A
:102550005B0480915904813061F410925904809198
:102560005B048093BB008091BC0083FDF8CF85ECB9
:1025700001C085EE8093BC00222321F080915C0491
:102580008230D1F38091EF038F3F79F08091EF0398
:10259000803241F08091EF03803331F094E005C048
:1025A00091E003C092E001C093E0892F0F9108955C
:1025B00040911104262F30E0240F311D21323105C6
:1025C000DCF420915C042430C9F4FC0180E090E04C
:1025D000861758F4309111042191DC01AD5EBB4F98
:1025E000A30FB11D2C930196F3CF80911104680FB6
:1025F0006093110480E0089581E0089582E00895D9
:1026000090935604809355040895909358048093B2
:102610005704089585ED8093BC008091BC0084FD33
:10262000FCCF10925C04089585EC8093BC0010925E
:102630005C0408951F920F920FB60F9211242F93EE
:102640003F934F935F936F937F938F939F93AF933A
:10265000BF93EF93FF938091B900887F803609F490
:102660009EC078F5883209F45DC090F4803109F499
:1026700056C038F4882309F4F5C0883009F44FC0F7
:10268000F5C0883109F44EC0803209F45FC0EEC055
:10269000803409F46AC058F4803309F457C0883391
:1026A00009F0E4C08093EF030E941413DFC080356B
:1026B00009F44FC0883509F45DC0883409F0D6C0EC
:1026C000D3C0883909F4C4C0A8F4883709F467C0B6
:1026D00038F4883609F463C0803709F460C0C6C096
:1026E000883809F4B5C0803909F45FC0803809F032
:1026F000BDC05BC0803B09F483C038F4803A09F464
:1027000066C0883A09F47CC0B1C0803C09F4A4C01A
:10271000883C09F4A1C0883B09F487C0A7C0809118
:102720005B0410C09091340480913304981770F5C5
:10273000E091340481E08E0F80933404F0E0EB5C90
:10274000FB4F80818093BB0085EC83C08093EF03B7
:102750008BC0E091340481E08E0F8093340480912B
:10276000BB00F0E0EB5CFB4F8083909134048091E0
:1027700033046BC0E091340481E08E0F8093340405
:102780008091BB00F0E0EB5CFB4F808380915A04AA
:1027900081116AC081E08093590484EA5EC083E0BD
:1027A00080935C041092F003CFCF8091F0038032CD
:1027B00008F04EC0E091F00381E08E0F8093F003AB
:1027C0008091BB00F0E0EF50FC4F8083BDCF0E94B2
:1027D00014138091F003803230F4E091F003F0E0C4
:1027E000EF50FC4F10826091F00370E0E0915504CF
:1027F000F091560481EF93E009951092F00336C0F2
:1028000084E080935C041092120410921104E09111
:102810005704F0915804099580911104811105C065
:1028200081E08093110410921304E091120481E07E
:102830008E0F80931204F0E0ED5EFB4F8081809359
:10284000BB009091120480911104981708F47CCF7A
:1028500085E88093BC000AC085EC8093BC00109290
:102860005C0404C01092EF030E940A13FF91EF91E1
:10287000BF91AF919F918F917F916F915F914F9198
:102880003F912F910F900FBE0F901F901895A1E2CE
:102890001A2EAA1BBB1BFD010DC0AA1FBB1FEE1FDA
:1028A000FF1FA217B307E407F50720F0A21BB30B25
:1028B000E40BF50B661F771F881F991F1A9469F7A1
:1028C00060957095809590959B01AC01BD01CF01FD
:1028D0000895EE0FFF1F0590F491E02D09940F93DA
:1028E0001F93CF93DF938230910510F482E090E044
:1028F000E0915F04F091600420E030E0A0E0B0E0FF
:10290000309719F14081518102811381481759078D
:10291000C8F08417950769F4109731F012960C935C
:10292000129713961C9327C000935F0410936004C2
:1029300022C02115310519F04217530718F49A01E6
:10294000BD01EF01DF01F801DBCF21153105F9F001
:10295000281B390B2430310580F48A819B81611555
:10296000710521F0FB019383828304C0909360047E
:1029700080935F04FE01329644C0FE01E20FF31F14
:102980008193919322503109398328833AC0209151
:102990005D0430915E04232B41F4209102013091BB
:1029A000030130935E0420935D0420910001309177
:1029B00001012115310541F42DB73EB740910401C5
:1029C00050910501241B350BE0915D04F0915E04EC
:1029D000E217F307A0F42E1B3F0B2817390778F0F6
:1029E000AC014E5F5F4F2417350748F04E0F5F1F55
:1029F00050935E0440935D048193919302C0E0E0A4
:102A0000F0E0CF01DF91CF911F910F910895CF9307
:102A1000DF93009709F481C0FC0132971382128280
:102A2000A0915F04B0916004109781F420813181FE
:102A3000820F931F20915D0430915E04281739079F
:102A400051F5F0935E04E0935D0467C0ED0120E072
:102A500030E0CE17DF0740F44A815B819E014115CB
:102A60005105F1F0EA01F5CFD383C2834081518152
:102A7000840F951FC817D90759F488819981840F4D
:102A8000951F0296918380838A819B8193838283A1
:102A90002115310529F4F0936004E0935F043DC0F3
:102AA000E901FB83EA8349915991C40FD51FEC17C3
:102AB000FD0761F480819181840F951F0296E901E1
:102AC00099838883828193819B838A83E0E0F0E00D
:102AD00012968D919C911397009719F0FD01DC01DE
:102AE000F7CF8D919C9111979D012E5F3F4F820FE3
:102AF000931F20915D0430915E042817390769F413
:102B0000309729F41092600410925F0402C013827F
:102B10001282B0935E04A0935D04DF91CF9108957B
:102B2000A0E0B0E0E6E9F5E10C941D19EC01009796
:102B300021F4CB010E946F14B4C0FC01E60FF71F13
:102B40009C0122503109E217F30708F4A8C0D9010B
:102B50000D911C91119706171707B0F0053011055C
:102B600008F49BC0C80104978617970708F495C01E
:102B700002501109061B170B019311936D937C935F
:102B8000CF010E94071589C05B01A01AB10A4C0150
:102B9000800E911EA0915F04B0916004612C712C95
:102BA000E12CF12C109709F446C08D919C9111975E
:102BB000A815B905B1F56C0142E0C40ED11CCA14C8
:102BC000DB0478F14C018A189B08640142E0C40ED2
:102BD000D11C1296BC9012971396AC91B5E0CB160F
:102BE000D10440F0B282A38391828082D9016D9397
:102BF0007C9309C00E5F1F4F800F911FF9019183D5
:102C00008083EB2DFA2FE114F10431F0D7011396F4
:102C1000FC93EE93129741C0F0936004E0935F043D
:102C20003CC06816790608F43C017D0112960D90AF
:102C3000BC91A02DB7CF80915D0490915E04881661
:102C40009906E1F466167706C8F480910001909128
:102C50000101009741F48DB79EB740910401509156
:102C60000501841B950BE817F907C8F4F0935E047F
:102C7000E0935D04F901718360830FC0CB010E9472
:102C80006F147C01009759F0A801BE010E945616EE
:102C9000CE010E940715C70104C0CE0102C080E02A
:102CA00090E0CDB7DEB7EEE00C943919FB01DC0102
:102CB00002C001900D9241505040D8F70895FB0199
:102CC000DC0101900D920020E1F70895AEE0B0E044
:102CD000ECE6F6E10C9427190D891E8986E08C83B9
:102CE0001A8309838FEF9FE79E838D83AE01475E32
:102CF0005F4F6F89788DCE0101960E948816EF8113
:102D0000F885E00FF11F10822E96E4E00C94431931
:102D1000ABE0B0E0EEE8F6E10C9419196C017B0130
:102D20008A01FC0117821682838181FFCCC1CE010A
:102D300001963C01F6019381F70193FD859193FF84
:102D400081917F01882309F4BAC1853239F493FD5A
:102D5000859193FF81917F01853229F4B60190E03E
:102D60000E947F18E7CF912C212C312CFFE1F31525
:102D7000D8F08B3279F038F4803279F08332A1F4D4
:102D8000232D20611DC08D3261F0803369F4232D25
:102D9000216016C0832D8260382EE32DE4603E2E24
:102DA0002AC0F32DF8601DC037FC2DC020ED280F80
:102DB0002A3040F08E32B9F436FC81C1232D2064D4
:102DC000322E19C036FE06C08AE0989E200D1124CE
:102DD000922E11C0EAE02E9E200D1124222EF32DFA
:102DE000F0623F2E08C08C3621F4832D8068382E87
:102DF00002C0883641F4F70193FD859193FF8191DC
:102E00007F018111B3CF982F9F7D9554933028F483
:102E10000C5F1F4F9FE399830DC0833631F08337DA
:102E200071F0833509F059C021C0F8018081898390
:102E30000E5F1F4F88248394912C530113C02801E7
:102E4000F2E04F0E511CF801A080B18036FE03C0A5
:102E5000692D70E002C06FEF7FEFC5010E9474180A
:102E60004C018201F32DFF773F2E16C0280122E08E
:102E7000420E511CF801A080B18036FE03C0692DBE
:102E800070E002C06FEF7FEFC5010E9469184C012E
:102E9000F32DF0683F2E820133FC1BC0822D90E0A1
:102EA00088169906B0F4B60180E290E00E947F187F
:102EB0002A94F4CFF50137FC859137FE81915F01AB
:102EC000B60190E00E947F1821102A9421E0821A16
:102ED00091088114910471F7E8C0843611F08936A5
:102EE00041F5F80137FE07C06081718182819381CD
:102EF0000C5F1F4F08C060817181072E000C880B8A
:102F0000990B0E5F1F4FF32DFF763F2E97FF09C0E1
:102F100090958095709561957F4F8F4F9F4FF0688A
:102F20003F2E2AE030E0A3010E94BB18882E8618AD
:102F300045C0853731F4232D2F7EB22E2AE030E0B4
:102F400025C0932D997FB92E8F36C1F018F488359E
:102F500079F0B5C0803719F0883721F0B0C0E92F7B
:102F6000E061BE2EB4FE0DC0FB2DF460BF2E09C083
:102F700034FE0AC0292F2660B22E06C028E030E0B9
:102F800005C020E130E002C020E132E0F801B7FEE8
:102F900007C060817181828193810C5F1F4F06C0E1
:102FA0006081718180E090E00E5F1F4FA3010E945D
:102FB000BB18882E8618FB2DFF773F2E36FE0DC0DE
:102FC000232D2E7FA22E891458F434FE0BC032FC20
:102FD00009C0832D8E7EA82E05C0B82CA32C03C05B
:102FE000B82C01C0B92CA4FE0FC0FE01E80DF11DE4
:102FF0008081803321F49A2D997EA92E09C0A2FEEA
:1030000006C0B394B39404C08A2D867809F0B394B3
:10301000A3FC11C0A0FE06C0B21488F4280C922CA8
:103020009B180EC0B21460F4B60180E290E00E94DA
:103030007F18B394F7CFB21418F42B1802C0982C51
:10304000212CA4FE10C0B60180E390E00E947F18FE
:10305000A2FE17C0A1FC03C088E790E002C088E58B
:1030600090E0B6010CC08A2D867859F0A1FE02C00E
:103070008BE201C080E2A7FC8DE2B60190E00E94E5
:103080007F18891438F4B60180E390E00E947F181D
:103090009A94F7CF8A94F301E80DF11D8081B6016F
:1030A00090E00E947F188110F5CF222009F442CED3
:1030B000B60180E290E00E947F182A94F6CFF601D4
:1030C0008681978102C08FEF9FEF2B96E2E10C94EF
:1030D0003519FC010590615070400110D8F78095BA
:1030E00090958E0F9F1F0895FC01615070400190D4
:1030F0000110D8F7809590958E0F9F1F08950F931C
:103100001F93CF93DF93FB01238121FD03C08FEF3A
:103110009FEF2CC022FF16C0468157812481358144
:103120004217530744F4A081B1819D012F5F3F4FA7
:10313000318320838C93268137812F5F3F4F3783E4
:10314000268314C08B01EC01FB010084F185E02D86
:103150000995892BE1F6D80116968D919C911797C8
:10316000019617969C938E931697CE01DF91CF917F
:103170001F910F910895FA01AA27283051F12031AB
:1031800081F1E8946F936E7F6E5F7F4F8F4F9F4FFB
:10319000AF4FB1E03ED0B4E03CD0670F781F891F3D
:1031A0009A1FA11D680F791F8A1F911DA11D6A0F0B
:1031B000711D811D911DA11D20D009F468943F91BE
:1031C0002AE0269F11243019305D3193DEF6CF01BD
:1031D0000895462F4770405D4193B3E00FD0C9F783
:1031E000F6CF462F4F70405D4A3318F0495D31FDF0
:1031F0004052419302D0A9F7EACFB4E0A695979543
:10320000879577956795BA95C9F700976105710518
:1032100008959B01AC010A2E069457954795379562
:103220002795BA95C9F7620F731F841F951FA01DBC
:1032300008952F923F924F925F926F927F928F925A
:103240009F92AF92BF92CF92DF92EF92FF920F9335
:103250001F93CF93DF93CDB7DEB7CA1BDB0B0FB63F
:10326000F894DEBF0FBECDBF09942A8839884888FC
:103270005F846E847D848C849B84AA84B984C88492
:10328000DF80EE80FD800C811B81AA81B981CE0F89
:10329000D11D0FB6F894DEBF0FBECDBFED0108956E
:1032A00010E0C4E6D0E004C0FE010E94691421963B
:0A32B000C536D107C9F7F894FFCF27
:1032BA000000610420000100004000140054005581
:1032CA00703A4F70656E20446E436C6F7365204C84
:1032DA0066743A4461792052743A4E696768740098
:1032EA004D61696E204D656E750053656C3A457384
:1032FA0063617065004F70656E696E6720446F6F19
:10330A007200436C6F73696E6720446F6F7200447A
:10331A006179204D6F6465202020202020202054D0
:10332A006D703A25734C68743A2573004E69676864
:10333A0074204D6F6465202020202020546D703A3F
:10334A0025734C68743A25730055703A4F70656E50
:10335A0020446E436C6F73654C66743A44617920FD
:10336A0052743A4E696768740052656C61792064D8
:10337A00697361626C65640957616974696E670093
:10338A00456D657267656E637900456D657267653F
:10339A006E63792046696E69736865640052656C6C
:1033AA0061792070696E732073657420746F206F61
:1033BA00757470757400454D455247454E43592002
:1033CA004F50454E3A00436C6F73696E6700436C09
:1033DA006F736520436F6D706C65746500496E6923
:1033EA007420436F6D706C65746500696E206C6F34
:1033FA006F70004E45574D454E55004C533120498C
:10340A006E74657272757074004C533220496E7412
:10341A006572727570740050454320496E74657206
:10342A00727570740050583120496E7465727275E5
:10343A0070740000000000F7067008B80644078A96
:10344A0006A40696060D0A006E616E00696E660095
:10345A006F76660000000000960E7008CB07CE0754
:10346A00000000003D111011CB07D910AE10B610A4
:02347A00CA1076
:00000001FF
