S013000064656D6F5F616E616C6F672E737265639B
S11300000C94DD000C94C00A0C94E70A0C940501CE
S11300100C9405010C9405010C9405010C94050144
S11300200C9405010C9405010C9405010C94050134
S11300300C9405010C9405010C9405010C94050124
S11300400C940E0B0C9405010C949D090C94CF098F
S11300500C9405010C9405010C9405010C94050104
S11300600C94FF150C94050100407A10F35A00A07B
S1130070724E18090010A5D4E80000E8764817006D
S113008000E40B54020000CA9A3B000000E1F505AD
S1130090000080969800000040420F000000A086F7
S11300A001000000102700000000E8030000000029
S11300B06400000000000A000000000001000000CD
S11300C000002C76D888DC674F0823DFC1DFAE59E7
S11300D0E1B1B796E5E3E453C63AE651997696E87A
S11300E0E6C28426EB898C9B62ED407C6FFCEFBCFE
S11300F09C9F40F2BAA56FA5F490055A2AF75C9329
S11301006B6CF9676DC11BFCE0E40D47FEF520E65E
S1130110B500D0ED902E0300943577050080841E41
S1130120080000204E0A000000C80C333333330F9C
S1130130986E12831141EF8D2114893BE65516CF39
S1130140FEE6DB18D1844B381BF77C1D901DA4BB45
S1130150E424203284725E228100C9F124ECA1E5FA
S11301603D2700000008000201000003040700000E
S11301700000000000000102040810204080010279
S113018004081020010204081020040404040404D8
S11301900404020202020202030303030303000035
S11301A00000250028002B00000000002400270088
S11301B02A007906FF09FC14890611241FBECFEF1B
S11301C0D8E0DEBFCDBF12E0A0E0B1E0E8EFFDE390
S11301D002C005900D92A03BB107D9F724E0A0EB33
S11301E0B2E001C01D92A23AB207E1F710E0CCEDF3
S11301F0D0E004C02197FE010E947617C93DD107C3
S1130200C9F70E942D0A0C94EF1E0C940000CF93A2
S1130210DF93EC01FB01828193819B838A8385E9CF
S113022092E09983888384818C8385818D83868100
S11302308E8388E03796DE01179601900D928A9599
S1130240E1F785E0FB013F96DE011F9601900D92D8
S11302508A95E1F7FB0184898C8B85898D8B86894E
S11302608E8B87898F8B808D888F818D898F828DEE
S11302708A8F838D8B8FDF91CF910895CF93DF93F6
S113028061E08AE00E94540C61E089E00E94540C11
S113029061E089E00E94900C60E08AE00E94900C8A
S11302A081E08093F80263E171E084E393E00E94CB
S11302B08D0AC8EFDAE28091F9028823B9F061E08F
S11302C070E080E090E00E94890B88E193E00E9456
S11302D0811180FF09C060E089E00E94900C60E019
S11302E08AE00E94900C02C0219729F760E08AE01E
S11302F00E94900C60E089E00E94900C1092F80239
S113030060E08AE00E94540C60E089E00E94540C92
S11303106BE171E084E393E0DF91CF910C948D0A5B
S1130320CF93DF9361E08AE00E94540C61E089E09E
S11303300E94540C6AE271E084E393E00E948D0A07
S113034061E08AE00E94900C60E089E00E94900CD9
S1130350C8EFDAE28091F9028823B9F061E070E035
S113036080E090E00E94890B88E193E00E94811173
S113037080FF09C060E08AE00E94900C60E089E0A0
S11303800E94900C02C0219729F760E08AE00E9445
S1130390900C60E089E00E94900C60E08AE00E948A
S11303A0540C60E089E0DF91CF910C94540C63E429
S11303B071E084E393E00E948D0A88EF9AE20E9440
S11303C090016BE471E084E393E00C948D0A60E0A7
S11303D089E00E94900C60E08AE00E94900C69E53C
S11303E071E084E393E00E948D0A88EE93E00E941A
S11303F0900163E671E084E393E00C948D0A10921B
S1130400F90266E771E084E393E00E948D0A0E949A
S1130410E70181E08093F9020895EF92FF920F9330
S11304201F93CF93DF93EC017B018A010E94561046
S113043040E060E0CE010E945D10B701CE010E9451
S11304407B0A41E060E0CE010E945D10B801CE015C
S11304500E947B0A40E060E0CE01DF91CF911F91C2
S11304600F91FF90EF900C945D10CF9381E10E9467
S11304700E0CBC01990F880B990B0E94360720E0E3
S113048030E040E85AE30E94C70723E333E343E53F
S113049050E40E94C70720E030E04AE754E40E9499
S11304A0C70720E030E04AEF53E40E94910626E6B5
S11304B036E646EE5FE30E94C70720E030E048E4FA
S11304C055E40E9492060E94FE06CB0164E670E0A9
S11304D00E942C17072E000C880B990B0E943607DC
S11304E0609314037093150380931603909317037A
S11304F0C1E020E030E04CED53E40E94C20787FDE8
S1130500C0E081E08C27CF910895CF93DF93EC0175
S113051080E10E940E0C9C019093130380931203BC
S1130520209719F0219731F00AC081E02436310573
S11305306CF40BC081E02536310544F006C06CE74D
S113054071E084E393E00E948D0A80E0DF91CF9113
S11305500895CF93DF93EB010E948111C230D1053E
S1130560D1F02CF4209741F0219781F005C0C330DD
S1130570D105B1F0249709F183FF03C081E090E035
S113058035C082FF27C082E090E030C080FD26C0E5
S11305900E94D70123C080FD21C00E943E011EC0DD
S11305A080FD1CC00E9435028823D9F080E090E0D1
S11305B00E9485028111E2CF14C080FD0FC00E9409
S11305C03502882389F081E090E00E948502811140
S11305D0DACF0AC084FD05C081FD06C080E090E04A
S11305E005C083E090E002C084E090E0DF91CF9109
S11305F008959F92AF92BF92CF92DF92EF92FF92B3
S11306000F931F93CF93DF93CDB7DEB72C970FB61D
S1130610F894DEBF0FBECDBF982E7B018A0159012D
S113062064E872E0CE0107960E942E0DA016B10672
S113063014F400E010E0C80101966C010A151B05D2
S113064051F4F70124813581A80194E0440F551F2A
S11306509A95E1F709C09C0184E0220F331F8A9523
S1130660E1F7A90140515109B701CE0101960E9459
S1130670790EBE016F5F7F4FCE0107960E94A00DD9
S1130680CE0101960E94C00C492D60E088E193E000
S11306900E945D10BE01695F7F4F88E193E00E9474
S11306A07B0A40E060E088E193E00E945D10CE01A7
S11306B007960E94C00CC6012C960FB6F894DEBFB4
S11306C00FBECDBFDF91CF911F910F91FF90EF909F
S11306D0DF90CF90BF90AF909F900895AF92BF925C
S11306E0DF92EF92FF920F931F93CF93DF93CDB7D7
S11306F0DEB7C856D1090FB6F894DEBF0FBECDBF22
S1130700D62E82309105C1F12CF4009779F001972F
S1130710F9F0E5C19E012F5F3F4F790183309105C8
S113072009F462C0049709F42FC1D9C101E010E0B3
S11307301093FB020093FA02611103C069EA71E0AD
S1130740D8C10091FC021091FD0269EA71E007C270
S11307501092FD021092FC021092FB021092FA0217
S1130760611113C264ED71E0CE018F5B9F4F0E9453
S11307702E0D6FED71E013C01092FB021092FA027D
S11307801092FD021092FC026111FFC164ED71E050
S1130790CE018F5B9F4F0E942E0D6CEE71E0CE0157
S11307A0835A9F4F0E942E0D68E173E0CE0101969B
S11307B00E940701AE014F5B5F4FBE01635A7F4F3A
S11307C0CE0101960E940D02CE01835A9F4F0E94D2
S11307D0C00CCE018F5B9F4F0E94C00C63E088E188
S11307E093E00E94EC0ED1C1AA24A394B12CB09240
S11307F0FB02A092FA020E94350280E090E00E947F
S113080085026091140370911503809116039091F1
S1130810170300EF12E021E041E00E947C17609191
S1130820120370911303072E000C880B990B0E947E
S1130830360704EF12E021E041E00E947C17C80172
S11308409F930F9380EF92E09F938F9389EF91E0B2
S11308509F938F9380EB92E09F938F930E94C31991
S11308600FB6F894DEBF0FBECDBFD11038C060EB19
S113087072E0C7010E942E0DB70184E093E00E944C
S1130880A00DC7010E94C00C64ED71E08EEF92E0F0
S11308900E94AC0D6EEF72E0CE018F5B9F4F0E9401
S11308A0970D60EB72E0CE01835A9F4F0E942E0D8C
S11308B068E173E0C7010E940701AE014F5B5F4F1F
S11308C0BE01635A7F4FC7010E940D02CE01835AB5
S11308D09F4F0E94C00CCE018F5B9F4FD5C0A0904C
S11308E0FA02B090FB020091FC021091FD026091AB
S11308F01203709113034AE0CE018F5B9F4F0E9455
S1130900C30D409114035091150360911603709127
S1130910170322E0CE018D599F4F0E94EF0D66E12F
S113092072E0CE01835A9F4F0E942E0DBE016D5975
S11309307F4FCE01835A9F4F0E944D0E6BE272E0AF
S11309400E94600EBE016F5B7F4F0E944D0EBC0182
S1130950C7010E94970D9501A801B70180E090E0BE
S11309600E94F9029093FD028093FC02C7010E9449
S1130970C00CCE01835A9F4F0E94C00CCE018D59EA
S11309809F4F0E94C00CA7C0AA24A394B12CB0927C
S1130990FB02A092FA020E94350281E090E00E94DC
S11309A08502609114037091150380911603909150
S11309B0170300EF12E021E041E00E947C176091F0
S11309C0120370911303072E000C880B990B0E94DD
S11309D0360704EF12E021E041E00E947C17C801D1
S11309E09F930F9380EF92E09F938F9381E392E024
S11309F09F938F93FF92EF920E94C3190FB6F894BE
S1130A00DEBF0FBECDBFD1104BC0B701CE018F5B8F
S1130A109F4F0E942E0DBE016F5B7F4F84E093E0D9
S1130A200E94A00DCE018F5B9F4F0E94C00C64ED0D
S1130A3071E08EEF92E00E94AC0D6EEF72E0CE0199
S1130A40835A9F4F0E94970DB701CE018D599F4F36
S1130A500E942E0D68E173E0CE018F5B9F4F0E94D0
S1130A600701AE01435A5F4FBE016D597F4FCE015E
S1130A708F5B9F4F0E940D02CE018D599F4F0E94A4
S1130A80C00CCE01835A9F4F0E94C00C62E088E1E3
S1130A9093E00E94EC0EB092FD02A092FC0275C09D
S1130AA0A090FA02B090FB020091FC021091FD02AA
S1130AB0B701CE018F5B9F4F0E942E0D9501A801B7
S1130AC0BE016F5B7F4F80E090E00E94F90290933B
S1130AD0FD028093FC02CE018F5B9F4F54C001E066
S1130AE010E01093FB020093FA02D11032C06EE4BE
S1130AF072E0CE018F5B9F4F0E942E0D6AEC71E075
S1130B00CE01835A9F4F0E942E0D68E173E0CE01FF
S1130B1001960E940701AE014F5B5F4FBE01635A0D
S1130B207F4FCE0101960E940D02CE01835A9F4F42
S1130B300E94C00CCE018F5B9F4F0E94C00C62E0EC
S1130B4088E193E00E94EC0E1093FD020093FC02F6
S1130B501CC00091FC021091FD026EE472E0CE0113
S1130B6001960E942E0D21E030E0A801BE016F5FC6
S1130B707F4F81E090E00E94F9029093FD02809300
S1130B80FC02CE0101960E94C00CC859DF4F0FB67B
S1130B90F894DEBF0FBECDBFDF91CF911F910F91AF
S1130BA0FF90EF90DF90BF90AF90089526E040E86B
S1130BB055E260E070E084E393E00E94340960E071
S1130BC08AE00E94540C60E089E00E94540C62E0C8
S1130BD082E00E94540C43E050E06FEF71E080E04B
S1130BE00E94A00A20E042E060E188E193E00E94D4
S1130BF0931088E193E00E94561060E08091100306
S1130C00909111030E946E0380E00E940B0C81E01E
S1130C108093F9021092F80208950F931F93CF93D3
S1130C20DF93CDB7DEB76C970FB6F894DEBF0FBE77
S1130C30CDBF80910E0390910F032091100330914A
S1130C4011032817390711F060E01AC00E94580BED
S1130C5000910A0310910B0320910C0330910D03B2
S1130C60DC01CB01801B910BA20BB30B893B9B4096
S1130C70A105B105C8F061E080910E0390910F03C6
S1130C800E946E0380910E0390910F0390931103C1
S1130C90809310030E94580B60930A0370930B0314
S1130CA080930C0390930D03009110031091110392
S1130CB068E173E0CE0101960E940701B801CE01FC
S1130CC001960E94A90290930F0380930E038091D2
S1130CD0F902811103C081E08093F9026C960FB68A
S1130CE0F894DEBF0FBECDBFDF91CF911F910F915E
S1130CF0089588E193E00E94BE0E64E872E084E007
S1130D0093E00E942E0D64E872E08EEF92E00C9462
S1130D102E0D8EEF92E00E94C00C84E093E00C94C0
S1130D20C00C5058BB27AA270E94A9060C94880718
S1130D300E947A0738F00E94810720F039F49F3F1F
S1130D4019F426F40C9477070EF4E095E7FB0C9461
S1130D507107E92F0E94990758F3BA1762077307BE
S1130D608407950720F079F4A6F50C94BB070EF4DC
S1130D70E0950B2EBA2FA02D0B01B90190010C01A7
S1130D80CA01A0011124FF27591B99F0593F50F4BF
S1130D90503E68F11A16F040A22F232F342F442717
S1130DA0585FF3CF469537952795A795F04053950F
S1130DB0C9F77EF41F16BA0B620B730B840BBAF0DF
S1130DC09150A1F0FF0FBB1F661F771F881FC2F74A
S1130DD00EC0BA0F621F731F841F48F4879577955E
S1130DE06795B795F7959E3F08F0B0CF9395880F18
S1130DF008F09927EE0F9795879508950E940507A7
S1130E006894B1110C94BC0708950E94A10788F05E
S1130E109F5798F0B92F9927B751B0F0E1F0660FBA
S1130E20771F881F991F1AF0BA95C9F714C0B130FB
S1130E3091F00E94BB07B1E008950C94BB07672FA3
S1130E40782F8827B85F39F0B93FCCF3869577952A
S1130E506795B395D9F73EF4909580957095619513
S1130E607F4F8F4F9F4F0895E89409C097FB3EF43E
S1130E7090958095709561957F4F8F4F9F4F9923E3
S1130E80A9F0F92F96E9BB279395F6958795779561
S1130E906795B795F111F8CFFAF4BB0F11F460FF21
S1130EA01BC06F5F7F4F8F4F9F4F16C0882311F079
S1130EB096E911C0772321F09EE8872F762F05C08D
S1130EC0662371F096E8862F70E060E02AF09A9528
S1130ED0660F771F881FDAF7880F9695879597F91D
S1130EE0089597F99F6780E870E060E008959FEFA8
S1130EF080EC089500240A941616170618060906AD
S1130F00089500240A94121613061406050608957B
S1130F10092E0394000C11F4882352F0BB0F40F403
S1130F20BF2B11F460FF04C06F5F7F4F8F4F9F4F43
S1130F30089557FD9058440F551F59F05F3F71F0C5
S1130F404795880F97FB991F61F09F3F79F087952C
S1130F500895121613061406551FF2CF4695F1DFB5
S1130F6008C0161617061806991FF1CF8695710545
S1130F70610508940895E894BB2766277727CB0179
S1130F8097F908950E94340808F48FEF08950E9499
S1130F90DA070C9488070E947A0738F00E948107C8
S1130FA020F0952311F00C9471070C947707112409
S1130FB00C94BC070E94990770F3959FC1F3950F99
S1130FC050E0551F629FF001729FBB27F00DB11DC9
S1130FD0639FAA27F00DB11DAA1F649F6627B00D59
S1130FE0A11D661F829F2227B00DA11D621F739F42
S1130FF0B00DA11D621F839FA00D611D221F749F50
S11310003327A00D611D231F849F600D211D822F96
S1131010762F6A2F11249F5750409AF0F1F08823BD
S11310204AF0EE0FFF1FBB1F661F771F881F9150EA
S11310305040A9F79E3F510580F00C9471070C9421
S1131040BC075F3FE4F3983ED4F3869577956795A4
S1131050B795F795E7959F5FC1F7FE2B880F911D14
S11310609695879597F90895990F0008550FAA0B3F
S1131070E0E8FEEF16161706E807F907C0F01216A7
S11310801306E407F50798F0621B730B840B950BAA
S113109039F40A2661F0232B242B252B21F40895FF
S11310A00A2609F4A140A6958FEF811D811D08959C
S11310B0FC01918D228D892F90E0805C9F4F821BD3
S11310C091098F7399270895FC01918D828D98174A
S11310D031F0828DE80FF11D858D90E008958FEF3A
S11310E09FEF0895FC01918D828D981761F0828D98
S11310F0DF01A80FB11D5D968C91928D9F5F9F7348
S1131100928F90E008958FEF9FEF0895FC01538D27
S1131110448D252F30E0842F90E0821B930B5417CD
S113112010F0CF9608950197089585EF99E0892BE3
S113113049F080E090E0892B29F00E94F5098111A3
S11311400C9400000895FC01848DDF01A80FB11DEB
S1131150A35ABF4F2C91848D90E001968F739927E9
S1131160848FA689B7892C93A089B1898C918370C7
S113117080648C93938D848D981306C00288F389C0
S1131180E02D80818F7D80830895EF92FF920F93ED
S11311901F93CF93DF93EC0181E0888F9B8D8C8D1F
S11311A0981305C0E889F989808185FD26C0F62E4B
S11311B00B8D10E00F5F1F4F0F731127E02E8C8DE6
S11311C0E8120CC00FB607FCFACFE889F9898081D0
S11311D085FFF5CFCE010E94A308F1CF8B8DFE01D0
S11311E0E80FF11DE35AFF4FF0829FB7F8940B8F7D
S11311F0EA89FB89808180620AC09FB7F894EE89EE
S1131200FF896083E889F9898081837080648083A1
S11312109FBF81E090E0DF91CF911F910F91FF90EC
S1131220EF900895CF93DF93EC01888D8823C9F064
S1131230EA89FB89808185FD05C0A889B9898C91DB
S113124086FD0FC00FB607FCF5CF808185FFF2CF76
S1131250A889B9898C9185FFEDCFCE010E94A3089E
S1131260E7CFDF91CF910895CF92DF92EF92FF9273
S11312701F93CF93DF93EC016A017B01122FE8895E
S1131280F98982E080834115514E61057105B1F001
S113129060E079E08DE390E0A70196010E94401799
S11312A0DA01C9010197A109B109B695A7959795E6
S11312B087959C01211580E13807A8F0E889F98910
S11312C0108260E874E88EE190E0A70196010E9424
S11312D04017DA01C9010197A109B109B695A7958B
S11312E0979587959C01EC85FD853083EE85FF8578
S11312F02083188EEC89FD891083EA89FB8980811B
S113130080618083EA89FB89808188608083EA899F
S1131310FB89808180688083EA89FB8980818F7D55
S11313208083DF91CF911F91FF90EF90DF90CF905A
S1131330089580E090E0089508951F920F920FB6EB
S11313400F9211242F938F939F93EF93FF93E09128
S11313504403F09145038081E0914A03F0914B03EB
S113136082FD12C0908180914D038F5F8F73209115
S11313704E03821751F0E0914D03F0E0EC5CFC4F1A
S1131380958F80934D0301C08081FF91EF919F91D0
S11313908F912F910F900FBE0F901F9018951F9251
S11313A00F920FB60F9211242F933F934F935F9395
S11313B06F937F938F939F93AF93BF93EF93FF9319
S11313C084E393E00E94A308FF91EF91BF91AF9152
S11313D09F918F917F916F915F914F913F912F9149
S11313E00F900FBE0F901F90189584E393E00E9416
S11313F0580821E0892B09F420E0822F0895E4E3C2
S1131400F3E01382128288EE93E0A0E0B0E08483DC
S11314109583A683B78384E792E09183808385ECE8
S113142090E09587848784EC90E09787868780ECAA
S113143090E0918B808B81EC90E0938B828B82EC9B
S113144090E0958B848B86EC90E0978B868B118E45
S1131450128E138E148E089508950E94D00B0E944C
S11314602C0A0E94D605C5E9D8E00E940D062097F3
S1131470E1F30E949508F9CFCF92DF92EF92FF92A9
S11314800F931F93CF93DF936C017A018B01C0E01C
S1131490D0E0CE15DF0581F0D8016D918D01D60124
S11314A0ED91FC910190F081E02DC6010995892B05
S11314B011F02196EECF7E01C701DF91CF911F91EC
S11314C00F91FF90EF90DF90CF9008956115710513
S11314D079F0FB0101900020E9F73197AF01461B39
S11314E0570BDC01ED91FC910280F381E02D09940E
S11314F080E090E00895DB0114964D915C9115977E
S11315006D917C91DC01ED91FC910280F381E02DE1
S1131510099462E872E00C94660A0F931F93CF93C8
S1131520DF93EC010E94660A8C01CE010E94890AB5
S1131530800F911FDF91CF911F910F91089508950E
S11315408230E8F4E82FF0E0EE0FFF1FEA5FFE4F71
S113155071836083813041F0809169008C7F482BD6
S113156040936900E89A089580916900837F440F4D
S1131570551F440F551F482B40936900E99A08955D
S11315801F920F920FB60F9211242F933F934F93F4
S11315905F936F937F938F939F93AF93BF93EF93D7
S11315A0FF93E0910601F09107010995FF91EF91F6
S11315B0BF91AF919F918F917F916F915F914F9167
S11315C03F912F910F900FBE0F901F9018951F926F
S11315D00F920FB60F9211242F933F934F935F9363
S11315E06F937F938F939F93AF93BF93EF93FF93E7
S11315F0E0910801F09109010995FF91EF91BF91E4
S1131600AF919F918F917F916F915F914F913F9196
S11316102F910F900FBE0F901F9018951F920F924D
S11316200FB60F9211242F933F938F939F93AF93F1
S1131630BF938091D2039091D303A091D403B0912E
S1131640D5033091D10323E0230F2D3720F40196E5
S1131650A11DB11D05C026E8230F0296A11DB11DD1
S11316602093D1038093D2039093D303A093D40304
S1131670B093D5038091D6039091D703A091D8035A
S1131680B091D9030196A11DB11D8093D603909307
S1131690D703A093D803B093D903BF91AF919F917F
S11316A08F913F912F910F900FBE0F901F9018951F
S11316B02FB7F8946091D2037091D3038091D4032F
S11316C09091D5032FBF08953FB7F8948091D60326
S11316D09091D703A091D803B091D90326B5A89BC4
S11316E005C02F3F19F00196A11DB11D3FBFBA2FB0
S11316F0A92F982F8827820F911DA11DB11DBC0110
S1131700CD0142E0660F771F881F991F4A95D1F7D4
S113171008958F929F92AF92BF92CF92DF92EF92F1
S1131720FF926B017C010E94640B4B015C01C114AC
S1131730D104E104F10401F10E9400150E94640B3C
S1131740DC01CB0188199909AA09BB09883E934099
S1131750A105B10560F321E0C21AD108E108F1083E
S113176088EE880E83E0981EA11CB11CC114D1041C
S1131770E104F10419F7DBCFFF90EF90DF90CF90F5
S1131780BF90AF909F908F9008958230910538F06C
S1131790880F991F880F991F05970197F1F70895EE
S11317A0789484B5826084BD84B5816084BD85B538
S11317B0826085BD85B5816085BDEEE6F0E08081FF
S11317C081608083E1E8F0E0108280818260808320
S11317D0808181608083E0E8F0E0808181608083A3
S11317E0E1EBF0E0808184608083E0EBF0E08081D5
S11317F081608083EAE7F0E0808184608083808177
S1131800826080838081816080838081806880831E
S11318101092C100089580930A0108958E3008F053
S11318208E5020910A0190E4299F90011124877021
S1131830822B80937C0080917A00806480937A006C
S113184080917A0086FDFCCF809178002091790008
S113185090E0922B0895833081F028F4813099F040
S11318608230A1F008958730A9F08830B9F084302F
S1131870D1F4809180008F7D03C0809180008F77A8
S113188080938000089584B58F7702C084B58F7DDE
S113189084BD08958091B0008F7703C08091B0001B
S11318A08F7D8093B0000895CF93DF9390E0FC0187
S11318B0EA58FE4F2491FC01E657FE4F8491882399
S11318C061F190E0880F991FFC01E855FE4FC59126
S11318D0D491FC01E256FE4FA591B491611109C067
S11318E09FB7F8948881209582238883EC912E23D6
S11318F00BC0623061F49FB7F8948881322F309521
S113190083238883EC912E2B2C939FBF06C08FB723
S1131910F894E8812E2B28838FBFDF91CF9108950F
S11319201F93CF93DF93282F30E0F901EE59FE4F38
S11319308491F901EA58FE4FD491F901E657FE4F1C
S1131940C491CC23C1F0162F81110E942B0CEC2FD3
S1131950F0E0EE0FFF1FE256FE4FA591B4919FB742
S1131960F894111104C08C91D095D82302C0EC9145
S1131970DE2BDC939FBFDF91CF911F9108950895D3
S1131980FC01808191810C943418CF93DF93EC0196
S113199088819981009711F00E9434181982188265
S11319A01D821C821B821A82DF91CF9108950F93AE
S11319B01F93CF93DF93EC018B016F5F7F4F88817F
S11319C099810E94BD18009731F0998388831B8305
S11319D00A8381E001C080E0DF91CF911F910F91D4
S11319E00895CF93DF93EC0188819981892B29F0A5
S11319F08A819B818617970760F4CE010E94D70CD9
S1131A00882341F08C819D81892B19F4E881F98127
S1131A10108281E0DF91CF910895EF92FF920F93AE
S1131A201F93CF93DF93EC017B018A01BA010E94DB
S1131A30F10C811104C0CE010E94C50C07C01D83A6
S1131A400C83B701888199810E948C19CE01DF91A2
S1131A50CF911F910F91FF90EF900895FC01118297
S1131A60108213821282158214826115710551F05D
S1131A70FB0101900020E9F73197AF01461B570B9A
S1131A800C940D0D08950F931F93CF93DF938C0146
S1131A90EB01FC01808191810097D1F0688179810B
S1131AA06115710599F02FEB3CE0232B79F042810D
S1131AB053812C813D814217530740F00E948C19B9
S1131AC08C819D81F8019583848313C00E9434180E
S1131AD088819981F801918380838A819B81938392
S1131AE082838C819D8195838483198218821B82D1
S1131AF01A821D821C82DF91CF911F910F9108954C
S1131B00CF93DF93EC01FB018617970761F06081A7
S1131B1071816115710529F0448155810E940D0D73
S1131B2002C00E94C50CCE01DF91CF910895FC0143
S1131B301182108213821282158214820C94800DF9
S1131B40CF93DF93EC018617970711F00E94430DA2
S1131B50CE01DF91CF910895CF93DF93EC0161150E
S1131B60710559F0FB0101900020E9F73197AF01AD
S1131B70461B570B0E940D0D02C00E94C50CCE01DE
S1131B80DF91CF9108950F931F93CF93DF93CDB738
S1131B90DEB762970FB6F894DEBF0FBECDBF8C01DF
S1131BA0CB01F801118210821382128215821482F1
S1131BB050E0BE016F5F7F4F0E949319BE016F5FBB
S1131BC07F4FC8010E94AC0D62960FB6F894DEBF39
S1131BD00FBECDBFDF91CF911F910F910895EF926A
S1131BE0FF920F931F93CF93DF93CDB7DEB7A197E7
S1131BF00FB6F894DEBF0FBECDBF7C01CB01BA0196
S1131C00F70111821082138212821582148242E03B
S1131C10420F8E010F5F1F4F0E947C17BC01C7014A
S1131C200E94AC0DA1960FB6F894DEBF0FBECDBFD7
S1131C30DF91CF911F910F91FF90EF900895EF9254
S1131C40FF920F931F93CF93DF936115710511F4E6
S1131C5080E01CC041155105C1F07B01EC018C8171
S1131C609D818A01080F191FB801CE010E94F10C51
S1131C70882371F3288139818C819D81B701820F7A
S1131C80931F0E948C191D830C8381E0DF91CF91F7
S1131C901F910F91FF90EF900895CF93DF93EC0184
S1131CA0FB0144815581608171810E941F0E811165
S1131CB003C0CE010E94C50CCE01DF91CF910895DF
S1131CC0CF93DF93EC016115710561F0FB01019085
S1131CD00020E9F73197AF01461B570B0E941F0EF6
S1131CE0811103C0CE010E94C50CCE01DF91CF91BA
S1131CF00895BF92CF92DF92EF92FF920F931F93BA
S1131D00CF93DF937C016B018A01E9012417350726
S1131D1020F4812F8901C42FD82F64E872E0C70111
S1131D200E942E0DD60114968D919C91159708173B
S1131D301907C8F48C179D0708F4EC01D601ED913E
S1131D40FC911197EC0FFD1FB08010826D917C9176
S1131D50600F711FC7010E94AC0DD601ED91FC917B
S1131D60EC0FFD1FB082C701DF91CF911F910F913E
S1131D70FF90EF90DF90CF90BF900895FC01138205
S1131D80128285E992E091838083128E148A8FE017
S1131D9084838EE085838DE086838CE087838BE06B
S1131DA080878AE0818789E08287178681E0808B3B
S1131DB082E0818B83E0828B84E0838B0895FC0135
S1131DC0962F828D8F3F21F0CF014B960C942A13CE
S1131DD0642F892F0C94900C0F931F93CF93DF9350
S1131DE0D62F8C01055E1F4FC1E062FB442740F9EA
S1131DF04C2768E0C8010E942A13D1FB442740F90C
S1131E004C2767E0C8010E942A134D2F41704C27CC
S1131E1066E0C801DF91CF911F910F910C942A13B2
S1131E20FC01962F828D8F3F21F0CF014B960C94AD
S1131E300312642F892F0C94540CCF93DF93EC017D
S1131E4040E06E810E94DF0E81E090E00E94C50BAD
S1131E5041E06E81CE010E94DF0E81E090E00E949D
S1131E60C50B40E06E81CE010E94DF0E84E690E057
S1131E70DF91CF910C94C50BAF92BF92CF92DF92BA
S1131E80EF92FF920F931F93CF93DF938C01FC018A
S1131E90828D9801295F3F4F7901C62FD0E08F3F93
S1131EA009F473C068013BE1C30ED11CC6010E9452
S1131EB06512F70140E050E0A1E0B0E0B190EE24FB
S1131EC0E394F12CBD010B2C02C0660F771F0A941A
S1131ED0E2F760957095862397239E01042E02C035
S1131EE0359527950A94E2F72170332702C0220F13
S1131EF0331FBA94E2F7822B932B4F5F5F4F44302A
S1131F005105E1F6E701F801068002C0CC0FDD1FA0
S1131F100A94E2F7C095D095C823D923BE01C6011F
S1131F200E94E81181E090E00E94C50BC701F8010E
S1131F30068002C0880F991F0A94E2F7C82BD92B98
S1131F40BE01C6010E94E81181E090E00E94C50B29
S1131F50B701F801068002C0660F771F0A94E2F702
S1131F60609570956C237D23C6010E94E81184E678
S1131F7090E0DF91CF911F910F91FF90EF90DF9050
S1131F80CF90BF90AF900C94C50BC12CD12C5701AE
S1131F9041E0F70161917F01C8010E94100FAE0179
S1131FA00C2C02C0559547950A94E2F74170F5014F
S1131FB06081C8010E94DF0EFFEFCF1ADF0A24E020
S1131FC0C216D10421F7C801DF91CF911F910F915F
S1131FD0FF90EF90DF90CF90BF90AF900C941D0FC7
S1131FE0AF92BF92CF92DF92EF92FF920F931F9323
S1131FF0CF93DF93EC015C0187E0A80EB11C00E0F5
S113200010E0E62EF12C650141E0F50161915F01DC
S1132010CE010E94100FA701002E02C055954795CE
S11320200A94E2F74170F6016081CE010E94DF0E4E
S11320300F5F1F4F0830110531F7CE01DF91CF91AB
S11320401F910F91FF90EF90DF90CF90BF90AF90D2
S11320500C941D0F1F93CF93DF93EC01162F6C810B
S11320600E94DF0E6D816F3F21F040E0CE010E949F
S1132070DF0E8C89612F84FF06C0CE01DF91CF91E2
S11320801F910C94F00F70E084E0759567958A9524
S1132090E1F7CE010E943C0F612FCE01DF91CF9179
S11320A01F910C943C0F40E00C942A1061E00E94B4
S11320B0531080ED97E00C94C50BCF93DF93CDB70D
S11320C0DEB728970FB6F894DEBF0FBECDBF9C01D4
S11320D088E0EBE0F1E0DE01119601900D928A9523
S11320E0E1F7F901808D841710F44FEF480FFE01DA
S11320F03196E40FF11DE40FF11D9081690F6068C2
S1132100C90128960FB6F894DEBF0FBECDBFDF918C
S1132110CF910C945310FC016589262F2460258BE4
S11321206C600C9453108F929F92AF92BF92CF9297
S1132130DF92EF92FF920F931F93CF93DF93EC0103
S1132140D42EC22E8A8D8F3F41F481E08D1508F084
S11321505EC08C8988608C8B5AC08AED93E00E94A3
S113216061148E01055E1F4FC8010E94E51141E014
S113217068E0C8010E94031241E066E0C8010E94C1
S1132180031241E067E0C8010E94031267E0CE0138
S11321900E94EC0E6D81662321F041E0C8010E948B
S11321A0031241E06C81C8010E94031241E06E8178
S11321B0C8010E9403127E01E7E0EE0EF11C5E01ED
S11321C0FBE0AF0EB11CF70161917F0141E0C80152
S11321D00E940312EA14FB04B1F77E01FFE0EF0E44
S11321E0F11C5E0184E1A80EB11C470140E0F70137
S11321F061917F01C8010E94031241E0F4016081F2
S1132200C8010E94C712EA14FB0479F79ECFD88E46
S1132210198ECC2031F0F1E0DF1203C08C89846088
S11322208C8B80E593EC0E94C50B40E06C81CE0161
S11322300E94DF0E40E06E81CE010E94DF0E6D81B0
S11322406F3F21F040E0CE010E94DF0E6C8964FDF7
S11322501DC063E0CE010E943C0F84E991E10E941D
S1132260C50B63E0CE010E943C0F84E991E10E941A
S1132270C50B63E0CE010E943C0F86E990E00E940A
S1132280C50B62E0CE010E943C0F16C06062CE0115
S11322900E94531084E991E10E94C50B6C8960622D
S11322A0CE010E94531086E990E00E94C50B6C8910
S11322B06062CE010E9453106C896062CE010E945C
S11322C0531084E08D8BCE010E948B10CE010E94AE
S11322D0561082E08E8B66E0CE01DF91CF911F9184
S11322E00F91FF90EF90DF90CF90BF90AF909F90B1
S11322F08F900C94531041E00E942A1081E090E0EA
S11323000895DF92EF92FF920F931F93CF93DF9381
S11323107C012FE0E20EF11CC0E0D0E02FE1D22ED0
S11323208C01055E1F4FF70161917F01C8010E9476
S11323308E12282F30E00C2E02C0220F331F0A9475
S1132340E2F720953095D2222196C530D10559F770
S11323508D2DDF91CF911F910F91FF90EF90DF9022
S11323600895682F8AED93E00C942214CF93DF93A1
S1132370EC01683008F067E068838AED93E00E941E
S113238061146881606270E08AED93E00E947D14BC
S113239080E00E94B1118FEF0E94B1118AED93E0A9
S11323A00E94F9146881606270E08AED93E00E94F3
S11323B07D1481E00E94B1118FEF0E94B1118AED6A
S11323C093E0DF91CF910C94F91460E00C94B61172
S11323D0CF93DF93D62FC72FFC016081606270E03A
S11323E08AED93E00E947D1482E10E94B1118D2F49
S11323F00E94B1118C2F0E94B1118AED93E0DF91FC
S1132400CF910C94F914FF920F931F93CF93DF9302
S11324108C01C62FD42F603108F051C0683020F0F1
S1132420C850FF24F39401C0F12CF801608160626C
S113243070E08AED93E00E947D148F2D0E94B1110B
S11324408AED93E00E94F914F8016081606270E003
S113245041E050E08AED93E00E94F6148AED93E0A7
S11324600E949B1321E030E0D11109C0A90102C0F0
S1132470440F551FCA95E2F7EA01C82B09C0F901B8
S113248002C0EE0FFF1FCA95E2F7EF01C095C82303
S1132490F8016081606270E08AED93E00E947D142F
S11324A08F2D0E94B1118C2F0E94B1118AED93E0FF
S11324B0DF91CF911F910F91FF900C94F914DF914C
S11324C0CF911F910F91FF900895CF93DF93EC016B
S11324D06881606270E08AED93E00E947D1482E17D
S11324E00E94B1118AED93E00E94F9146881606240
S11324F070E042E050E08AED93E00E94F6148AED29
S113250093E00E949B13C82F8AED93E00E949B13D3
S1132510982F88278C2BDF91CF9108950F931F93C9
S1132520CF93DF938C01C62F603158F5683018F0D3
S1132530C850D3E101C0D2E1F8016081606270E06B
S11325408AED93E00E947D148D2F0E94B1118AEDD3
S113255093E00E94F914F8016081606270E041E048
S113256050E08AED93E00E94F6148AED93E00E9415
S11325709B13992702C095958795CA95E2F78170B8
S113258001C080E0DF91CF911F910F910895FF92D8
S11325900F931F93CF93DF938C01C62FD42F6031F9
S11325A008F052C0683020F0C8509DE0F92E02C0F7
S11325B08CE0F82EF8016081606270E08AED93E0AF
S11325C00E947D148F2D0E94B1118AED93E00E9428
S11325D0F914F8016081606270E041E050E08AED36
S11325E093E00E94F6148AED93E00E949B1321E08D
S11325F030E0D13049F4A90102C0440F551FCA95F7
S1132600E2F7EA01C82B09C0F90102C0EE0FFF1F6F
S1132610CA95E2F7EF01C095C823F80160816062B2
S113262070E08AED93E00E947D148F2D0E94B11119
S11326308C2F0E94B1118AED93E0DF91CF911F910D
S11326400F91FF900C94F914DF91CF911F910F918A
S1132650FF900895EF92FF920F931F93CF93DF9310
S11326608C01C62FE42E603108F056C0683028F083
S1132670C850D5E193E1F92E03C0D4E182E1F82EEC
S1132680F8016081606270E08AED93E00E947D143D
S11326908D2F0E94B1118AED93E00E94F914F80184
S11326A06081606270E041E050E08AED93E00E9456
S11326B0F6148AED93E00E949B13F1E021E030E0F0
S11326C0EF1209C0A90102C0440F551FCA95E2F7D1
S11326D0EA01C82B09C0F90102C0EE0FFF1FCA9519
S11326E0E2F7EF01C095C823F8016081606270E0F1
S11326F08AED93E00E947D148F2D0E94B1118C2FDE
S11327000E94B1118AED93E0DF91CF911F910F9157
S1132710FF90EF900C94F914DF91CF911F910F91DA
S1132720FF90EF90089580910E0490E020910F04A3
S1132730821B9109089590910F0480910E049817BB
S113274050F4E92FF0E0E05FFB4F208130E09F5F21
S113275090930F0402C02FEF3FEFC9010895E09159
S11327600F0480910E04E81730F4F0E0E05FFB4FB3
S1132770808190E008958FEF9FEF08950895CF939F
S1132780DF93EC01E091E603F091E7033097F1F079
S113279090910F0480910E049817C0F090E0292FB7
S11327A030E02617370754F4DE01A20FB31F4C9113
S11327B0D901A05FBB4F4C939F5FF1CF10920F04E0
S11327C060930E04CB01DF91CF910994DF91CF91F7
S11327D00895E091E803F091E903309729F010920D
S11327E0EC031092EB0309940895CF92DF92EF92D9
S11327F0FF920F931F93CF93DF937C01CB018A0148
S11328002091EA03222389F0EB016B01C40ED51E4B
S1132810CC15DD0569F06991D701ED91FC9101902A
S1132820F081E02DC7010995F3CF642F0E94BD15F7
S1132830C801DF91CF911F910F91FF90EF90DF902E
S1132840CF900895CF93DF931F92CDB7DEB76983FE
S11328502091EA032223D1F02091EB03203240F0AF
S113286021E030E0FC013383228380E090E015C056
S11328708091EC03E82FF0E0E351FC4F99819083C1
S11328808F5F8093EC038093EB0305C061E0CE017E
S113289001960E94BD1581E090E00F90DF91CF91E9
S11328A00895FC011382128288EE93E0A0E0B0E068
S11328B084839583A683B78381EA92E0918380839E
S11328C0089510920F0410920E041092EC031092CB
S11328D0EB030E94011589EE93E10E94EA158FEB48
S11328E093E10C94E51581E08093EA0360930D0471
S11328F01092EC031092EB0308950C9473140F934D
S1132900062F21E04091EB036DEE73E080910D04FE
S11329100E9467151092EC031092EB031092EA03E5
S11329200F9108954F925F926F927F92AF92BF92F0
S1132930CF92EF92FF920F931F93CF93DF935C019B
S1132940F62ED42F28013901EE2021F10E947314B0
S1132950CE2DC43008F0C3E0C150C0F028E0C29FBF
S1132960C0011124A301920104C0569547953795DF
S113297027958A95D2F7CA01B901D501ED91FC9149
S11329800190F081E02DC5010995E6CF60E0C50115
S11329900E947F144D2FD13208F040E22C2D60E1CB
S11329A074E08F2D0E941F1510920F0480930E0463
S11329B0DF91CF911F910F91FF90EF90CF90BF9037
S11329C0AF907F906F905F904F900895CF92EF9269
S11329D00F931F93C22EE12C00E010E098010E9497
S11329E092141F910F91EF90CF90089521E00C94D1
S11329F0E61461E00C947F148AED93E00C94511476
S1132A00089510929D0481E080939B0410929A048F
S1132A1061E082E10E94900C61E083E10E94900CED
S1132A20E9EBF0E080818E7F808380818D7F8083DD
S1132A3088E48093B80085E48093BC000895413213
S1132A4008F043C090919D049111FCCF91E09093C4
S1132A509D0420939B042FEF20933004109275045F
S1132A60240F2093740490939C0490919C04880FE9
S1132A70892B80939C0480919A04813061F4109294
S1132A809A0480919C048093BB008091BC0083FDD8
S1132A90F8CF85EC01C085EE8093BC0080919D0445
S1132AA08130E1F380917504841710F4409175042A
S1132AB0A6E7B4E0962FFB018E2F891B841718F428
S1132AC08D918193F9CF842F089580E008950F9319
S1132AD0413208F04AC090919D049111FCCF32E03C
S1132AE030939D0400939B043FEF30933004109285
S1132AF0750440937404562FA6E7B4E0FB013E2FFF
S1132B00351B341718F431913D93F9CF10929C047E
S1132B1030919C04880F832B80939C0480919A04A9
S1132B20813061F410929A0480919C048093BB00DC
S1132B308091BC0083FDF8CF85EC01C085EE8093C5
S1132B40BC00222321F080919D048230D1F3809136
S1132B5030048F3F79F080913004803241F08091CD
S1132B603004803331F094E005C091E003C092E07A
S1132B7001C093E0892F0F91089540915204262FAC
S1132B8030E0240F311D21323105DCF420919D0405
S1132B902430C9F4FC0180E090E0861758F43091A9
S1132BA052042191DC01AC5ABB4FA30FB11D2C93ED
S1132BB00196F3CF80915204680F6093520480E031
S1132BC0089581E0089582E0089590939704809396
S1132BD0960408959093990480939804089585ED3C
S1132BE08093BC008091BC0084FDFCCF10929D04B6
S1132BF0089585EC8093BC0010929D0408951F9263
S1132C000F920FB60F9211242F933F934F935F931C
S1132C106F937F938F939F93AF93BF93EF93FF93A0
S1132C208091B900887F803609F49EC078F5883297
S1132C3009F45DC090F4803109F456C038F4882357
S1132C4009F4F5C0883009F44FC0F5C0883109F49F
S1132C504EC0803209F45FC0EEC0803409F46AC00B
S1132C6058F4803309F457C0883309F0E4C08093E2
S1132C7030040E94F915DFC0803509F44FC088354F
S1132C8009F45DC0883409F0D6C0D3C0883909F48A
S1132C90C4C0A8F4883709F467C038F4883609F446
S1132CA063C0803709F460C0C6C0883809F4B5C071
S1132CB0803909F45FC0803809F0BDC05BC0803B37
S1132CC009F483C038F4803A09F466C0883A09F4F8
S1132CD07CC0B1C0803C09F4A4C0883C09F4A1C004
S1132CE0883B09F487C0A7C080919C0410C09091D0
S1132CF0750480917404981770F5E091750481E06F
S1132D008E0F80937504F0E0EA58FB4F8081809326
S1132D10BB0085EC83C0809330048BC0E0917504C4
S1132D2081E08E0F809375048091BB00F0E0EA5837
S1132D30FB4F808390917504809174046BC0E09183
S1132D40750481E08E0F809375048091BB00F0E0E0
S1132D50EA58FB4F808380919B0481116AC081E013
S1132D6080939A0484EA5EC083E080939D04109269
S1132D703104CFCF80913104803208F04EC0E0910D
S1132D80310481E08E0F809331048091BB00F0E028
S1132D90EE5CFB4F8083BDCF0E94F9158091310416
S1132DA0803230F4E0913104F0E0EE5CFB4F1082AD
S1132DB06091310470E0E0919604F091970482E30D
S1132DC094E009951092310436C084E080939D0408
S1132DD01092530410925204E0919804F0919904D3
S1132DE0099580915204811105C081E080935204B9
S1132DF010925404E091530481E08E0F80935304A5
S1132E00F0E0EC5AFB4F80818093BB009091530417
S1132E1080915204981708F47CCF85E88093BC0015
S1132E200AC085EC8093BC0010929D0404C01092EB
S1132E3030040E94EF15FF91EF91BF91AF919F91E4
S1132E408F917F916F915F914F913F912F910F904F
S1132E500FBE0F901F90189597FB072E16F4009441
S1132E6007D077FD09D00E94621707FC05D03EF415
S1132E70909581959F4F0895709561957F4F089522
S1132E80A1E21A2EAA1BBB1BFD010DC0AA1FBB1F6A
S1132E90EE1FFF1FA217B307E407F50720F0A21BDC
S1132EA0B30BE40BF50B661F771F881F991F1A9449
S1132EB069F760957095809590959B01AC01BD0173
S1132EC0CF010895AA1BBB1B51E107C0AA1FBB1F5A
S1132ED0A617B70710F0A61BB70B881F991F5A95A2
S1132EE0A9F780959095BC01CD010895EE0FFF1FC1
S1132EF00590F491E02D0994EF920F931F93CF93D3
S1132F00DF93E80147FD02C034E001C034E1042E40
S1132F10000C550B57FF03C0519541955109E32E01
S1132F20022F242FAE010E94C61BCE01DF91CF9148
S1132F301F910F91EF9008950F931F93CF93DF93F9
S1132F408230910510F482E090E0E091A004F091C9
S1132F50A10420E030E0A0E0B0E0309719F1408116
S1132F6051810281138148175907C8F084179507C6
S1132F7069F4109731F012960C93129713961C93E0
S1132F8027C00093A0041093A10422C02115310589
S1132F9019F04217530718F49A01BD01EF01DF013C
S1132FA0F801DBCF21153105F9F0281B390B24304A
S1132FB0310580F48A819B816115710521F0FB0143
S1132FC09383828304C09093A1048093A004FE01A0
S1132FD0329644C0FE01E20FF31F81939193225075
S1132FE03109398328833AC020919E0430919F048B
S1132FF0232B41F4209102013091030130939F046B
S113300020939E0420910001309101012115310586
S113301041F42DB73EB74091040150910501241BA2
S1133020350BE0919E04F0919F04E217F307A0F49E
S11330302E1B3F0B2817390778F0AC014E5F5F4F0A
S11330402417350748F04E0F5F1F50939F04409399
S11330509E048193919302C0E0E0F0E0CF01DF9100
S1133060CF911F910F910895CF93DF93009709F4A7
S113307081C0FC01329713821282A091A004B09106
S1133080A104109781F420813181820F931F209134
S11330909E0430919F042817390751F5F0939F043B
S11330A0E0939E0467C0ED0120E030E0CE17DF0717
S11330B040F44A815B819E0141155105F1F0EA011A
S11330C0F5CFD383C28340815181840F951FC817E4
S11330D0D90759F488819981840F951F02969183A9
S11330E080838A819B81938382832115310529F40E
S11330F0F093A104E093A0043DC0E901FB83EA83BB
S113310049915991C40FD51FEC17FD0761F48081D3
S11331109181840F951F0296E901998388838281A6
S113312093819B838A83E0E0F0E012968D919C91D9
S11331301397009719F0FD01DC01F7CF8D919C9155
S113314011979D012E5F3F4F820F931F20919E0484
S113315030919F042817390769F4309729F41092A5
S1133160A1041092A00402C013821282B0939F049F
S1133170A0939E04DF91CF910895A0E0B0E0E3EC2A
S1133180F8E10C94BC1EEC01009721F4CB010E94E1
S11331909C17B4C0FC01E60FF71F9C0122503109B3
S11331A0E217F30708F4A8C0D9010D911C911197F7
S11331B006171707B0F00530110508F49BC0C801C5
S11331C004978617970708F495C002501109061B47
S11331D0170B019311936D937C93CF010E943418C4
S11331E089C05B01A01AB10A4C01800E911EA09106
S11331F0A004B091A104612C712CE12CF12C109746
S113320009F446C08D919C911197A815B905B1F5A3
S11332106C0142E0C40ED11CCA14DB0478F14C01E9
S11332208A189B08640142E0C40ED11C1296BC901B
S113323012971396AC91B5E0CB16D10440F0B2824C
S1133240A38391828082D9016D937C9309C00E5F20
S11332501F4F800F911FF90191838083EB2DFA2F6B
S1133260E114F10431F0D7011396FC93EE93129715
S113327041C0F093A104E093A0043CC06816790611
S113328008F43C017D0112960D90BC91A02DB7CF9E
S113329080919E0490919F0488169906E1F4661625
S11332A07706C8F48091000190910101009741F4E0
S11332B08DB79EB74091040150910501841B950B75
S11332C0E817F907C8F4F0939F04E0939E04F9010A
S11332D0718360830FC0CB010E949C177C0100970F
S11332E059F0A801BE010E948319CE010E9434182E
S11332F0C70104C0CE0102C080E090E0CDB7DEB7C4
S1133300EEE00C94D81EFB01DC0102C001900D928A
S113331041505040D8F70895FB01DC0101900D9213
S11333200020E1F708954532510520F4423010F0B1
S11333300C949E19FB011082CB010895BB274A30DF
S113334031F4992322F4BDE2909581959F4F0C941A
S1133350AA19BB27FB015527AA27880F991FAA1F63
S1133360A41710F0A41B83955051B9F7A05DAA339C
S113337008F0A95DA193009779F7B111B193119267
S1133380CB010C940E1EAEE0B0E0E9ECF9E10C9434
S1133390C61E0D891E8986E08C831A8309838FEFEC
S11333A09FE79E838D83AE01475E5F4F6F89788D63
S11333B0CE0101960E94E519EF81F885E00FF11F17
S11333C010822E96E4E00C94E21EABE0B0E0EBEE4B
S11333D0F9E10C94B81E6C017B018A01FC0117828F
S11333E01682838181FFCCC1CE0101963C01F60196
S11333F09381F70193FD859193FF81917F01882348
S113340009F4BAC1853239F493FD859193FF819112
S11334107F01853229F4B60190E00E941E1EE7CF99
S1133420912C212C312CFFE1F315D8F08B3279F05B
S113343038F4803279F08332A1F4232D20611DC049
S11334408D3261F0803369F4232D216016C0832D01
S11334508260382EE32DE4603E2E2AC0F32DF860FE
S11334601DC037FC2DC020ED280F2A3040F08E32CD
S1133470B9F436FC81C1232D2064322E19C036FEE6
S113348006C08AE0989E200D1124922E11C0EAE015
S11334902E9E200D1124222EF32DF0623F2E08C003
S11334A08C3621F4832D8068382E02C0883641F48E
S11334B0F70193FD859193FF81917F018111B3CF32
S11334C0982F9F7D9554933028F40C5F1F4F9FE3F2
S11334D099830DC0833631F0833771F0833509F059
S11334E059C021C0F801808189830E5F1F4F882451
S11334F08394912C530113C02801F2E04F0E511C08
S1133500F801A080B18036FE03C0692D70E002C0CE
S11335106FEF7FEFC5010E94031E4C018201F32D62
S1133520FF773F2E16C0280122E0420E511CF801FD
S1133530A080B18036FE03C0692D70E002C06FEF39
S11335407FEFC5010E94F81D4C01F32DF0683F2E5A
S1133550820133FC1BC0822D90E088169906B0F4DA
S1133560B60180E290E00E941E1E2A94F4CFF50179
S113357037FC859137FE81915F01B60190E00E948E
S11335801E1E21102A9421E0821A910881149104AC
S113359071F7E8C0843611F0893641F5F80137FE39
S11335A007C060817181828193810C5F1F4F08C0C5
S11335B060817181072E000C880B990B0E5F1F4FE1
S11335C0F32DFF763F2E97FF09C090958095709557
S11335D061957F4F8F4F9F4FF0683F2E2AE030E078
S11335E0A3010E945A1E882E861845C0853731F4DF
S11335F0232D2F7EB22E2AE030E025C0932D997F13
S1133600B92E8F36C1F018F4883579F0B5C08037FB
S113361019F0883721F0B0C0E92FE061BE2EB4FE66
S11336200DC0FB2DF460BF2E09C034FE0AC0292F43
S11336302660B22E06C028E030E005C020E130E06C
S113364002C020E132E0F801B7FE07C06081718159
S1133650828193810C5F1F4F06C06081718180E07D
S113366090E00E5F1F4FA3010E945A1E882E8618F9
S1133670FB2DFF773F2E36FE0DC0232D2E7FA22E6D
S1133680891458F434FE0BC032FC09C0832D8E7E9D
S1133690A82E05C0B82CA32C03C0B82C01C0B92C8B
S11336A0A4FE0FC0FE01E80DF11D8081803321F4DA
S11336B09A2D997EA92E09C0A2FE06C0B394B39494
S11336C004C08A2D867809F0B394A3FC11C0A0FE2F
S11336D006C0B21488F4280C922C9B180EC0B214A5
S11336E060F4B60180E290E00E941E1EB394F7CF0E
S11336F0B21418F42B1802C0982C212CA4FE10C06C
S1133700B60180E390E00E941E1EA2FE17C0A1FC39
S113371003C088E790E002C088E590E0B6010CC0E1
S11337208A2D867859F0A1FE02C08BE201C080E2A6
S1133730A7FC8DE2B60190E00E941E1E891438F4A5
S1133740B60180E390E00E941E1E9A94F7CF8A94FB
S1133750F301E80DF11D8081B60190E00E941E1E68
S11337608110F5CF222009F442CEB60180E290E028
S11337700E941E1E2A94F6CFF6018681978102C00C
S11337808FEF9FEF2B96E2E10C94D41EA9E0B0E0FA
S1133790ECECFBE10C94BE1E6A01122FB02E2BE35D
S11337A0201720F0FF24F394F00E02C02CE3F22E35
S11337B00F2D27E0AE014F5F5F4F0E94201DBC011B
S11337C04981842F8970813031F0E1FC06C0E0FE2C
S11337D006C090E205C09DE203C09BE201C090E0F8
S11337E05E2D507143FF3CC0911102C083E001C0C3
S11337F084E0811718F4212F281B01C020E0511107
S11338000BC0F601822F30E2882319F031938150E6
S1133810FBCFC20ED11C20E0992329F0D6019C9342
S1133820F60131966F01C6010396E2FE0AC03EE43A
S1133830D6013C9341E411964C93119712963C9314
S113384006C03EE6F601308341E641833283FC0143
S1133850322F40E2332309F442C041933150FACF6E
S113386042FF44C0911102C083E001C084E081178B
S113387018F4212F281B01C020E051110BC0F601C0
S1133880822F30E2882319F031938150FBCFC20E8E
S1133890D11C20E0992329F0D6019C93F60131969E
S11338A06F01C6010396E2FE0BC039E4D6013C93D6
S11338B03EE411963C93119736E412963C9307C06C
S11338C039E6F60130833EE6318336E63283FC0185
S11338D0322F40E2332319F041933150FBCFFC01E6
S11338E0E20FF11D10828EEF9FEFA6C021E030E0C1
S11338F0911102C020E030E0161617061CF4FB01FB
S1133900319602C0E1E0F0E02E0F3F1FBB2021F012
S1133910EB2DF0E0319602C0E0E0F0E02E0F3F1F07
S1133920E12FF0E02E173F071CF4121B212F01C0DA
S113393020E08E2D887159F4F601822F30E288231D
S113394019F031938150FBCFC20ED11C20E0992392
S113395029F0D6019C93F60131966F0151110BC0E9
S1133960F601822F90E3882319F091938150FBCFC5
S1133970C20ED11C20E00F2D060F9A81342F307116
S113398044FF03C0913309F40150101624F40930A4
S113399018F008E001C001E0AB0177FF02C040E08D
S11339A050E0FB01E41BF50BA1E0B0E0AC0FBD1F40
S11339B0EA0FFB1F8EE2A82E4B01801A91080B2DF3
S11339C010E01195019511094F3FBFEF5B0721F4FA
S11339D0D601AC9211966D01641775072CF084160C
S11339E0950614F4818101C080E341505109319658
S11339F0D60111967D014017510724F0D6018C930E
S1133A006701E2CF6417750739F4963320F49533D0
S1133A1019F4311101C081E3F6018083F701822F8B
S1133A2090E2882319F091938150FBCFF701E20FC4
S1133A30F11D108280E090E02996ECE00C94DA1EEF
S1133A40283008F027E03327DA01990F311D87FD6C
S1133A50916000966105710539F432602E5F3D93E3
S1133A6030E32A95E1F708959F3F30F080387105DF
S1133A70610509F03C5F3C5F3D93913008F080683C
S1133A80911DDF93CF931F930F93FF92EF92192F02
S1133A90987F9695E92F96959695E90FFF27EE5313
S1133AA0FF4F99273327EE24FF24A701E701059050
S1133AB00894079428F4360FE71EF81E491F511D79
S1133AC0660F771F881F991F0694A1F70590079426
S1133AD028F4E70EF81E491F561FC11D770F881FD3
S1133AE0991F661F0694A1F70590079428F4F80E11
S1133AF0491F561FC71FD11D880F991F661F771FA7
S1133B000694A1F70590079420F4490F561FC71F88
S1133B10D81F990F661F771F881F0694A9F78491F1
S1133B201095177041F0D695C79557954795F7941A
S1133B30E7941A95C1F7E8E6F0E0689415901591BA
S1133B4035916591959105907FE27395E118F10A9D
S1133B50430B560BC90BD009C0F7E10CF11E431FF0
S1133B60561FC91FD01D7EF4703311F48A95E6CF19
S1133B70E894015030F0080F0AF40027021708F403
S1133B80202F2395022F7A3328F079E37D932A9509
S1133B90E9F710C07D932A9589F606949795679561
S1133BA0379517951794E118F10A430B560BC90B77
S1133BB0D00998F023957E9173957A3308F070E3D9
S1133BC07C932013B8F77E9170617D9330F08395D8
S1133BD071E37D9370E32A95E1F71124EF90FF9050
S1133BE00F911F91CF91DF91992787FD90950895AB
S1133BF0FC010590615070400110D8F780959095B4
S1133C008E0F9F1F0895FC016150704001900110B8
S1133C10D8F7809590958E0F9F1F0895DC01FC01C5
S1133C20672F71917723E1F7329704C07C916D93EC
S1133C3070836291AE17BF07C8F308950F931F9363
S1133C40CF93DF93FB01238121FD03C08FEF9FEF0F
S1133C502CC022FF16C0468157812481358142172A
S1133C60530744F4A081B1819D012F5F3F4F3183FD
S1133C7020838C93268137812F5F3F4F37832683A0
S1133C8014C08B01EC01FB010084F185E02D099542
S1133C90892BE1F6D80116968D919C911797019680
S1133CA017969C938E931697CE01DF91CF911F9117
S1133CB00F910895FA01AA27283051F1203181F19A
S1133CC0E8946F936E7F6E5F7F4F8F4F9F4FAF4F20
S1133CD0B1E03ED0B4E03CD0670F781F891F9A1F33
S1133CE0A11D680F791F8A1F911DA11D6A0F711DE7
S1133CF0811D911DA11D20D009F468943F912AE0F3
S1133D00269F11243019305D3193DEF6CF010895DA
S1133D10462F4770405D4193B3E00FD0C9F7F6CF0B
S1133D20462F4F70405D4A3318F0495D31FD4052D3
S1133D30419302D0A9F7EACFB4E0A6959795879569
S1133D4077956795BA95C9F7009761057105089548
S1133D509B01AC010A2E06945795479537952795F4
S1133D60BA95C9F7620F731F841F951FA01D08958C
S1133D702F923F924F925F926F927F928F929F9277
S1133D80AF92BF92CF92DF92EF92FF920F931F9365
S1133D90CF93DF93CDB7DEB7CA1BDB0B0FB6F89416
S1133DA0DEBF0FBECDBF09942A88398848885F8456
S1133DB06E847D848C849B84AA84B984C884DF80C7
S1133DC0EE80FD800C811B81AA81B981CE0FD11DAB
S1133DD00FB6F894DEBF0FBECDBFED01089510E01D
S1133DE0CCEDD0E004C0FE010E9476172196CD3DB3
S10B3DF0D107C9F7F894FFCFD5
S1133DF80000A20420009F0A9F0A0100004000144A
S1133E08005400436C6F73696E6700436C6F73658D
S1133E1820436F6D706C6574650052656C61792020
S1133E2870696E732073657420746F206F75747075
S1133E387574004F70656E696E67004F70656E200B
S1133E48436F6D706C65746500456D657267656E6A
S1133E58637900456D657267656E63792046696E9E
S1133E686973686564004552524F520045525220A6
S1133E78436865636B4C696768743A20496E766178
S1133E886C69642054696D654F6644617920417298
S1133E9867205061737365640055703A4F70656E9E
S1133EA820446E3A436C6F73654C66743A44617986
S1133EB82052743A4E69676874004D61696E204DEA
S1133EC8656E750053656C3A457363617065004FA0
S1133ED870656E696E6720446F6F7200436C6F7310
S1133EE8696E6720446F6F7200446179204D6F6476
S1133EF8652020202020202020546D703A25734C02
S1133F0868743A257300446179204D6F64652020F4
S1133F18202020202020546D703A00204C68743AE8
S1133F28004E69676874204D6F6465202020202046
S1133F3820546D703A25734C68743A257300557093
S1133F483A4F70656E20446E3A436C6F7365204C2B
S1133F5866743A4461792052743A4E696768740009
S1133F6800000000C5083C0A8608120958087208AF
S1133F7864080D0A006E616E00696E66006F7666ED
S1133F8800000000007B113C0A99099C090000000C
S1133F98002214F5139909BE1393139B13AF13004E
S9030000FC
