S013000064656D6F5F616E616C6F672E737265639B
S11300000C9460000C942B070C9452070C948800F9
S11300100C9488000C9488000C9488000C9488003C
S11300200C9488000C9488000C9488000C9488002C
S11300300C9488000C9488000C9488000C9488001C
S11300400C9479070C9442040C9406060C9438061C
S11300500C9488000C9488000C9488000C948800FC
S11300600C9497110C948800000000080002010011
S1130070000304070000000000000000010204085F
S113008010204080010204081020010204081020FE
S1130090040404040404040402020202020203032A
S11300A00303030300000000250028002B000000C8
S11300B00000240027002A00A90468069410B9044B
S11300C011241FBECFEFD8E0DEBFCDBF12E0A0E009
S11300D0B1E0E4EBFFE202C005900D92AC36B1074B
S11300E0D9F724E0ACE6B2E001C01D92AE30B2070D
S11300F0E1F710E0CFE5D0E004C02197FE010E94B3
S1130100E612CC35D107C9F70E9496060C94CD1798
S11301100C940000EF92FF920F931F93CF93DF9301
S1130120EC017B018A010E94EE0B40E060E0CE010D
S11301300E94F50BB701CE010E94E60641E060E0A3
S1130140CE010E94F50BB801CE010E94E60640E004
S113015060E0CE01DF91CF911F910F91FF90EF905E
S11301600C94F50B0F931F93CF93DF93CDB7DEB7AA
S11301702C970FB6F894DEBF0FBECDBF8C0161E49F
S113018072E0CE0107960E947C09F80182A593A52E
S1130190009719F0019741F00EC0B801605D7F4FE0
S11301A0CE0107960E94CE09B8016A5C7F4FCE014A
S11301B007960E94CE09F80146A557A584A595A5E2
S11301C04817590714F415A614A6F80124A535A553
S11301D04217530741F42B853C8594E0440F551F87
S11301E09A95E1F70AC02F5F3F4F84E0220F331F37
S11301F08A95E1F7A90140515109BE01695F7F4F1A
S1130200CE0101960E94110ABE016F5F7F4FCE019D
S113021007960E94EE09CE0101960E940E09F8018C
S113022042A560E0C8010E94F50BBE01695F7F4FE3
S1130230C8010E94E60640E060E0C8010E94F50B98
S1130240F80104A515A50F5F1F4FCE0107960E9464
S11302500E09C8012C960FB6F894DEBF0FBECDBFB1
S1130260DF91CF911F910F9108954F925F926F92FA
S11302707F928F929F92AF92BF92CF92DF92EF9232
S1130280FF920F931F93CF93DF93CDB7DEB72C97D5
S11302900FB6F894DEBF0FBECDBF4C013B012A015F
S11302A0B22EC0960E94CE09B201C401C6960E9425
S11302B0CE09F401F7A6E6A6D3A6C2A6F80180816A
S11302C09181F401978F868FF80182819381F401E3
S11302D091A380A3F80184819581F40193A382A35F
S11302E0F80186819781F40195A384A3F8018085A0
S11302F09185F40197A386A36B2DC4010E94840AFF
S1130300F401A4AEA1101EC015A614A6B201CE011C
S113031001960E94E509B301CE0107960E94E50902
S1130320AE014F5F5F4FBE01695F7F4FC4010E9402
S11303308A00CE0107960E940E09CE0101960E9402
S11303400E0906C0C4010E94B200F40195A784A757
S11303502C960FB6F894DEBF0FBECDBFDF91CF91C0
S11303601F910F91FF90EF90DF90CF90BF90AF90CF
S11303709F908F907F906F905F904F9008958F9291
S11303809F92AF92CF92DF92EF92FF920F931F93BF
S1130390CF93DF93CDB7DEB7AC970FB6F894DEBF3B
S11303A00FBECDBF4C01C801442321F0C4010E94FB
S11303B0B2009EC08E010F5F1F4F6230710559F16C
S11303C0ECF46115710509F459C06130710509F047
S11303D055C01A8219828FEF9FEF9C838B839E8373
S11303E08D8398878F839A8789876DE371E0CE0127
S11303F081960E947C0968E471E021C06330710534
S113040059F164307105D1F59F938F933F932F93E6
S113041080E891E027C01A8219828FEF9FEF9C83B6
S11304208B839E838D8398878F839A8789876DE3D7
S113043071E0CE0181960E947C0965E571E0CE01F0
S113044087960E947C09A12CCC24CA94DC2CE12C34
S1130450F12C23E030E03BC09F938F933F932F9385
S113046082E691E09F938F931F930F930E94E3146E
S11304700FB6F894DEBF0FBECDBF3AC08FEF9FEF2B
S11304809A83898381E090E09C838B8382E090E06F
S11304909E838D8383E090E098878F8384E090E04F
S11304A09A87898763E171E0CE0181960E947C0975
S11304B063E371E0CE0187960E947C09A12CCC24D1
S11304C0C394D12CEE24E394F12C22E030E0AE016D
S11304D04F5D5F4FBE01695D7F4FC4010E943501CE
S11304E0CE0187960E940E09CE0181960E940E09C4
S11304F0AC960FB6F894DEBF0FBECDBFDF91CF919F
S11305001F910F91FF90EF90DF90CF90AF909F904D
S11305108F9008950F931F93CF93DF93EC01FB010A
S1130520828193819B838A8382E592E09983888385
S113053084818C8385818D8386818E8388E0379640
S1130540DE01179601900D928A95E1F785E0FB0193
S11305503F96DE011F9601900D928A95E1F7FB010B
S113056084898C8B85898D8B86898E8B87898F8BEB
S1130570808D888F818D898F828D8A8F838D8B8FDB
S113058061E472E0CE01C0960E947C0961E472E0ED
S1130590CE01C6960E947C0920E042E060E1CE01D3
S11305A00E942B0CCE010E94EE0B01E412E0980194
S11305B040E060E070E0CE010E94BF01DF91CF9186
S11305C01F910F9108950F931F93CF93DF93EC0125
S11305D00E94190D80FF06C06E8D7F8D6F3F9FEFC7
S11305E0790701F583FF06C068A179A16F3F9FEFEA
S11305F07907C1F482FF06C06AA17BA16F3F9FEF18
S1130600790781F484FF06C06CA17DA16F3F9FEF41
S1130610790741F481FF12C06EA17FA16F3F8FEF74
S1130620780761F001E412E0980140E0CE010E94F5
S1130630BF01DF91CF911F910F910895CE01DF91FA
S1130640CF911F910F910C94B2000F931F93CF93EE
S1130650DF93CDB7DEB76C970FB6F894DEBF0FBE4D
S1130660CDBF26E040E855E260E070E080EA92E029
S11306700E949D058EE692E0FC01228133813C8339
S11306802B8322E532E03A83298324812D8325813B
S11306902E8326812F8328E0E5E7F2E0DE01189619
S11306A001900D922A95E1F725E0EDE7F2E0DE01F5
S11306B0509601900D922A95E1F7FC0124892D8B27
S11306C025892E8B26892F8B2789288F208D298F8A
S11306D0218D2A8F228D2B8F838D8C8F8DE390E03B
S11306E00E94A5068C01BE016F5F7F4F0E948A02A3
S11306F010936D0200936C0260E08AE00E94A208ED
S113070060E089E00E94A20862E082E00E94A20800
S113071043E050E068E974E080E00E940B0780E069
S11307200E94760881E080938B0210928A028CB535
S113073080688CBD78946EE971E080EA92E00E9452
S1130740F8066C960FB6F894DEBF0FBECDBFDF91EE
S1130750CF911F910F9108950F931F9368EB7BE046
S113076080E090E00E94F4076CEA71E080EA92E095
S11307700E94F80620919E0230919F0280919C0273
S113078090919D022817390739F064EB71E080EAF3
S113079092E00E94F80615C00E94C30700919802D7
S11307A01091990220919A0230919B02DC01CB01B5
S11307B0801B910BA20BB30B893B9B40A105B10598
S11307C0C0F080916C0290916D020E94E3028091CE
S11307D09C0290919D0290939F0280939E020E949E
S11307E0C307609398027093990280939A0290933E
S11307F09B021F910F9108951F93CF93DF9361E0A4
S11308008AE00E94A20861E089E00E94A20863EDE8
S113081071E080EA92E00E94F80661E08AE00E94BA
S1130820DE0860E089E00E94DE08C8EFDAE210E04A
S113083080918B02882399F061E070E080E090E081
S11308400E94F407112349F060E08AE00E94DE0868
S113085060E089E00E94DE0802C0219749F760E069
S11308608AE00E94DE0860E089E00E94DE0860E021
S11308708AE00E94A20860E089E0DF91CF911F9195
S11308800C94A2081F920F920FB60F9211242F936B
S11308903F934F935F936F937F938F939F93AF9304
S11308A0BF93EF93FF9362E072E080EA92E00E94CC
S11308B0F806FF91EF91BF91AF919F918F917F9136
S11308C06F915F914F913F912F910F900FBE0F90B9
S11308D01F90189560E089E00E94DE0860E08AE0DD
S11308E00E94DE0860E089E00E94A20860E08AE0DD
S11308F00E94A20868EE73E080E090E00E94F40792
S113090060E172E080EA92E00E94F80688EE93E0EB
S11309100E94FC0360E089E00E94A20860E08AE093
S11309200E94A2086AE172E080EA92E00C94F80660
S113093080918A02882361F060E089E00E94DE08E9
S113094060E08AE00E94DE080E946A0410928B0232
S1130950089561E472E082E992E00E947C0961E416
S113096072E08CE892E00E947C098EE692E00C949E
S1130970560A8CE892E00E940E0982E992E00C94F7
S11309800E09FC01918D228D892F90E0805C9F4F90
S1130990821B91098F7399270895FC01918D828D93
S11309A0981731F0828DE80FF11D858D90E0089540
S11309B08FEF9FEF0895FC01918D828D981761F060
S11309C0828DDF01A80FB11D5D968C91928D9F5F82
S11309D09F73928F90E008958FEF9FEF0895FC012D
S11309E0538D448D252F30E0842F90E0821B930B90
S11309F0541710F0CF960895019708958EE596E068
S1130A00892B49F080E090E0892B29F00E945E0652
S1130A1081110C9400000895FC01848DDF01A80F5E
S1130A20B11DA35ABF4F2C91848D90E001968F7312
S1130A309927848FA689B7892C93A089B1898C9131
S1130A40837080648C93938D848D981306C0028880
S1130A50F389E02D80818F7D80830895EF92FF924A
S1130A600F931F93CF93DF93EC0181E0888F9B8DCD
S1130A708C8D981305C0E889F989808185FD26C08D
S1130A80F62E0B8D10E00F5F1F4F0F731127E02E12
S1130A908C8DE8120CC00FB607FCFACFE889F989EF
S1130AA0808185FFF5CFCE010E940C05F1CF8B8D9F
S1130AB0FE01E80FF11DE35AFF4FF0829FB7F8944F
S1130AC00B8FEA89FB89808180620AC09FB7F89402
S1130AD0EE89FF896083E889F98980818370806465
S1130AE080839FBF81E090E0DF91CF911F910F91B0
S1130AF0FF90EF900895CF93DF93EC01888D8823C6
S1130B00C9F0EA89FB89808185FD05C0A889B98976
S1130B108C9186FD0FC00FB607FCF5CF808185FF51
S1130B20F2CFA889B9898C9185FFEDCFCE010E94BF
S1130B300C05E7CFDF91CF910895CF92DF92EF922A
S1130B40FF921F93CF93DF93EC016A017B01122F75
S1130B50E889F98982E080834115514E6105710568
S1130B60B1F060E079E08DE390E0A70196010E9486
S1130B70C412DA01C9010197A109B109B695A79573
S1130B80979587959C01211580E13807A8F0E8899D
S1130B90F989108260E874E88EE190E0A70196017B
S1130BA00E94C412DA01C9010197A109B109B695DD
S1130BB0A795979587959C01EC85FD853083EE85F7
S1130BC0FF852083188EEC89FD891083EA89FB89CF
S1130BD0808180618083EA89FB8980818860808349
S1130BE0EA89FB89808180688083EA89FB89808126
S1130BF08F7D8083DF91CF911F91FF90EF90DF90E5
S1130C00CF90089580E090E0089508951F920F9288
S1130C100FB60F9211242F938F939F93EF93FF930B
S1130C20E091B002F091B1028081E091B602F091BE
S1130C30B70282FD12C090818091B9028F5F8F73D9
S1130C402091BA02821751F0E091B902F0E0E05627
S1130C50FD4F958F8093B90201C08081FF91EF9180
S1130C609F918F912F910F900FBE0F901F90189509
S1130C701F920F920FB60F9211242F933F934F930D
S1130C805F936F937F938F939F93AF93BF93EF93F0
S1130C90FF9380EA92E00E940C05FF91EF91BF91CF
S1130CA0AF919F918F917F916F915F914F913F9100
S1130CB02F910F900FBE0F901F90189580EA92E02D
S1130CC00E94C10421E0892B09F420E0822F0895B9
S1130CD0E0EAF2E01382128288EE93E0A0E0B0E052
S1130CE084839583A683B78381E392E09183808391
S1130CF085EC90E09587848784EC90E097878687DD
S1130D0080EC90E0918B808B81EC90E0938B828BD4
S1130D1082EC90E0958B848B86EC90E0978B868BAD
S1130D20118E128E138E148E089508950E943B081E
S1130D300E9495060E942503CEEFD4E00E94AC03E6
S1130D402097E1F30E94FE04F9CF0C94EC12CF92A9
S1130D50DF92EF92FF920F931F93CF93DF936C0177
S1130D607A018B01C0E0D0E0CE15DF0581F0D80117
S1130D706D918D01D601ED91FC910190F081E02DF2
S1130D80C6010995892B11F02196EECF7E01C7018A
S1130D90DF91CF911F910F91FF90EF90DF90CF9053
S1130DA008956115710579F0FB0101900020E9F7C0
S1130DB03197AF01461B570BDC01ED91FC9102808A
S1130DC0F381E02D099480E090E00895DB0114960E
S1130DD04D915C9115976D917C91DC01ED91FC91A5
S1130DE00280F381E02D09946FE372E00C94D10644
S1130DF00F931F93CF93DF93EC010E94D1068C01D4
S1130E00CE010E94F406800F911FDF91CF911F91B4
S1130E100F91089508958230E8F4E82FF0E0EE0F82
S1130E20FF1FEA5FFE4F71836083813041F0809140
S1130E3069008C7F482B40936900E89A089580915B
S1130E406900837F440F551F440F551F482B40935F
S1130E506900E99A08951F920F920FB60F92112418
S1130E602F933F934F935F936F937F938F939F93AE
S1130E70AF93BF93EF93FF93E0910601F0910701C5
S1130E800995FF91EF91BF91AF919F918F917F91C0
S1130E906F915F914F913F912F910F900FBE0F90E3
S1130EA01F9018951F920F920FB60F9211242F9333
S1130EB03F934F935F936F937F938F939F93AF93DE
S1130EC0BF93EF93FF93E0910801F0910901099515
S1130ED0FF91EF91BF91AF919F918F917F916F910E
S1130EE05F914F913F912F910F900FBE0F901F90E4
S1130EF018951F920F920FB60F9211242F933F93C0
S1130F008F939F93AF93BF9380913E0390913F0340
S1130F10A0914003B091410330913D0323E0230F9E
S1130F202D3720F40196A11DB11D05C026E8230F1D
S1130F300296A11DB11D20933D0380933E0390931F
S1130F403F03A0934003B0934103809142039091E7
S1130F504303A0914403B09145030196A11DB11D23
S1130F608093420390934303A0934403B0934503B7
S1130F70BF91AF919F918F913F912F910F900FBE91
S1130F800F901F9018952FB7F89460913E037091BD
S1130F903F0380914003909141032FBF08953FB7D1
S1130FA0F8948091420390914303A0914403B0913B
S1130FB0450326B5A89B05C02F3F19F00196A11D36
S1130FC0B11D3FBFBA2FA92F982F8827820F911DDB
S1130FD0A11DB11DBC01CD0142E0660F771F881F22
S1130FE0991F4A95D1F708958F929F92AF92BF921D
S1130FF0CF92DF92EF92FF926B017C010E94CF07A8
S11310004B015C01C114D104E104F10401F10E941B
S113101098100E94CF07DC01CB0188199909AA090D
S1131020BB09883E9340A105B10560F321E0C21AD3
S1131030D108E108F10888EE880E83E0981EA11C0F
S1131040B11CC114D104E104F10419F7DBCFFF9002
S1131050EF90DF90CF90BF90AF909F908F900895C6
S11310608230910538F0880F991F880F991F0597D2
S11310700197F1F70895789484B5826084BD84B5AE
S1131080816084BD85B5826085BD85B5816085BD7F
S1131090EEE6F0E0808181608083E1E8F0E0108298
S11310A0808182608083808181608083E0E8F0E0D9
S11310B0808181608083E1EBF0E0808184608083C3
S11310C0E0EBF0E0808181608083EAE7F0E08081FA
S11310D0846080838081826080838081816080835A
S11310E08081806880831092C100089580930A01F2
S11310F00895833081F028F4813099F08230A1F092
S113110008958730A9F08830B9F08430D1F4809103
S113111080008F7D03C0809180008F778093800052
S1131120089584B58F7702C084B58F7D84BD0895FA
S11311308091B0008F7703C08091B0008F7D809341
S1131140B0000895CF93DF9390E0FC01E458FF4F83
S11311502491FC01E057FF4F8491882361F190E0D2
S1131160880F991FFC01E255FF4FC591D491FC01F2
S1131170EC55FF4FA591B491611109C09FB7F89444
S11311808881209582238883EC912E230BC06230C2
S113119061F49FB7F8948881322F30958323888334
S11311A0EC912E2B2C939FBF06C08FB7F894E88147
S11311B02E2B28838FBFDF91CF9108951F93CF9358
S11311C0DF93282F30E0F901E859FF4F8491F901AA
S11311D0E458FF4FD491F901E057FF4FC491CC2359
S11311E0C1F0162F81110E947908EC2FF0E0EE0F68
S11311F0FF1FEC55FF4FA591B4919FB7F8941111BF
S113120004C08C91D095D82302C0EC91DE2BDC93E2
S11312109FBFDF91CF911F9108950895FC018081B4
S113122091810C948413CF93DF93EC01888199818D
S1131230009711F00E948413198218821D821C8267
S11312401B821A82DF91CF9108950F931F93CF933E
S1131250DF93EC018B016F5F7F4F888199810E943E
S11312600D14009731F0998388831B830A8381E0EE
S113127001C080E0DF91CF911F910F910895CF932A
S1131280DF93EC0188819981892B29F08A819B81E4
S11312908617970760F4CE010E942509882341F040
S11312A08C819D81892B19F4E881F981108281E078
S11312B0DF91CF910895EF92FF920F931F93CF93F5
S11312C0DF93EC017B018A01BA010E943F0981117D
S11312D004C0CE010E94130907C01D830C83B7010B
S11312E0888199810E94DC14CE01DF91CF911F91F6
S11312F00F91FF90EF900895FC01118210821382E8
S11313001282158214826115710551F0FB0101905E
S11313100020E9F73197AF01461B570B0C945B098A
S113132008950F931F93CF93DF938C01EB01FC017E
S1131330808191810097D1F068817981611571056F
S113134099F02DE039E0232B79F0428153812C81EF
S11313503D814217530740F00E94DC148C819D812B
S1131360F8019583848313C00E9484138881998132
S1131370F801918380838A819B81938382838C810A
S11313809D8195838483198218821B821A821D820F
S11313901C82DF91CF911F910F910895CF93DF931A
S11313A0EC01FB018617970761F06081718161157B
S11313B0710529F0448155810E945B0902C00E9495
S11313C01309CE01DF91CF910895FC01118210829F
S11313D013821282158214820C94CE09CF93DF9368
S11313E0EC018617970711F00E949109CE01DF9155
S11313F0CF910895CF93DF93EC016115710559F0F6
S1131400FB0101900020E9F73197AF01461B570B10
S11314100E945B0902C00E941309CE01DF91CF91A3
S11314200895BF92CF92DF92EF92FF920F931F9392
S1131430CF93DF937C016B018A01E90124173507FF
S113144020F4812F8901C42FD82F61E472E0C701F1
S11314500E947C09D60114968D919C9115970817CA
S11314601907C8F48C179D0708F4EC01D601ED9117
S1131470FC911197EC0FFD1FB08010826D917C914F
S1131480600F711FC7010E94FA09D601ED91FC910A
S1131490EC0FFD1FB082C701DF91CF911F910F9117
S11314A0FF90EF90DF90CF90BF900895FC011382DE
S11314B0128282E592E091838083128E148A8FE0F7
S11314C084838EE085838DE086838CE087838BE044
S11314D080878AE0818789E08287178681E0808B14
S11314E082E0818B83E0828B84E0838B0895FC010E
S11314F0962F828D8F3F21F0CF014B960C94C20E14
S1131500642F892F0C94DE080F931F93CF93DF93DE
S1131510D62F8C01055E1F4FC1E062FB442740F9C2
S11315204C2768E0C8010E94C20ED1FB442740F951
S11315304C2767E0C8010E94C20E4D2F41704C2712
S113154066E0C801DF91CF911F910F910C94C20EF8
S1131550FC01962F828D8F3F21F0CF014B960C9486
S11315609B0D642F892F0C94A208CF93DF93EC0179
S113157040E06E810E94770A81E090E00E9430088A
S113158041E06E81CE010E94770A81E090E00E94E2
S1131590300840E06E81CE010E94770A84E690E034
S11315A0DF91CF910C943008AF92BF92CF92DF922B
S11315B0EF92FF920F931F93CF93DF938C01FC0163
S11315C0828D9801295F3F4F7901C62FD0E08F3F6C
S11315D009F473C068013BE1C30ED11CC6010E942B
S11315E0FD0DF70140E050E0A1E0B0E0B190EE2441
S11315F0E394F12CBD010B2C02C0660F771F0A94F3
S1131600E2F760957095862397239E01042E02C00D
S1131610359527950A94E2F72170332702C0220FEB
S1131620331FBA94E2F7822B932B4F5F5F4F443002
S11316305105E1F6E701F801068002C0CC0FDD1F79
S11316400A94E2F7C095D095C823D923BE01C601F8
S11316500E94800D81E090E00E943008C701F801EB
S1131660068002C0880F991F0A94E2F7C82BD92B71
S1131670BE01C6010E94800D81E090E00E94300806
S1131680B701F801068002C0660F771F0A94E2F7DB
S1131690609570956C237D23C6010E94800D84E6BD
S11316A090E0DF91CF911F910F91FF90EF90DF9029
S11316B0CF90BF90AF900C943008C12CD12C57011F
S11316C041E0F70161917F01C8010E94A80AAE01BF
S11316D00C2C02C0559547950A94E2F74170F50128
S11316E06081C8010E94770AFFEFCF1ADF0A24E065
S11316F0C216D10421F7C801DF91CF911F910F9138
S1131700FF90EF90DF90CF90BF90AF900C94B50A0C
S1131710AF92BF92CF92DF92EF92FF920F931F93FB
S1131720CF93DF93EC015C0187E0A80EB11C00E0CD
S113173010E0E62EF12C650141E0F50161915F01B5
S1131740CE010E94A80AA701002E02C05595479514
S11317500A94E2F74170F6016081CE010E94770A93
S11317600F5F1F4F0830110531F7CE01DF91CF9184
S11317701F910F91FF90EF90DF90CF90BF90AF90AB
S11317800C94B50A1F93CF93DF93EC01162F6C8151
S11317900E94770A6D816F3F21F040E0CE010E94E4
S11317A0770A8C89612F84FF06C0CE01DF91CF9127
S11317B01F910C94880B70E084E0759567958A9569
S11317C0E1F7CE010E94D40A612FCE01DF91CF91BF
S11317D01F910C94D40A40E00C94C20B61E00E9467
S11317E0EB0B80ED97E00C943008CF93DF93CDB7EB
S11317F0DEB728970FB6F894DEBF0FBECDBF9C01AD
S113180088E0EBE0F1E0DE01119601900D928A95FB
S1131810E1F7F901808D841710F44FEF480FFE01B2
S11318203196E40FF11DE40FF11D9081690F60689A
S1131830C90128960FB6F894DEBF0FBECDBFDF9165
S1131840CF910C94EB0BFC016589262F2460258B2A
S11318506C600C94EB0B8F929F92AF92BF92CF92DD
S1131860DF92EF92FF920F931F93CF93DF93EC01DC
S1131870D42EC22E8A8D8F3F41F481E08D1508F05D
S11318805EC08C8988608C8B5AC086E493E00E9489
S1131890F90F8E01055E1F4FC8010E947D0D41E0C6
S11318A068E0C8010E949B0D41E066E0C8010E9407
S11318B09B0D41E067E0C8010E949B0D67E0CE01EB
S11318C00E94840A6D81662321F041E0C8010E94D0
S11318D09B0D41E06C81C8010E949B0D41E06E812B
S11318E0C8010E949B0D7E01E7E0EE0EF11C5E0133
S11318F0FBE0AF0EB11CF70161917F0141E0C8012B
S11319000E949B0DEA14FB04B1F77E01FFE0EF0E89
S1131910F11C5E0184E1A80EB11C470140E0F7010F
S113192061917F01C8010E949B0D41E0F401608137
S1131930C8010E945F0EEA14FB0479F79ECFD88E8B
S1131940198ECC2031F0F1E0DF1203C08C89846061
S11319508C8B80E593EC0E94300840E06C81CE01D2
S11319600E94770A40E06E81CE010E94770A6D8161
S11319706F3F21F040E0CE010E94770A6C8964FD3C
S11319801DC063E0CE010E94D40A84E991E10E9463
S1131990300863E0CE010E94D40A84E991E10E94F8
S11319A0300863E0CE010E94D40A86E990E00E94E8
S11319B0300862E0CE010E94D40A16C06062CE01F3
S11319C00E94EB0B84E991E10E9430086C8960620B
S11319D0CE010E94EB0B86E990E00E9430086C89EE
S11319E06062CE010E94EB0B6C896062CE010E94A2
S11319F0EB0B84E08D8BCE010E94230CCE010E9460
S1131A00EE0B82E08E8B66E0CE01DF91CF911F91C9
S1131A100F91FF90EF90DF90CF90BF90AF909F9089
S1131A208F900C94EB0B41E00E94C20B81E090E09C
S1131A300895DF92EF92FF920F931F93CF93DF935A
S1131A407C012FE0E20EF11CC0E0D0E02FE1D22EA9
S1131A508C01055E1F4FF70161917F01C8010E944F
S1131A60260E282F30E00C2E02C0220F331F0A94BA
S1131A70E2F720953095D2222196C530D10559F749
S1131A808D2DDF91CF911F910F91FF90EF90DF90FB
S1131A900895682F86E493E00C94BA0FCF93DF93F4
S1131AA0EC01683008F067E0688386E493E00E9404
S1131AB0F90F6881606270E086E493E00E9415107B
S1131AC080E00E94490D8FEF0E94490D86E493E067
S1131AD00E9491106881606270E086E493E00E9445
S1131AE0151081E00E94490D8FEF0E94490D86E494
S1131AF093E0DF91CF910C94911060E00C944E0D23
S1131B00CF93DF93D62FC72FFC016081606270E012
S1131B1086E493E00E94151082E10E94490D8D2F06
S1131B200E94490D8C2F0E94490D86E493E0DF91B9
S1131B30CF910C949110FF920F931F93CF93DF9347
S1131B408C01C62FD42F603108F051C0683020F0CA
S1131B50C850FF24F39401C0F12CF8016081606245
S1131B6070E086E493E00E9415108F2D0E94490DC9
S1131B7086E493E00E949110F8016081606270E055
S1131B8041E050E086E493E00E948E1086E493E006
S1131B900E94330F21E030E0D11109C0A90102C035
S1131BA0440F551FCA95E2F7EA01C82B09C0F90191
S1131BB002C0EE0FFF1FCA95E2F7EF01C095C823DC
S1131BC0F8016081606270E086E493E00E94151081
S1131BD08F2D0E94490D8C2F0E94490D86E493E0BD
S1131BE0DF91CF911F910F91FF900C949110DF9191
S1131BF0CF911F910F91FF900895CF93DF93EC0144
S1131C006881606270E086E493E00E94151082E1CE
S1131C100E94490D86E493E00E94911068816062FD
S1131C2070E042E050E086E493E00E948E1086E487
S1131C3093E00E94330FC82F86E493E00E94330F91
S1131C40982F88278C2BDF91CF9108950F931F93A2
S1131C50CF93DF938C01C62F603158F5683018F0AC
S1131C60C850D3E101C0D2E1F8016081606270E044
S1131C7086E493E00E9415108D2F0E94490D86E49E
S1131C8093E00E949110F8016081606270E041E08D
S1131C9050E086E493E00E948E1086E493E00E9474
S1131CA0330F992702C095958795CA95E2F78170FD
S1131CB001C080E0DF91CF911F910F910895FF92B1
S1131CC00F931F93CF93DF938C01C62FD42F6031D2
S1131CD008F052C0683020F0C8509DE0F92E02C0D0
S1131CE08CE0F82EF8016081606270E086E493E095
S1131CF00E9415108F2D0E94490D86E493E00E94E6
S1131D009110F8016081606270E041E050E086E487
S1131D1093E00E948E1086E493E00E94330F21E04A
S1131D2030E0D13049F4A90102C0440F551FCA95CF
S1131D30E2F7EA01C82B09C0F90102C0EE0FFF1F48
S1131D40CA95E2F7EF01C095C823F801608160628B
S1131D5070E086E493E00E9415108F2D0E94490DD7
S1131D608C2F0E94490D86E493E0DF91CF911F915F
S1131D700F91FF900C949110DF91CF911F910F91CF
S1131D80FF900895EF92FF920F931F93CF93DF93E9
S1131D908C01C62FE42E603108F056C0683028F05C
S1131DA0C850D5E193E1F92E03C0D4E182E1F82EC5
S1131DB0F8016081606270E086E493E00E9415108F
S1131DC08D2F0E94490D86E493E00E949110F80142
S1131DD06081606270E041E050E086E493E00E943C
S1131DE08E1086E493E00E94330FF1E021E030E0AE
S1131DF0EF1209C0A90102C0440F551FCA95E2F7AA
S1131E00EA01C82B09C0F90102C0EE0FFF1FCA95F1
S1131E10E2F7EF01C095C823F8016081606270E0C9
S1131E2086E493E00E9415108F2D0E94490D8C2F9B
S1131E300E94490D86E493E0DF91CF911F910F91A9
S1131E40FF90EF900C949110DF91CF911F910F911F
S1131E50FF90EF90089580917A0390E020917B03A6
S1131E60821B9109089590917B0380917A039817BE
S1131E7050F4E92FF0E0E458FC4F208130E09F5FFC
S1131E8090937B0302C02FEF3FEFC9010895E091C7
S1131E907B0380917A03E81730F4F0E0E458FC4FB8
S1131EA0808190E008958FEF9FEF08950895CF9378
S1131EB0DF93EC01E0915203F09153033097F1F07A
S1131EC090917B0380917A039817C0F090E0292FBA
S1131ED030E02617370754F4DE01A20FB31F4C91EC
S1131EE0D901A458BC4F4C939F5FF1CF10927B0350
S1131EF060937A03CB01DF91CF910994DF91CF9165
S1131F000895E0915403F0915503309729F010920D
S1131F1058031092570309940895CF92DF92EF92D9
S1131F20FF920F931F93CF93DF937C01CB018A0120
S1131F3020915603222389F0EB016B01C40ED51EB8
S1131F40CC15DD0569F06991D701ED91FC91019003
S1131F50F081E02DC7010995F3CF642F0E9455113C
S1131F60C801DF91CF911F910F91FF90EF90DF9007
S1131F70CF900895CF93DF931F92CDB7DEB76983D7
S1131F80209156032223D1F020915703203240F0B0
S1131F9021E030E0FC013383228380E090E015C02F
S1131FA080915803E82FF0E0E75AFC4F9981908321
S1131FB08F5F809358038093570305C061E0CE017F
S1131FC001960E94551181E090E00F90DF91CF912E
S1131FD00895FC011382128288EE93E0A0E0B0E041
S1131FE084839583A683B7838EE592E0918380836F
S1131FF0089510927B0310927A0310925803109262
S113200057030E94991081E89FE00E94821187E59E
S11320109FE00C947D1181E08093560360937903D3
S1132020109258031092570308950C940B100F93B9
S1132030062F21E04091570369E573E0809179030D
S11320400E94FF10109258031092570310925603E7
S11320500F9108954F925F926F927F92AF92BF92C9
S1132060CF92EF92FF920F931F93CF93DF935C0174
S1132070F62ED42F28013901EE2021F10E940B10F5
S1132080CE2DC43008F0C3E0C150C0F028E0C29F98
S1132090C0011124A301920104C0569547953795B8
S11320A027958A95D2F7CA01B901D501ED91FC9122
S11320B00190F081E02DC5010995E6CF60E0C501EE
S11320C00E9417104D2FD13208F040E22C2D6CE7FE
S11320D073E08F2D0E94B71010927B0380937A03D4
S11320E0DF91CF911F910F91FF90EF90CF90BF9010
S11320F0AF907F906F905F904F900895CF92EF9242
S11321000F931F93C22EE12C00E010E098010E946F
S11321102A101F910F91EF90CF90089521E00C9415
S11321207E1061E00C94171086E493E00C94E90FA0
S113213008951092090481E0809307041092060424
S113214061E082E10E94DE0861E083E10E94DE0832
S1132150E9EBF0E080818E7F808380818D7F8083B6
S113216088E48093B80085E48093BC0008954132EC
S113217008F043C0909109049111FCCF91E0909331
S11321800904209307042FEF20939C031092E1038A
S1132190240F2093E0039093080490910804880F7F
S11321A0892B8093080480910604813061F4109295
S11321B00604809108048093BB008091BC0083FDD9
S11321C0F8CF85EC01C085EE8093BC0080910904B2
S11321D08130E1F38091E103841710F44091E1032D
S11321E0A2EEB3E0962FFB018E2F891B841718F4FF
S11321F08D918193F9CF842F089580E008950F93F2
S1132200413208F04AC0909109049111FCCF32E0A8
S113221030930904009307043FEF30939C0310921A
S1132220E1034093E003562FA2EEB3E0FB013E2FFF
S1132230351B341718F431913D93F9CF10920804EB
S113224030910804880F832B80930804809106043E
S1132250813061F410920604809108048093BB00DD
S11322608091BC0083FDF8CF85EC01C085EE80939E
S1132270BC00222321F0809109048230D1F38091A3
S11322809C038F3F79F080919C03803241F08091D0
S11322909C03803331F094E005C091E003C092E0E8
S11322A001C093E0892F0F9108954091BE03262F1A
S11322B030E0240F311D21323105DCF42091090472
S11322C02430C9F4FC0180E090E0861758F4309182
S11322D0BE032191DC01A054BC4FA30FB11D2C936C
S11322E00196F3CF8091BE03680F6093BE0380E034
S11322F0089581E0089582E0089590930304809303
S1132300020408959093050480930404089585EDD0
S11323108093BC008091BC0084FDFCCF1092090422
S1132320089585EC8093BC001092090408951F92CF
S11323300F920FB60F9211242F933F934F935F93F5
S11323406F937F938F939F93AF93BF93EF93FF9379
S11323508091B900887F803609F49EC078F5883270
S113236009F45DC090F4803109F456C038F4882330
S113237009F4F5C0883009F44FC0F5C0883109F478
S11323804EC0803209F45FC0EEC0803409F46AC0E4
S113239058F4803309F457C0883309F0E4C08093BB
S11323A09C030E949111DFC0803509F44FC0883529
S11323B009F45DC0883409F0D6C0D3C0883909F463
S11323C0C4C0A8F4883709F467C038F4883609F41F
S11323D063C0803709F460C0C6C0883809F4B5C04A
S11323E0803909F45FC0803809F0BDC05BC0803B10
S11323F009F483C038F4803A09F466C0883A09F4D1
S11324007CC0B1C0803C09F4A4C0883C09F4A1C0DC
S1132410883B09F487C0A7C08091080410C090913C
S1132420E1038091E003981770F5E091E10381E006
S11324308E0F8093E103F0E0EE51FC4F8081809396
S1132440BB0085EC83C080939C038BC0E091E103C7
S113245081E08E0F8093E1038091BB00F0E0EE51A8
S1132460FC4F80839091E1038091E0036BC0E09185
S1132470E10381E08E0F8093E1038091BB00F0E0E3
S1132480EE51FC4F80838091070481116AC081E082
S11324908093060484EA5EC083E08093090410926A
S11324A09D03CFCF80919D03803208F04EC0E09110
S11324B09D0381E08E0F80939D038091BB00F0E02B
S11324C0E256FC4F8083BDCF0E94911180919D0301
S11324D0803230F4E0919D03F0E0E256FC4F10822C
S11324E060919D0370E0E0910204F09103048EE991
S11324F093E0099510929D0336C084E0809309040B
S11325001092BF031092BE03E0910404F0910504FD
S113251009958091BE03811105C081E08093BE03BB
S11325201092C003E091BF0381E08E0F8093BF033C
S1132530F0E0E054FC4F80818093BB009091BF0396
S11325408091BE03981708F47CCF85E88093BC0083
S11325500AC085EC8093BC001092090404C0109258
S11325609C030E948711FF91EF91BF91AF919F91BE
S11325708F917F916F915F914F913F912F910F9028
S11325800FBE0F901F901895A1E21A2EAA1BBB1B19
S1132590FD010DC0AA1FBB1FEE1FFF1FA217B3072B
S11325A0E407F50720F0A21BB30BE40BF50B661F41
S11325B0771F881F991F1A9469F760957095809505
S11325C090959B01AC01BD01CF010895EE0FFF1F53
S11325D00590F491E02D09940F931F93CF93DF930B
S11325E08230910510F482E090E0E0910C04F091C7
S11325F00D0420E030E0A0E0B0E0309719F1408114
S113260051810281138148175907C8F0841795072F
S113261069F4109731F012960C93129713961C9349
S113262027C000930C0410930D0422C0211531051A
S113263019F04217530718F49A01BD01EF01DF01A5
S1132640F801DBCF21153105F9F0281B390B2430B3
S1132650310580F48A819B816115710521F0FB01AC
S11326609383828304C090930D0480930C04FE0131
S1132670329644C0FE01E20FF31F819391932250DE
S11326803109398328833AC020910A0430910B041C
S1132690232B41F4209102013091030130930B0468
S11326A020930A0420910001309101012115310584
S11326B041F42DB73EB74091040150910501241B0C
S11326C0350BE0910A04F0910B04E217F307A0F430
S11326D02E1B3F0B2817390778F0AC014E5F5F4F74
S11326E02417350748F04E0F5F1F50930B04409397
S11326F00A048193919302C0E0E0F0E0CF01DF91FE
S1132700CF911F910F910895CF93DF93009709F410
S113271081C0FC01329713821282A0910C04B09103
S11327200D04109781F420813181820F931F209131
S11327300A0430910B042817390751F5F0930B0460
S1132740E0930A0467C0ED0120E030E0CE17DF0714
S113275040F44A815B819E0141155105F1F0EA0183
S1132760F5CFD383C28340815181840F951FC8174D
S1132770D90759F488819981840F951F0296918312
S113278080838A819B81938382832115310529F477
S1132790F0930D04E0930C043DC0E901FB83EA834C
S11327A049915991C40FD51FEC17FD0761F480813D
S11327B09181840F951F0296E90199838883828110
S11327C093819B838A83E0E0F0E012968D919C9143
S11327D01397009719F0FD01DC01F7CF8D919C91BF
S11327E011979D012E5F3F4F820F931F20910A0482
S11327F030910B042817390769F4309729F41092A3
S11328000D0410920C0402C013821282B0930B04C4
S1132810A0930A04DF91CF910895A0E0B0E0E3E132
S1132820F4E10C949A17EC01009721F4CB010E9477
S1132830EC12B4C0FC01E60FF71F9C0122503109D1
S1132840E217F30708F4A8C0D9010D911C91119760
S113285006171707B0F00530110508F49BC0C8012E
S113286004978617970708F495C002501109061BB0
S1132870170B019311936D937C93CF010E948413E2
S113288089C05B01A01AB10A4C01800E911EA0916F
S11328900C04B0910D04612C712CE12CF12C1097D7
S11328A009F446C08D919C911197A815B905B1F50D
S11328B06C0142E0C40ED11CCA14DB0478F14C0153
S11328C08A189B08640142E0C40ED11C1296BC9085
S11328D012971396AC91B5E0CB16D10440F0B282B6
S11328E0A38391828082D9016D937C9309C00E5F8A
S11328F01F4F800F911FF90191838083EB2DFA2FD5
S1132900E114F10431F0D7011396FC93EE9312977E
S113291041C0F0930D04E0930C043CC068167906A2
S113292008F43C017D0112960D90BC91A02DB7CF07
S113293080910A0490910B0488169906E1F46616B6
S11329407706C8F48091000190910101009741F449
S11329508DB79EB74091040150910501841B950BDE
S1132960E817F907C8F4F0930B04E0930A04F9019B
S1132970718360830FC0CB010E94EC127C0100972D
S113298059F0A801BE010E94D314CE010E94841301
S1132990C70104C0CE0102C080E090E0CDB7DEB72D
S11329A0EEE00C94B617FB01DC0102C001900D921D
S11329B041505040D8F70895FB01DC0101900D927D
S11329C00020E1F70895AEE0B0E0E9EEF4E10C9404
S11329D0A4170D891E8986E08C831A8309838FEFDF
S11329E09FE79E838D83AE01475E5F4F6F89788D2D
S11329F0CE0101960E940515EF81F885E00FF11FC5
S1132A0010822E96E4E00C94C017ABE0B0E0EBE04B
S1132A10F5E10C9496176C017B018A01FC01178285
S1132A201682838181FFCCC1CE0101963C01F6015F
S1132A309381F70193FD859193FF81917F01882311
S1132A4009F4BAC1853239F493FD859193FF8191DC
S1132A507F01853229F4B60190E00E94FC16E7CF8D
S1132A60912C212C312CFFE1F315D8F08B3279F025
S1132A7038F4803279F08332A1F4232D20611DC013
S1132A808D3261F0803369F4232D216016C0832DCB
S1132A908260382EE32DE4603E2E2AC0F32DF860C8
S1132AA01DC037FC2DC020ED280F2A3040F08E3297
S1132AB0B9F436FC81C1232D2064322E19C036FEB0
S1132AC006C08AE0989E200D1124922E11C0EAE0DF
S1132AD02E9E200D1124222EF32DF0623F2E08C0CD
S1132AE08C3621F4832D8068382E02C0883641F458
S1132AF0F70193FD859193FF81917F018111B3CFFC
S1132B00982F9F7D9554933028F40C5F1F4F9FE3BB
S1132B1099830DC0833631F0833771F0833509F022
S1132B2059C021C0F801808189830E5F1F4F88241A
S1132B308394912C530113C02801F2E04F0E511CD1
S1132B40F801A080B18036FE03C0692D70E002C098
S1132B506FEF7FEFC5010E94F1164C018201F32D46
S1132B60FF773F2E16C0280122E0420E511CF801C7
S1132B70A080B18036FE03C0692D70E002C06FEF03
S1132B807FEFC5010E94E6164C01F32DF0683F2E3D
S1132B90820133FC1BC0822D90E088169906B0F4A4
S1132BA0B60180E290E00E94FC162A94F4CFF5016D
S1132BB037FC859137FE81915F01B60190E00E9458
S1132BC0FC1621102A9421E0821A910881149104A0
S1132BD071F7E8C0843611F0893641F5F80137FE03
S1132BE007C060817181828193810C5F1F4F08C08F
S1132BF060817181072E000C880B990B0E5F1F4FAB
S1132C00F32DFF763F2E97FF09C090958095709520
S1132C1061957F4F8F4F9F4FF0683F2E2AE030E041
S1132C20A3010E943817882E861845C0853731F4D1
S1132C30232D2F7EB22E2AE030E025C0932D997FDC
S1132C40B92E8F36C1F018F4883579F0B5C08037C5
S1132C5019F0883721F0B0C0E92FE061BE2EB4FE30
S1132C600DC0FB2DF460BF2E09C034FE0AC0292F0D
S1132C702660B22E06C028E030E005C020E130E036
S1132C8002C020E132E0F801B7FE07C06081718123
S1132C90828193810C5F1F4F06C06081718180E047
S1132CA090E00E5F1F4FA3010E943817882E8618EC
S1132CB0FB2DFF773F2E36FE0DC0232D2E7FA22E37
S1132CC0891458F434FE0BC032FC09C0832D8E7E67
S1132CD0A82E05C0B82CA32C03C0B82C01C0B92C55
S1132CE0A4FE0FC0FE01E80DF11D8081803321F4A4
S1132CF09A2D997EA92E09C0A2FE06C0B394B3945E
S1132D0004C08A2D867809F0B394A3FC11C0A0FEF8
S1132D1006C0B21488F4280C922C9B180EC0B2146E
S1132D2060F4B60180E290E00E94FC16B394F7CF01
S1132D30B21418F42B1802C0982C212CA4FE10C035
S1132D40B60180E390E00E94FC16A2FE17C0A1FC2D
S1132D5003C088E790E002C088E590E0B6010CC0AB
S1132D608A2D867859F0A1FE02C08BE201C080E270
S1132D70A7FC8DE2B60190E00E94FC16891438F499
S1132D80B60180E390E00E94FC169A94F7CF8A94EF
S1132D90F301E80DF11D8081B60190E00E94FC165C
S1132DA08110F5CF222009F442CEB60180E290E0F2
S1132DB00E94FC162A94F6CFF6018681978102C000
S1132DC08FEF9FEF2B96E2E10C94B217FC01059074
S1132DD0615070400110D8F7809590958E0F9F1F19
S1132DE00895FC016150704001900110D8F780955E
S1132DF090958E0F9F1F08950F931F93CF93DF938A
S1132E00FB01238121FD03C08FEF9FEF2CC022FF24
S1132E1016C046815781248135814217530744F4F3
S1132E20A081B1819D012F5F3F4F318320838C931B
S1132E30268137812F5F3F4F3783268314C08B0150
S1132E40EC01FB010084F185E02D0995892BE1F665
S1132E50D80116968D919C911797019617969C937D
S1132E608E931697CE01DF91CF911F910F91089504
S1132E70FA01AA27283051F1203181F1E8946F93A7
S1132E806E7F6E5F7F4F8F4F9F4FAF4FB1E03ED04D
S1132E90B4E03CD0670F781F891F9A1FA11D680FEB
S1132EA0791F8A1F911DA11D6A0F711D811D911D1E
S1132EB0A11D20D009F468943F912AE0269F112493
S1132EC03019305D3193DEF6CF010895462F4770F7
S1132ED0405D4193B3E00FD0C9F7F6CF462F4F7052
S1132EE0405D4A3318F0495D31FD4052419302D0B0
S1132EF0A9F7EACFB4E0A695979587957795679556
S1132F00BA95C9F700976105710508959B01AC0155
S1132F100A2E06945795479537952795BA95C9F77C
S1132F20620F731F841F951FA01D08952F923F9257
S1132F304F925F926F927F928F929F92AF92BF92C5
S1132F40CF92DF92EF92FF920F931F93CF93DF9371
S1132F50CDB7DEB7CA1BDB0B0FB6F894DEBF0FBECE
S1132F60CDBF09942A88398848885F846E847D841B
S1132F708C849B84AA84B984C884DF80EE80FD801D
S1132F800C811B81AA81B981CE0FD11D0FB6F89493
S1132F90DEBF0FBECDBFED01089510E0CFE5D0E058
S1132FA004C0FE010E94E6122196C036D107C9F77B
S1072FB0F894FFCFBF
S1132FB400000E0420000A070A0701000040001460
S1132FC400540055703A4F70656E20446E436C6F24
S1132FD473654C66743A4461792052743A4E696755
S1132FE46874004D61696E204D656E750053656C9F
S1132FF43A457363617065004F70656E696E67204E
S1133004446F6F7200436C6F73696E6720446F6F13
S11330147200446179204D6F6465202020202020B3
S11330242020546D703A2573204C68743A2573003B
S11330344E69676874204D6F646520202020202029
S1133044546D703A2573204C68743A257300496EA4
S1133054697420436F6D706C65746500696E206CCF
S11330646F6F70004E45574D454E5500436C6F735A
S1133074696E6700436C6F736520436F6D706C6594
S113308474650052656C61792070696E7320736590
S11330947420746F206F7574707574004F70656E4E
S11330A4696E67004F70656E20436F6D706C657454
S11330B4650053504920496E7465727275707400CA
S11330C4456D657267656E637900456D6572676504
S11330D46E63792046696E69736865640000000054
S11330E4002E05A706EF047B05C104DB04CD040D03
S11330F40A006E616E00696E66006F7666000000F9
S11331040000130DA7060206050600000000BA0F0E
S10F31148D0F0206560F2B0F330F470FD0
S9030000FC
