:100000000C9464000C943C050C9472050C94E80567
:100010000C948C000C94A8050C948C000C948C000F
:100020000C948C000C948C000C948C000C948C0020
:100030000C948C000C948C000C948C000C948C0010
:100040000C9484060C948C000C948C000C948C0002
:100050000C948C000C948C000C948C000C948C00F0
:100060000C94CB100C948C000000000800020100DE
:100070000003040700000000000000000102040863
:100080001020408001020408102001020408102002
:10009000040404040404040402020202020203032E
:1000A00003030303000000002300260029000000D2
:1000B0000000250028002B0000000000240027007D
:1000C0002A001E06C80F2E0611241FBECFEFD8E04F
:1000D000DEBFCDBF11E0A0E0B1E0E8EDFDE202C07F
:1000E00005900D92A83DB107D9F722E0A8EDB1E047
:1000F00001C01D92AA3DB207E1F710E0C3E6D0E0CF
:1001000004C02197FE010E94F811C136D107C9F73A
:100110000E9437060C94DF160C940000EF92FF92B9
:100120000F931F93CF93DF93EC017B018A010E9411
:10013000220B40E060E0CE010E94290BB701CE0106
:100140000E94760641E060E0CE010E94290BB801D2
:10015000CE010E94760640E060E0CE01DF91CF91B3
:100160001F910F91FF90EF900C94290B0F931F9309
:10017000CF93DF93CDB7DEB72C970FB6F894DEBFE1
:100180000FBECDBF8C0164E471E0CE0107960E94E2
:10019000B008F80182A593A5009719F0019741F0E6
:1001A0000EC0B801605D7F4FCE0107960E94020924
:1001B000B8016A5C7F4FCE0107960E940209F801E0
:1001C00046A557A584A595A54817590714F415A663
:1001D00014A6F80124A535A54217530741F42B8531
:1001E0003C8594E0440F551F9A95E1F70AC02F5FB4
:1001F0003F4F84E0220F331F8A95E1F7A901405158
:100200005109BE01695F7F4FCE0101960E944509E9
:10021000BE016F5F7F4FCE0107960E942209CE017B
:1002200001960E944208F80142A560E0C8010E94C0
:10023000290BBE01695F7F4FC8010E94760640E02E
:1002400060E0C8010E94290BF80104A515A50F5F05
:100250001F4FCE0107960E944208C8012C960FB688
:10026000F894DEBF0FBECDBFDF91CF911F910F91EC
:1002700008954F925F926F927F928F929F92AF926A
:10028000BF92CF92DF92EF92FF920F931F93CF9383
:10029000DF93CDB7DEB72C970FB6F894DEBF0FBE55
:1002A000CDBF4C013B012A01B22EC0960E9402092B
:1002B000B201C401C6960E940209F401F7A6E6A69F
:1002C000D3A6C2A6F80180819181F401978F868F11
:1002D000F80182819381F40191A380A3F8018481C4
:1002E0009581F40193A382A3F80186819781F4019B
:1002F00095A384A3F80180859185F40197A386A333
:100300006B2DC4010E94B809F401A4AEA1101EC057
:1003100015A614A6B201CE0101960E941909B301D7
:10032000CE0107960E941909AE014F5F5F4FBE01D3
:10033000695F7F4FC4010E948E00CE0107960E9424
:100340004208CE0101960E94420806C0C4010E94E4
:10035000B600F40195A784A72C960FB6F894DEBFDB
:100360000FBECDBFDF91CF911F910F91FF90EF9006
:10037000DF90CF90BF90AF909F908F907F906F90C5
:100380005F904F9008956F927F928F929F92AF925D
:10039000CF92DF92EF92FF920F931F93CF93DF9351
:1003A000CDB7DEB7E6970FB6F894DEBF0FBECDBF70
:1003B0003C01442319F00E94B600FAC0CE01019618
:1003C0004C016230710509F452C0DCF4611571050D
:1003D00039F16130710509F0B2C01AA219A28FEF8C
:1003E0009FEF9CA38BA39EA38DA398A78FA39AA7EF
:1003F00089A76AE371E0C4010E94B00865E471E076
:1004000049C06330710509F455C06430710509F0C5
:1004100096C01F930F933F932F938CE791E050C0AA
:100420008FEF9FEF9AA389A381E090E09CA38BA319
:1004300082E090E09EA38DA383E090E098A78FA335
:1004400084E090E09AA789A76FE071E0C4010E9460
:10045000B00860E371E0CE018B960E94B008A12C39
:10046000CC24C394D12C52E0E52EF12C8EC01AA2DC
:1004700019A28FEF9FEF9CA38BA39EA38DA398A798
:100480008FA39AA789A76AE371E0C4010E94B0080C
:1004900062E571E0CE018B960E94B008A12CCC24BD
:1004A000CA94DC2CE12CF12C8E010F5D1F4F23E050
:1004B00030E070C01F930F933F932F938FE591E02F
:1004C0009F938F939F928F920E94F5131AA219A265
:1004D0008FEF9FEF9CA38BA39EA38DA398A78FA3C1
:1004E0009AA789A76AE371E0CE018B960E94B008B3
:1004F000B401CE01C1960E94B008A12CC12CD12C10
:10050000EE24E394F12C8E010F5D1F4F22E030E0CA
:10051000AE01455D5F4FBE016F5C7F4FC3010E941E
:100520003901CE01C1960E944208CE018B960E94ED
:1005300042080FB6F894DEBF0FBECDBF39C08FEFB3
:100540009FEF9AA389A381E090E09CA38BA382E014
:1005500090E09EA38DA383E090E098A78FA384E012
:1005600090E09AA789A769E971E0C4010E94B008E8
:1005700060E371E0CE018B960E94B008A12CCC24E0
:10058000C394D12CEE24E394F12C8E010F5D1F4F08
:1005900022E030E0A401BE01655D7F4FC3010E94EF
:1005A0003901CE018B960E944208C4010E94420884
:1005B000E6960FB6F894DEBF0FBECDBFDF91CF91A8
:1005C0001F910F91FF90EF90DF90CF90AF909F9091
:1005D0008F907F906F9008950F931F93CF93DF9329
:1005E000EC01FB01828193819B838A838DEB91E0F7
:1005F0009983888384818C8385818D8386818E8392
:1006000088E03796DE01179601900D928A95E1F702
:1006100085E0FB013F96DE011F9601900D928A95C1
:10062000E1F7FB0184898C8B85898D8B86898E8B84
:1006300087898F8B808D888F818D898F828D8A8F1E
:10064000838D8B8F64E471E0CE01C0960E94B00868
:1006500064E471E0CE01C6960E94B00820E042E05A
:1006600060E1CE010E945F0BCE010E94220B04E4E8
:1006700011E0980140E060E070E0CE010E94C3010B
:10068000DF91CF911F910F910895CF92DF92EF925A
:10069000FF920F931F93CF93DF93EC016A017B01CD
:1006A0000E944D0C80FF06C06E8D7F8D6F3F2FEF37
:1006B000720701F583FF06C068A179A16F3F9FEF24
:1006C0007907C1F482FF06C06AA17BA16F3F2FEFBB
:1006D000720781F484FF06C06CA17DA16F3F9FEF7C
:1006E000790741F481FF0EC06EA17FA16F3F2FEF0C
:1006F000720741F004E411E0980140E0CE010E944D
:10070000C30110C00E94CE0628EEC20E23E0D21E06
:10071000E11CF11CC616D706E806F90628F0CE0142
:100720000E94B60081E001C080E0DF91CF911F916F
:100730000F91FF90EF90DF90CF900895CF93DF93CC
:10074000EC0160E089E00E94E90760E08AE00E9435
:10075000E90760E089E00E94AD0760E08AE00E945E
:10076000AD07BE01DD0F880B990BDF91CF910C9483
:10077000FF06089562307105B1F044F4611571050A
:1007800081F061307105B1F483E012C0643071050D
:1007900071F05CF06530710569F4FC018285938528
:1007A000089582E005C084E003C08CE001C08DE0C4
:1007B0000C9418080895FC016115710521F0613051
:1007C000710521F008951586148608958485958510
:1007D0000196958784870895FC0184859585089501
:1007E00088EE93E00E949E0380E090E00C949E03CC
:1007F000CA0161110C949E0361E08AE00E94AD077A
:1008000061E089E00C94AD076115710571F061300C
:10081000710599F06F3F7F4FC1F461E089E00E945C
:10082000E90760E08AE00E94E90760E089E00E9451
:10083000E90760E08AE00E94E90760E089E00E9441
:10084000E90761E08AE00C94E90708950F931F938C
:10085000CF93DF93EC018B017B876A87672B29F4A9
:1008600080E090E00E949E0305C040E050E060E020
:100870000E94F803B801CE01DF91CF911F910F9133
:100880000C940404FC0162307105B1F03CF4611574
:10089000710561F06130710561F008956430710592
:1008A00089F06CF06530710581F0089553834283BF
:1008B0000895558344830895518340830895578351
:1008C00046830895518740870895BA010C94260401
:1008D000CF92DF92EF92FF9261E070E00E942604D7
:1008E0000E94CE066B017C018CE00E941808892BC7
:1008F00039F462E370E080E090E00E94FF06F4CFFC
:100900000E94CE06DC01CB018C199D09AE09BF09FE
:1009100088389341A105B10560F388EB9BE0FF9017
:10092000EF90DF90CF900C949E030F931F93CF9383
:10093000DF93CDB7DEB76C970FB6F894DEBF0FBE6E
:10094000CDBF80EE91E0FC01228133813C832B837B
:100950002DEB31E03A83298324812D8325812E8359
:1009600026812F8328E0E7EEF1E0DE011896019062
:100970000D922A95E1F725E0EFEEF1E0DE015096C9
:1009800001900D922A95E1F7FC0124892D8B258990
:100990002E8B26892F8B2789288F208D298F218DBB
:1009A0002A8F228D2B8F838D8C8F8DE390E00E9478
:1009B00046068C01BE016F5F7F4F0E94EC021093D0
:1009C000DF010093DE018FE090E00E9446068C017B
:1009D0000E94B9031093DD010093DC0160E08AE01E
:1009E0000E94AD0760E089E00E94AD0762E082E00E
:1009F0000E94AD0780E00E9481071092FC01E9E6A9
:100A0000F0E080818A60808383E08DBBE8E6F0E0DF
:100A100080818560808378940E94CE066093D8019F
:100A20007093D9018093DA019093DB016C960FB635
:100A3000F894DEBF0FBECDBFDF91CF911F910F9114
:100A400008954091D8015091D9016091DA017091D7
:100A5000DB018091DE019091DF010E944503882334
:100A600051F00E94CE066093D8017093D901809313
:100A7000DA019093DB0108951F920F920FB60F9247
:100A800011242F933F934F935F936F937F938F9393
:100A90009F93AF93BF93EF93FF9361E070E08091DA
:100AA000DC019091DD010E94DB038091DC019091DB
:100AB000DD010E9468048091DC019091DD010E94BB
:100AC000EC03FF91EF91BF91AF919F918F917F9137
:100AD0006F915F914F913F912F910F900FBE0F90AB
:100AE0001F9018951F920F920FB60F9211242F93FB
:100AF0003F934F935F936F937F938F939F93AF93A6
:100B0000BF93EF93FF9361E070E08091DC019091DF
:100B1000DD010E94DB038091DC019091DD010E94E8
:100B2000F0038091DC019091DD010E94EC03FF91C4
:100B3000EF91BF91AF919F918F917F916F915F9155
:100B40004F913F912F910F900FBE0F901F901895CE
:100B50001F920F920FB60F9211242F933F934F9332
:100B60005F936F937F938F939F93AF93BF93EF9315
:100B7000FF9365E070E08091DC019091DD010E94BF
:100B8000BA030196A1F461E070E08091DC019091DC
:100B9000DD010E94DB038091DC019091DD010E9468
:100BA00068048091DC019091DD010E94EC03FF91CB
:100BB000EF91BF91AF919F918F917F916F915F91D5
:100BC0004F913F912F910F900FBE0F901F9018954E
:100BD0001F920F920FB60F9211242F933F934F93B2
:100BE0005F936F937F938F939F93AF93BF93EF9395
:100BF000FF9341E050E063E070E08091DC01909170
:100C0000DD010E94420440E050E065E070E0809128
:100C1000DC019091DD010E944204FF91EF91BF91B0
:100C2000AF919F918F917F916F915F914F913F9184
:100C30002F910F900FBE0F901F90189564E471E0F4
:100C400083E092E00E94B00864E471E08DEF91E0EF
:100C50000E94B00880EE91E00C948A098DEF91E03B
:100C60000E94420883E092E00C94420808950E949A
:100C700046070E9436060E949504C0E0D0E00E941C
:100C800021052097E1F30E940000F9CF0C94FE119A
:100C900080E090E008950895CF92DF92EF92FF9266
:100CA0000F931F93CF93DF936C017A018B01C0E008
:100CB000D0E0CE15DF0581F0D8016D918D01D60110
:100CC000ED91FC910190F081E02DC6010995892BF1
:100CD00011F02196EECF7E01C701DF91CF911F91D8
:100CE0000F91FF90EF90DF90CF900895DB01149665
:100CF0004D915C9115976D917C91DC01ED91FC918A
:100D00000280F381E02D09941F920F920FB60F928B
:100D100011242F933F938F939F93AF93BF93809111
:100D20000A0290910B02A0910C02B0910D02309139
:100D3000090223E0230F2D3720F40196A11DB11DD8
:100D400005C026E8230F0296A11DB11D20930902BC
:100D500080930A0290930B02A0930C02B0930D02B1
:100D600080910E0290910F02A0911002B091110299
:100D70000196A11DB11D80930E0290930F02A093C6
:100D80001002B0931102BF91AF919F918F913F914B
:100D90002F910F900FBE0F901F9018952FB7F894BA
:100DA00060910A0270910B0280910C0290910D02E9
:100DB0002FBF08953FB7F89480910E0290910F02D3
:100DC000A0911002B091110226B5A89B05C02F3F3B
:100DD00019F00196A11DB11D3FBFBA2FA92F982F61
:100DE0008827820F911DA11DB11DBC01CD0142E0DC
:100DF000660F771F881F991F4A95D1F708958F9224
:100E00009F92AF92BF92CF92DF92EF92FF926B01CF
:100E10007C010E94DA064B015C01C114D104E1049B
:100E2000F10401F10E94CC0F0E94DA06DC01CB0133
:100E300088199909AA09BB09883E9340A105B10503
:100E400060F321E0C21AD108E108F10888EE880EAB
:100E500083E0981EA11CB11CC114D104E104F1046B
:100E600019F7DBCFFF90EF90DF90CF90BF90AF905E
:100E70009F908F9008958230910538F0880F991FC8
:100E8000880F991F05970197F1F70895789484B515
:100E9000826084BD84B5816084BD85B5826085BD76
:100EA00085B5816085BDEEE6F0E08081816080835C
:100EB000E1E8F0E01082808182608083808181603F
:100EC0008083E0E8F0E0808181608083E1EBF0E006
:100ED000808184608083E0EBF0E0808181608083AA
:100EE000EAE7F0E080818460808380818260808393
:100EF0008081816080838081806880831092C100BE
:100F00000895809306010895833081F028F481309C
:100F100099F08230A1F008958730A9F08830B9F0B7
:100F20008430D1F4809180008F7D03C08091800057
:100F30008F7780938000089584B58F7702C084B541
:100F40008F7D84BD08958091B0008F7703C080911C
:100F5000B0008F7D8093B0000895CF93DF9390E031
:100F6000FC01E458FF4F2491FC01E057FF4F8491AE
:100F7000882361F190E0880F991FFC01E854FF4F2E
:100F8000C591D491FC01E255FF4FA591B491611137
:100F900009C09FB7F8948881209582238883EC91BB
:100FA0002E230BC0623061F49FB7F8948881322FF2
:100FB000309583238883EC912E2B2C939FBF06C002
:100FC0008FB7F894E8812E2B28838FBFDF91CF91C4
:100FD00008951F93CF93DF93282F30E0F901E8594C
:100FE000FF4F8491F901E458FF4FD491F901E05784
:100FF000FF4FC491CC23C1F0162F81110E948407AA
:10100000EC2FF0E0EE0FFF1FE255FF4FA591B491DA
:101010009FB7F894111104C08C91D095D82302C0C9
:10102000EC91DE2BDC939FBFDF91CF911F91089550
:10103000CF93DF93282F30E0F901E859FF4F8491D7
:10104000F901E458FF4FD491F901E057FF4FC491E3
:10105000CC2391F081110E948407EC2FF0E0EE0F79
:10106000FF1FEC55FF4FA591B491EC91ED2381E06A
:1010700090E021F480E002C080E090E0DF91CF9129
:1010800008950895FC01808191810C949612CF936C
:10109000DF93EC0188819981009711F00E949612EC
:1010A000198218821D821C821B821A82DF91CF91C5
:1010B00008950F931F93CF93DF93EC018B016F5F24
:1010C0007F4F888199810E941F13009731F0998387
:1010D00088831B830A8381E001C080E0DF91CF9188
:1010E0001F910F910895CF93DF93EC01888199812F
:1010F000892B29F08A819B818617970760F4CE019E
:101100000E945908882341F08C819D81892B19F414
:10111000E881F981108281E0DF91CF910895EF920B
:10112000FF920F931F93CF93DF93EC017B018A0112
:10113000BA010E947308811104C0CE010E944708C1
:1011400007C01D830C83B701888199810E94EE132B
:10115000CE01DF91CF911F910F91FF90EF900895F5
:10116000FC01118210821382128215821482611591
:10117000710551F0FB0101900020E9F73197AF01B3
:10118000461B570B0C948F0808950F931F93CF9312
:10119000DF938C01EB01FC01808191810097D1F0FC
:1011A000688179816115710599F021E438E0232B7C
:1011B00079F0428153812C813D814217530740F0E1
:1011C0000E94EE138C819D81F8019583848313C066
:1011D0000E94961288819981F801918380838A8187
:1011E0009B81938382838C819D81958384831982E3
:1011F00018821B821A821D821C82DF91CF911F915F
:101200000F910895CF93DF93EC01FB0186179707A9
:1012100061F0608171816115710529F0448155810A
:101220000E948F0802C00E944708CE01DF91CF9133
:101230000895FC0111821082138212821582148299
:101240000C940209CF93DF93EC018617970711F0F6
:101250000E94C508CE01DF91CF910895CF93DF930F
:10126000EC016115710559F0FB0101900020E9F7CF
:101270003197AF01461B570B0E948F0802C00E9496
:101280004708CE01DF91CF910895BF92CF92DF92B0
:10129000EF92FF920F931F93CF93DF937C016B012B
:1012A0008A01E9012417350720F4812F8901C42F11
:1012B000D82F64E471E0C7010E94B008D6011496EB
:1012C0008D919C91159708171907C8F48C179D07E5
:1012D00008F4EC01D601ED91FC911197EC0FFD1F84
:1012E000B08010826D917C91600F711FC7010E94C8
:1012F0002E09D601ED91FC91EC0FFD1FB082C701C4
:10130000DF91CF911F910F91FF90EF90DF90CF90E1
:10131000BF900895FC01138212828DEB91E09183BE
:101320008083128E148A8FE084838EE085838DE023
:1013300086838CE087838BE080878AE0818789E0E1
:101340008287178681E0808B82E0818B83E0828BAD
:1013500084E0838B0895FC01962F828D8F3F21F0CE
:10136000CF014B960C94F60D642F892F0C94E9074E
:101370000F931F93CF93DF93D62F8C01055E1F4FE2
:10138000C1E062FB442740F94C2768E0C8010E9495
:10139000F60DD1FB442740F94C2767E0C8010E94B5
:1013A000F60D4D2F41704C2766E0C801DF91CF91BB
:1013B0001F910F910C94F60DFC01962F828D8F3F9B
:1013C00021F0CF014B960C94CF0C642F892F0C94F5
:1013D000AD07CF93DF93EC0140E06E810E94AB0933
:1013E00081E090E00E943B0741E06E81CE010E94C7
:1013F000AB0981E090E00E943B0740E06E81CE01A6
:101400000E94AB0984E690E0DF91CF910C943B07FA
:10141000AF92BF92CF92DF92EF92FF920F931F9302
:10142000CF93DF938C01FC01828D9801295F3F4FA0
:101430007901C62FD0E08F3F09F473C068013BE10A
:10144000C30ED11CC6010E94310DF70140E050E0EF
:10145000A1E0B0E0B190EE24E394F12CBD010B2C9F
:1014600002C0660F771F0A94E2F760957095862395
:1014700097239E01042E02C0359527950A94E2F722
:101480002170332702C0220F331FBA94E2F7822B58
:10149000932B4F5F5F4F44305105E1F6E701F801B0
:1014A000068002C0CC0FDD1F0A94E2F7C095D095EC
:1014B000C823D923BE01C6010E94B40C81E090E08C
:1014C0000E943B07C701F801068002C0880F991FE0
:1014D0000A94E2F7C82BD92BBE01C6010E94B40CB6
:1014E00081E090E00E943B07B701F801068002C04E
:1014F000660F771F0A94E2F7609570956C237D2341
:10150000C6010E94B40C84E690E0DF91CF911F9158
:101510000F91FF90EF90DF90CF90BF90AF900C9421
:101520003B07C12CD12C570141E0F70161917F01AC
:10153000C8010E94DC09AE010C2C02C055954795EC
:101540000A94E2F74170F5016081C8010E94AB097D
:10155000FFEFCF1ADF0A24E0C216D10421F7C80139
:10156000DF91CF911F910F91FF90EF90DF90CF907F
:10157000BF90AF900C94E909AF92BF92CF92DF92E7
:10158000EF92FF920F931F93CF93DF93EC015C01D7
:1015900087E0A80EB11C00E010E0E62EF12C6501FA
:1015A00041E0F50161915F01CE010E94DC09A701D4
:1015B000002E02C0559547950A94E2F74170F60156
:1015C0006081CE010E94AB090F5F1F4F08301105EB
:1015D00031F7CE01DF91CF911F910F91FF90EF90E6
:1015E000DF90CF90BF90AF900C94E9091F93CF93F9
:1015F000DF93EC01162F6C810E94AB096D816F3F68
:1016000021F040E0CE010E94AB098C89612F84FF5C
:1016100006C0CE01DF91CF911F910C94BC0A70E0FF
:1016200084E0759567958A95E1F7CE010E94080AD6
:10163000612FCE01DF91CF911F910C94080A40E0F9
:101640000C94F60A61E00E941F0B80ED97E00C9469
:101650003B07CF93DF93CDB7DEB728970FB6F8944B
:10166000DEBF0FBECDBF9C0188E0E7E0F1E0DE0108
:10167000119601900D928A95E1F7F901808D8417FA
:1016800010F44FEF480FFE013196E40FF11DE40F07
:10169000F11D9081690F6068C90128960FB6F89412
:1016A000DEBF0FBECDBFDF91CF910C941F0BFC01AD
:1016B0006589262F2460258B6C600C941F0B8F92FC
:1016C0009F92AF92BF92CF92DF92EF92FF920F93D1
:1016D0001F93CF93DF93EC01D42EC22E8A8D8F3FC0
:1016E00041F481E08D1508F05EC08C8988608C8B98
:1016F0005AC082E192E00E942D0F8E01055E1F4FBD
:10170000C8010E94B10C41E068E0C8010E94CF0C02
:1017100041E066E0C8010E94CF0C41E067E0C801EB
:101720000E94CF0C67E0CE010E94B8096D8166234C
:1017300021F041E0C8010E94CF0C41E06C81C8015A
:101740000E94CF0C41E06E81C8010E94CF0C7E0147
:10175000E7E0EE0EF11C5E01FBE0AF0EB11CF701FD
:1017600061917F0141E0C8010E94CF0CEA14FB04A3
:10177000B1F77E01FFE0EF0EF11C5E0184E1A80EDF
:10178000B11C470140E0F70161917F01C8010E944F
:10179000CF0C41E0F4016081C8010E94930DEA146E
:1017A000FB0479F79ECFD88E198ECC2031F0F1E072
:1017B000DF1203C08C8984608C8B80E593EC0E94DF
:1017C0003B0740E06C81CE010E94AB0940E06E8196
:1017D000CE010E94AB096D816F3F21F040E0CE0148
:1017E0000E94AB096C8964FD1DC063E0CE010E94BC
:1017F000080A84E991E10E943B0763E0CE010E9460
:10180000080A84E991E10E943B0763E0CE010E944F
:10181000080A86E990E00E943B0762E0CE010E9440
:10182000080A16C06062CE010E941F0B84E991E194
:101830000E943B076C896062CE010E941F0B86E903
:1018400090E00E943B076C896062CE010E941F0BF2
:101850006C896062CE010E941F0B84E08D8BCE01EB
:101860000E94570BCE010E94220B82E08E8B66E015
:10187000CE01DF91CF911F910F91FF90EF90DF90FC
:10188000CF90BF90AF909F908F900C941F0B41E032
:101890000E94F60A81E090E00895DF92EF92FF92B5
:1018A0000F931F93CF93DF937C012FE0E20EF11C87
:1018B000C0E0D0E02FE1D22E8C01055E1F4FF70172
:1018C00061917F01C8010E945A0D282F30E00C2E33
:1018D00002C0220F331F0A94E2F720953095D222DE
:1018E0002196C530D10559F78D2DDF91CF911F91EC
:1018F0000F91FF90EF90DF900895682F82E192E0C2
:101900000C94EE0ECF93DF93EC01683008F067E0A3
:10191000688382E192E00E942D0F6881606270E02E
:1019200082E192E00E94490F80E00E947D0C8FEFDF
:101930000E947D0C82E192E00E94C50F6881606286
:1019400070E082E192E00E94490F81E00E947D0CEC
:101950008FEF0E947D0C82E192E0DF91CF910C9499
:10196000C50F60E00C94820CCF93DF93D62FC72F66
:10197000FC016081606270E082E192E00E94490FA8
:1019800082E10E947D0C8D2F0E947D0C8C2F0E9485
:101990007D0C82E192E0DF91CF910C94C50FFF9214
:1019A0000F931F93CF93DF938C01C62FD42F6031F9
:1019B00008F051C0683020F0C850FF24F39401C0F3
:1019C000F12CF8016081606270E082E192E00E9497
:1019D000490F8F2D0E947D0C82E192E00E94C50F7D
:1019E000F8016081606270E041E050E082E192E0E5
:1019F0000E94C20F82E192E00E94670E21E030E077
:101A0000D11109C0A90102C0440F551FCA95E2F7C0
:101A1000EA01C82B09C0F90102C0EE0FFF1FCA95E9
:101A2000E2F7EF01C095C823F8016081606270E0C1
:101A300082E192E00E94490F8F2D0E947D0C8C2F35
:101A40000E947D0C82E192E0DF91CF911F910F9176
:101A5000FF900C94C50FDF91CF911F910F91FF90D4
:101A60000895CF93DF93EC016881606270E082E1BA
:101A700092E00E94490F82E10E947D0C82E192E097
:101A80000E94C50F6881606270E042E050E082E130
:101A900092E00E94C20F82E192E00E94670EC82F7E
:101AA00082E192E00E94670E982F88278C2BDF91AD
:101AB000CF9108950F931F93CF93DF938C01C62F7F
:101AC000603158F5683018F0C850D3E101C0D2E158
:101AD000F8016081606270E082E192E00E94490F4B
:101AE0008D2F0E947D0C82E192E00E94C50FF801CB
:101AF0006081606270E041E050E082E192E00E942B
:101B0000C20F82E192E00E94670E992702C095956C
:101B10008795CA95E2F7817001C080E0DF91CF918F
:101B20001F910F910895FF920F931F93CF93DF930F
:101B30008C01C62FD42F603108F052C0683020F0DD
:101B4000C8509DE0F92E02C08CE0F82EF8016081AB
:101B5000606270E082E192E00E94490F8F2D0E9446
:101B60007D0C82E192E00E94C50FF8016081606205
:101B700070E041E050E082E192E00E94C20F82E119
:101B800092E00E94670E21E030E0D13049F4A901D3
:101B900002C0440F551FCA95E2F7EA01C82B09C0DD
:101BA000F90102C0EE0FFF1FCA95E2F7EF01C095E1
:101BB000C823F8016081606270E082E192E00E94D7
:101BC000490F8F2D0E947D0C8C2F0E947D0C82E18D
:101BD00092E0DF91CF911F910F91FF900C94C50F70
:101BE000DF91CF911F910F91FF900895EF92FF9297
:101BF0000F931F93CF93DF938C01C62FE42E603198
:101C000008F056C0683028F0C850D5E193E1F92EAD
:101C100003C0D4E182E1F82EF8016081606270E0D7
:101C200082E192E00E94490F8D2F0E947D0C82E19B
:101C300092E00E94C50FF8016081606270E041E0AF
:101C400050E082E192E00E94C20F82E192E00E94A5
:101C5000670EF1E021E030E0EF1209C0A90102C0F7
:101C6000440F551FCA95E2F7EA01C82B09C0F901D4
:101C700002C0EE0FFF1FCA95E2F7EF01C095C8231F
:101C8000F8016081606270E082E192E00E94490F99
:101C90008F2D0E947D0C8C2F0E947D0C82E192E0A2
:101CA000DF91CF911F910F91FF90EF900C94C50F92
:101CB000DF91CF911F910F91FF90EF900895809148
:101CC000460290E020914702821B9109089590916D
:101CD000470280914602981750F4E92FF0E0E85B44
:101CE000FD4F208130E09F5F9093470202C02FEFAD
:101CF0003FEFC9010895E091470280914602E8173D
:101D000030F4F0E0E85BFD4F808190E008958FEFC4
:101D10009FEF08950895CF93DF93EC01E0911E02A9
:101D2000F0911F023097F1F09091470280914602A6
:101D30009817C0F090E0292F30E02617370754F4A9
:101D4000DE01A20FB31F4C91D901A85BBD4F4C938C
:101D50009F5FF1CF1092470260934602CB01DF9163
:101D6000CF910994DF91CF910895E0912002F091F5
:101D70002102309729F01092240210922302099434
:101D80000895CF92DF92EF92FF920F931F93CF931C
:101D9000DF937C01CB018A0120912202222389F06A
:101DA000EB016B01C40ED51ECC15DD0569F0699100
:101DB000D701ED91FC910190F081E02DC7010995CB
:101DC000F3CF642F0E948910C801DF91CF911F913A
:101DD0000F91FF90EF90DF90CF900895CF93DF9316
:101DE0001F92CDB7DEB76983209122022223D1F062
:101DF00020912302203240F021E030E0FC013383C7
:101E0000228380E090E015C080912402E82FF0E06A
:101E1000EB5DFD4F998190838F5F809324028093C7
:101E2000230205C061E0CE0101960E94891081E085
:101E300090E00F90DF91CF910895FC011382128200
:101E400088EE93E0A0E0B0E084839583A683B78317
:101E500089EC91E09183808308951092470210925B
:101E6000460210922402109223020E94CD0F85EBAD
:101E70009EE00E94B6108BE89EE00C94B11081E0C9
:101E80008093220260934502109224021092230252
:101E900008950C943F0F0F93062F21E040912302E9
:101EA00065E272E0809145020E9433101092240294
:101EB00010922302109222020F9108954F925F9286
:101EC0006F927F92AF92BF92CF92EF92FF920F9359
:101ED0001F93CF93DF935C01F62ED42F2801390195
:101EE000EE2021F10E943F0FCE2DC43008F0C3E058
:101EF000C150C0F028E0C29FC0011124A30192018B
:101F000004C056954795379527958A95D2F7CA010B
:101F1000B901D501ED91FC910190F081E02DC50151
:101F20000995E6CF60E0C5010E944B0F4D2FD132DD
:101F300008F040E22C2D68E472E08F2D0E94EB0F38
:101F40001092470280934602DF91CF911F910F912B
:101F5000FF90EF90CF90BF90AF907F906F905F9089
:101F60004F900895CF92EF920F931F93C22EE12CC2
:101F700000E010E098010E945E0F1F910F91EF901A
:101F8000CF90089521E00C94B20F61E00C944B0FB8
:101F900082E192E00C941D0F08951092D50281E029
:101FA0008093D3021092D20261E082E10E94E9079D
:101FB00061E083E10E94E907E9EBF0E080818E7F38
:101FC000808380818D7F808388E48093B80085E45E
:101FD0008093BC000895413208F043C09091D5022F
:101FE0009111FCCF91E09093D5022093D3022FEF73
:101FF000209368021092AD02240F2093AC029093BC
:10200000D4029091D402880F892B8093D4028091BE
:10201000D202813061F41092D2028091D402809376
:10202000BB008091BC0083FDF8CF85EC01C085EE3C
:102030008093BC008091D5028130E1F38091AD02A4
:10204000841710F44091AD02AEEAB2E0962FFB0186
:102050008E2F891B841718F48D918193F9CF842FCB
:10206000089580E008950F93413208F04AC090919E
:10207000D5029111FCCF32E03093D5020093D30208
:102080003FEF309368021092AD024093AC02562F9E
:10209000AEEAB2E0FB013E2F351B341718F4319144
:1020A0003D93F9CF1092D4023091D402880F832B44
:1020B0008093D4028091D202813061F41092D202D6
:1020C0008091D4028093BB008091BC0083FDF8CF47
:1020D00085EC01C085EE8093BC00222321F0809125
:1020E000D5028230D1F3809168028F3F79F08091E0
:1020F0006802803241F080916802803331F094E0D0
:1021000005C091E003C092E001C093E0892F0F91D8
:10211000089540918A02262F30E0240F311D21328C
:102120003105DCF42091D5022430C9F4FC0180E0B3
:1021300090E0861758F430918A022191DC01A4576F
:10214000BD4FA30FB11D2C930196F3CF80918A024E
:10215000680F60938A0280E0089581E0089582E02C
:1021600008959093CF028093CE0208959093D10268
:102170008093D002089585ED8093BC008091BC00CF
:1021800084FDFCCF1092D502089585EC8093BC00AD
:102190001092D50208951F920F920FB60F9211243C
:1021A0002F933F934F935F936F937F938F939F935F
:1021B000AF93BF93EF93FF938091B900887F8036F0
:1021C00009F49EC078F5883209F45DC090F480313E
:1021D00009F456C038F4882309F4F5C0883009F4AE
:1021E0004FC0F5C0883109F44EC0803209F45FC099
:1021F000EEC0803409F46AC058F4803309F457C043
:10220000883309F0E4C0809368020E94C510DFC0E3
:10221000803509F44FC0883509F45DC0883409F071
:10222000D6C0D3C0883909F4C4C0A8F4883709F4EB
:1022300067C038F4883609F463C0803709F460C099
:10224000C6C0883809F4B5C0803909F45FC0803849
:1022500009F0BDC05BC0803B09F483C038F4803A0C
:1022600009F466C0883A09F47CC0B1C0803C09F426
:10227000A4C0883C09F4A1C0883B09F487C0A7C06A
:102280008091D40210C09091AD028091AC02981759
:1022900070F5E091AD0281E08E0F8093AD02F0E029
:1022A000E255FD4F80818093BB0085EC83C0809315
:1022B00068028BC0E091AD0281E08E0F8093AD0289
:1022C0008091BB00F0E0E255FD4F80839091AD021C
:1022D0008091AC026BC0E091AD0281E08E0F8093E3
:1022E000AD028091BB00F0E0E255FD4F808380910C
:1022F000D30281116AC081E08093D20284EA5EC079
:1023000083E08093D50210926902CFCF8091690259
:10231000803208F04EC0E091690281E08E0F809318
:1023200069028091BB00F0E0E659FD4F8083BDCF8C
:102330000E94C51080916902803230F4E0916902F8
:10234000F0E0E659FD4F10826091690270E0E09183
:10235000CE02F091CF028AE692E0099510926902CE
:1023600036C084E08093D50210928B0210928A02CC
:10237000E091D002F091D102099580918A028111F9
:1023800005C081E080938A0210928C02E0918B025A
:1023900081E08E0F80938B02F0E0E457FD4F808147
:1023A0008093BB0090918B0280918A02981708F469
:1023B0007CCF85E88093BC000AC085EC8093BC008C
:1023C0001092D50204C0109268020E94BB10FF91C7
:1023D000EF91BF91AF919F918F917F916F915F919D
:1023E0004F913F912F910F900FBE0F901F90189516
:1023F000EE0FFF1F0590F491E02D09940F931F93AA
:10240000CF93DF938230910510F482E090E0E09169
:10241000D802F091D90220E030E0A0E0B0E030979F
:1024200019F1408151810281138148175907C8F081
:102430008417950769F4109731F012960C93129750
:1024400013961C9327C00093D8021093D90222C080
:102450002115310519F04217530718F49A01BD01EF
:10246000EF01DF01F801DBCF21153105F9F0281B61
:10247000390B2430310580F48A819B816115710507
:1024800021F0FB019383828304C09093D90280934F
:10249000D802FE01329644C0FE01E20FF31F819381
:1024A000919322503109398328833AC02091D60272
:1024B0003091D702232B41F4209102013091030186
:1024C0003093D7022093D602209100013091010170
:1024D0002115310541F42DB73EB7409104015091CB
:1024E0000501241B350BE091D602F091D702E217CB
:1024F000F307A0F42E1B3F0B2817390778F0AC0127
:102500004E5F5F4F2417350748F04E0F5F1F509303
:10251000D7024093D6028193919302C0E0E0F0E0AD
:10252000CF01DF91CF911F910F910895CF93DF934A
:10253000009709F481C0FC01329713821282A091A6
:10254000D802B091D902109781F420813181820F95
:10255000931F2091D6023091D7022817390751F5E1
:10256000F093D702E093D60267C0ED0120E030E09F
:10257000CE17DF0740F44A815B819E01411551056A
:10258000F1F0EA01F5CFD383C28340815181840FFA
:10259000951FC817D90759F488819981840F951F11
:1025A0000296918380838A819B8193838283211504
:1025B000310529F4F093D902E093D8023DC0E90136
:1025C000FB83EA8349915991C40FD51FEC17FD078E
:1025D00061F480819181840F951F0296E9019983AE
:1025E0008883828193819B838A83E0E0F0E0129666
:1025F0008D919C911397009719F0FD01DC01F7CFA5
:102600008D919C9111979D012E5F3F4F820F931FDB
:102610002091D6023091D7022817390769F43097F4
:1026200029F41092D9021092D80202C013821282A9
:10263000B093D702A093D602DF91CF910895A0E086
:10264000B0E0E5E2F3E10C94AC16EC01009721F464
:10265000CB010E94FE11B4C0FC01E60FF71F9C01E4
:1026600022503109E217F30708F4A8C0D9010D91EF
:102670001C91119706171707B0F00530110508F4E3
:102680009BC0C80104978617970708F495C00250AD
:102690001109061B170B019311936D937C93CF01C6
:1026A0000E94961289C05B01A01AB10A4C01800EEB
:1026B000911EA091D802B091D902612C712CE12C0D
:1026C000F12C109709F446C08D919C911197A81593
:1026D000B905B1F56C0142E0C40ED11CCA14DB048B
:1026E00078F14C018A189B08640142E0C40ED11CA9
:1026F0001296BC9012971396AC91B5E0CB16D1040C
:1027000040F0B282A38391828082D9016D937C9341
:1027100009C00E5F1F4F800F911FF90191838083C5
:10272000EB2DFA2FE114F10431F0D7011396FC934D
:10273000EE93129741C0F093D902E093D8023CC0C7
:102740006816790608F43C017D0112960D90BC9143
:10275000A02DB7CF8091D6029091D7028816990606
:10276000E1F466167706C8F48091000190910101AA
:10277000009741F48DB79EB7409104015091050137
:10278000841B950BE817F907C8F4F093D702E09380
:10279000D602F901718360830FC0CB010E94FE1144
:1027A0007C01009759F0A801BE010E94E513CE01FB
:1027B0000E949612C70104C0CE0102C080E090E0E2
:1027C000CDB7DEB7EEE00C94C816FB01DC0102C009
:1027D00001900D9241505040D8F70895FB01DC0163
:1027E00001900D920020E1F70895AEE0B0E0EBEF2C
:1027F000F3E10C94B6160D891E8986E08C831A834A
:1028000009838FEF9FE79E838D83AE01475E5F4F05
:102810006F89788DCE0101960E941714EF81F8859B
:10282000E00FF11F10822E96E4E00C94D216ABE07C
:10283000B0E0EDE1F4E10C94A8166C017B018A0193
:10284000FC0117821682838181FFCCC1CE010196E3
:102850003C01F6019381F70193FD859193FF8191EE
:102860007F01882309F4BAC1853239F493FD85913B
:1028700093FF81917F01853229F4B60190E00E9497
:102880000E16E7CF912C212C312CFFE1F315D8F057
:102890008B3279F038F4803279F08332A1F4232D31
:1028A00020611DC08D3261F0803369F4232D2160D9
:1028B00016C0832D8260382EE32DE4603E2E2AC0A0
:1028C000F32DF8601DC037FC2DC020ED280F2A30F5
:1028D00040F08E32B9F436FC81C1232D2064322EB3
:1028E00019C036FE06C08AE0989E200D1124922E53
:1028F00011C0EAE02E9E200D1124222EF32DF0624D
:102900003F2E08C08C3621F4832D8068382E02C0FB
:10291000883641F4F70193FD859193FF81917F0102
:102920008111B3CF982F9F7D9554933028F40C5F7D
:102930001F4F9FE399830DC0833631F0833771F0C9
:10294000833509F059C021C0F801808189830E5F69
:102950001F4F88248394912C530113C02801F2E067
:102960004F0E511CF801A080B18036FE03C0692DC6
:1029700070E002C06FEF7FEFC5010E9403164C01AB
:102980008201F32DFF773F2E16C0280122E0420E70
:10299000511CF801A080B18036FE03C0692D70E0A3
:1029A00002C06FEF7FEFC5010E94F8154C01F32DB7
:1029B000F0683F2E820133FC1BC0822D90E0881608
:1029C0009906B0F4B60180E290E00E940E162A94B7
:1029D000F4CFF50137FC859137FE81915F01B60197
:1029E00090E00E940E1621102A9421E0821A91088C
:1029F0008114910471F7E8C0843611F0893641F5ED
:102A0000F80137FE07C060817181828193810C5F7C
:102A10001F4F08C060817181072E000C880B990B35
:102A20000E5F1F4FF32DFF763F2E97FF09C0909545
:102A30008095709561957F4F8F4F9F4FF0683F2E27
:102A40002AE030E0A3010E944A16882E861845C06D
:102A5000853731F4232D2F7EB22E2AE030E025C0B9
:102A6000932D997FB92E8F36C1F018F4883579F0FF
:102A7000B5C0803719F0883721F0B0C0E92FE06188
:102A8000BE2EB4FE0DC0FB2DF460BF2E09C034FE77
:102A90000AC0292F2660B22E06C028E030E005C00B
:102AA00020E130E002C020E132E0F801B7FE07C0CB
:102AB00060817181828193810C5F1F4F06C06081AC
:102AC000718180E090E00E5F1F4FA3010E944A16C3
:102AD000882E8618FB2DFF773F2E36FE0DC0232D46
:102AE0002E7FA22E891458F434FE0BC032FC09C08C
:102AF000832D8E7EA82E05C0B82CA32C03C0B82C25
:102B000001C0B92CA4FE0FC0FE01E80DF11D8081AB
:102B1000803321F49A2D997EA92E09C0A2FE06C009
:102B2000B394B39404C08A2D867809F0B394A3FCBF
:102B300011C0A0FE06C0B21488F4280C922C9B1879
:102B40000EC0B21460F4B60180E290E00E940E164E
:102B5000B394F7CFB21418F42B1802C0982C212C80
:102B6000A4FE10C0B60180E390E00E940E16A2FE03
:102B700017C0A1FC03C088E790E002C088E590E0A0
:102B8000B6010CC08A2D867859F0A1FE02C08BE2F6
:102B900001C080E2A7FC8DE2B60190E00E940E1613
:102BA000891438F4B60180E390E00E940E169A94DE
:102BB000F7CF8A94F301E80DF11D8081B60190E012
:102BC0000E940E168110F5CF222009F442CEB601E4
:102BD00080E290E00E940E162A94F6CFF6018681DC
:102BE000978102C08FEF9FEF2B96E2E10C94C41601
:102BF000FC010590615070400110D8F780959095C8
:102C00008E0F9F1F0895FC016150704001900110CC
:102C1000D8F7809590958E0F9F1F08950F931F935F
:102C2000CF93DF93FB01238121FD03C08FEF9FEF43
:102C30002CC022FF16C0468157812481358142175E
:102C4000530744F4A081B1819D012F5F3F4F318331
:102C500020838C93268137812F5F3F4F37832683D4
:102C600014C08B01EC01FB010084F185E02D099576
:102C7000892BE1F6D80116968D919C9117970196B4
:102C800017969C938E931697CE01DF91CF911F914B
:102C90000F910895FA01AA27283051F1203181F1CE
:102CA000E8946F936E7F6E5F7F4F8F4F9F4FAF4F54
:102CB000B1E03ED0B4E03CD0670F781F891F9A1F67
:102CC000A11D680F791F8A1F911DA11D6A0F711D1B
:102CD000811D911DA11D20D009F468943F912AE027
:102CE000269F11243019305D3193DEF6CF0108950F
:102CF000462F4770405D4193B3E00FD0C9F7F6CF40
:102D0000462F4F70405D4A3318F0495D31FD405207
:102D1000419302D0A9F7EACFB4E0A695979587959D
:102D200077956795BA95C9F700976105710508957C
:102D30009B01AC010A2E0694579547953795279528
:102D4000BA95C9F7620F731F841F951FA01D0895C0
:102D50002F923F924F925F926F927F928F929F92AB
:102D6000AF92BF92CF92DF92EF92FF920F931F9399
:102D7000CF93DF93CDB7DEB7CA1BDB0B0FB6F8944A
:102D8000DEBF0FBECDBF09942A88398848885F848A
:102D90006E847D848C849B84AA84B984C884DF80FB
:102DA000EE80FD800C811B81AA81B981CE0FD11DDF
:102DB0000FB6F894DEBF0FBECDBFED01089510E051
:102DC000C3E6D0E004C0FE010E94F8112196C4368B
:082DD000D107C9F7F894FFCF09
:102DD8000000DA02200001000040001400540055F1
:102DE800703A4F70656E20446E436C6F7365204C6B
:102DF80066743A4461792052743A4E69676874007F
:102E08004D61696E204D656E750053656C3A45736A
:102E180063617065004F70656E696E6720446F6FFF
:102E28007200436C6F73696E6720446F6F72004461
:102E38006179204D6F6465202020202020202054B7
:102E48006D703A25734C68743A2573004E6967684B
:102E580074204D6F6465202020202020546D703A26
:102E680025734C68743A25730055703A4F70656E37
:102E780020446E436C6F73654C66743A44617920E4
:102E880052743A4E696768740000000000470C4CA1
:102E98000648064B0600000000EE0EC10E48068AE2
:082EA8000E5F0E670E7B0E00A9
:00000001FF
