S013000064656D6F5F616E616C6F672E737265639B
S11300000C9460000C9411070C9438070C9488002D
S11300100C9488000C9488000C9488000C9488003C
S11300200C9488000C9488000C9488000C9488002C
S11300300C9488000C9488000C9488000C9488001C
S11300400C945F070C9488000C94EC050C941E0629
S11300500C9488000C9488000C9488000C948800FC
S11300600C947D110C94880000000008000201002B
S1130070000304070000000000000000010204085F
S113008010204080010204081020010204081020FE
S1130090040404040404040402020202020203032A
S11300A00303030300000000250028002B000000C8
S11300B00000240027002A008F044E067A109F04B3
S11300C011241FBECFEFD8E0DEBFCDBF12E0A0E009
S11300D0B1E0E0E8FFE202C005900D92AE35B10751
S11300E0D9F724E0AEE5B2E001C01D92A230B20718
S11300F0E1F710E0CFE5D0E004C02197FE010E94B3
S1130100CC12CC35D107C9F70E947C060C94B317E6
S11301100C940000EF92FF920F931F93CF93DF9301
S1130120EC017B018A010E94D40B40E060E0CE0127
S11301300E94DB0BB701CE010E94CC0641E060E0D7
S1130140CE010E94DB0BB801CE010E94CC0640E038
S113015060E0CE01DF91CF911F910F91FF90EF905E
S11301600C94DB0B0F931F93CF93DF93CDB7DEB7C4
S11301702C970FB6F894DEBF0FBECDBF8C0163E39E
S113018072E0CE0107960E946209F80182A593A548
S1130190009719F0019741F00EC0B801605D7F4FE0
S11301A0CE0107960E94B409B8016A5C7F4FCE0164
S11301B007960E94B409F80146A557A584A595A5FC
S11301C04817590714F415A614A6F80124A535A553
S11301D04217530741F42B853C8594E0440F551F87
S11301E09A95E1F70AC02F5F3F4F84E0220F331F37
S11301F08A95E1F7A90140515109BE01695F7F4F1A
S1130200CE0101960E94F709BE016F5F7F4FCE01B8
S113021007960E94D409CE0101960E94F408F801C1
S113022042A560E0C8010E94DB0BBE01695F7F4FFD
S1130230C8010E94CC0640E060E0C8010E94DB0BCC
S1130240F80104A515A50F5F1F4FCE0107960E9464
S1130250F408C8012C960FB6F894DEBF0FBECDBFCC
S1130260DF91CF911F910F9108954F925F926F92FA
S11302707F928F929F92AF92BF92CF92DF92EF9232
S1130280FF920F931F93CF93DF93CDB7DEB72C97D5
S11302900FB6F894DEBF0FBECDBF4C013B012A015F
S11302A0B22EC0960E94B409B201C401C6960E943F
S11302B0B409F401F7A6E6A6D3A6C2A6F801808184
S11302C09181F401978F868FF80182819381F401E3
S11302D091A380A3F80184819581F40193A382A35F
S11302E0F80186819781F40195A384A3F8018085A0
S11302F09185F40197A386A36B2DC4010E946A0A19
S1130300F401A4AEA1101EC015A614A6B201CE011C
S113031001960E94CB09B301CE0107960E94CB0936
S1130320AE014F5F5F4FBE01695F7F4FC4010E9402
S11303308A00CE0107960E94F408CE0101960E941D
S1130340F40806C0C4010E94B200F40195A784A772
S11303502C960FB6F894DEBF0FBECDBFDF91CF91C0
S11303601F910F91FF90EF90DF90CF90BF90AF90CF
S11303709F908F907F906F905F904F9008958F9291
S11303809F92AF92CF92DF92EF92FF920F931F93BF
S1130390CF93DF93CDB7DEB7AC970FB6F894DEBF3B
S11303A00FBECDBF4C01C801442321F0C4010E94FB
S11303B0B2009EC08E010F5F1F4F6230710559F16C
S11303C0ECF46115710509F459C06130710509F047
S11303D055C01A8219828FEF9FEF9C838B839E8373
S11303E08D8398878F839A8789876DE371E0CE0127
S11303F081960E94620968E471E021C0633071054E
S113040059F164307105D1F59F938F933F932F93E6
S113041080E891E027C01A8219828FEF9FEF9C83B6
S11304208B839E838D8398878F839A8789876DE3D7
S113043071E0CE0181960E94620965E571E0CE010A
S113044087960E946209A12CCC24CA94DC2CE12C4E
S1130450F12C23E030E03BC09F938F933F932F9385
S113046082E691E09F938F931F930F930E94C91488
S11304700FB6F894DEBF0FBECDBF3AC08FEF9FEF2B
S11304809A83898381E090E09C838B8382E090E06F
S11304909E838D8383E090E098878F8384E090E04F
S11304A09A87898763E171E0CE0181960E9462098F
S11304B063E371E0CE0187960E946209A12CCC24EB
S11304C0C394D12CEE24E394F12C22E030E0AE016D
S11304D04F5D5F4FBE01695D7F4FC4010E943501CE
S11304E0CE0187960E94F408CE0181960E94F408FA
S11304F0AC960FB6F894DEBF0FBECDBFDF91CF919F
S11305001F910F91FF90EF90DF90CF90AF909F904D
S11305108F9008950F931F93CF93DF93EC01FB010A
S1130520828193819B838A8384E492E09983888384
S113053084818C8385818D8386818E8388E0379640
S1130540DE01179601900D928A95E1F785E0FB0193
S11305503F96DE011F9601900D928A95E1F7FB010B
S113056084898C8B85898D8B86898E8B87898F8BEB
S1130570808D888F818D898F828D8A8F838D8B8FDB
S113058063E372E0CE01C0960E94620963E372E005
S1130590CE01C6960E94620920E042E060E1CE01ED
S11305A00E94110CCE010E94D40B03E312E09801C7
S11305B040E060E070E0CE010E94BF01DF91CF9186
S11305C01F910F9108950F931F93CF93DF93EC0125
S11305D00E94FF0C80FF06C06E8D7F8D6F3F9FEFE2
S11305E0790701F583FF06C068A179A16F3F9FEFEA
S11305F07907C1F482FF06C06AA17BA16F3F9FEF18
S1130600790781F484FF06C06CA17DA16F3F9FEF41
S1130610790741F481FF12C06EA17FA16F3F8FEF74
S1130620780761F003E312E0980140E0CE010E94F4
S1130630BF01DF91CF911F910F910895CE01DF91FA
S1130640CF911F910F910C94B20008950F931F93B3
S1130650CF93DF93CDB7DEB76C970FB6F894DEBFB8
S11306600FBECDBF26E040E855E260E070E084E9CB
S113067092E00E94830582E692E0FC0122813381AC
S11306803C832B8324E432E03A83298324812D8321
S113069025812E8326812F8328E0E9E6F2E0DE011E
S11306A0189601900D922A95E1F725E0E1E7F2E032
S11306B0DE01509601900D922A95E1F7FC01248900
S11306C02D8B25892E8B26892F8B2789288F208D8A
S11306D0298F218D2A8F228D2B8F838D8C8F8DE3F3
S11306E090E00E948B068C01BE016F5F7F4F0E94D9
S11306F08A0210936102009360028CE090E00E94F1
S11307008B068C010E94250310935F0200935E0206
S113071060E08AE00E94880860E089E00E9488081E
S113072062E082E00E94880843E050E06EE774E0F3
S113073080E00E94F10680E00E945C0881E08093E2
S11307407F0210927E02ECEBF0E080818160808376
S113075078946EE971E084E992E00E94DE066C967A
S11307600FB6F894DEBF0FBECDBFDF91CF911F91BE
S11307700F9108950F931F9368EB7BE080E090E066
S11307800E94DA076CEA71E084E992E00E94DE06D6
S11307902091920230919302809190029091910263
S11307A02817390739F064EB71E084E992E00E947C
S11307B0DE0615C00E94A90700918C0210918D02DB
S11307C020918E0230918F02DC01CB01801B910BB2
S11307D0A20BB30B893B9B40A105B105C0F08091EE
S11307E06002909161020E94E302809190029091D4
S11307F0910290939302809392020E94A9076093BE
S11308008C0270938D0280938E0290938F021F91BD
S11308100F9108951F93CF93DF9361E08AE00E94C4
S1130820880861E089E00E94880863ED71E084E94A
S113083092E00E94DE0661E08AE00E94C40860E063
S113084089E00E94C408C8EFDAE210E080917F02D8
S1130850882399F061E070E080E090E00E94DA077C
S1130860112349F060E08AE00E94C40860E089E056
S11308700E94C40802C0219749F760E08AE00E9400
S1130880C40860E089E00E94C40860E08AE00E9435
S1130890880860E089E0DF91CF911F910C9488086B
S11308A060E089E00E94C40860E08AE00E94C40815
S11308B060E089E00E94880860E08AE00E9488087D
S11308C068EE73E080E090E00E94DA0762E072E094
S11308D084E992E00E94DE0688EE93E00E940A0416
S11308E060E089E00E94880860E08AE00E9488084D
S11308F06CE072E084E992E00C94DE0680917E0262
S1130900882361F060E089E00E94C40860E08AE026
S11309100E94C4080E94500410927F02089563E369
S113092072E086E892E00E94620963E372E080E884
S113093092E00E94620982E692E00C943C0A80E80C
S113094092E00E94F40886E892E00C94F408FC011A
S1130950918D228D892F90E0805C9F4F821B91099D
S11309608F7399270895FC01918D828D981731F02A
S1130970828DE80FF11D858D90E008958FEF9FEF34
S11309800895FC01918D828D981761F0828DDF01AD
S1130990A80FB11D5D968C91928D9F5F9F73928F6E
S11309A090E008958FEF9FEF0895FC01538D448DDF
S11309B0252F30E0842F90E0821B930B541710F006
S11309C0CF9608950197089584E496E0892B49F021
S11309D080E090E0892B29F00E94440681110C9458
S11309E000000895FC01848DDF01A80FB11DA35AF6
S11309F0BF4F2C91848D90E001968F739927848F3B
S1130A00A689B7892C93A089B1898C91837080645D
S1130A108C93938D848D981306C00288F389E02DFE
S1130A2080818F7D80830895EF92FF920F931F93AF
S1130A30CF93DF93EC0181E0888F9B8D8C8D98138D
S1130A4005C0E889F989808185FD26C0F62E0B8DC5
S1130A5010E00F5F1F4F0F731127E02E8C8DE812EB
S1130A600CC00FB607FCFACFE889F989808185FFAD
S1130A70F5CFCE010E94F204F1CF8B8DFE01E80F79
S1130A80F11DE35AFF4FF0829FB7F8940B8FEA8968
S1130A90FB89808180620AC09FB7F894EE89FF8940
S1130AA06083E889F98980818370806480839FBF33
S1130AB081E090E0DF91CF911F910F91FF90EF9033
S1130AC00895CF93DF93EC01888D8823C9F0EA89D8
S1130AD0FB89808185FD05C0A889B9898C9186FD33
S1130AE00FC00FB607FCF5CF808185FFF2CFA88930
S1130AF0B9898C9185FFEDCFCE010E94F204E7CF36
S1130B00DF91CF910895CF92DF92EF92FF921F93DE
S1130B10CF93DF93EC016A017B01122FE889F989F5
S1130B2082E080834115514E61057105B1F060E0AA
S1130B3079E08DE390E0A70196010E94AA12DA0100
S1130B40C9010197A109B109B695A795979587950C
S1130B509C01211580E13807A8F0E889F989108201
S1130B6060E874E88EE190E0A70196010E94AA1261
S1130B70DA01C9010197A109B109B695A79597951D
S1130B8087959C01EC85FD853083EE85FF85208368
S1130B90188EEC89FD891083EA89FB898081806144
S1130BA08083EA89FB89808188608083EA89FB8964
S1130BB0808180688083EA89FB8980818F7D80833E
S1130BC0DF91CF911F91FF90EF90DF90CF90089528
S1130BD080E090E0089508951F920F920FB60F924F
S1130BE011242F938F939F93EF93FF93E091A4028B
S1130BF0F091A5028081E091AA02F091AB0282FDFE
S1130C0012C090818091AD028F5F8F732091AE02EC
S1130C10821751F0E091AD02F0E0EC56FD4F958F54
S1130C208093AD0201C08081FF91EF919F918F91DC
S1130C302F910F900FBE0F901F9018951F920F9237
S1130C400FB60F9211242F933F934F935F936F939B
S1130C507F938F939F93AF93BF93EF93FF9384E915
S1130C6092E00E94F204FF91EF91BF91AF919F91A6
S1130C708F917F916F915F914F913F912F910F9041
S1130C800FBE0F901F90189584E992E00E94A7046C
S1130C9021E0892B09F420E0822F0895E4E9F2E0B1
S1130CA01382128288EE93E0A0E0B0E084839583FF
S1130CB0A683B78383E292E09183808385EC90E0FE
S1130CC09587848784EC90E09787868780EC90E012
S1130CD0918B808B81EC90E0938B828B82EC90E003
S1130CE0958B848B86EC90E0978B868B118E128E7D
S1130CF0138E148E089508950E9421080E947B0685
S1130D000E942603C4EED4E00E94BA032097E1F3C4
S1130D100E94E404F9CF0C94D212CF92DF92EF92A6
S1130D20FF920F931F93CF93DF936C017A018B0192
S1130D30C0E0D0E0CE15DF0581F0D8016D918D01C2
S1130D40D601ED91FC910190F081E02DC601099549
S1130D50892B11F02196EECF7E01C701DF91CF914F
S1130D601F910F91FF90EF90DF90CF900895611540
S1130D70710579F0FB0101900020E9F73197AF018B
S1130D80461B570BDC01ED91FC910280F381E02DB1
S1130D90099480E090E00895DB0114964D915C91F4
S1130DA015976D917C91DC01ED91FC910280F381AA
S1130DB0E02D099461E372E00C94B7060F931F933E
S1130DC0CF93DF93EC010E94B7068C01CE010E9401
S1130DD0DA06800F911FDF91CF911F910F91089533
S1130DE008958230E8F4E82FF0E0EE0FFF1FEA5F89
S1130DF0FE4F71836083813041F0809169008C7F64
S1130E00482B40936900E89A089580916900837F94
S1130E10440F551F440F551F482B40936900E99A0E
S1130E2008951F920F920FB60F9211242F933F93A0
S1130E304F935F936F937F938F939F93AF93BF93DE
S1130E40EF93FF93E0910601F09107010995FF915B
S1130E50EF91BF91AF919F918F917F916F915F912E
S1130E604F913F912F910F900FBE0F901F901895A7
S1130E701F920F920FB60F9211242F933F934F930B
S1130E805F936F937F938F939F93AF93BF93EF93EE
S1130E90FF93E0910801F09109010995FF91EF9109
S1130EA0BF91AF919F918F917F916F915F914F917E
S1130EB03F912F910F900FBE0F901F9018951F9286
S1130EC00F920FB60F9211242F933F938F939F93FA
S1130ED0AF93BF938091320390913303A091340375
S1130EE0B09135033091310323E0230F2D3720F4E3
S1130EF00196A11DB11D05C026E8230F0296A11D70
S1130F00B11D209331038093320390933303A09354
S1130F103403B09335038091360390913703A09145
S1130F203803B09139030196A11DB11D8093360396
S1130F3090933703A0933803B0933903BF91AF91D3
S1130F409F918F913F912F910F900FBE0F901F9003
S1130F5018952FB7F8946091320370913303809100
S1130F603403909135032FBF08953FB7F8948091CF
S1130F70360390913703A0913803B091390326B515
S1130F80A89B05C02F3F19F00196A11DB11D3FBFBD
S1130F90BA2FA92F982F8827820F911DA11DB11D4B
S1130FA0BC01CD0142E0660F771F881F991F4A9547
S1130FB0D1F708958F929F92AF92BF92CF92DF9212
S1130FC0EF92FF926B017C010E94B5074B015C011B
S1130FD0C114D104E104F10401F10E947E100E94C5
S1130FE0B507DC01CB0188199909AA09BB09883E18
S1130FF09340A105B10560F321E0C21AD108E108CC
S1131000F10888EE880E83E0981EA11CB11CC1145F
S1131010D104E104F10419F7DBCFFF90EF90DF90E6
S1131020CF90BF90AF909F908F900895823091059C
S113103038F0880F991F880F991F05970197F1F7CA
S11310400895789484B5826084BD84B5816084BD3C
S113105085B5826085BD85B5816085BDEEE6F0E02D
S1131060808181608083E1E8F0E010828081826089
S11310708083808181608083E0E8F0E0808181600A
S11310808083E1EBF0E0808184608083E0EBF0E03A
S1131090808181608083EAE7F0E0808184608083DE
S11310A08081826080838081816080838081806888
S11310B080831092C100089580930A0108958330BB
S11310C081F028F4813099F08230A1F008958730BE
S11310D0A9F08830B9F08430D1F4809180008F7DFC
S11310E003C0809180008F7780938000089584B539
S11310F08F7702C084B58F7D84BD08958091B00040
S11311008F7703C08091B0008F7D8093B0000895E5
S1131110CF93DF9390E0FC01E458FF4F2491FC014E
S1131120E057FF4F8491882361F190E0880F991F65
S1131130FC01E255FF4FC591D491FC01EC55FF4FE2
S1131140A591B491611109C09FB7F8948881209545
S113115082238883EC912E230BC0623061F49FB705
S1131160F8948881322F309583238883EC912E2B39
S11311702C939FBF06C08FB7F894E8812E2B288349
S11311808FBFDF91CF9108951F93CF93DF93282FC3
S113119030E0F901E859FF4F8491F901E458FF4F19
S11311A0D491F901E057FF4FC491CC23C1F0162F1D
S11311B081110E945F08EC2FF0E0EE0FFF1FEC5549
S11311C0FF4FA591B4919FB7F894111104C08C916D
S11311D0D095D82302C0EC91DE2BDC939FBFDF9126
S11311E0CF911F9108950895FC01808191810C9401
S11311F06A13CF93DF93EC0188819981009711F0F2
S11312000E946A13198218821D821C821B821A8210
S1131210DF91CF9108950F931F93CF93DF93EC0148
S11312208B016F5F7F4F888199810E94F313009730
S113123031F0998388831B830A8381E001C080E0B5
S1131240DF91CF911F910F910895CF93DF93EC011C
S113125088819981892B29F08A819B818617970738
S113126060F4CE010E940B09882341F08C819D819A
S1131270892B19F4E881F981108281E0DF91CF9103
S11312800895EF92FF920F931F93CF93DF93EC0196
S11312907B018A01BA010E942509811104C0CE0193
S11312A00E94F90807C01D830C83B70188819981C6
S11312B00E94C214CE01DF91CF911F910F91FF9034
S11312C0EF900895FC01118210821382128215821C
S11312D014826115710551F0FB0101900020E9F7BA
S11312E03197AF01461B570B0C94410908950F9396
S11312F01F93CF93DF938C01EB01FC0180819181DB
S11313000097D1F0688179816115710599F023EF17
S113131038E0232B79F0428153812C813D8142179F
S1131320530740F00E94C2148C819D81F80195837B
S1131330848313C00E946A1388819981F801918380
S113134080838A819B81938382838C819D81958311
S11313508483198218821B821A821D821C82DF9167
S1131360CF911F910F910895CF93DF93EC01FB016F
S11313708617970761F0608171816115710529F005
S1131380448155810E94410902C00E94F908CE019E
S1131390DF91CF910895FC01118210821382128291
S11313A0158214820C94B409CF93DF93EC01861751
S11313B0970711F00E947709CE01DF91CF9108952C
S11313C0CF93DF93EC016115710559F0FB01019096
S11313D00020E9F73197AF01461B570B0E944109E2
S11313E002C00E94F908CE01DF91CF910895BF9207
S11313F0CF92DF92EF92FF920F931F93CF93DF93DD
S11314007C016B018A01E9012417350720F4812F3F
S11314108901C42FD82F63E372E0C7010E946209D7
S1131420D60114968D919C91159708171907C8F445
S11314308C179D0708F4EC01D601ED91FC911197EE
S1131440EC0FFD1FB08010826D917C91600F711FB5
S1131450C7010E94E009D601ED91FC91EC0FFD1F3C
S1131460B082C701DF91CF911F910F91FF90EF9050
S1131470DF90CF90BF900895FC011382128284E420
S113148092E091838083128E148A8FE084838EE0AD
S113149085838DE086838CE087838BE080878AE078
S11314A0818789E08287178681E0808B82E0818B47
S11314B083E0828B84E0838B0895FC01962F828DD8
S11314C08F3F21F0CF014B960C94A80E642F892FE7
S11314D00C94C4080F931F93CF93DF93D62F8C01E2
S11314E0055E1F4FC1E062FB442740F94C2768E0CA
S11314F0C8010E94A80ED1FB442740F94C2767E09D
S1131500C8010E94A80E4D2F41704C2766E0C80107
S1131510DF91CF911F910F910C94A80EFC01962F8F
S1131520828D8F3F21F0CF014B960C94810D642F57
S1131530892F0C948808CF93DF93EC0140E06E81EF
S11315400E945D0A81E090E00E94160841E06E81ED
S1131550CE010E945D0A81E090E00E94160840E0FE
S11315606E81CE010E945D0A84E690E0DF91CF9106
S11315700C941608AF92BF92CF92DF92EF92FF9233
S11315800F931F93CF93DF938C01FC01828D9801FD
S1131590295F3F4F7901C62FD0E08F3F09F473C014
S11315A068013BE1C30ED11CC6010E94E30DF701A3
S11315B040E050E0A1E0B0E0B190EE24E394F12CDF
S11315C0BD010B2C02C0660F771F0A94E2F76095E9
S11315D07095862397239E01042E02C03595279586
S11315E00A94E2F72170332702C0220F331FBA9402
S11315F0E2F7822B932B4F5F5F4F44305105E1F6A6
S1131600E701F801068002C0CC0FDD1F0A94E2F75F
S1131610C095D095C823D923BE01C6010E94660D8A
S113162081E090E00E941608C701F801068002C01C
S1131630880F991F0A94E2F7C82BD92BBE01C60163
S11316400E94660D81E090E00E941608B701F8013F
S1131650068002C0660F771F0A94E2F760957095C2
S11316606C237D23C6010E94660D84E690E0DF9121
S1131670CF911F910F91FF90EF90DF90CF90BF908B
S1131680AF900C941608C12CD12C570141E0F701FE
S113169061917F01C8010E948E0AAE010C2C02C028
S11316A0559547950A94E2F74170F5016081C801A8
S11316B00E945D0AFFEFCF1ADF0A24E0C216D104AC
S11316C021F7C801DF91CF911F910F91FF90EF9007
S11316D0DF90CF90BF90AF900C949B0AAF92BF92D3
S11316E0CF92DF92EF92FF920F931F93CF93DF93EA
S11316F0EC015C0187E0A80EB11C00E010E0E62ECE
S1131700F12C650141E0F50161915F01CE010E9478
S11317108E0AA701002E02C0559547950A94E2F758
S11317204170F6016081CE010E945D0A0F5F1F4F78
S11317300830110531F7CE01DF91CF911F910F9140
S1131740FF90EF90DF90CF90BF90AF900C949B0AE6
S11317501F93CF93DF93EC01162F6C810E945D0AD7
S11317606D816F3F21F040E0CE010E945D0A8C89BB
S1131770612F84FF06C0CE01DF91CF911F910C949D
S11317806E0B70E084E0759567958A95E1F7CE015C
S11317900E94BA0A612FCE01DF91CF911F910C9460
S11317A0BA0A40E00C94A80B61E00E94D10B80EDD2
S11317B097E00C941608CF93DF93CDB7DEB7289744
S11317C00FB6F894DEBF0FBECDBF9C0188E0EBE0FE
S11317D0F1E0DE01119601900D928A95E1F7F9018D
S11317E0808D841710F44FEF480FFE013196E40FFB
S11317F0F11DE40FF11D9081690F6068C9012896FD
S11318000FB6F894DEBF0FBECDBFDF91CF910C941D
S1131810D10BFC016589262F2460258B6C600C9408
S1131820D10B8F929F92AF92BF92CF92DF92EF92A1
S1131830FF920F931F93CF93DF93EC01D42EC22E0C
S11318408A8D8F3F41F481E08D1508F05EC08C894C
S113185088608C8B5AC08AE393E00E94DF0F8E016C
S1131860055E1F4FC8010E94630D41E068E0C80196
S11318700E94810D41E066E0C8010E94810D41E0B3
S113188067E0C8010E94810D67E0CE010E946A0AE8
S11318906D81662321F041E0C8010E94810D41E081
S11318A06C81C8010E94810D41E06E81C8010E94D3
S11318B0810D7E01E7E0EE0EF11C5E01FBE0AF0E50
S11318C0B11CF70161917F0141E0C8010E94810DC3
S11318D0EA14FB04B1F77E01FFE0EF0EF11C5E0198
S11318E084E1A80EB11C470140E0F70161917F013A
S11318F0C8010E94810D41E0F4016081C8010E9489
S1131900450EEA14FB0479F79ECFD88E198ECC20AD
S113191031F0F1E0DF1203C08C8984608C8B80E5A8
S113192093EC0E94160840E06C81CE010E945D0A8F
S113193040E06E81CE010E945D0A6D816F3F21F00F
S113194040E0CE010E945D0A6C8964FD1DC063E025
S1131950CE010E94BA0A84E991E10E94160863E06C
S1131960CE010E94BA0A84E991E10E94160863E05C
S1131970CE010E94BA0A86E990E00E94160862E04D
S1131980CE010E94BA0A16C06062CE010E94D10B39
S113199084E991E10E9416086C896062CE010E947C
S11319A0D10B86E990E00E9416086C896062CE0132
S11319B00E94D10B6C896062CE010E94D10B84E03D
S11319C08D8BCE010E94090CCE010E94D40B82E0C3
S11319D08E8B66E0CE01DF91CF911F910F91FF9026
S11319E0EF90DF90CF90BF90AF909F908F900C942A
S11319F0D10B41E00E94A80B81E090E00895DF92B2
S1131A00EF92FF920F931F93CF93DF937C012FE00C
S1131A10E20EF11CC0E0D0E02FE1D22E8C01055E75
S1131A201F4FF70161917F01C8010E940C0E282FFE
S1131A3030E00C2E02C0220F331F0A94E2F72095E7
S1131A403095D2222196C530D10559F78D2DDF91DD
S1131A50CF911F910F91FF90EF90DF900895682F21
S1131A608AE393E00C94A00FCF93DF93EC016830EA
S1131A7008F067E068838AE393E00E94DF0F6881DF
S1131A80606270E08AE393E00E94FB0F80E00E94B2
S1131A902F0D8FEF0E942F0D8AE393E00E947710A1
S1131AA06881606270E08AE393E00E94FB0F81E04A
S1131AB00E942F0D8FEF0E942F0D8AE393E0DF9198
S1131AC0CF910C94771060E00C94340DCF93DF9396
S1131AD0D62FC72FFC016081606270E08AE393E037
S1131AE00E94FB0F82E10E942F0D8D2F0E942F0D6B
S1131AF08C2F0E942F0D8AE393E0DF91CF910C94F9
S1131B007710FF920F931F93CF93DF938C01C62F0F
S1131B10D42F603108F051C0683020F0C850FF2441
S1131B20F39401C0F12CF8016081606270E08AE3F3
S1131B3093E00E94FB0F8F2D0E942F0D8AE393E008
S1131B400E947710F8016081606270E041E050E02B
S1131B508AE393E00E9474108AE393E00E94190FD1
S1131B6021E030E0D11109C0A90102C0440F551F82
S1131B70CA95E2F7EA01C82B09C0F90102C0EE0FC9
S1131B80FF1FCA95E2F7EF01C095C823F8016081F1
S1131B90606270E08AE393E00E94FB0F8F2D0E9445
S1131BA02F0D8C2F0E942F0D8AE393E0DF91CF91AC
S1131BB01F910F91FF900C947710DF91CF911F919B
S1131BC00F91FF900895CF93DF93EC0168816062D9
S1131BD070E08AE393E00E94FB0F82E10E942F0DE4
S1131BE08AE393E00E9477106881606270E042E0CB
S1131BF050E08AE393E00E9474108AE393E00E9429
S1131C00190FC82F8AE393E00E94190F982F882791
S1131C108C2BDF91CF9108950F931F93CF93DF9374
S1131C208C01C62F603158F5683018F0C850D3E1E4
S1131C3001C0D2E1F8016081606270E08AE393E060
S1131C400E94FB0F8D2F0E942F0D8AE393E00E94C8
S1131C507710F8016081606270E041E050E08AE34F
S1131C6093E00E9474108AE393E00E94190F99276D
S1131C7002C095958795CA95E2F7817001C080E00E
S1131C80DF91CF911F910F910895FF920F931F93AE
S1131C90CF93DF938C01C62FD42F603108F052C04C
S1131CA0683020F0C8509DE0F92E02C08CE0F82E78
S1131CB0F8016081606270E08AE393E00E94FB0FA8
S1131CC08F2D0E942F0D8AE393E00E947710F80174
S1131CD06081606270E041E050E08AE393E00E943A
S1131CE074108AE393E00E94190F21E030E0D130B0
S1131CF049F4A90102C0440F551FCA95E2F7EA014D
S1131D00C82B09C0F90102C0EE0FFF1FCA95E2F704
S1131D10EF01C095C823F8016081606270E08AE336
S1131D2093E00E94FB0F8F2D0E942F0D8C2F0E9499
S1131D302F0D8AE393E0DF91CF911F910F91FF90D4
S1131D400C947710DF91CF911F910F91FF9008951C
S1131D50EF92FF920F931F93CF93DF938C01C62FC3
S1131D60E42E603108F056C0683028F0C850D5E140
S1131D7093E1F92E03C0D4E182E1F82EF8016081E9
S1131D80606270E08AE393E00E94FB0F8D2F0E9453
S1131D902F0D8AE393E00E947710F801608160625E
S1131DA070E041E050E08AE393E00E9474108AE31B
S1131DB093E00E94190FF1E021E030E0EF1209C036
S1131DC0A90102C0440F551FCA95E2F7EA01C82BC6
S1131DD009C0F90102C0EE0FFF1FCA95E2F7EF0137
S1131DE0C095C823F8016081606270E08AE393E0E3
S1131DF00E94FB0F8F2D0E942F0D8C2F0E942F0D00
S1131E008AE393E0DF91CF911F910F91FF90EF90C0
S1131E100C947710DF91CF911F910F91FF90EF9069
S1131E20089580916E0390E020916F03821B9109C5
S1131E30089590916F0380916E03981750F4E92FE1
S1131E40F0E0E059FC4F208130E09F5F90936F03F6
S1131E5002C02FEF3FEFC9010895E0916F03809115
S1131E606E03E81730F4F0E0E059FC4F808190E015
S1131E7008958FEF9FEF08950895CF93DF93EC01BA
S1131E80E0914603F09147033097F1F090916F038E
S1131E9080916E039817C0F090E0292F30E0261748
S1131EA0370754F4DE01A20FB31F4C91D901A05996
S1131EB0BC4F4C939F5FF1CF10926F0360936E03FE
S1131EC0CB01DF91CF910994DF91CF910895E091F7
S1131ED04803F0914903309729F010924C03109273
S1131EE04B0309940895CF92DF92EF92FF920F93E0
S1131EF01F93CF93DF937C01CB018A0120914A0386
S1131F00222389F0EB016B01C40ED51ECC15DD052F
S1131F1069F06991D701ED91FC910190F081E02D78
S1131F20C7010995F3CF642F0E943B11C801DF91CB
S1131F30CF911F910F91FF90EF90DF90CF90089574
S1131F40CF93DF931F92CDB7DEB7698320914A0305
S1131F502223D1F020914B03203240F021E030E0E5
S1131F60FC013383228380E090E015C080914C0310
S1131F70E82FF0E0E35BFC4F998190838F5F8093BF
S1131F804C0380934B0305C061E0CE0101960E948F
S1131F903B1181E090E00F90DF91CF910895FC0117
S1131FA01382128288EE93E0A0E0B0E084839583EC
S1131FB0A683B78380E592E091838083089510928D
S1131FC06F0310926E0310924C0310924B030E9405
S1131FD07F1087E69FE00E9468118DE39FE00C94D8
S1131FE0631181E080934A0360936D0310924C0364
S1131FF010924B0308950C94F10F0F93062F21E0D8
S113200040914B036DE473E080916D030E94E510F1
S113201010924C0310924B0310924A030F910895AF
S11320204F925F926F927F92AF92BF92CF92EF9254
S1132030FF920F931F93CF93DF935C01F62ED42F5F
S113204028013901EE2021F10E94F10FCE2DC43078
S113205008F0C3E0C150C0F028E0C29FC0011124C1
S1132060A301920104C056954795379527958A9503
S1132070D2F7CA01B901D501ED91FC910190F0812B
S1132080E02DC5010995E6CF60E0C5010E94FD0F72
S11320904D2FD13208F040E22C2D60E773E08F2DF4
S11320A00E949D1010926F0380936E03DF91CF9175
S11320B01F910F91FF90EF90CF90BF90AF907F90C2
S11320C06F905F904F900895CF92EF920F931F936C
S11320D0C22EE12C00E010E098010E9410101F9124
S11320E00F91EF90CF90089521E00C94641061E07B
S11320F00C94FD0F8AE393E00C94CF0F0895109293
S1132100FD0381E08093FB031092FA0361E082E116
S11321100E94C40861E083E10E94C408E9EBF0E096
S113212080818E7F808380818D7F808388E480930B
S1132130B80085E48093BC000895413208F043C0A0
S11321409091FD039111FCCF91E09093FD032093B6
S1132150FB032FEF209390031092D503240F2093B9
S1132160D4039093FC039091FC03880F892B8093F4
S1132170FC038091FA03813061F41092FA03809198
S1132180FC038093BB008091BC0083FDF8CF85ECF9
S113219001C085EE8093BC008091FD038130E1F3A2
S11321A08091D503841710F44091D503A6EDB3E0D4
S11321B0962FFB018E2F891B841718F48D91819320
S11321C0F9CF842F089580E008950F93413208F0E9
S11321D04AC09091FD039111FCCF32E03093FD038E
S11321E00093FB033FEF309390031092D503409389
S11321F0D403562FA6EDB3E0FB013E2F351B341755
S113220018F431913D93F9CF1092FC033091FC0303
S1132210880F832B8093FC038091FA03813061F44F
S11322201092FA038091FC038093BB008091BC0060
S113223083FDF8CF85EC01C085EE8093BC0022239A
S113224021F08091FD038230D1F3809190038F3F80
S113225079F080919003803241F080919003803333
S113226031F094E005C091E003C092E001C093E036
S1132270892F0F9108954091B203262F30E0240F47
S1132280311D21323105DCF42091FD032430C9F4E1
S1132290FC0180E090E0861758F43091B20321915C
S11322A0DC01AC54BC4FA30FB11D2C930196F3CFAA
S11322B08091B203680F6093B20380E0089581E0D7
S11322C0089582E008959093F7038093F6030895A8
S11322D09093F9038093F803089585ED8093BC00EF
S11322E08091BC0084FDFCCF1092FD03089585EC21
S11322F08093BC001092FD0308951F920F920FB6B5
S11323000F9211242F933F934F935F936F937F9377
S11323108F939F93AF93BF93EF93FF938091B900F3
S1132320887F803609F49EC078F5883209F45DC050
S113233090F4803109F456C038F4882309F4F5C0C8
S1132340883009F44FC0F5C0883109F44EC080329A
S113235009F45FC0EEC0803409F46AC058F48033D5
S113236009F457C0883309F0E4C0809390030E94B5
S11323707711DFC0803509F44FC0883509F45DC09A
S1132380883409F0D6C0D3C0883909F4C4C0A8F48D
S1132390883709F467C038F4883609F463C0803795
S11323A009F460C0C6C0883809F4B5C0803909F49E
S11323B05FC0803809F0BDC05BC0803B09F483C0B6
S11323C038F4803A09F466C0883A09F47CC0B1C094
S11323D0803C09F4A4C0883C09F4A1C0883B09F4FA
S11323E087C0A7C08091FC0310C09091D503809151
S11323F0D403981770F5E091D50381E08E0F809394
S1132400D503F0E0EA52FC4F80818093BB0085EC59
S113241083C0809390038BC0E091D50381E08E0F3D
S11324208093D5038091BB00F0E0EA52FC4F808397
S11324309091D5038091D4036BC0E091D50381E0E2
S11324408E0F8093D5038091BB00F0E0EA52FC4FDD
S113245080838091FB0381116AC081E08093FA0339
S113246084EA5EC083E08093FD0310929103CFCF92
S113247080919103803208F04EC0E091910381E095
S11324808E0F809391038091BB00F0E0EE56FC4FD9
S11324908083BDCF0E94771180919103803230F404
S11324A0E0919103F0E0EE56FC4F108260919103AD
S11324B070E0E091F603F091F70382E993E0099567
S11324C01092910336C084E08093FD031092B3030D
S11324D01092B203E091F803F091F9030995809109
S11324E0B203811105C081E08093B2031092B4035A
S11324F0E091B30381E08E0F8093B303F0E0EC54DA
S1132500FC4F80818093BB009091B3038091B20310
S1132510981708F47CCF85E88093BC000AC085EC4A
S11325208093BC001092FD0304C0109290030E949B
S11325306D11FF91EF91BF91AF919F918F917F9119
S11325406F915F914F913F912F910F900FBE0F901C
S11325501F901895A1E21A2EAA1BBB1BFD010DC0EA
S1132560AA1FBB1FEE1FFF1FA217B307E407F5073F
S113257020F0A21BB30BE40BF50B661F771F881F1B
S1132580991F1A9469F760957095809590959B01B1
S1132590AC01BD01CF010895EE0FFF1F0590F4912A
S11325A0E02D09940F931F93CF93DF93823091050D
S11325B010F482E090E0E0910004F091010420E046
S11325C030E0A0E0B0E0309719F140815181028100
S11325D0138148175907C8F08417950769F41097B1
S11325E031F012960C93129713961C9327C0009304
S11325F000041093010422C02115310519F042177B
S1132600530718F49A01BD01EF01DF01F801DBCF94
S113261021153105F9F0281B390B2430310580F4DC
S11326208A819B816115710521F0FB01938382836B
S113263004C09093010480930004FE01329644C0C8
S1132640FE01E20FF31F81939193225031093983E4
S113265028833AC02091FE033091FF03232B41F4D9
S113266020910201309103013093FF032093FE0374
S113267020910001309101012115310541F42DB75C
S11326803EB74091040150910501241B350BE091A4
S1132690FE03F091FF03E217F307A0F42E1B3F0B98
S11326A02817390778F0AC014E5F5F4F24173507C0
S11326B048F04E0F5F1F5093FF034093FE03819336
S11326C0919302C0E0E0F0E0CF01DF91CF911F9140
S11326D00F910895CF93DF93009709F481C0FC0113
S11326E0329713821282A0910004B09101041097D2
S11326F081F420813181820F931F2091FE03309158
S1132700FF032817390751F5F093FF03E093FE0305
S113271067C0ED0120E030E0CE17DF0740F44A81C6
S11327205B819E0141155105F1F0EA01F5CFD38398
S1132730C28340815181840F951FC817D90759F46A
S113274088819981840F951F0296918380838A8161
S11327509B81938382832115310529F4F09301042D
S1132760E09300043DC0E901FB83EA834991599158
S1132770C40FD51FEC17FD0761F480819181840F8C
S1132780951F0296E90199838883828193819B83B3
S11327908A83E0E0F0E012968D919C911397009764
S11327A019F0FD01DC01F7CF8D919C9111979D01EA
S11327B02E5F3F4F820F931F2091FE033091FF0342
S11327C02817390769F4309729F4109201041092FC
S11327D0000402C013821282B093FF03A093FE038D
S11327E0DF91CF910895A0E0B0E0E9EFF3E10C941C
S11327F08017EC01009721F4CB010E94D212B4C0DF
S1132800FC01E60FF71F9C0122503109E217F30780
S113281008F4A8C0D9010D911C9111970617170748
S1132820B0F00530110508F49BC0C8010497861761
S1132830970708F495C002501109061B170B019362
S113284011936D937C93CF010E946A1389C05B013D
S1132850A01AB10A4C01800E911EA0910004B091FF
S11328600104612C712CE12CF12C109709F446C061
S11328708D919C911197A815B905B1F56C0142E0B1
S1132880C40ED11CCA14DB0478F14C018A189B08CD
S1132890640142E0C40ED11C1296BC9012971396A8
S11328A0AC91B5E0CB16D10440F0B282A3839182FF
S11328B08082D9016D937C9309C00E5F1F4F800FF6
S11328C0911FF90191838083EB2DFA2FE114F10418
S11328D031F0D7011396FC93EE93129741C0F09315
S11328E00104E09300043CC06816790608F43C0136
S11328F07D0112960D90BC91A02DB7CF8091FE035F
S11329009091FF0388169906E1F466167706C8F4D9
S11329108091000190910101009741F48DB79EB719
S11329204091040150910501841B950BE817F907A8
S1132930C8F4F093FF03E093FE03F901718360830D
S11329400FC0CB010E94D2127C01009759F0A8015C
S1132950BE010E94B914CE010E946A13C70104C0CB
S1132960CE0102C080E090E0CDB7DEB7EEE00C947B
S11329709C17FB01DC0102C001900D9241505040B4
S1132980D8F70895FB01DC0101900D920020E1F7D6
S11329900895AEE0B0E0EFECF4E10C948A170D89F1
S11329A01E8986E08C831A8309838FEF9FE79E83B9
S11329B08D83AE01475E5F4F6F89788DCE0101969E
S11329C00E94EB14EF81F885E00FF11F10822E9620
S11329D0E4E00C94A617ABE0B0E0E1EFF4E10C9472
S11329E07C176C017B018A01FC01178216828381AA
S11329F081FFCCC1CE0101963C01F6019381F70120
S1132A0093FD859193FF81917F01882309F4BAC1D5
S1132A10853239F493FD859193FF81917F0185324D
S1132A2029F4B60190E00E94E216E7CF912C212C04
S1132A30312CFFE1F315D8F08B3279F038F4803281
S1132A4079F08332A1F4232D20611DC08D3261F011
S1132A50803369F4232D216016C0832D8260382EC3
S1132A60E32DE4603E2E2AC0F32DF8601DC037FC30
S1132A702DC020ED280F2A3040F08E32B9F436FCF8
S1132A8081C1232D2064322E19C036FE06C08AE08F
S1132A90989E200D1124922E11C0EAE02E9E200D46
S1132AA01124222EF32DF0623F2E08C08C3621F41F
S1132AB0832D8068382E02C0883641F4F70193FDD7
S1132AC0859193FF81917F018111B3CF982F9F7DD1
S1132AD09554933028F40C5F1F4F9FE399830DC0E6
S1132AE0833631F0833771F0833509F059C021C042
S1132AF0F801808189830E5F1F4F88248394912C71
S1132B00530113C02801F2E04F0E511CF801A080BC
S1132B10B18036FE03C0692D70E002C06FEF7FEF15
S1132B20C5010E94D7164C018201F32DFF773F2E79
S1132B3016C0280122E0420E511CF801A080B18089
S1132B4036FE03C0692D70E002C06FEF7FEFC50150
S1132B500E94CC164C01F32DF0683F2E820133FC09
S1132B601BC0822D90E088169906B0F4B60180E26D
S1132B7090E00E94E2162A94F4CFF50137FC859187
S1132B8037FE81915F01B60190E00E94E2162110A8
S1132B902A9421E0821A91088114910471F7E8C003
S1132BA0843611F0893641F5F80137FE07C060819B
S1132BB07181828193810C5F1F4F08C06081718194
S1132BC0072E000C880B990B0E5F1F4FF32DFF7619
S1132BD03F2E97FF09C090958095709561957F4F22
S1132BE08F4F9F4FF0683F2E2AE030E0A3010E94F0
S1132BF01E17882E861845C0853731F4232D2F7E65
S1132C00B22E2AE030E025C0932D997FB92E8F365D
S1132C10C1F018F4883579F0B5C0803719F08837D9
S1132C2021F0B0C0E92FE061BE2EB4FE0DC0FB2D33
S1132C30F460BF2E09C034FE0AC0292F2660B22ECC
S1132C4006C028E030E005C020E130E002C020E109
S1132C5032E0F801B7FE07C06081718182819381FF
S1132C600C5F1F4F06C06081718180E090E00E5FB1
S1132C701F4FA3010E941E17882E8618FB2DFF7775
S1132C803F2E36FE0DC0232D2E7FA22E891458F41C
S1132C9034FE0BC032FC09C0832D8E7EA82E05C0E5
S1132CA0B82CA32C03C0B82C01C0B92CA4FE0FC0AF
S1132CB0FE01E80DF11D8081803321F49A2D997E67
S1132CC0A92E09C0A2FE06C0B394B39404C08A2DF1
S1132CD0867809F0B394A3FC11C0A0FE06C0B21418
S1132CE088F4280C922C9B180EC0B21460F4B60120
S1132CF080E290E00E94E216B394F7CFB21418F485
S1132D002B1802C0982C212CA4FE10C0B60180E31D
S1132D1090E00E94E216A2FE17C0A1FC03C088E75F
S1132D2090E002C088E590E0B6010CC08A2D867858
S1132D3059F0A1FE02C08BE201C080E2A7FC8DE243
S1132D40B60190E00E94E216891438F4B60180E3DB
S1132D5090E00E94E2169A94F7CF8A94F301E80D6A
S1132D60F11D8081B60190E00E94E2168110F5CF3A
S1132D70222009F442CEB60180E290E00E94E216DD
S1132D802A94F6CFF6018681978102C08FEF9FEFD8
S1132D902B96E2E10C949817FC0105906150704069
S1132DA00110D8F7809590958E0F9F1F0895FC0110
S1132DB06150704001900110D8F7809590958E0F66
S1132DC09F1F08950F931F93CF93DF93FB012381DC
S1132DD021FD03C08FEF9FEF2CC022FF16C0468158
S1132DE05781248135814217530744F4A081B1816E
S1132DF09D012F5F3F4F318320838C932681378140
S1132E002F5F3F4F3783268314C08B01EC01FB01F6
S1132E100084F185E02D0995892BE1F6D8011696F9
S1132E208D919C911797019617969C938E93169764
S1132E30CE01DF91CF911F910F910895FA01AA2736
S1132E40283051F1203181F1E8946F936E7F6E5FE9
S1132E507F4F8F4F9F4FAF4FB1E03ED0B4E03CD097
S1132E60670F781F891F9A1FA11D680F791F8A1F7A
S1132E70911DA11D6A0F711D811D911DA11D20D0E1
S1132E8009F468943F912AE0269F11243019305D9B
S1132E903193DEF6CF010895462F4770405D41938C
S1132EA0B3E00FD0C9F7F6CF462F4F70405D4A33D9
S1132EB018F0495D31FD4052419302D0A9F7EACFA1
S1132EC0B4E0A6959795879577956795BA95C9F7D0
S1132ED000976105710508959B01AC010A2E0694C3
S1132EE05795479537952795BA95C9F7620F731F7C
S1132EF0841F951FA01D08952F923F924F925F92B9
S1132F006F927F928F929F92AF92BF92CF92DF92F5
S1132F10EF92FF920F931F93CF93DF93CDB7DEB75A
S1132F20CA1BDB0B0FB6F894DEBF0FBECDBF0994EE
S1132F302A88398848885F846E847D848C849B8445
S1132F40AA84B984C884DF80EE80FD800C811B8153
S1132F50AA81B981CE0FD11D0FB6F894DEBF0FBE82
S1132F60CDBFED01089510E0CFE5D0E004C0FE012F
S1132F700E94CC122196C036D107C9F7F894FFCF2E
S1132F80000002042000F006F006010000400014D6
S1132F9000540055703A4F70656E20446E436C6F58
S1132FA073654C66743A4461792052743A4E696789
S1132FB06874004D61696E204D656E750053656CD3
S1132FC03A457363617065004F70656E696E672082
S1132FD0446F6F7200436C6F73696E6720446F6F48
S1132FE07200446179204D6F6465202020202020E8
S1132FF02020546D703A2573204C68743A25730070
S11330004E69676874204D6F64652020202020205D
S1133010546D703A2573204C68743A257300496ED8
S1133020697420436F6D706C65746500696E206C03
S11330306F6F70004E45574D454E5500436C6F738E
S1133040696E6700436C6F736520436F6D706C65C8
S113305074650052656C61792070696E73207365C4
S11330607420746F206F7574707574004F70656E82
S1133070696E67004F70656E20436F6D706C657488
S11330806500456D657267656E637900456D6572AF
S113309067656E63792046696E69736865640000CC
S11330A000000014058D06D5046105A704C104B30E
S11330B0040D0A006E616E00696E66006F7666002C
S11330C000000000F90C8D06E805EB050000000087
S11130D0A00F730FE8053C0F110F190F2D0F01
S9030000FC
