:100000000C9464000C94DE040C9414050C948A0582
:100010000C948C000C944A050C948C000C948C006D
:100020000C948C000C948C000C948C000C948C0020
:100030000C948C000C948C000C948C000C948C0010
:100040000C9426060C948C000C948C000C948C0060
:100050000C948C000C948C000C948C000C948C00F0
:100060000C946D100C948C0000000008000201003C
:100070000003040700000000000000000102040863
:100080001020408001020408102001020408102002
:10009000040404040404040402020202020203032E
:1000A00003030303000000002300260029000000D2
:1000B0000000250028002B0000000000240027007D
:1000C0002A00C0056A0FD00511241FBECFEFD8E06B
:1000D000DEBFCDBF11E0A0E0B1E0ECE1FDE202C087
:1000E00005900D92A83BB107D9F722E0A8EBB1E04B
:1000F00001C01D92AA3BB207E1F710E0C3E6D0E0D1
:1001000004C02197FE010E949A11C136D107C9F798
:100110000E94D9050C9481160C940000EF92FF9276
:100120000F931F93CF93DF93EC017B018A010E9411
:10013000C40A40E060E0CE010E94CB0AB701CE01C4
:100140000E94180641E060E0CE010E94CB0AB8018F
:10015000CE010E94180640E060E0CE01DF91CF9111
:100160001F910F91FF90EF900C94CB0A0F931F9368
:10017000CF93DF93CDB7DEB72C970FB6F894DEBFE1
:100180000FBECDBF8C0163E471E0CE0107960E94E3
:100190005208F80182A593A5009719F0019741F044
:1001A0000EC0B801605D7F4FCE0107960E94A40883
:1001B000B8016A5C7F4FCE0107960E94A408F8013F
:1001C00046A557A584A595A54817590714F415A663
:1001D00014A6F80124A535A54217530741F42B8531
:1001E0003C8594E0440F551F9A95E1F70AC02F5FB4
:1001F0003F4F84E0220F331F8A95E1F7A901405158
:100200005109BE01695F7F4FCE0101960E94E70848
:10021000BE016F5F7F4FCE0107960E94C408CE01DA
:1002200001960E94E407F80142A560E0C8010E941F
:10023000CB0ABE01695F7F4FC8010E94180640E0EB
:1002400060E0C8010E94CB0AF80104A515A50F5F64
:100250001F4FCE0107960E94E407C8012C960FB6E7
:10026000F894DEBF0FBECDBFDF91CF911F910F91EC
:1002700008954F925F926F927F928F929F92AF926A
:10028000BF92CF92DF92EF92FF920F931F93CF9383
:10029000DF93CDB7DEB72C970FB6F894DEBF0FBE55
:1002A000CDBF4C013B012A01B22EC0960E94A4088A
:1002B000B201C401C6960E94A408F401F7A6E6A6FE
:1002C000D3A6C2A6F80180819181F401978F868F11
:1002D000F80182819381F40191A380A3F8018481C4
:1002E0009581F40193A382A3F80186819781F4019B
:1002F00095A384A3F80180859185F40197A386A333
:100300006B2DC4010E945A09F401A4AEA1101EC0B5
:1003100015A614A6B201CE0101960E94BB08B30136
:10032000CE0107960E94BB08AE014F5F5F4FBE0132
:10033000695F7F4FC4010E948E00CE0107960E9424
:10034000E407CE0101960E94E40706C0C4010E94A2
:10035000B600F40195A784A72C960FB6F894DEBFDB
:100360000FBECDBFDF91CF911F910F91FF90EF9006
:10037000DF90CF90BF90AF909F908F907F906F90C5
:100380005F904F9008958F929F92AF92CF92DF929D
:10039000EF92FF920F931F93CF93DF93CDB7DEB70A
:1003A000AC970FB6F894DEBF0FBECDBF4C01C801AD
:1003B000442321F0C4010E94B6009EC08E010F5F4D
:1003C0001F4F6230710559F1ECF46115710509F4A4
:1003D00059C06130710509F055C01A8219828FEF3A
:1003E0009FEF9C838B839E838D8398878F839A87CF
:1003F000898769E371E0CE0181960E94520864E426
:1004000071E021C06330710559F164307105D1F597
:100410009F938F933F932F938CE791E027C01A828D
:1004200019828FEF9FEF9C838B839E838D839887A8
:100430008F839A87898769E371E0CE0181960E9454
:10044000520861E571E0CE0187960E945208A12C06
:10045000CC24CA94DC2CE12CF12C23E030E03BC00E
:100460009F938F933F932F938EE591E09F938F936C
:100470001F930F930E9497130FB6F894DEBF0FBE21
:10048000CDBF3AC08FEF9FEF9A83898381E090E0E0
:100490009C838B8382E090E09E838D8383E090E059
:1004A00098878F8384E090E09A8789876FE071E076
:1004B000CE0181960E9452086FE271E0CE018796CC
:1004C0000E945208A12CCC24C394D12CEE24E39496
:1004D000F12C22E030E0AE014F5D5F4FBE01695D5F
:1004E0007F4FC4010E943901CE0187960E94E40724
:1004F000CE0181960E94E407AC960FB6F894DEBF59
:100500000FBECDBFDF91CF911F910F91FF90EF9064
:10051000DF90CF90AF909F908F9008950F931F938F
:10052000CF93DF93EC01FB01828193819B838A83CC
:100530008EE991E09983888384818C8385818D8382
:1005400086818E8388E03796DE01179601900D92A2
:100550008A95E1F785E0FB013F96DE011F96019049
:100560000D928A95E1F7FB0184898C8B85898D8BAF
:1005700086898E8B87898F8B808D888F818D898FDF
:10058000828D8A8F838D8B8F63E471E0CE01C0965C
:100590000E94520863E471E0CE01C6960E945208A0
:1005A00020E042E060E1CE010E94010BCE010E94FA
:1005B000C40A03E411E0980140E060E070E0CE017D
:1005C0000E94C301DF91CF911F910F910895CF92A7
:1005D000DF92EF92FF920F931F93CF93DF93EC0183
:1005E0006A017B010E94EF0B80FF06C06E8D7F8D3C
:1005F0006F3F2FEF720701F583FF06C068A179A155
:100600006F3F9FEF7907C1F482FF06C06AA17BA10B
:100610006F3F2FEF720781F484FF06C06CA17DA1AC
:100620006F3F9FEF790741F481FF0EC06EA17FA15C
:100630006F3F2FEF720741F003E411E0980140E0B3
:10064000CE010E94C30110C00E94700628EBC20EAA
:100650002BE0D21EE11CF11CC616D706E806F906EF
:1006600028F0CE010E94B60081E001C080E0DF9159
:10067000CF911F910F91FF90EF90DF90CF90089551
:10068000CF93DF93EC0160E089E00E948B0760E08C
:100690008AE00E948B0760E089E00E944F0760E0DB
:1006A0008AE00E944F07BE01DD0F880B990BDF9196
:1006B000CF910C94A106089562307105B1F044F415
:1006C0006115710581F061307105B1F483E012C0EC
:1006D0006430710571F05CF06530710569F4FC01FE
:1006E00082859385089582E005C084E003C08CE094
:1006F00001C08DE00C94BA070895FC0161157105E5
:1007000021F06130710521F0089515861486089551
:10071000848595850196958784870895FC01848555
:100720009585089588EE93E00E94400380E090E074
:100730000C944003CA0161110C94400361E08AE00B
:100740000E944F0761E089E00C944F076115710525
:1007500071F06130710599F06F3F7F4FC1F461E036
:1007600089E00E948B0760E08AE00E948B0760E0CE
:1007700089E00E948B0760E08AE00E948B0760E0BE
:1007800089E00E948B0761E08AE00C948B07089552
:100790000F931F93CF93DF93EC018B017B876A87C5
:1007A000672B29F480E090E00E94400305C040E000
:1007B00050E060E00E949A03B801CE01DF91CF9132
:1007C0001F910F910C94A603FC0162307105B1F0EA
:1007D0003CF46115710561F06130710561F00895B7
:1007E0006430710589F06CF06530710581F0089511
:1007F00053834283089555834483089551834083EE
:100800000895578346830895518740870895BA0114
:100810000C94C803CF92DF92EF92FF9261E070E0F8
:100820000E94C8030E9470066B017C018CE00E944C
:10083000BA07892B39F462E370E080E090E00E940F
:10084000A106F4CF0E947006DC01CB018C199D0932
:10085000AE09BF0988389341A105B10560F388EB63
:100860009BE0FF90EF90DF90CF900C9440030F93AC
:100870001F93CF93DF93CDB7DEB76C970FB6F89485
:10088000DEBF0FBECDBF80EC91E0FC012281338141
:100890003C832B832EE931E03A83298324812D8305
:1008A00025812E8326812F8328E0E7ECF1E0DE010D
:1008B000189601900D922A95E1F725E0EFECF1E012
:1008C000DE01509601900D922A95E1F7FC012489F2
:1008D0002D8B25892E8B26892F8B2789288F208D7C
:1008E000298F218D2A8F228D2B8F838D8C8F8DE3E5
:1008F00090E00E94E8058C01BE016F5F7F4F0E946F
:100900008E021093BF010093BE018FE090E00E9421
:10091000E8058C010E945B031093BD010093BC01AC
:1009200060E08AE00E944F0760E089E00E944F0784
:1009300062E082E00E944F0780E00E94230710924D
:10094000DC01E9E6F0E080818A60808383E08DBB92
:10095000E8E6F0E080818560808378940E947006EC
:100960006093B8017093B9018093BA019093BB0171
:100970006C960FB6F894DEBF0FBECDBFDF91CF915E
:100980001F910F9108954091B8015091B901609164
:10099000BA017091BB018091BE019091BF010E948C
:1009A000E702882351F00E9470066093B8017093AB
:1009B000B9018093BA019093BB0108951F920F92E1
:1009C0000FB60F9211242F933F934F935F936F9322
:1009D0007F938F939F93AF93BF93EF93FF9361E0C8
:1009E00070E08091BC019091BD010E947D038091D7
:1009F000BC019091BD010E940A048091BC019091BC
:100A0000BD010E948E03FF91EF91BF91AF919F9125
:100A10008F917F916F915F914F913F912F910F90A7
:100A20000FBE0F901F9018951F920F920FB60F9246
:100A300011242F933F934F935F936F937F938F93E3
:100A40009F93AF93BF93EF93FF9361E070E080912A
:100A5000BC019091BD010E947D038091BC019091E9
:100A6000BD010E9492038091BC019091BD010E9442
:100A70008E03FF91EF91BF91AF919F918F917F91E5
:100A80006F915F914F913F912F910F900FBE0F90FB
:100A90001F9018951F920F920FB60F9211242F934B
:100AA0003F934F935F936F937F938F939F93AF93F6
:100AB000BF93EF93FF9365E070E08091BC0190914C
:100AC000BD010E945C030196A1F461E070E0809199
:100AD000BC019091BD010E947D038091BC01909169
:100AE000BD010E940A048091BC019091BD010E9449
:100AF0008E03FF91EF91BF91AF919F918F917F9165
:100B00006F915F914F913F912F910F900FBE0F907A
:100B10001F9018951F920F920FB60F9211242F93CA
:100B20003F934F935F936F937F938F939F93AF9375
:100B3000BF93EF93FF9341E050E063E070E080915A
:100B4000BC019091BD010E94E40340E050E065E0EB
:100B500070E08091BC019091BD010E94E403FF917F
:100B6000EF91BF91AF919F918F917F916F915F9125
:100B70004F913F912F910F900FBE0F901F9018959E
:100B800063E471E083EE91E00E94520863E471E057
:100B90008DED91E00E94520880EC91E00C942C09BC
:100BA0008DED91E00E94E40783EE91E00C94E40760
:100BB00008950E94E8060E94D8050E943704C0E00C
:100BC000D0E00E94C3042097E1F30E940000F9CF17
:100BD0000C94A01180E090E008950895CF92DF92E8
:100BE000EF92FF920F931F93CF93DF936C017A01E3
:100BF0008B01C0E0D0E0CE15DF0581F0D8016D910A
:100C00008D01D601ED91FC910190F081E02DC6019E
:100C10000995892B11F02196EECF7E01C701DF9156
:100C2000CF911F910F91FF90EF90DF90CF9008959B
:100C3000DB0114964D915C9115976D917C91DC01CF
:100C4000ED91FC910280F381E02D09941F920F92A7
:100C50000FB60F9211242F933F938F939F93AF93CF
:100C6000BF938091EA019091EB01A091EC01B091CA
:100C7000ED013091E90123E0230F2D3720F4019697
:100C8000A11DB11D05C026E8230F0296A11DB11DAF
:100C90002093E9018093EA019093EB01A093EC018A
:100CA000B093ED018091EE019091EF01A091F001E0
:100CB000B091F1010196A11DB11D8093EE019093B9
:100CC000EF01A093F001B093F101BF91AF919F911B
:100CD0008F913F912F910F900FBE0F901F901895FD
:100CE0002FB7F8946091EA017091EB018091EC01CB
:100CF0009091ED012FBF08953FB7F8948091EE01D8
:100D00009091EF01A091F001B091F10126B5A89B5F
:100D100005C02F3F19F00196A11DB11D3FBFBA2F8D
:100D2000A92F982F8827820F911DA11DB11DBC01ED
:100D3000CD0142E0660F771F881F991F4A95D1F7B2
:100D400008958F929F92AF92BF92CF92DF92EF92CF
:100D5000FF926B017C010E947C064B015C01C11477
:100D6000D104E104F10401F10E946E0F0E947C069F
:100D7000DC01CB0188199909AA09BB09883E934077
:100D8000A105B10560F321E0C21AD108E108F1081C
:100D900088EE880E83E0981EA11CB11CC114D104FA
:100DA000E104F10419F7DBCFFF90EF90DF90CF90D3
:100DB000BF90AF909F908F9008958230910538F04A
:100DC000880F991F880F991F05970197F1F70895CC
:100DD000789484B5826084BD84B5816084BD85B516
:100DE000826085BD85B5816085BDEEE6F0E08081DD
:100DF00081608083E1E8F0E01082808182608083FE
:100E0000808181608083E0E8F0E080818160808380
:100E1000E1EBF0E0808184608083E0EBF0E08081B2
:100E200081608083EAE7F0E0808184608083808154
:100E300082608083808181608083808180688083FC
:100E40001092C1000895809306010895833081F0C7
:100E500028F4813099F08230A1F008958730A9F00C
:100E60008830B9F08430D1F4809180008F7D03C048
:100E7000809180008F7780938000089584B58F776C
:100E800002C084B58F7D84BD08958091B0008F77B6
:100E900003C08091B0008F7D8093B0000895CF9300
:100EA000DF9390E0FC01E458FF4F2491FC01E057F0
:100EB000FF4F8491882361F190E0880F991FFC0116
:100EC000E854FF4FC591D491FC01E255FF4FA59125
:100ED000B491611109C09FB7F8948881209582234D
:100EE0008883EC912E230BC0623061F49FB7F89495
:100EF0008881322F309583238883EC912E2B2C937D
:100F00009FBF06C08FB7F894E8812E2B28838FBF30
:100F1000DF91CF9108951F93CF93DF93282F30E077
:100F2000F901E859FF4F8491F901E458FF4FD4913A
:100F3000F901E057FF4FC491CC23C1F0162F811166
:100F40000E942607EC2FF0E0EE0FFF1FE255FF4F47
:100F5000A591B4919FB7F894111104C08C91D095CC
:100F6000D82302C0EC91DE2BDC939FBFDF91CF91A1
:100F70001F910895CF93DF93282F30E0F901E859AE
:100F8000FF4F8491F901E458FF4FD491F901E057E4
:100F9000FF4FC491CC2391F081110E942607EC2FC2
:100FA000F0E0EE0FFF1FEC55FF4FA591B491EC91CF
:100FB000ED2381E090E021F480E002C080E090E049
:100FC000DF91CF9108950895FC01808191810C9467
:100FD0003812CF93DF93EC0188819981009711F04B
:100FE0000E943812198218821D821C821B821A826A
:100FF000DF91CF9108950F931F93CF93DF93EC016F
:101000008B016F5F7F4F888199810E94C112009789
:1010100031F0998388831B830A8381E001C080E0DB
:10102000DF91CF911F910F910895CF93DF93EC0142
:1010300088819981892B29F08A819B81861797075E
:1010400060F4CE010E94FB07882341F08C819D81D2
:10105000892B19F4E881F981108281E0DF91CF9129
:101060000895EF92FF920F931F93CF93DF93EC01BC
:101070007B018A01BA010E941508811104C0CE01CA
:101080000E94E90707C01D830C83B70188819981FD
:101090000E949013CE01DF91CF911F910F91FF908D
:1010A000EF900895FC011182108213821282158242
:1010B00014826115710551F0FB0101900020E9F7E0
:1010C0003197AF01461B570B0C94310808950F93CD
:1010D0001F93CF93DF938C01EB01FC018081918101
:1010E0000097D1F0688179816115710599F023EE3F
:1010F00037E0232B79F0428153812C813D814217C7
:10110000530740F00E9490138C819D81F8019583D4
:10111000848313C00E94381288819981F8019183D9
:1011200080838A819B81938382838C819D81958337
:101130008483198218821B821A821D821C82DF918D
:10114000CF911F910F910895CF93DF93EC01FB0195
:101150008617970761F0608171816115710529F02B
:10116000448155810E94310802C00E94E907CE01E6
:10117000DF91CF910895FC011182108213821282B7
:10118000158214820C94A408CF93DF93EC01861788
:10119000970711F00E946708CE01DF91CF91089563
:1011A000CF93DF93EC016115710559F0FB010190BC
:1011B0000020E9F73197AF01461B570B0E94310819
:1011C00002C00E94E907CE01DF91CF910895BF923E
:1011D000CF92DF92EF92FF920F931F93CF93DF9303
:1011E0007C016B018A01E9012417350720F4812F66
:1011F0008901C42FD82F63E471E0C7010E9452080F
:10120000D60114968D919C91159708171907C8F46B
:101210008C179D0708F4EC01D601ED91FC91119714
:10122000EC0FFD1FB08010826D917C91600F711FDB
:10123000C7010E94D008D601ED91FC91EC0FFD1F73
:10124000B082C701DF91CF911F910F91FF90EF9076
:10125000DF90CF90BF900895FC01138212828EE937
:1012600091E091838083128E148A8FE084838EE0D4
:1012700085838DE086838CE087838BE080878AE09E
:10128000818789E08287178681E0808B82E0818B6D
:1012900083E0828B84E0838B0895FC01962F828DFE
:1012A0008F3F21F0CF014B960C94980D642F892F1E
:1012B0000C948B070F931F93CF93DF93D62F8C0142
:1012C000055E1F4FC1E062FB442740F94C2768E0F0
:1012D000C8010E94980DD1FB442740F94C2767E0D4
:1012E000C8010E94980D4D2F41704C2766E0C8013F
:1012F000DF91CF911F910F910C94980DFC01962FC7
:10130000828D8F3F21F0CF014B960C94710C642F8E
:10131000892F0C944F07CF93DF93EC0140E06E814F
:101320000E944D0981E090E00E94DD0641E06E815F
:10133000CE010E944D0981E090E00E94DD0640E070
:101340006E81CE010E944D0984E690E0DF91CF913D
:101350000C94DD06AF92BF92CF92DF92EF92FF9294
:101360000F931F93CF93DF938C01FC01828D980123
:10137000295F3F4F7901C62FD0E08F3F09F473C03A
:1013800068013BE1C30ED11CC6010E94D30CF701DA
:1013900040E050E0A1E0B0E0B190EE24E394F12C05
:1013A000BD010B2C02C0660F771F0A94E2F760950F
:1013B0007095862397239E01042E02C035952795AC
:1013C0000A94E2F72170332702C0220F331FBA9428
:1013D000E2F7822B932B4F5F5F4F44305105E1F6CC
:1013E000E701F801068002C0CC0FDD1F0A94E2F786
:1013F000C095D095C823D923BE01C6010E94560CC2
:1014000081E090E00E94DD06C701F801068002C07D
:10141000880F991F0A94E2F7C82BD92BBE01C60189
:101420000E94560C81E090E00E94DD06B701F801B1
:10143000068002C0660F771F0A94E2F760957095E8
:101440006C237D23C6010E94560C84E690E0DF9158
:10145000CF911F910F91FF90EF90DF90CF90BF90B1
:10146000AF900C94DD06C12CD12C570141E0F7015F
:1014700061917F01C8010E947E09AE010C2C02C05F
:10148000559547950A94E2F74170F5016081C801CE
:101490000E944D09FFEFCF1ADF0A24E0C216D104E3
:1014A00021F7C801DF91CF911F910F91FF90EF902D
:1014B000DF90CF90BF90AF900C948B09AF92BF920A
:1014C000CF92DF92EF92FF920F931F93CF93DF9310
:1014D000EC015C0187E0A80EB11C00E010E0E62EF4
:1014E000F12C650141E0F50161915F01CE010E949F
:1014F0007E09A701002E02C0559547950A94E2F790
:101500004170F6016081CE010E944D090F5F1F4FAF
:101510000830110531F7CE01DF91CF911F910F9166
:10152000FF90EF90DF90CF90BF90AF900C948B091D
:101530001F93CF93DF93EC01162F6C810E944D090E
:101540006D816F3F21F040E0CE010E944D098C89F2
:10155000612F84FF06C0CE01DF91CF911F910C94C3
:101560005E0A70E084E0759567958A95E1F7CE0193
:101570000E94AA09612FCE01DF91CF911F910C9497
:10158000AA0940E00C94980A61E00E94C10A80ED2B
:1015900097E00C94DD06CF93DF93CDB7DEB72897A5
:1015A0000FB6F894DEBF0FBECDBF9C0188E0E7E028
:1015B000F1E0DE01119601900D928A95E1F7F901B3
:1015C000808D841710F44FEF480FFE013196E40F21
:1015D000F11DE40FF11D9081690F6068C901289623
:1015E0000FB6F894DEBF0FBECDBFDF91CF910C9444
:1015F000C10AFC016589262F2460258B6C600C9440
:10160000C10A8F929F92AF92BF92CF92DF92EF92D8
:10161000FF920F931F93CF93DF93EC01D42EC22E32
:101620008A8D8F3F41F481E08D1508F05EC08C8972
:1016300088608C8B5AC082EF91E00E94CF0E8E01A1
:10164000055E1F4FC8010E94530C41E068E0C801CD
:101650000E94710C41E066E0C8010E94710C41E0FB
:1016600067E0C8010E94710C67E0CE010E945A0930
:101670006D81662321F041E0C8010E94710C41E0B8
:101680006C81C8010E94710C41E06E81C8010E940A
:10169000710C7E01E7E0EE0EF11C5E01FBE0AF0E87
:1016A000B11CF70161917F0141E0C8010E94710CFA
:1016B000EA14FB04B1F77E01FFE0EF0EF11C5E01BE
:1016C00084E1A80EB11C470140E0F70161917F0160
:1016D000C8010E94710C41E0F4016081C8010E94C0
:1016E000350DEA14FB0479F79ECFD88E198ECC20E5
:1016F00031F0F1E0DF1203C08C8984608C8B80E5CF
:1017000093EC0E94DD0640E06C81CE010E944D0901
:1017100040E06E81CE010E944D096D816F3F21F046
:1017200040E0CE010E944D096C8964FD1DC063E05C
:10173000CE010E94AA0984E991E10E94DD0663E0DE
:10174000CE010E94AA0984E991E10E94DD0663E0CE
:10175000CE010E94AA0986E990E00E94DD0662E0BF
:10176000CE010E94AA0916C06062CE010E94C10A81
:1017700084E991E10E94DD066C896062CE010E94DD
:10178000C10A86E990E00E94DD066C896062CE01A4
:101790000E94C10A6C896062CE010E94C10A84E085
:1017A0008D8BCE010E94F90ACE010E94C40A82E00C
:1017B0008E8B66E0CE01DF91CF911F910F91FF904C
:1017C000EF90DF90CF90BF90AF909F908F900C9450
:1017D000C10A41E00E94980A81E090E00895DF92FA
:1017E000EF92FF920F931F93CF93DF937C012FE033
:1017F000E20EF11CC0E0D0E02FE1D22E8C01055E9C
:101800001F4FF70161917F01C8010E94FC0C282F36
:1018100030E00C2E02C0220F331F0A94E2F720950D
:101820003095D2222196C530D10559F78D2DDF9103
:10183000CF911F910F91FF90EF90DF900895682F47
:1018400082EF91E00C94900ECF93DF93EC0168301F
:1018500008F067E0688382EF91E00E94CF0E688114
:10186000606270E082EF91E00E94EB0E80E00E94E7
:101870001F0C8FEF0E941F0C82EF91E00E94670FF8
:101880006881606270E082EF91E00E94EB0E81E07F
:101890000E941F0C8FEF0E941F0C82EF91E0DF91DE
:1018A000CF910C94670F60E00C94240CCF93DF93DE
:1018B000D62FC72FFC016081606270E082EF91E05B
:1018C0000E94EB0E82E10E941F0C8D2F0E941F0CC4
:1018D0008C2F0E941F0C82EF91E0DF91CF910C942E
:1018E000670FFF920F931F93CF93DF938C01C62F47
:1018F000D42F603108F051C0683020F0C850FF2468
:10190000F39401C0F12CF8016081606270E082EF15
:1019100091E00E94EB0E8F2D0E941F0C82EF91E050
:101920000E94670FF8016081606270E041E050E062
:1019300082EF91E00E94640F82EF91E00E94090E15
:1019400021E030E0D11109C0A90102C0440F551FA8
:10195000CA95E2F7EA01C82B09C0F90102C0EE0FEF
:10196000FF1FCA95E2F7EF01C095C823F801608117
:10197000606270E082EF91E00E94EB0E8F2D0E947A
:101980001F0C8C2F0E941F0C82EF91E0DF91CF91F2
:101990001F910F91FF900C94670FDF91CF911F91D2
:1019A0000F91FF900895CF93DF93EC0168816062FF
:1019B00070E082EF91E00E94EB0E82E10E941F0C2A
:1019C00082EF91E00E94670F6881606270E042E000
:1019D00050E082EF91E00E94640F82EF91E00E945C
:1019E000090EC82F82EF91E00E94090E982F8827D8
:1019F0008C2BDF91CF9108950F931F93CF93DF939B
:101A00008C01C62F603158F5683018F0C850D3E10A
:101A100001C0D2E1F8016081606270E082EF91E084
:101A20000E94EB0E8D2F0E941F0C82EF91E00E940E
:101A3000670FF8016081606270E041E050E082EF82
:101A400091E00E94640F82EF91E00E94090E9927B5
:101A500002C095958795CA95E2F7817001C080E034
:101A6000DF91CF911F910F910895FF920F931F93D4
:101A7000CF93DF938C01C62FD42F603108F052C072
:101A8000683020F0C8509DE0F92E02C08CE0F82E9E
:101A9000F8016081606270E082EF91E00E94EB0EDD
:101AA0008F2D0E941F0C82EF91E00E94670FF801BA
:101AB0006081606270E041E050E082EF91E00E945E
:101AC000640F82EF91E00E94090E21E030E0D130F6
:101AD00049F4A90102C0440F551FCA95E2F7EA0173
:101AE000C82B09C0F90102C0EE0FFF1FCA95E2F72B
:101AF000EF01C095C823F8016081606270E082EF59
:101B000091E00E94EB0E8F2D0E941F0C8C2F0E94E3
:101B10001F0C82EF91E0DF91CF911F910F91FF9009
:101B20000C94670FDF91CF911F910F91FF90089553
:101B3000EF92FF920F931F93CF93DF938C01C62FE9
:101B4000E42E603108F056C0683028F0C850D5E166
:101B500093E1F92E03C0D4E182E1F82EF80160810F
:101B6000606270E082EF91E00E94EB0E8D2F0E9488
:101B70001F0C82EF91E00E94670FF80160816062A4
:101B800070E041E050E082EF91E00E94640F82EF4C
:101B900091E00E94090EF1E021E030E0EF1209C06F
:101BA000A90102C0440F551FCA95E2F7EA01C82BEC
:101BB00009C0F90102C0EE0FFF1FCA95E2F7EF015D
:101BC000C095C823F8016081606270E082EF91E007
:101BD0000E94EB0E8F2D0E941F0C8C2F0E941F0C59
:101BE00082EF91E0DF91CF911F910F91FF90EF90E5
:101BF0000C94670FDF91CF911F910F91FF90EF90A1
:101C000008958091260290E020912702821B91097D
:101C100008959091270280912602981750F4E92F99
:101C2000F0E0E85DFD4F208130E09F5F9093270258
:101C300002C02FEF3FEFC9010895E0912702809184
:101C40002602E81730F4F0E0E85DFD4F808190E077
:101C500008958FEF9FEF08950895CF93DF93EC01E0
:101C6000E091FE01F091FF013097F1F09091270291
:101C7000809126029817C0F090E0292F30E02617B7
:101C8000370754F4DE01A20FB31F4C91D901A85DB0
:101C9000BD4F4C939F5FF1CF1092270260932602B5
:101CA000CB01DF91CF910994DF91CF910895E0911D
:101CB0000002F0910102309729F010920402109274
:101CC000030209940895CF92DF92EF92FF920F934F
:101CD0001F93CF93DF937C01CB018A0120910202F5
:101CE000222389F0EB016B01C40ED51ECC15DD0556
:101CF00069F06991D701ED91FC910190F081E02D9F
:101D0000C7010995F3CF642F0E942B10C801DF9102
:101D1000CF911F910F91FF90EF90DF90CF9008959A
:101D2000CF93DF931F92CDB7DEB769832091020274
:101D30002223D1F020910302203240F021E030E054
:101D4000FC013383228380E090E015C0809104027F
:101D5000E82FF0E0EB5FFD4F998190838F5F8093D8
:101D600004028093030205C061E0CE0101960E9447
:101D70002B1081E090E00F90DF91CF910895FC014E
:101D80001382128288EE93E0A0E0B0E08483958312
:101D9000A683B7838AEA91E09183808308951092A5
:101DA00027021092260210920402109203020E944F
:101DB0006F0F87E59EE00E9458108DE29EE00C9424
:101DC000531081E080930202609325021092040276
:101DD0001092030208950C94E10E0F93062F21E058
:101DE0004091030265E072E0809125020E94D50FC8
:101DF0001092040210920302109202020F910895B1
:101E00004F925F926F927F92AF92BF92CF92EF927A
:101E1000FF920F931F93CF93DF935C01F62ED42F85
:101E200028013901EE2021F10E94E10ECE2DC430AF
:101E300008F0C3E0C150C0F028E0C29FC0011124E7
:101E4000A301920104C056954795379527958A9529
:101E5000D2F7CA01B901D501ED91FC910190F08151
:101E6000E02DC5010995E6CF60E0C5010E94ED0EA9
:101E70004D2FD13208F040E22C2D68E272E08F2D18
:101E80000E948D0F1092270280932602DF91CF913E
:101E90001F910F91FF90EF90CF90BF90AF907F90E8
:101EA0006F905F904F900895CF92EF920F931F9392
:101EB000C22EE12C00E010E098010E94000F1F915B
:101EC0000F91EF90CF90089521E00C94540F61E0B2
:101ED0000C94ED0E82EF91E00C94BF0E08951092D9
:101EE000B50281E08093B3021092B20261E082E118
:101EF0000E948B0761E083E10E948B07E9EBF0E031
:101F000080818E7F808380818D7F808388E4809331
:101F1000B80085E48093BC000895413208F043C0C6
:101F20009091B5029111FCCF91E09093B50220936E
:101F3000B3022FEF2093480210928D02240F2093BA
:101F40008C029093B4029091B402880F892B8093F5
:101F5000B4028091B202813061F41092B202809199
:101F6000B4028093BB008091BC0083FDF8CF85EC68
:101F700001C085EE8093BC008091B5028130E1F311
:101F800080918D02841710F440918D02AEE8B2E08A
:101F9000962FFB018E2F891B841718F48D91819346
:101FA000F9CF842F089580E008950F93413208F00F
:101FB0004AC09091B5029111FCCF32E03093B50246
:101FC0000093B3023FEF3093480210928D0240938A
:101FD0008C02562FAEE8B2E0FB013E2F351B3417C2
:101FE00018F431913D93F9CF1092B4023091B402BC
:101FF000880F832B8093B4028091B202813061F408
:102000001092B2028091B4028093BB008091BC0018
:1020100083FDF8CF85EC01C085EE8093BC002223C0
:1020200021F08091B5028230D1F3809148028F3F38
:1020300079F080914802803241F0809148028033EB
:1020400031F094E005C091E003C092E001C093E05C
:10205000892F0F91089540916A02262F30E0240FB6
:10206000311D21323105DCF42091B5022430C9F450
:10207000FC0180E090E0861758F430916A022191CB
:10208000DC01A459BD4FA30FB11D2C930196F3CFD2
:1020900080916A02680F60936A0280E0089581E08F
:1020A000089582E008959093AF028093AE02089560
:1020B0009093B1028093B002089585ED8093BC00A7
:1020C0008091BC0084FDFCCF1092B502089585EC90
:1020D0008093BC001092B50208951F920F920FB624
:1020E0000F9211242F933F934F935F936F937F939E
:1020F0008F939F93AF93BF93EF93FF938091B9001A
:10210000887F803609F49EC078F5883209F45DC076
:1021100090F4803109F456C038F4882309F4F5C0EE
:10212000883009F44FC0F5C0883109F44EC08032C0
:1021300009F45FC0EEC0803409F46AC058F48033FB
:1021400009F457C0883309F0E4C0809348020E9424
:102150006710DFC0803509F44FC0883509F45DC0D1
:10216000883409F0D6C0D3C0883909F4C4C0A8F4B3
:10217000883709F467C038F4883609F463C08037BB
:1021800009F460C0C6C0883809F4B5C0803909F4C4
:102190005FC0803809F0BDC05BC0803B09F483C0DC
:1021A00038F4803A09F466C0883A09F47CC0B1C0BA
:1021B000803C09F4A4C0883C09F4A1C0883B09F420
:1021C00087C0A7C08091B40210C090918D02809109
:1021D0008C02981770F5E0918D0281E08E0F80934C
:1021E0008D02F0E0E257FD4F80818093BB0085ECCB
:1021F00083C0809348028BC0E0918D0281E08E0FF6
:1022000080938D028091BB00F0E0E257FD4F808308
:1022100090918D0280918C026BC0E0918D0281E0E3
:102220008E0F80938D028091BB00F0E0E257FD4F4E
:1022300080838091B30281116AC081E08093B202F1
:1022400084EA5EC083E08093B50210924902CFCF4A
:1022500080914902803208F04EC0E091490281E04D
:102260008E0F809349028091BB00F0E0E65BFD4F4A
:102270008083BDCF0E94671080914902803230F484
:10228000E0914902F0E0E65BFD4F10826091490267
:1022900070E0E091AE02F091AF028AE492E009951D
:1022A0001092490236C084E08093B50210926B020E
:1022B00010926A02E091B002F091B102099580910A
:1022C0006A02811105C081E080936A0210926C025B
:1022D000E0916B0281E08E0F80936B02F0E0E45995
:1022E000FD4F80818093BB0090916B0280916A02C8
:1022F000981708F47CCF85E88093BC000AC085EC71
:102300008093BC001092B50204C0109248020E9453
:102310005D10FF91EF91BF91AF919F918F917F9150
:102320006F915F914F913F912F910F900FBE0F9042
:102330001F901895EE0FFF1F0590F491E02D099462
:102340000F931F93CF93DF938230910510F482E0B7
:1023500090E0E091B802F091B90220E030E0A0E016
:10236000B0E0309719F14081518102811381481703
:102370005907C8F08417950769F4109731F0129641
:102380000C93129713961C9327C00093B8021093D6
:10239000B90222C02115310519F04217530718F46C
:1023A0009A01BD01EF01DF01F801DBCF21153105F5
:1023B000F9F0281B390B2430310580F48A819B8188
:1023C0006115710521F0FB019383828304C0909312
:1023D000B9028093B802FE01329644C0FE01E20FBA
:1023E000F31F8193919322503109398328833AC096
:1023F0002091B6023091B702232B41F420910201C3
:10240000309103013093B7022093B602209100016E
:10241000309101012115310541F42DB73EB74091AE
:10242000040150910501241B350BE091B602F09197
:10243000B702E217F307A0F42E1B3F0B281739074A
:1024400078F0AC014E5F5F4F2417350748F04E0F10
:102450005F1F5093B7024093B6028193919302C0DD
:10246000E0E0F0E0CF01DF91CF911F910F9108954F
:10247000CF93DF93009709F481C0FC013297138258
:102480001282A091B802B091B902109781F4208114
:102490003181820F931F2091B6023091B702281725
:1024A000390751F5F093B702E093B60267C0ED012A
:1024B00020E030E0CE17DF0740F44A815B819E01C7
:1024C00041155105F1F0EA01F5CFD383C283408174
:1024D0005181840F951FC817D90759F488819981B4
:1024E000840F951F0296918380838A819B819383B9
:1024F00082832115310529F4F093B902E093B802E3
:102500003DC0E901FB83EA8349915991C40FD51F6E
:10251000EC17FD0761F480819181840F951F02966D
:10252000E90199838883828193819B838A83E0E098
:10253000F0E012968D919C911397009719F0FD0190
:10254000DC01F7CF8D919C9111979D012E5F3F4F3C
:10255000820F931F2091B6023091B70228173907D6
:1025600069F4309729F41092B9021092B80202C0AF
:1025700013821282B093B702A093B602DF91CF917B
:102580000895A0E0B0E0E7ECF2E10C944E16EC0107
:10259000009721F4CB010E94A011B4C0FC01E60F0A
:1025A000F71F9C0122503109E217F30708F4A8C075
:1025B000D9010D911C91119706171707B0F005303E
:1025C000110508F49BC0C80104978617970708F403
:1025D00095C002501109061B170B019311936D93BF
:1025E0007C93CF010E94381289C05B01A01AB10A06
:1025F0004C01800E911EA091B802B091B902612CDD
:10260000712CE12CF12C109709F446C08D919C910E
:102610001197A815B905B1F56C0142E0C40ED11CA3
:10262000CA14DB0478F14C018A189B08640142E06B
:10263000C40ED11C1296BC9012971396AC91B5E0C3
:10264000CB16D10440F0B282A38391828082D9015B
:102650006D937C9309C00E5F1F4F800F911FF9018E
:1026600091838083EB2DFA2FE114F10431F0D7012F
:102670001396FC93EE93129741C0F093B902E09346
:10268000B8023CC06816790608F43C017D01129638
:102690000D90BC91A02DB7CF8091B6029091B7025A
:1026A00088169906E1F466167706C8F48091000151
:1026B00090910101009741F48DB79EB740910401BC
:1026C00050910501841B950BE817F907C8F4F093A6
:1026D000B702E093B602F901718360830FC0CB01AA
:1026E0000E94A0117C01009759F0A801BE010E9430
:1026F0008713CE010E943812C70104C0CE0102C068
:1027000080E090E0CDB7DEB7EEE00C946A16FB01F6
:10271000DC0102C001900D9241505040D8F708955D
:10272000FB01DC0101900D920020E1F70895AEE07D
:10273000B0E0EDE9F3E10C9458160D891E8986E0AE
:102740008C831A8309838FEF9FE79E838D83AE016D
:10275000475E5F4F6F89788DCE0101960E94B91355
:10276000EF81F885E00FF11F10822E96E4E00C94C3
:102770007416ABE0B0E0EFEBF3E10C944A166C0199
:102780007B018A01FC0117821682838181FFCCC103
:10279000CE0101963C01F6019381F70193FD8591ED
:1027A00093FF81917F01882309F4BAC1853239F4FE
:1027B00093FD859193FF81917F01853229F4B601C4
:1027C00090E00E94B015E7CF912C212C312CFFE135
:1027D000F315D8F08B3279F038F4803279F0833207
:1027E000A1F4232D20611DC08D3261F0803369F486
:1027F000232D216016C0832D8260382EE32DE460E6
:102800003E2E2AC0F32DF8601DC037FC2DC020EDF0
:10281000280F2A3040F08E32B9F436FC81C1232DC6
:102820002064322E19C036FE06C08AE0989E200D24
:102830001124922E11C0EAE02E9E200D1124222E8A
:10284000F32DF0623F2E08C08C3621F4832D806872
:10285000382E02C0883641F4F70193FD859193FF2D
:1028600081917F018111B3CF982F9F7D9554933033
:1028700028F40C5F1F4F9FE399830DC0833631F01E
:10288000833771F0833509F059C021C0F801808188
:1028900089830E5F1F4F88248394912C530113C0AA
:1028A0002801F2E04F0E511CF801A080B18036FEE5
:1028B00003C0692D70E002C06FEF7FEFC5010E9479
:1028C000A5154C018201F32DFF773F2E16C028017C
:1028D00022E0420E511CF801A080B18036FE03C0F8
:1028E000692D70E002C06FEF7FEFC5010E949A155D
:1028F0004C01F32DF0683F2E820133FC1BC0822D6A
:1029000090E088169906B0F4B60180E290E00E944B
:10291000B0152A94F4CFF50137FC859137FE8191EB
:102920005F01B60190E00E94B01521102A9421E0C9
:10293000821A91088114910471F7E8C0843611F06D
:10294000893641F5F80137FE07C0608171818281C7
:1029500093810C5F1F4F08C060817181072E000CAE
:10296000880B990B0E5F1F4FF32DFF763F2E97FFBD
:1029700009C090958095709561957F4F8F4F9F4FBF
:10298000F0683F2E2AE030E0A3010E94EC15882E6B
:10299000861845C0853731F4232D2F7EB22E2AE0CC
:1029A00030E025C0932D997FB92E8F36C1F018F4F1
:1029B000883579F0B5C0803719F0883721F0B0C07C
:1029C000E92FE061BE2EB4FE0DC0FB2DF460BF2EDA
:1029D00009C034FE0AC0292F2660B22E06C028E0A6
:1029E00030E005C020E130E002C020E132E0F80133
:1029F000B7FE07C060817181828193810C5F1F4F98
:102A000006C06081718180E090E00E5F1F4FA301DE
:102A10000E94EC15882E8618FB2DFF773F2E36FE80
:102A20000DC0232D2E7FA22E891458F434FE0BC026
:102A300032FC09C0832D8E7EA82E05C0B82CA32C95
:102A400003C0B82C01C0B92CA4FE0FC0FE01E80DD4
:102A5000F11D8081803321F49A2D997EA92E09C021
:102A6000A2FE06C0B394B39404C08A2D867809F000
:102A7000B394A3FC11C0A0FE06C0B21488F4280CC5
:102A8000922C9B180EC0B21460F4B60180E290E064
:102A90000E94B015B394F7CFB21418F42B1802C0EB
:102AA000982C212CA4FE10C0B60180E390E00E9477
:102AB000B015A2FE17C0A1FC03C088E790E002C0D9
:102AC00088E590E0B6010CC08A2D867859F0A1FE09
:102AD00002C08BE201C080E2A7FC8DE2B60190E06B
:102AE0000E94B015891438F4B60180E390E00E948A
:102AF000B0159A94F7CF8A94F301E80DF11D808107
:102B0000B60190E00E94B0158110F5CF222009F4A3
:102B100042CEB60180E290E00E94B0152A94F6CF32
:102B2000F6018681978102C08FEF9FEF2B96E2E13D
:102B30000C946616FC010590615070400110D8F7A6
:102B4000809590958E0F9F1F0895FC0161507040F5
:102B500001900110D8F7809590958E0F9F1F0895D2
:102B60000F931F93CF93DF93FB01238121FD03C0BC
:102B70008FEF9FEF2CC022FF16C046815781248122
:102B800035814217530744F4A081B1819D012F5F25
:102B90003F4F318320838C93268137812F5F3F4FB6
:102BA0003783268314C08B01EC01FB010084F1857F
:102BB000E02D0995892BE1F6D80116968D919C910F
:102BC0001797019617969C938E931697CE01DF91D7
:102BD000CF911F910F910895FA01AA27283051F142
:102BE000203181F1E8946F936E7F6E5F7F4F8F4F3E
:102BF0009F4FAF4FB1E03ED0B4E03CD0670F781F9D
:102C0000891F9A1FA11D680F791F8A1F911DA11D81
:102C10006A0F711D811D911DA11D20D009F46894BA
:102C20003F912AE0269F11243019305D3193DEF662
:102C3000CF010895462F4770405D4193B3E00FD018
:102C4000C9F7F6CF462F4F70405D4A3318F0495D03
:102C500031FD4052419302D0A9F7EACFB4E0A695E6
:102C60009795879577956795BA95C9F70097610508
:102C7000710508959B01AC010A2E0694579547955E
:102C800037952795BA95C9F7620F731F841F951F53
:102C9000A01D08952F923F924F925F926F927F9264
:102CA0008F929F92AF92BF92CF92DF92EF92FF925C
:102CB0000F931F93CF93DF93CDB7DEB7CA1BDB0B08
:102CC0000FB6F894DEBF0FBECDBF09942A883988AD
:102CD00048885F846E847D848C849B84AA84B984B4
:102CE000C884DF80EE80FD800C811B81AA81B981C0
:102CF000CE0FD11D0FB6F894DEBF0FBECDBFED01D4
:102D0000089510E0C3E6D0E004C0FE010E949A11CD
:0C2D10002196C436D107C9F7F894FFCF14
:102D1C000000BA02200001000040001400540055CD
:102D2C00703A4F70656E20446E436C6F73654C66E1
:102D3C00743A4461792052743A4E69676874004D54
:102D4C0061696E204D656E750053656C3A45736311
:102D5C00617065004F70656E696E6720446F6F72AD
:102D6C0000436C6F73696E6720446F6F720044612F
:102D7C0079204D6F64652020202020202020546D68
:102D8C00703A2573204C68743A2573004E69676855
:102D9C0074204D6F6465202020202020546D703AE3
:102DAC002573204C68743A25730000000000E90B71
:102DBC00EE05EA05ED0500000000900E630EEA0535
:082DCC002C0E010E090E1D0E74
:00000001FF
