S013000064656D6F5F616E616C6F672E737265639B
S11300000C9460000C9488000C9488000C94880074
S11300100C9488000C9488000C9488000C9488003C
S11300200C9488000C9488000C9488000C9488002C
S11300300C9488000C9488000C9488000C9488001C
S11300400C9461060C9488000C945D050C948F0547
S11300500C9488000C9488000C9488000C948800FC
S11300600C947F100C94880000000008000201002A
S1130070000304070000000000000000010204085F
S113008010204080010204081020010204081020FE
S1130090040404040404040402020202020203032A
S11300A00303030300000000250028002B000000C8
S11300B00000240027002A000004BF057C0F100460
S11300C011241FBECFEFD8E0DEBFCDBF11E0A0E00A
S11300D0B1E0E4E8FDE202C005900D92A83FB1074B
S11300E0D9F723E0A8EFB1E001C01D92AB39B20704
S11300F0E1F710E0CFE5D0E004C02197FE010E94B3
S1130100CE11CC35D107C9F70E94ED050C94B51674
S11301100C940000EF92FF920F931F93CF93DF9301
S1130120EC017B018A010E94D60A40E060E0CE0126
S11301300E94DD0AB701CE010E943D0641E060E065
S1130140CE010E94DD0AB801CE010E943D0640E0C6
S113015060E0CE01DF91CF911F910F91FF90EF905E
S11301600C94DD0A0F931F93CF93DF93CDB7DEB7C3
S11301702C970FB6F894DEBF0FBECDBF8C016CEC8C
S113018071E0CE0107960E946408F80182A593A548
S1130190009719F0019741F00EC0B801605D7F4FE0
S11301A0CE0107960E94B608B8016A5C7F4FCE0163
S11301B007960E94B608F80146A557A584A595A5FB
S11301C04817590714F415A614A6F80124A535A553
S11301D04217530741F42B853C8594E0440F551F87
S11301E09A95E1F70AC02F5F3F4F84E0220F331F37
S11301F08A95E1F7A90140515109BE01695F7F4F1A
S1130200CE0101960E94F908BE016F5F7F4FCE01B7
S113021007960E94D608CE0101960E94F607F801BF
S113022042A560E0C8010E94DD0ABE01695F7F4FFC
S1130230C8010E943D0640E060E0C8010E94DD0A5A
S1130240F80104A515A50F5F1F4FCE0107960E9464
S1130250F607C8012C960FB6F894DEBF0FBECDBFCB
S1130260DF91CF911F910F9108954F925F926F92FA
S11302707F928F929F92AF92BF92CF92DF92EF9232
S1130280FF920F931F93CF93DF93CDB7DEB72C97D5
S11302900FB6F894DEBF0FBECDBF4C013B012A015F
S11302A0B22EC0960E94B608B201C401C6960E943E
S11302B0B608F401F7A6E6A6D3A6C2A6F801808183
S11302C09181F401978F868FF80182819381F401E3
S11302D091A380A3F80184819581F40193A382A35F
S11302E0F80186819781F40195A384A3F8018085A0
S11302F09185F40197A386A36B2DC4010E946C0918
S1130300F401A4AEA1101EC015A614A6B201CE011C
S113031001960E94CD08B301CE0107960E94CD0834
S1130320AE014F5F5F4FBE01695F7F4FC4010E9402
S11303308A00CE0107960E94F607CE0101960E941C
S1130340F60706C0C4010E94B200F40195A784A771
S11303502C960FB6F894DEBF0FBECDBFDF91CF91C0
S11303601F910F91FF90EF90DF90CF90BF90AF90CF
S11303709F908F907F906F905F904F9008958F9291
S11303809F92AF92CF92DF92EF92FF920F931F93BF
S1130390CF93DF93CDB7DEB7AC970FB6F894DEBF3B
S11303A00FBECDBF4C01C801442321F0C4010E94FB
S11303B0B2009EC08E010F5F1F4F6230710559F16C
S11303C0ECF46115710509F459C06130710509F047
S11303D055C01A8219828FEF9FEF9C838B839E8373
S11303E08D8398878F839A87898769E371E0CE012B
S11303F081960E94640864E471E021C06330710551
S113040059F164307105D1F59F938F933F932F93E6
S11304108CE791E027C01A8219828FEF9FEF9C83AB
S11304208B839E838D8398878F839A87898769E3DB
S113043071E0CE0181960E94640861E571E0CE010D
S113044087960E946408A12CCC24CA94DC2CE12C4D
S1130450F12C23E030E03BC09F938F933F932F9385
S11304608EE591E09F938F931F930F930E94CB137C
S11304700FB6F894DEBF0FBECDBF3AC08FEF9FEF2B
S11304809A83898381E090E09C838B8382E090E06F
S11304909E838D8383E090E098878F8384E090E04F
S11304A09A8789876FE071E0CE0181960E94640883
S11304B06FE271E0CE0187960E946408A12CCC24DF
S11304C0C394D12CEE24E394F12C22E030E0AE016D
S11304D04F5D5F4FBE01695D7F4FC4010E943501CE
S11304E0CE0187960E94F607CE0181960E94F607F8
S11304F0AC960FB6F894DEBF0FBECDBFDF91CF919F
S11305001F910F91FF90EF90DF90CF90AF909F904D
S11305108F9008950F931F93CF93DF93EC01FB010A
S1130520828193819B838A838DED91E09983888373
S113053084818C8385818D8386818E8388E0379640
S1130540DE01179601900D928A95E1F785E0FB0193
S11305503F96DE011F9601900D928A95E1F7FB010B
S113056084898C8B85898D8B86898E8B87898F8BEB
S1130570808D888F818D898F828D8A8F838D8B8FDB
S11305806CEC71E0CE01C0960E9464086CEC71E0E2
S1130590CE01C6960E94640820E042E060E1CE01EC
S11305A00E94130BCE010E94D60A0CEC11E09801B4
S11305B040E060E070E0CE010E94BF01DF91CF9186
S11305C01F910F9108950F931F93CF93DF93EC0125
S11305D00E94010C80FF06C06E8D7F8D6F3F9FEFE0
S11305E0790701F583FF06C068A179A16F3F9FEFEA
S11305F07907C1F482FF06C06AA17BA16F3F9FEF18
S1130600790781F484FF06C06CA17DA16F3F9FEF41
S1130610790741F481FF12C06EA17FA16F3F8FEF74
S1130620780761F00CEC11E0980140E0CE010E94E3
S1130630BF01DF91CF911F910F910895CE01DF91FA
S1130640CF911F910F910C94B20008950F931F93B3
S1130650CF93DF93CDB7DEB76C970FB6F894DEBFB8
S11306600FBECDBF26E040E855E260E070E08DE2C9
S113067092E00E94F4048CEF91E0FC01228133812A
S11306803C832B832DED31E03A83298324812D8310
S113069025812E8326812F8328E0E3E0F2E0DE012A
S11306A0189601900D922A95E1F725E0EBE0F2E02F
S11306B0DE01509601900D922A95E1F7FC01248900
S11306C02D8B25892E8B26892F8B2789288F208D8A
S11306D0298F218D2A8F228D2B8F838D8C8F8DE3F3
S11306E090E00E94FC058C01BE016F5F7F4F0E9469
S11306F08A021093FB010093FA018FE090E00E94BC
S1130700FC058C010E9425031093F9010093F80164
S113071060E08AE00E948A0760E089E00E948A071C
S113072062E082E00E948A0780E00E945E071092E5
S11307301802ECEBF0E080818160808378946AE9B0
S113074071E08DE292E00E944F066C960FB6F89429
S1130750DEBF0FBECDBFDF91CF911F910F910895E2
S11307600F931F9368EB7BE080E090E00E94DC062F
S113077068EA71E08DE292E00E944F0620912B021C
S113078030912C028091290290912A02281739076E
S113079039F060EB71E08DE292E00E944F0615C0E3
S11307A00E94AB0600912502109126022091270297
S11307B030912802DC01CB01801B910BA20BB30BFF
S11307C0893B9B40A105B105C0F08091FA0190914D
S11307D0FB010E94E3028091290290912A029093E6
S11307E02C0280932B020E94AB0660932502709327
S11307F0260280932702909328021F910F91089557
S11308006CEC71E08FE192E00E9464086CEC71E0A2
S113081089E192E00E9464088CEF91E00C943E0917
S113082089E192E00E94F6078FE192E00C94F607CA
S1130830FC01918D228D892F90E0805C9F4F821B5B
S113084091098F7399270895FC01918D828D9817D2
S113085031F0828DE80FF11D858D90E008958FEFC2
S11308609FEF0895FC01918D828D981761F0828D20
S1130870DF01A80FB11D5D968C91928D9F5F9F73D0
S1130880928F90E008958FEF9FEF0895FC01538DB0
S1130890448D252F30E0842F90E0821B930B541756
S11308A010F0CF9608950197089585EB95E0892B74
S11308B049F080E090E0892B29F00E94B505811170
S11308C00C9400000895FC01848DDF01A80FB11D74
S11308D0A35ABF4F2C91848D90E001968F73992772
S11308E0848FA689B7892C93A089B1898C91837050
S11308F080648C93938D848D981306C00288F38949
S1130900E02D80818F7D80830895EF92FF920F9375
S11309101F93CF93DF93EC0181E0888F9B8D8C8DA7
S1130920981305C0E889F989808185FD26C0F62ED3
S11309300B8D10E00F5F1F4F0F731127E02E8C8D6E
S1130940E8120CC00FB607FCFACFE889F989808158
S113095085FFF5CFCE010E946304F1CF8B8DFE019C
S1130960E80FF11DE35AFF4FF0829FB7F8940B8F05
S1130970EA89FB89808180620AC09FB7F894EE8976
S1130980FF896083E889F98980818370806480832A
S11309909FBF81E090E0DF91CF911F910F91FF9075
S11309A0EF900895CF93DF93EC01888D8823C9F0ED
S11309B0EA89FB89808185FD05C0A889B9898C9164
S11309C086FD0FC00FB607FCF5CF808185FFF2CFFF
S11309D0A889B9898C9185FFEDCFCE010E9463046B
S11309E0E7CFDF91CF910895CF92DF92EF92FF92FC
S11309F01F93CF93DF93EC016A017B01122FE889E7
S1130A00F98982E080834115514E61057105B1F089
S1130A1060E079E08DE390E0A70196010E94AC11BB
S1130A20DA01C9010197A109B109B695A79597956E
S1130A3087959C01211580E13807A8F0E889F98998
S1130A40108260E874E88EE190E0A70196010E94AC
S1130A50AC11DA01C9010197A109B109B695A795AD
S1130A60979587959C01EC85FD853083EE85FF8500
S1130A702083188EEC89FD891083EA89FB898081A3
S1130A8080618083EA89FB89808188608083EA8928
S1130A90FB89808180688083EA89FB8980818F7DDE
S1130AA08083DF91CF911F91FF90EF90DF90CF90E3
S1130AB0089580E090E0089508951F920F920FB674
S1130AC00F9211242F938F939F93EF93FF93E091B1
S1130AD03D02F0913E028081E0914302F091440294
S1130AE082FD12C09081809146028F5F8F732091A6
S1130AF04702821751F0E0914602F0E0E35DFD4FBA
S1130B00958F8093460201C08081FF91EF919F9160
S1130B108F912F910F900FBE0F901F9018951F92D9
S1130B200F920FB60F9211242F933F934F935F931D
S1130B306F937F938F939F93AF93BF93EF93FF93A1
S1130B408DE292E00E946304FF91EF91BF91AF9117
S1130B509F918F917F916F915F914F913F912F91D1
S1130B600F900FBE0F901F9018958DE292E00E9497
S1130B70180421E0892B09F420E0822F0895EDE286
S1130B80F2E01382128288EE93E0A0E0B0E0848366
S1130B909583A683B7838CEB91E09183808385EC66
S1130BA090E09587848784EC90E09787868780EC33
S1130BB090E0918B808B81EC90E0938B828B82EC24
S1130BC090E0958B848B86EC90E0978B868B118ECE
S1130BD0128E138E148E089508950E9423070E9486
S1130BE0EC050E942603C5E5D4E00E94B0032097DB
S1130BF0E1F30E945504F9CF0C94D411CF92DF9203
S1130C00EF92FF920F931F93CF93DF936C017A01BE
S1130C108B01C0E0D0E0CE15DF0581F0D8016D91E5
S1130C208D01D601ED91FC910190F081E02DC6017A
S1130C300995892B11F02196EECF7E01C701DF9132
S1130C40CF911F910F91FF90EF90DF90CF90089577
S1130C506115710579F0FB0101900020E9F73197E6
S1130C60AF01461B570BDC01ED91FC910280F3812F
S1130C70E02D099480E090E00895DB0114964D91F5
S1130C805C9115976D917C91DC01ED91FC91028052
S1130C90F381E02D09946AEC71E00C9428060F931B
S1130CA01F93CF93DF93EC010E9428068C01CE01A1
S1130CB00E944B06800F911FDF91CF911F910F91DE
S1130CC008951F920F920FB60F9211242F933F9302
S1130CD08F939F93AF93BF938091CB029091CC025B
S1130CE0A091CD02B091CE023091CA0223E0230F2D
S1130CF02D3720F40196A11DB11D05C026E8230F50
S1130D000296A11DB11D2093CA028093CB02909339
S1130D10CC02A093CD02B093CE028091CF029091E9
S1130D20D002A091D102B091D2020196A11DB11DB1
S1130D308093CF029093D002A093D102B093D202B9
S1130D40BF91AF919F918F913F912F910F900FBEC3
S1130D500F901F9018952FB7F8946091CB02709163
S1130D60CC028091CD029091CE022FBF08953FB75F
S1130D70F8948091CF029091D002A091D102B091C9
S1130D80D20226B5A89B05C02F3F19F00196A11DDC
S1130D90B11D3FBFBA2FA92F982F8827820F911D0D
S1130DA0A11DB11DBC01CD0142E0660F771F881F54
S1130DB0991F4A95D1F708958F929F92AF92BF924F
S1130DC0CF92DF92EF92FF926B017C010E94B706F3
S1130DD04B015C01C114D104E104F10401F10E944E
S1130DE0800F0E94B706DC01CB0188199909AA0972
S1130DF0BB09883E9340A105B10560F321E0C21A06
S1130E00D108E108F10888EE880E83E0981EA11C41
S1130E10B11CC114D104E104F10419F7DBCFFF9034
S1130E20EF90DF90CF90BF90AF909F908F900895F8
S1130E308230910538F0880F991F880F991F059704
S1130E400197F1F70895789484B5826084BD84B5E0
S1130E50816084BD85B5826085BD85B5816085BDB1
S1130E60EEE6F0E0808181608083E1E8F0E01082CA
S1130E70808182608083808181608083E0E8F0E00B
S1130E80808181608083E1EBF0E0808184608083F5
S1130E90E0EBF0E0808181608083EAE7F0E080812C
S1130EA0846080838081826080838081816080838C
S1130EB08081806880831092C10008958093060128
S1130EC00895833081F028F4813099F08230A1F0C4
S1130ED008958730A9F08830B9F08430D1F4809136
S1130EE080008F7D03C0809180008F778093800085
S1130EF0089584B58F7702C084B58F7D84BD08952D
S1130F008091B0008F7703C08091B0008F7D809373
S1130F10B0000895CF93DF9390E0FC01E458FF4FB5
S1130F202491FC01E057FF4F8491882361F190E004
S1130F30880F991FFC01E255FF4FC591D491FC0124
S1130F40EC55FF4FA591B491611109C09FB7F89476
S1130F508881209582238883EC912E230BC06230F4
S1130F6061F49FB7F8948881322F30958323888366
S1130F70EC912E2B2C939FBF06C08FB7F894E88179
S1130F802E2B28838FBFDF91CF9108951F93CF938A
S1130F90DF93282F30E0F901E859FF4F8491F901DC
S1130FA0E458FF4FD491F901E057FF4FC491CC238B
S1130FB0C1F0162F81110E946107EC2FF0E0EE0FB3
S1130FC0FF1FEC55FF4FA591B4919FB7F8941111F1
S1130FD004C08C91D095D82302C0EC91DE2BDC9315
S1130FE09FBFDF91CF911F9108950895FC018081E7
S1130FF091810C946C12CF93DF93EC0188819981D9
S1131000009711F00E946C12198218821D821C82B2
S11310101B821A82DF91CF9108950F931F93CF9370
S1131020DF93EC018B016F5F7F4F888199810E9470
S1131030F512009731F0998388831B830A8381E03A
S113104001C080E0DF91CF911F910F910895CF935C
S1131050DF93EC0188819981892B29F08A819B8116
S11310608617970760F4CE010E940D08882341F08B
S11310708C819D81892B19F4E881F981108281E0AA
S1131080DF91CF910895EF92FF920F931F93CF9327
S1131090DF93EC017B018A01BA010E9427088111C8
S11310A004C0CE010E94FB0707C01D830C83B70157
S11310B0888199810E94C413CE01DF91CF911F9141
S11310C00F91FF90EF900895FC011182108213821A
S11310D01282158214826115710551F0FB01019091
S11310E00020E9F73197AF01461B570B0C944308D6
S11310F008950F931F93CF93DF938C01EB01FC01B1
S1131100808191810097D1F06881798161157105A1
S113111099F025EF37E0232B79F0428153812C811C
S11311203D814217530740F00E94C4138C819D8176
S1131130F8019583848313C00E946C12888199817D
S1131140F801918380838A819B81938382838C813C
S11311509D8195838483198218821B821A821D8241
S11311601C82DF91CF911F910F910895CF93DF934C
S1131170EC01FB018617970761F0608171816115AD
S1131180710529F0448155810E94430802C00E94E0
S1131190FB07CE01DF91CF910895FC0111821082EB
S11311A013821282158214820C94B608CF93DF93B3
S11311B0EC018617970711F00E947908CE01DF91A0
S11311C0CF910895CF93DF93EC016115710559F028
S11311D0FB0101900020E9F73197AF01461B570B43
S11311E00E94430802C00E94FB07CE01DF91CF9109
S11311F00895BF92CF92DF92EF92FF920F931F93C5
S1131200CF93DF937C016B018A01E9012417350731
S113121020F4812F8901C42FD82F6CEC71E0C70111
S11312200E946408D60114968D919C911597081715
S11312301907C8F48C179D0708F4EC01D601ED9149
S1131240FC911197EC0FFD1FB08010826D917C9181
S1131250600F711FC7010E94E208D601ED91FC9155
S1131260EC0FFD1FB082C701DF91CF911F910F9149
S1131270FF90EF90DF90CF90BF900895FC01138210
S113128012828DED91E091838083128E148A8FE017
S113129084838EE085838DE086838CE087838BE076
S11312A080878AE0818789E08287178681E0808B46
S11312B082E0818B83E0828B84E0838B0895FC0140
S11312C0962F828D8F3F21F0CF014B960C94AA0D5F
S11312D0642F892F0C94C6070F931F93CF93DF932A
S11312E0D62F8C01055E1F4FC1E062FB442740F9F5
S11312F04C2768E0C8010E94AA0DD1FB442740F99D
S11313004C2767E0C8010E94AA0D4D2F41704C275D
S113131066E0C801DF91CF911F910F910C94AA0D43
S1131320FC01962F828D8F3F21F0CF014B960C94B8
S1131330830C642F892F0C948A07CF93DF93EC01DD
S113134040E06E810E945F0981E090E00E941807EE
S113135041E06E81CE010E945F0981E090E00E942D
S1131360180740E06E81CE010E945F0984E690E098
S1131370DF91CF910C941807AF92BF92CF92DF9276
S1131380EF92FF920F931F93CF93DF938C01FC0195
S1131390828D9801295F3F4F7901C62FD0E08F3F9E
S11313A009F473C068013BE1C30ED11CC6010E945D
S11313B0E50CF70140E050E0A1E0B0E0B190EE248C
S11313C0E394F12CBD010B2C02C0660F771F0A9425
S11313D0E2F760957095862397239E01042E02C040
S11313E0359527950A94E2F72170332702C0220F1E
S11313F0331FBA94E2F7822B932B4F5F5F4F443035
S11314005105E1F6E701F801068002C0CC0FDD1FAB
S11314100A94E2F7C095D095C823D923BE01C6012A
S11314200E94680C81E090E00E941807C701F8014F
S1131430068002C0880F991F0A94E2F7C82BD92BA3
S1131440BE01C6010E94680C81E090E00E9418076A
S1131450B701F801068002C0660F771F0A94E2F70D
S1131460609570956C237D23C6010E94680C84E608
S113147090E0DF91CF911F910F91FF90EF90DF905B
S1131480CF90BF90AF900C941807C12CD12C57016A
S113149041E0F70161917F01C8010E949009AE010A
S11314A00C2C02C0559547950A94E2F74170F5015A
S11314B06081C8010E945F09FFEFCF1ADF0A24E0B0
S11314C0C216D10421F7C801DF91CF911F910F916A
S11314D0FF90EF90DF90CF90BF90AF900C949D0958
S11314E0AF92BF92CF92DF92EF92FF920F931F932E
S11314F0CF93DF93EC015C0187E0A80EB11C00E000
S113150010E0E62EF12C650141E0F50161915F01E7
S1131510CE010E949009A701002E02C0559547955F
S11315200A94E2F74170F6016081CE010E945F09DE
S11315300F5F1F4F0830110531F7CE01DF91CF91B6
S11315401F910F91FF90EF90DF90CF90BF90AF90DD
S11315500C949D091F93CF93DF93EC01162F6C819C
S11315600E945F096D816F3F21F040E0CE010E942F
S11315705F098C89612F84FF06C0CE01DF91CF9172
S11315801F910C94700A70E084E0759567958A95B4
S1131590E1F7CE010E94BC09612FCE01DF91CF910A
S11315A01F910C94BC0940E00C94AA0A61E00E94CB
S11315B0D30A80ED97E00C941807CF93DF93CDB74F
S11315C0DEB728970FB6F894DEBF0FBECDBF9C01DF
S11315D088E0E7E0F1E0DE01119601900D928A9532
S11315E0E1F7F901808D841710F44FEF480FFE01E5
S11315F03196E40FF11DE40FF11D9081690F6068CD
S1131600C90128960FB6F894DEBF0FBECDBFDF9197
S1131610CF910C94D30AFC016589262F2460258B75
S11316206C600C94D30A8F929F92AF92BF92CF9228
S1131630DF92EF92FF920F931F93CF93DF93EC010E
S1131640D42EC22E8A8D8F3F41F481E08D1508F08F
S11316505EC08C8988608C8B5AC083ED92E00E94B6
S1131660E10E8E01055E1F4FC8010E94650C41E02A
S113167068E0C8010E94830C41E066E0C8010E9452
S1131680830C41E067E0C8010E94830C67E0CE014F
S11316900E946C096D81662321F041E0C8010E941B
S11316A0830C41E06C81C8010E94830C41E06E818F
S11316B0C8010E94830C7E01E7E0EE0EF11C5E017E
S11316C0FBE0AF0EB11CF70161917F0141E0C8015D
S11316D00E94830CEA14FB04B1F77E01FFE0EF0ED5
S11316E0F11C5E0184E1A80EB11C470140E0F70142
S11316F061917F01C8010E94830C41E0F401608183
S1131700C8010E94470DEA14FB0479F79ECFD88ED6
S1131710198ECC2031F0F1E0DF1203C08C89846093
S11317208C8B80E593EC0E94180740E06C81CE011D
S11317300E945F0940E06E81CE010E945F096D81C5
S11317406F3F21F040E0CE010E945F096C8964FD87
S11317501DC063E0CE010E94BC0984E991E10E94AE
S1131760180763E0CE010E94BC0984E991E10E945C
S1131770180763E0CE010E94BC0986E990E00E944C
S1131780180762E0CE010E94BC0916C06062CE0157
S11317900E94D30A84E991E10E9418076C8960626F
S11317A0CE010E94D30A86E990E00E9418076C8952
S11317B06062CE010E94D30A6C896062CE010E94ED
S11317C0D30A84E08D8BCE010E940B0BCE010E94C4
S11317D0D60A82E08E8B66E0CE01DF91CF911F9115
S11317E00F91FF90EF90DF90CF90BF90AF909F90BC
S11317F08F900C94D30A41E00E94AA0A81E090E001
S11318000895DF92EF92FF920F931F93CF93DF938C
S11318107C012FE0E20EF11CC0E0D0E02FE1D22EDB
S11318208C01055E1F4FF70161917F01C8010E9481
S11318300E0D282F30E00C2E02C0220F331F0A9405
S1131840E2F720953095D2222196C530D10559F77B
S11318508D2DDF91CF911F910F91FF90EF90DF902D
S11318600895682F83ED92E00C94A20ECF93DF933A
S1131870EC01683008F067E0688383ED92E00E9431
S1131880E10E6881606270E083ED92E00E94FD0EDB
S113189080E00E94310C8FEF0E94310C83ED92E0C6
S11318A00E94790F6881606270E083ED92E00E948B
S11318B0FD0E81E00E94310C8FEF0E94310C83ED0C
S11318C092E0DF91CF910C94790F60E00C94360C88
S11318D0CF93DF93D62FC72FFC016081606270E045
S11318E083ED92E00E94FD0E82E10E94310C8D2F67
S11318F00E94310C8C2F0E94310C83ED92E0DF9119
S1131900CF910C94790FFF920F931F93CF93DF9392
S11319108C01C62FD42F603108F051C0683020F0FC
S1131920C850FF24F39401C0F12CF8016081606277
S113193070E083ED92E00E94FD0E8F2D0E94310C29
S113194083ED92E00E94790FF8016081606270E09B
S113195041E050E083ED92E00E94760F83ED92E047
S11319600E941B0E21E030E0D11109C0A90102C080
S1131970440F551FCA95E2F7EA01C82B09C0F901C3
S113198002C0EE0FFF1FCA95E2F7EF01C095C8230E
S1131990F8016081606270E083ED92E00E94FD0EC8
S11319A08F2D0E94310C8C2F0E94310C83ED92E01C
S11319B0DF91CF911F910F91FF900C94790FDF91DC
S11319C0CF911F910F91FF900895CF93DF93EC0176
S11319D06881606270E083ED92E00E94FD0E82E116
S11319E00E94310C83ED92E00E94790F688160625D
S11319F070E042E050E083ED92E00E94760F83EDC8
S1131A0092E00E941B0EC82F83ED92E00E941B0EF1
S1131A10982F88278C2BDF91CF9108950F931F93D4
S1131A20CF93DF938C01C62F603158F5683018F0DE
S1131A30C850D3E101C0D2E1F8016081606270E076
S1131A4083ED92E00E94FD0E8D2F0E94310C83EDF8
S1131A5092E00E94790FF8016081606270E041E0D9
S1131A6050E083ED92E00E94760F83ED92E00E94B5
S1131A701B0E992702C095958795CA95E2F7817048
S1131A8001C080E0DF91CF911F910F910895FF92E3
S1131A900F931F93CF93DF938C01C62FD42F603104
S1131AA008F052C0683020F0C8509DE0F92E02C002
S1131AB08CE0F82EF8016081606270E083ED92E0C2
S1131AC00E94FD0E8F2D0E94310C83ED92E00E9446
S1131AD0790FF8016081606270E041E050E083EDCD
S1131AE092E00E94760F83ED92E00E941B0E21E0AB
S1131AF030E0D13049F4A90102C0440F551FCA9502
S1131B00E2F7EA01C82B09C0F90102C0EE0FFF1F7A
S1131B10CA95E2F7EF01C095C823F80160816062BD
S1131B2070E083ED92E00E94FD0E8F2D0E94310C37
S1131B308C2F0E94310C83ED92E0DF91CF911F91A5
S1131B400F91FF900C94790FDF91CF911F910F911A
S1131B50FF900895EF92FF920F931F93CF93DF931B
S1131B608C01C62FE42E603108F056C0683028F08E
S1131B70C850D5E193E1F92E03C0D4E182E1F82EF7
S1131B80F8016081606270E083ED92E00E94FD0ED6
S1131B908D2F0E94310C83ED92E00E94790FF801A1
S1131BA06081606270E041E050E083ED92E00E9469
S1131BB0760F83ED92E00E941B0EF1E021E030E00D
S1131BC0EF1209C0A90102C0440F551FCA95E2F7DC
S1131BD0EA01C82B09C0F90102C0EE0FFF1FCA9524
S1131BE0E2F7EF01C095C823F8016081606270E0FC
S1131BF083ED92E00E94FD0E8F2D0E94310C8C2FFC
S1131C000E94310C83ED92E0DF91CF911F910F91EF
S1131C10FF90EF900C94790FDF91CF911F910F916A
S1131C20FF90EF9008958091070390E020910803BE
S1131C30821B9109089590910803809107039817D6
S1131C4050F4E92FF0E0E75FFC4F208130E09F5F24
S1131C509093080302C02FEF3FEFC9010895E0916C
S1131C60080380910703E81730F4F0E0E75FFC4FC6
S1131C70808190E008958FEF9FEF08950895CF93AA
S1131C80DF93EC01E091DF02F091E0023097F1F094
S1131C9090910803809107039817C0F090E0292FD2
S1131CA030E02617370754F4DE01A20FB31F4C911E
S1131CB0D901A75FBC4F4C939F5FF1CF10920803EB
S1131CC060930703CB01DF91CF910994DF91CF910A
S1131CD00895E091E102F091E202309729F0109228
S1131CE0E5021092E40209940895CF92DF92EF92F4
S1131CF0FF920F931F93CF93DF937C01CB018A0153
S1131D002091E302222389F0EB016B01C40ED51E5E
S1131D10CC15DD0569F06991D701ED91FC91019035
S1131D20F081E02DC7010995F3CF642F0E943D1087
S1131D30C801DF91CF911F910F91FF90EF90DF9039
S1131D40CF900895CF93DF931F92CDB7DEB7698309
S1131D502091E3022223D1F02091E402203240F0CA
S1131D6021E030E0FC013383228380E090E015C061
S1131D708091E502E82FF0E0EA51FD4F99819083CC
S1131D808F5F8093E5028093E40205C061E0CE0199
S1131D9001960E943D1081E090E00F90DF91CF9179
S1131DA00895FC011382128288EE93E0A0E0B0E073
S1131DB084839583A683B78389EE91E0918380839E
S1131DC0089510920803109207031092E5021092EE
S1131DD0E4020E94810F89E69EE00E946A108FE36C
S1131DE09EE00C94651081E08093E3026093060307
S1131DF01092E5021092E40208950C94F30E0F93EE
S1131E00062F21E04091E40266EE72E08091060321
S1131E100E94E70F1092E5021092E4021092E3028E
S1131E200F9108954F925F926F927F92AF92BF92FB
S1131E30CF92EF92FF920F931F93CF93DF935C01A6
S1131E40F62ED42F28013901EE2021F10E94F30E41
S1131E50CE2DC43008F0C3E0C150C0F028E0C29FCA
S1131E60C0011124A301920104C0569547953795EA
S1131E7027958A95D2F7CA01B901D501ED91FC9154
S1131E800190F081E02DC5010995E6CF60E0C50120
S1131E900E94FF0E4D2FD13208F040E22C2D69E054
S1131EA073E08F2D0E949F0F109208038093070305
S1131EB0DF91CF911F910F91FF90EF90CF90BF9042
S1131EC0AF907F906F905F904F900895CF92EF9274
S1131ED00F931F93C22EE12C00E010E098010E94A2
S1131EE0120F1F910F91EF90CF90089521E00C9461
S1131EF0660F61E00C94FF0E83ED92E00C94D10E1A
S1131F0008951092960381E08093940310929303B2
S1131F1061E082E10E94C60761E083E10E94C60796
S1131F20E9EBF0E080818E7F808380818D7F8083E8
S1131F3088E48093B80085E48093BC00089541321E
S1131F4008F043C0909196039111FCCF91E09093D7
S1131F509603209394032FEF2093290310926E038A
S1131F60240F20936D039093950390919503880F0C
S1131F70892B8093950380919303813061F41092AF
S1131F809303809195038093BB008091BC0083FDF3
S1131F90F8CF85EC01C085EE8093BC008091960358
S1131FA08130E1F380916E03841710F440916E0345
S1131FB0AFE6B3E0962FFB018E2F891B841718F42C
S1131FC08D918193F9CF842F089580E008950F9324
S1131FD0413208F04AC0909196039111FCCF32E04F
S1131FE030939603009394033FEF309329031092A8
S1131FF06E0340936D03562FAFE6B3E0FB013E2F13
S1132000351B341718F431913D93F9CF1092950391
S113201030919503880F832B8093950380919303CC
S1132020813061F410929303809195038093BB00F7
S11320308091BC0083FDF8CF85EC01C085EE8093D0
S1132040BC00222321F0809196038230D1F3809149
S113205029038F3F79F080912903803241F08091E8
S11320602903803331F094E005C091E003C092E08D
S113207001C093E0892F0F91089540914B03262FBF
S113208030E0240F311D21323105DCF42091960318
S11320902430C9F4FC0180E090E0861758F43091B4
S11320A04B032191DC01A35BBC4FA30FB11D2C9307
S11320B00196F3CF80914B03680F60934B0380E04C
S11320C0089581E0089582E00895909390038093A9
S11320D08F0308959093920380939103089585ED5F
S11320E08093BC008091BC0084FDFCCF10929603C9
S11320F0089585EC8093BC001092960308951F9276
S11321000F920FB60F9211242F933F934F935F9327
S11321106F937F938F939F93AF93BF93EF93FF93AB
S11321208091B900887F803609F49EC078F58832A2
S113213009F45DC090F4803109F456C038F4882362
S113214009F4F5C0883009F44FC0F5C0883109F4AA
S11321504EC0803209F45FC0EEC0803409F46AC016
S113216058F4803309F457C0883309F0E4C08093ED
S113217029030E947910DFC0803509F44FC08835E7
S113218009F45DC0883409F0D6C0D3C0883909F495
S1132190C4C0A8F4883709F467C038F4883609F451
S11321A063C0803709F460C0C6C0883809F4B5C07C
S11321B0803909F45FC0803809F0BDC05BC0803B42
S11321C009F483C038F4803A09F466C0883A09F403
S11321D07CC0B1C0803C09F4A4C0883C09F4A1C00F
S11321E0883B09F487C0A7C08091950310C09091E3
S11321F06E0380916D03981770F5E0916E0381E092
S11322008E0F80936E03F0E0E159FC4F8081809340
S1132210BB0085EC83C0809329038BC0E0916E03DF
S113222081E08E0F80936E038091BB00F0E0E15952
S1132230FC4F808390916E0380916D036BC0E0919D
S11322406E0381E08E0F80936E038091BB00F0E0FB
S1132250E159FC4F80838091940381116AC081E02D
S11322608093930384EA5EC083E080939603109284
S11322702A03CFCF80912A03803208F04EC0E09128
S11322802A0381E08E0F80932A038091BB00F0E043
S1132290E55DFC4F8083BDCF0E94791080912A03B5
S11322A0803230F4E0912A03F0E0E55DFC4F1082C7
S11322B060912A0370E0E0918F03F09190038BE228
S11322C093E0099510922A0336C084E08093960324
S11322D010924C0310924B03E0919103F0919203FE
S11322E0099580914B03811105C081E080934B03D4
S11322F010924D03E0914C0381E08E0F80934C03C8
S1132300F0E0E35BFC4F80818093BB0090914C0331
S113231080914B03981708F47CCF85E88093BC0028
S11323200AC085EC8093BC001092960304C01092FE
S113233029030E946F10FF91EF91BF91AF919F917C
S11323408F917F916F915F914F913F912F910F905A
S11323500FBE0F901F901895A1E21A2EAA1BBB1B4B
S1132360FD010DC0AA1FBB1FEE1FFF1FA217B3075D
S1132370E407F50720F0A21BB30BE40BF50B661F73
S1132380771F881F991F1A9469F760957095809537
S113239090959B01AC01BD01CF010895EE0FFF1F85
S11323A00590F491E02D09940F931F93CF93DF933D
S11323B08230910510F482E090E0E0919903F0916D
S11323C09A0320E030E0A0E0B0E0309719F14081BA
S11323D051810281138148175907C8F08417950762
S11323E069F4109731F012960C93129713961C937C
S11323F027C00093990310939A0322C02115310535
S113240019F04217530718F49A01BD01EF01DF01D7
S1132410F801DBCF21153105F9F0281B390B2430E5
S1132420310580F48A819B816115710521F0FB01DE
S11324309383828304C090939A0380939903FE014B
S1132440329644C0FE01E20FF31F81939193225010
S11324503109398328833AC0209197033091980336
S1132460232B41F42091020130910301309398030E
S1132470209397032091000130910101211531052A
S113248041F42DB73EB74091040150910501241B3E
S1132490350BE0919703F0919803E217F307A0F44A
S11324A02E1B3F0B2817390778F0AC014E5F5F4FA6
S11324B02417350748F04E0F5F1F5093980340933D
S11324C097038193919302C0E0E0F0E0CF01DF91A4
S11324D0CF911F910F910895CF93DF93009709F443
S11324E081C0FC01329713821282A0919903B091AA
S11324F09A03109781F420813181820F931F2091D8
S11325009703309198032817390751F5F0939803EE
S1132510E093970367C0ED0120E030E0CE17DF07BA
S113252040F44A815B819E0141155105F1F0EA01B5
S1132530F5CFD383C28340815181840F951FC8177F
S1132540D90759F488819981840F951F0296918344
S113255080838A819B81938382832115310529F4A9
S1132560F0939A03E09399033DC0E901FB83EA8366
S113257049915991C40FD51FEC17FD0761F480816F
S11325809181840F951F0296E90199838883828142
S113259093819B838A83E0E0F0E012968D919C9175
S11325A01397009719F0FD01DC01F7CF8D919C91F1
S11325B011979D012E5F3F4F820F931F2091970328
S11325C0309198032817390769F4309729F4109249
S11325D09A031092990302C013821282B093980353
S11325E0A0939703DF91CF910895A0E0B0E0EBEFC3
S11325F0F2E10C948216EC01009721F4CB010E94C5
S1132600D411B4C0FC01E60FF71F9C01225031091C
S1132610E217F30708F4A8C0D9010D911C91119792
S113262006171707B0F00530110508F49BC0C80160
S113263004978617970708F495C002501109061BE2
S1132640170B019311936D937C93CF010E946C122D
S113265089C05B01A01AB10A4C01800E911EA091A1
S11326609903B0919A03612C712CE12CF12C1097F1
S113267009F446C08D919C911197A815B905B1F53F
S11326806C0142E0C40ED11CCA14DB0478F14C0185
S11326908A189B08640142E0C40ED11C1296BC90B7
S11326A012971396AC91B5E0CB16D10440F0B282E8
S11326B0A38391828082D9016D937C9309C00E5FBC
S11326C01F4F800F911FF90191838083EB2DFA2F07
S11326D0E114F10431F0D7011396FC93EE931297B1
S11326E041C0F0939A03E09399033CC068167906BD
S11326F008F43C017D0112960D90BC91A02DB7CF3A
S1132700809197039091980388169906E1F46616D0
S11327107706C8F48091000190910101009741F47B
S11327208DB79EB74091040150910501841B950B10
S1132730E817F907C8F4F0939803E0939703F901B5
S1132740718360830FC0CB010E94D4117C01009778
S113275059F0A801BE010E94BB13CE010E946C1265
S1132760C70104C0CE0102C080E090E0CDB7DEB75F
S1132770EEE00C949E16FB01DC0102C001900D9268
S113278041505040D8F70895FB01DC0101900D92AF
S11327900020E1F70895AEE0B0E0E1EDF3E10C9440
S11327A08C160D891E8986E08C831A8309838FEF2A
S11327B09FE79E838D83AE01475E5F4F6F89788D5F
S11327C0CE0101960E94ED13EF81F885E00FF11F11
S11327D010822E96E4E00C94A816ABE0B0E0E3EF90
S11327E0F3E10C947E166C017B018A01FC011782D3
S11327F01682838181FFCCC1CE0101963C01F60192
S11328009381F70193FD859193FF81917F01882343
S113281009F4BAC1853239F493FD859193FF81910E
S11328207F01853229F4B60190E00E94E415E7CFD8
S1132830912C212C312CFFE1F315D8F08B3279F057
S113284038F4803279F08332A1F4232D20611DC045
S11328508D3261F0803369F4232D216016C0832DFD
S11328608260382EE32DE4603E2E2AC0F32DF860FA
S11328701DC037FC2DC020ED280F2A3040F08E32C9
S1132880B9F436FC81C1232D2064322E19C036FEE2
S113289006C08AE0989E200D1124922E11C0EAE011
S11328A02E9E200D1124222EF32DF0623F2E08C0FF
S11328B08C3621F4832D8068382E02C0883641F48A
S11328C0F70193FD859193FF81917F018111B3CF2E
S11328D0982F9F7D9554933028F40C5F1F4F9FE3EE
S11328E099830DC0833631F0833771F0833509F055
S11328F059C021C0F801808189830E5F1F4F88244D
S11329008394912C530113C02801F2E04F0E511C03
S1132910F801A080B18036FE03C0692D70E002C0CA
S11329206FEF7FEFC5010E94D9154C018201F32D91
S1132930FF773F2E16C0280122E0420E511CF801F9
S1132940A080B18036FE03C0692D70E002C06FEF35
S11329507FEFC5010E94CE154C01F32DF0683F2E88
S1132960820133FC1BC0822D90E088169906B0F4D6
S1132970B60180E290E00E94E4152A94F4CFF501B8
S113298037FC859137FE81915F01B60190E00E948A
S1132990E41521102A9421E0821A910881149104EB
S11329A071F7E8C0843611F0893641F5F80137FE35
S11329B007C060817181828193810C5F1F4F08C0C1
S11329C060817181072E000C880B990B0E5F1F4FDD
S11329D0F32DFF763F2E97FF09C090958095709553
S11329E061957F4F8F4F9F4FF0683F2E2AE030E074
S11329F0A3010E942016882E861845C0853731F41D
S1132A00232D2F7EB22E2AE030E025C0932D997F0E
S1132A10B92E8F36C1F018F4883579F0B5C08037F7
S1132A2019F0883721F0B0C0E92FE061BE2EB4FE62
S1132A300DC0FB2DF460BF2E09C034FE0AC0292F3F
S1132A402660B22E06C028E030E005C020E130E068
S1132A5002C020E132E0F801B7FE07C06081718155
S1132A60828193810C5F1F4F06C06081718180E079
S1132A7090E00E5F1F4FA3010E942016882E861837
S1132A80FB2DFF773F2E36FE0DC0232D2E7FA22E69
S1132A90891458F434FE0BC032FC09C0832D8E7E99
S1132AA0A82E05C0B82CA32C03C0B82C01C0B92C87
S1132AB0A4FE0FC0FE01E80DF11D8081803321F4D6
S1132AC09A2D997EA92E09C0A2FE06C0B394B39490
S1132AD004C08A2D867809F0B394A3FC11C0A0FE2B
S1132AE006C0B21488F4280C922C9B180EC0B214A1
S1132AF060F4B60180E290E00E94E415B394F7CF4D
S1132B00B21418F42B1802C0982C212CA4FE10C067
S1132B10B60180E390E00E94E415A2FE17C0A1FC78
S1132B2003C088E790E002C088E590E0B6010CC0DD
S1132B308A2D867859F0A1FE02C08BE201C080E2A2
S1132B40A7FC8DE2B60190E00E94E415891438F4E4
S1132B50B60180E390E00E94E4159A94F7CF8A943A
S1132B60F301E80DF11D8081B60190E00E94E415A7
S1132B708110F5CF222009F442CEB60180E290E024
S1132B800E94E4152A94F6CFF6018681978102C04B
S1132B908FEF9FEF2B96E2E10C949A16FC010590BF
S1132BA0615070400110D8F7809590958E0F9F1F4B
S1132BB00895FC016150704001900110D8F7809590
S1132BC090958E0F9F1F08950F931F93CF93DF93BC
S1132BD0FB01238121FD03C08FEF9FEF2CC022FF57
S1132BE016C046815781248135814217530744F426
S1132BF0A081B1819D012F5F3F4F318320838C934E
S1132C00268137812F5F3F4F3783268314C08B0182
S1132C10EC01FB010084F185E02D0995892BE1F697
S1132C20D80116968D919C911797019617969C93AF
S1132C308E931697CE01DF91CF911F910F91089536
S1132C40FA01AA27283051F1203181F1E8946F93D9
S1132C506E7F6E5F7F4F8F4F9F4FAF4FB1E03ED07F
S1132C60B4E03CD0670F781F891F9A1FA11D680F1D
S1132C70791F8A1F911DA11D6A0F711D811D911D50
S1132C80A11D20D009F468943F912AE0269F1124C5
S1132C903019305D3193DEF6CF010895462F477029
S1132CA0405D4193B3E00FD0C9F7F6CF462F4F7084
S1132CB0405D4A3318F0495D31FD4052419302D0E2
S1132CC0A9F7EACFB4E0A695979587957795679588
S1132CD0BA95C9F700976105710508959B01AC0188
S1132CE00A2E06945795479537952795BA95C9F7AF
S1132CF0620F731F841F951FA01D08952F923F928A
S1132D004F925F926F927F928F929F92AF92BF92F7
S1132D10CF92DF92EF92FF920F931F93CF93DF93A3
S1132D20CDB7DEB7CA1BDB0B0FB6F894DEBF0FBE00
S1132D30CDBF09942A88398848885F846E847D844D
S1132D408C849B84AA84B984C884DF80EE80FD804F
S1132D500C811B81AA81B981CE0FD11D0FB6F894C5
S1132D60DEBF0FBECDBFED01089510E0CFE5D0E08A
S1132D7004C0FE010E94CE112196C036D107C9F7C6
S1072D80F894FFCFF1
S1132D8400009B032000010000400014005400557F
S1132D94703A4F70656E20446E436C6F73654C6675
S1132DA4743A4461792052743A4E69676874004DE8
S1132DB461696E204D656E750053656C3A457363A5
S1132DC4617065004F70656E696E6720446F6F7241
S1132DD400436C6F73696E6720446F6F72004461C3
S1132DE479204D6F64652020202020202020546DFC
S1132DF4703A2573204C68743A2573004E696768E9
S1132E0474204D6F6465202020202020546D703A76
S1132E142573204C68743A257300496E6974204301
S1132E246F6D706C65746500696E206C6F6F7000F3
S1132E344E45574D454E5500000000008504FE05DF
S1132E444604D2041804320424040D0A006E616E8C
S1132E5400696E66006F76660000000000FB0BFEDE
S1132E640559055C0500000000A20E750E59053EC7
S10B2E740E130E1B0E2F0E00BD
S9030000FC
