S013000064656D6F5F616E616C6F672E737265639B
S11300000C9463000C94F5050C94BD050C945B06EC
S11300100C948B000C9419060C948B000C948B009C
S11300200C948B000C948B000C948B000C948B0020
S11300300C948B000C948B000C948B000C948B0010
S11300400C94E3060C948B000C948B000C948B00A2
S11300500C948B000C948B000C948B000C948B00F0
S11300600C942A110C948B0000000008000201007B
S1130070000304070000000000000000010204085F
S113008010204080010204081020010204081020FE
S1130090040404040404040402020202020203032A
S11300A003030303000000002300260029000000CE
S11300B00000250028002B00000000002400270079
S11300C02A009106271011241FBECFEFD8E0DEBF0F
S11300D0CDBF11E0A0E0B1E0E0E8FEE202C005908F
S11300E00D92A83FB107D9F722E0A8EFB1E001C013
S11300F01D92AF3EB207E1F710E0C3E6D0E004C0C2
S11301002197FE010E945712C136D107C9F70E94F8
S113011096060C943E170C940000EF92FF920F93F6
S11301201F93CF93DF93EC017B018A010E94810B23
S113013040E060E0CE010E94880BB701CE010E942E
S1130140D50641E060E0CE010E94880BB801CE01E3
S11301500E94D50640E060E0CE01DF91CF911F916F
S11301600F91FF90EF900C94880B0F931F93CF93F4
S1130170DF93CDB7DEB72C970FB6F894DEBF0FBE72
S1130180CDBF8C0169EB71E0CE0107960E940F0987
S1130190F80182A593A5009719F0019741F00EC0CC
S11301A0B801605D7F4FCE0107960E946109B801D6
S11301B06A5C7F4FCE0107960E946109F80146A54B
S11301C057A584A595A54817590714F415A614A690
S11301D0F80124A535A54217530741F42B853C8526
S11301E094E0440F551F9A95E1F70AC02F5F3F4FE3
S11301F084E0220F331F8A95E1F7A9014051510988
S1130200BE01695F7F4FCE0101960E94A409BE0121
S11302106F5F7F4FCE0107960E948109CE01019640
S11302200E94A108F80142A560E0C8010E94880B61
S1130230BE01695F7F4FC8010E94D50640E060E0BF
S1130240C8010E94880BF80104A515A50F5F1F4F74
S1130250CE0107960E94A108C8012C960FB6F89407
S1130260DEBF0FBECDBFDF91CF911F910F910895D7
S11302704F925F926F927F928F929F92AF92BF92B2
S1130280CF92DF92EF92FF920F931F93CF93DF935E
S1130290CDB7DEB72C970FB6F894DEBF0FBECDBF37
S11302A04C013B012A01B22EC0960E946109B201A1
S11302B0C401C6960E946109F401F7A6E6A6D3A676
S11302C0C2A6F80180819181F401978F868FF8018D
S11302D082819381F40191A380A3F80184819581A3
S11302E0F40193A382A3F80186819781F40195A375
S11302F084A3F80180859185F40197A386A36B2DCF
S1130300C4010E94170AF401A4AEA1101EC015A6D0
S113031014A6B201CE0101960E947809B301CE0160
S113032007960E947809AE014F5F5F4FBE01695F77
S11303307F4FC4010E948D00CE0107960E94A10840
S1130340CE0101960E94A10806C0C4010E94B50016
S1130350F40195A784A72C960FB6F894DEBF0FBEC0
S1130360CDBFDF91CF911F910F91FF90EF90DF9060
S1130370CF90BF90AF909F908F907F906F905F9041
S11303804F9008956F927F928F929F92AF92CF92E7
S1130390DF92EF92FF920F931F93CF93DF93CDB72A
S11303A0DEB7E6970FB6F894DEBF0FBECDBF3C01B3
S11303B0442319F00E94B50031C1FC01758F648F8C
S11303C0CE0101964C016230710509F47FC0E4F45A
S11303D06115710509F453C06130710509F0E5C078
S11303E01AA219A28FEF9FEF9CA38BA39EA38DA3A8
S11303F098A78FA39AA789A76AE371E0C4010E9412
S11304000F0965E471E075C06430710509F488C0B2
S11304100CF47FC06530710509F0C7C01AA219A297
S11304208FEF9FEF9CA38BA39EA38DA398A78FA36D
S11304309AA789A76AE371E0C4010E940F0969E9D8
S113044071E0CE018B960E940F09A12CC12CD12CF6
S1130450EE24E394F12C8E010F5D1F4F21E030E078
S1130460A401BE01655D7F4FC3010E943801CE0126
S11304708B960E94A108C4010E94A10896C08FEF28
S11304809FEF9AA389A381E090E09CA38BA382E0D1
S113049090E09EA38DA383E090E098A78FA384E0CF
S11304A090E09AA789A76FE071E0C4010E940F0948
S11304B060E371E0CE018B960E940F09A12CCC243D
S11304C0C394D12C62E0E62EF12C95C01AA219A295
S11304D08FEF9FEF9CA38BA39EA38DA398A78FA3BD
S11304E09AA789A76AE371E0C4010E940F0962E533
S11304F071E0CE018B960E940F09A12CCC24CA94E2
S1130500DC2CE12CF12C8E010F5D1F4F23E030E039
S113051077C01F930F933F932F938FE591E006C00D
S11305201F930F933F932F938CE791E09F938F93A7
S11305309F928F920E9454141AA219A28FEF9FEFD8
S11305409CA38BA39EA38DA398A78FA39AA789A7E7
S11305506AE371E0CE018B960E940F09B401CE01CB
S1130560C1960E940F09A12CC12CD12CEE24E39436
S1130570F12C8E010F5D1F4F22E030E0AE01455D8E
S11305805F4FBE016F5C7F4FC3010E943801CE01F3
S1130590C1960E94A108CE018B960E94A1080FB6B5
S11305A0F894DEBF0FBECDBF39C08FEF9FEF9AA383
S11305B089A381E090E09CA38BA382E090E09EA3BA
S11305C08DA383E090E098A78FA384E090E09AA79E
S11305D089A76AEB71E0C4010E940F0960E371E02E
S11305E0CE018B960E940F09A12CCC24C394D12C4C
S11305F0EE24E394F12C8E010F5D1F4F22E030E0D6
S1130600A401BE01655D7F4FC3010E943801CE0184
S11306108B960E94A108C4010E94A108E6960FB619
S1130620F894DEBF0FBECDBFDF91CF911F910F9124
S1130630FF90EF90DF90CF90AF909F908F907F903E
S11306406F9008950F931F93CF93DF93EC01FB01F9
S1130650828193819B838A838EED91E09983888341
S113066084818C8385818D8386818E8388E037960F
S1130670DE01179601900D928A95E1F785E0FB0162
S11306803F96DE011F9601900D928A95E1F7FB01DA
S113069084898C8B85898D8B86898E8B87898F8BBA
S11306A0808D888F818D898F828D8A8F838D8B8FAA
S11306B069EB71E0CE01C0960E940F0969EB71E00D
S11306C0CE01C6960E940F0920E042E060E1CE010F
S11306D00E94BE0BCE010E94810B09EB11E0980130
S11306E040E060E070E0CE010E94C201DF91CF9152
S11306F01F910F910895CF92DF92EF92FF920F9383
S11307001F93CF93DF93EC016A017B010E94AC0C31
S113071080FF06C06E8D7F8D6F3F2FEF720701F54E
S113072083FF06C068A179A16F3F9FEF7907C1F4E9
S113073082FF06C06AA17BA16F3F2FEF720781F48D
S113074084FF06C06CA17DA16F3F9FEF790741F440
S113075081FF0EC06EA17FA16F3F2FEF720741F0A2
S113076009EB11E0980140E0CE010E94C20110C0E3
S11307700E942D0728EEC20E23E0D21EE11CF11CBC
S1130780C616D706E806F90628F0CE010E94B50081
S113079081E001C080E0DF91CF911F910F91FF9024
S11307A0EF90DF90CF900895FC01848D958D08958E
S11307B0CF93DF93EC0160E089E00E94480860E099
S11307C08AE00E94480860E089E00E940C0860E02A
S11307D08AE00E940C08BE01DD0F880B990BDF91A3
S11307E0CF910C945E0762307105B1F044F4611549
S11307F0710581F061307105B1F483E012C0643099
S1130800710571F05CF06530710569F4FC01828555
S11308109385089582E005C084E003C08CE001C0A4
S11308208DE00C9477080895FC0177876687089516
S1130830FC016115710521F06130710521F0089505
S113084015861486089584859585019695878487F1
S11308500895FC01848595850895CA0161110C945D
S1130860D80361E08AE00E940C0861E089E00C94FE
S11308700C086115710541F06130710559F06F3F45
S11308807F4F81F461E001C060E089E00E94480884
S113089060E005C060E089E00E94480861E08AE009
S11308A00C94480808950F931F93CF93DF93EC01A2
S11308B08B017B876A87672B29F480E090E00E9494
S11308C0D80305C040E050E060E00E942D04B80168
S11308D0CE01DF91CF911F910F910C943904FC014B
S11308E062307105B1F03CF46115710561F061305D
S11308F0710561F008956430710589F06CF065301C
S1130900710581F008955383428308955583448388
S113091008955183408308955783468308955187EA
S113092040870895BA010C9453040F931F93CF93F7
S1130930DF93EC0181E090E09F878E871D861C8603
S113094000E010E0B801CE010E94F303AC01B8014D
S1130950CE010E946F040F5F1F4F0530110591F700
S113096060E070E0CE01DF91CF911F910F910C9464
S113097053048F929F92AF92BF92CF92DF92EF92E5
S1130980FF920F931F93CF93DF93CDB7DEB7FC0194
S11309904683578360877187338722871587048747
S11309A0C28AD38AE48AF58A868A978AA08EB18E0F
S11309B0DF91CF911F910F91FF90EF90DF90CF9037
S11309C0BF90AF909F908F9008956F927F928F9277
S11309D09F92AF92BF92CF92DF92EF92FF920F93CA
S11309E01F93CF93DF93CDB7DEB76C970FB6F89410
S11309F0DEBF0FBECDBF82E092E0FC0122813381D5
S1130A003C832B832EED31E03A83298324812D838B
S1130A1025812E8326812F8328E0E9E0F2E0DE01A0
S1130A20189601900D922A95E1F725E0E1E1F2E0B4
S1130A30DE01509601900D922A95E1F7FC0124897C
S1130A402D8B25892E8B26892F8B2789288F208D06
S1130A50298F218D2A8F228D2B8F838D8C8F8DE36F
S1130A6090E00E94A5063C01BE016F5F7F4F0E948B
S1130A702203709201026092000280E190E00E94E1
S1130A80A5063C010E9495047092FF016092FE014C
S1130A908CE190E00E94A5063C0180EA882E8BEB55
S1130AA0982E8DE0A82EB12C90EAC92E9BEBD92E5E
S1130AB09DE0E92EF12C08E210E024E630E040E06D
S1130AC050E06CED73E4C3010E94B9047092FD011F
S1130AD06092FC0162E082E00E940C0880E00E94C7
S1130AE0E007E9E6F0E080818A60808383E08DBBE3
S1130AF0E8E6F0E080818560808378940E942D0789
S1130B006093F8017093F9018093FA019093FB01CB
S1130B106C960FB6F894DEBF0FBECDBFDF91CF91B8
S1130B201F910F91FF90EF90DF90CF90BF90AF9007
S1130B309F908F907F906F9008954091F80150910D
S1130B40F9016091FA017091FB018091000290918A
S1130B5001020E947B03882351F00E942D076093B9
S1130B60F8017093F9018093FA019093FB0180914D
S1130B700002909101020C94D4031F920F920FB6BD
S1130B800F9211242F933F934F935F936F937F930F
S1130B908F939F93AF93BF93EF93FF9361E070E0C4
S1130BA08091FE019091FF010E94180461E070E0C1
S1130BB08091FE019091FF010E9414048091FE0136
S1130BC09091FF010E942904FF91EF91BF91AF9191
S1130BD09F918F917F916F915F914F913F912F9151
S1130BE00F900FBE0F901F9018951F920F920FB683
S1130BF00F9211242F933F934F935F936F937F939F
S1130C008F939F93AF93BF93EF93FF930E94BD0580
S1130C10FF91EF91BF91AF919F918F917F916F91D0
S1130C205F914F913F912F910F900FBE0F901F90A6
S1130C3018951F920F920FB60F9211242F933F9382
S1130C404F935F936F937F938F939F93AF93BF93D0
S1130C50EF93FF9365E070E08091FE019091FF01B6
S1130C600E94F3030196B1F461E070E08091FE010B
S1130C709091FF010E94180462E070E08091FE01EF
S1130C809091FF010E9414048091FE019091FF0154
S1130C900E942904FF91EF91BF91AF919F918F9191
S1130CA07F916F915F914F913F912F910F900FBE64
S1130CB00F901F9018951F920F920FB60F92112448
S1130CC02F933F934F935F936F937F938F939F9350
S1130CD0AF93BF93EF93FF9341E050E063E070E084
S1130CE08091FE019091FF010E946F0440E050E06A
S1130CF065E070E08091FE019091FF010E946F0415
S1130D00FF91EF91BF91AF919F918F917F916F91DF
S1130D105F914F913F912F910F900FBE0F901F90B5
S1130D20189582E092E00C94E90908950E94A507C1
S1130D300E9495060E94E504C0E0D0E00E949D0553
S1130D402097E1F30E940000F9CF0C945D1280E03B
S1130D5090E008950895CF92DF92EF92FF920F935F
S1130D601F93CF93DF936C017A018B01C0E0D0E035
S1130D70CE15DF0581F0D8016D918D01D601ED917D
S1130D80FC910190F081E02DC6010995892B11F0A9
S1130D902196EECF7E01C701DF91CF911F910F9174
S1130DA0FF90EF90DF90CF900895DB0114964D9162
S1130DB05C9115976D917C91DC01ED91FC91028021
S1130DC0F381E02D09941F920F920FB60F92112414
S1130DD02F933F938F939F93AF93BF9380911F0261
S1130DE090912002A0912102B091220230911E0222
S1130DF023E0230F2D3720F40196A11DB11D05C05A
S1130E0026E8230F0296A11DB11D20931E02809394
S1130E101F0290932002A0932102B093220280919A
S1130E20230290912402A0912502B09126020196FA
S1130E30A11DB11D8093230290932402A093250247
S1130E40B0932602BF91AF919F918F913F912F91C3
S1130E500F900FBE0F901F9018952FB7F8946091C4
S1130E601F027091200280912102909122022FBFD3
S1130E7008953FB7F8948091230290912402A091A1
S1130E802502B091260226B5A89B05C02F3F19F074
S1130E900196A11DB11D3FBFBA2FA92F982F8827F6
S1130EA0820F911DA11DB11DBC01CD0142E0660F51
S1130EB0771F881F991F4A95D1F708958F929F92A3
S1130EC0AF92BF92CF92DF92EF92FF926B017C01BF
S1130ED00E9439074B015C01C114D104E104F104FF
S1130EE001F10E942B100E943907DC01CB01881903
S1130EF09909AA09BB09883E9340A105B10560F38D
S1130F0021E0C21AD108E108F10888EE880E83E0D6
S1130F10981EA11CB11CC114D104E104F10419F7F9
S1130F20DBCFFF90EF90DF90CF90BF90AF909F907A
S1130F308F9008958230910538F0880F991F880F9B
S1130F40991F05970197F1F70895789484B5826005
S1130F5084BD84B5816084BD85B5826085BD85B559
S1130F60816085BDEEE6F0E0808181608083E1E808
S1130F70F0E0108280818260808380818160808340
S1130F80E0E8F0E0808181608083E1EBF0E0808143
S1130F9084608083E0EBF0E0808181608083EAE715
S1130FA0F0E080818460808380818260808380819E
S1130FB0816080838081806880831092C10008955D
S1130FC0809306010895833081F028F4813099F0EC
S1130FD08230A1F008958730A9F08830B9F08430C8
S1130FE0D1F4809180008F7D03C0809180008F7741
S1130FF080938000089584B58F7702C084B58F7D77
S113100084BD08958091B0008F7703C08091B000B3
S11310108F7D8093B0000895CF93DF9390E0FC011F
S1131020E458FF4F2491FC01E057FF4F849188233B
S113103061F190E0880F991FFC01E854FF4FC591BE
S1131040D491FC01E255FF4FA591B491611109C0FF
S11310509FB7F8948881209582238883EC912E236E
S11310600BC0623061F49FB7F8948881322F3095B9
S113107083238883EC912E2B2C939FBF06C08FB7BC
S1131080F894E8812E2B28838FBFDF91CF910895A8
S11310901F93CF93DF93282F30E0F901E859FF4FD6
S11310A08491F901E458FF4FD491F901E057FF4FBF
S11310B0C491CC23C1F0162F81110E94E307EC2FB9
S11310C0F0E0EE0FFF1FE255FF4FA591B4919FB7DB
S11310D0F894111104C08C91D095D82302C0EC91DE
S11310E0DE2BDC939FBFDF91CF911F910895CF93A7
S11310F0DF93282F30E0F901E859FF4F8491F9017B
S1131100E458FF4FD491F901E057FF4FC491CC2329
S113111091F081110E94E307EC2FF0E0EE0FFF1F26
S1131120EC55FF4FA591B491EC91ED2381E090E053
S113113021F480E002C080E090E0DF91CF91089537
S11311400895FC01808191810C94F512CF93DF9373
S1131150EC0188819981009711F00E94F51219829F
S113116018821D821C821B821A82DF91CF910895FE
S11311700F931F93CF93DF93EC018B016F5F7F4F2E
S1131180888199810E947E13009731F09983888326
S11311901B830A8381E001C080E0DF91CF911F911E
S11311A00F910895CF93DF93EC0188819981892B66
S11311B029F08A819B818617970760F4CE010E94EB
S11311C0B808882341F08C819D81892B19F4E8812A
S11311D0F981108281E0DF91CF910895EF92FF921F
S11311E00F931F93CF93DF93EC017B018A01BA0124
S11311F00E94D208811104C0CE010E94A60807C033
S11312001D830C83B701888199810E944D14CE01FE
S1131210DF91CF911F910F91FF90EF900895FC0102
S11312201182108213821282158214826115710553
S113123051F0FB0101900020E9F73197AF01461B03
S1131240570B0C94EE0808950F931F93CF93DF93DD
S11312508C01EB01FC01808191810097D1F06881C0
S113126079816115710599F020EA38E0232B79F032
S1131270428153812C813D814217530740F00E94E3
S11312804D148C819D81F8019583848313C00E9441
S1131290F51288819981F801918380838A819B81E9
S11312A0938382838C819D819583848319821882A0
S11312B01B821A821D821C82DF91CF911F910F9194
S11312C00895CF93DF93EC01FB018617970761F034
S11312D0608171816115710529F0448155810E94F5
S11312E0EE0802C00E94A608CE01DF91CF910895B6
S11312F0FC011182108213821282158214820C94D2
S11313006109CF93DF93EC018617970711F00E94D0
S11313102409CE01DF91CF910895CF93DF93EC019F
S11313206115710559F0FB0101900020E9F731972F
S1131330AF01461B570B0E94EE0802C00E94A6088C
S1131340CE01DF91CF910895BF92CF92DF92EF92B9
S1131350FF920F931F93CF93DF937C016B018A015C
S1131360E9012417350720F4812F8901C42FD82FD0
S113137069EB71E0C7010E940F09D60114968D91A3
S11313809C91159708171907C8F48C179D0708F442
S1131390EC01D601ED91FC911197EC0FFD1FB0808B
S11313A010826D917C91600F711FC7010E948D099D
S11313B0D601ED91FC91EC0FFD1FB082C701DF91C6
S11313C0CF911F910F91FF90EF90DF90CF90BF903E
S11313D00895FC01138212828EED91E09183808343
S11313E0128E148A8FE084838EE085838DE0868359
S11313F08CE087838BE080878AE0818789E082871D
S1131400178681E0808B82E0818B83E0828B84E08D
S1131410838B0895FC01962F828D8F3F21F0CF019D
S11314204B960C94550E642F892F0C9448080F93F7
S11314301F93CF93DF93D62F8C01055E1F4FC1E01E
S113144062FB442740F94C2768E0C8010E94550E0E
S1131450D1FB442740F94C2767E0C8010E94550E90
S11314604D2F41704C2766E0C801DF91CF911F9149
S11314700F910C94550EFC01962F828D8F3F21F015
S1131480CF014B960C942E0D642F892F0C940C08CD
S1131490CF93DF93EC0140E06E810E940A0A81E061
S11314A090E00E949A0741E06E81CE010E940A0AF0
S11314B081E090E00E949A0740E06E81CE010E9494
S11314C00A0A84E690E0DF91CF910C949A07AF92D8
S11314D0BF92CF92DF92EF92FF920F931F93CF931D
S11314E0DF938C01FC01828D9801295F3F4F7901C4
S11314F0C62FD0E08F3F09F473C068013BE1C30EEF
S1131500D11CC6010E94900DF70140E050E0A1E01B
S1131510B0E0B190EE24E394F12CBD010B2C02C099
S1131520660F771F0A94E2F76095709586239723D8
S11315309E01042E02C0359527950A94E2F7217086
S1131540332702C0220F331FBA94E2F7822B932B66
S11315504F5F5F4F44305105E1F6E701F801068023
S113156002C0CC0FDD1F0A94E2F7C095D095C823C2
S1131570D923BE01C6010E94130D81E090E00E94B0
S11315809A07C701F801068002C0880F991F0A94C0
S1131590E2F7C82BD92BBE01C6010E94130D81E0CE
S11315A090E00E949A07B701F801068002C0660F16
S11315B0771F0A94E2F7609570956C237D23C6012A
S11315C00E94130D84E690E0DF91CF911F910F915B
S11315D0FF90EF90DF90CF90BF90AF900C949A075C
S11315E0C12CD12C570141E0F70161917F01C80161
S11315F00E943B0AAE010C2C02C0559547950A94F3
S1131600E2F74170F5016081C8010E940A0AFFEF08
S1131610CF1ADF0A24E0C216D10421F7C801DF91F2
S1131620CF911F910F91FF90EF90DF90CF90BF90DB
S1131630AF900C94480AAF92BF92CF92DF92EF9290
S1131640FF920F931F93CF93DF93EC015C0187E02C
S1131650A80EB11C00E010E0E62EF12C650141E07B
S1131660F50161915F01CE010E943B0AA701002EA2
S113167002C0559547950A94E2F74170F6016081DE
S1131680CE010E940A0A0F5F1F4F0830110531F77F
S1131690CE01DF91CF911F910F91FF90EF90DF90DA
S11316A0CF90BF90AF900C94480A1F93CF93DF93D1
S11316B0EC01162F6C810E940A0A6D816F3F21F0A4
S11316C040E0CE010E940A0A8C89612F84FF06C083
S11316D0CE01DF91CF911F910C941B0B70E084E03D
S11316E0759567958A95E1F7CE010E94670A612F87
S11316F0CE01DF91CF911F910C94670A40E00C94C6
S1131700550B61E00E947E0B80ED97E00C949A07E4
S1131710CF93DF93CDB7DEB728970FB6F894DEBF2B
S11317200FBECDBF9C0188E0E7E0F1E0DE01119639
S113173001900D928A95E1F7F901808D841710F4D8
S11317404FEF480FFE013196E40FF11DE40FF11D38
S11317509081690F6068C90128960FB6F894DEBFBE
S11317600FBECDBFDF91CF910C947E0BFC01658938
S1131770262F2460258B6C600C947E0B8F929F9295
S1131780AF92BF92CF92DF92EF92FF920F931F938B
S1131790CF93DF93EC01D42EC22E8A8D8F3F41F478
S11317A081E08D1508F05EC08C8988608C8B5AC0EE
S11317B087E292E00E948C0F8E01055E1F4FC801E4
S11317C00E94100D41E068E0C8010E942E0D41E026
S11317D066E0C8010E942E0D41E067E0C8010E9446
S11317E02E0D67E0CE010E94170A6D81662321F059
S11317F041E0C8010E942E0D41E06C81C8010E94A5
S11318002E0D41E06E81C8010E942E0D7E01E7E09D
S1131810EE0EF11C5E01FBE0AF0EB11CF70161910D
S11318207F0141E0C8010E942E0DEA14FB04B1F7C8
S11318307E01FFE0EF0EF11C5E0184E1A80EB11CF5
S1131840470140E0F70161917F01C8010E942E0D1C
S113185041E0F4016081C8010E94F20DEA14FB0426
S113186079F79ECFD88E198ECC2031F0F1E0DF12BB
S113187003C08C8984608C8B80E593EC0E949A076A
S113188040E06C81CE010E940A0A40E06E81CE01E4
S11318900E940A0A6D816F3F21F040E0CE010E9450
S11318A00A0A6C8964FD1DC063E0CE010E94670AC8
S11318B084E991E10E949A0763E0CE010E94670ADD
S11318C084E991E10E949A0763E0CE010E94670ACD
S11318D086E990E00E949A0762E0CE010E94670ABE
S11318E016C06062CE010E947E0B84E991E10E94E1
S11318F09A076C896062CE010E947E0B86E990E0B3
S11319000E949A076C896062CE010E947E0B6C89EA
S11319106062CE010E947E0B84E08D8BCE010E941A
S1131920B60BCE010E94810B82E08E8B66E0CE0165
S1131930DF91CF911F910F91FF90EF90DF90CF90A7
S1131940BF90AF909F908F900C947E0B41E00E94CB
S1131950550B81E090E00895DF92EF92FF920F9390
S11319601F93CF93DF937C012FE0E20EF11CC0E0C4
S1131970D0E02FE1D22E8C01055E1F4FF70161915B
S11319807F01C8010E94B90D282F30E00C2E02C03F
S1131990220F331F0A94E2F720953095D222219624
S11319A0C530D10559F78D2DDF91CF911F910F913E
S11319B0FF90EF90DF900895682F87E292E00C94F7
S11319C04D0FCF93DF93EC01683008F067E0688334
S11319D087E292E00E948C0F6881606270E087E287
S11319E092E00E94A80F80E00E94DC0C8FEF0E941E
S11319F0DC0C87E292E00E9424106881606270E04F
S1131A0087E292E00E94A80F81E00E94DC0C8FEF35
S1131A100E94DC0C87E292E0DF91CF910C942410B9
S1131A2060E00C94E10CCF93DF93D62FC72FFC0119
S1131A306081606270E087E292E00E94A80F82E118
S1131A400E94DC0C8D2F0E94DC0C8C2F0E94DC0C7D
S1131A5087E292E0DF91CF910C942410FF920F93D0
S1131A601F93CF93DF938C01C62FD42F603108F0DE
S1131A7051C0683020F0C850FF24F39401C0F12C09
S1131A80F8016081606270E087E292E00E94A80F32
S1131A908F2D0E94DC0C87E292E00E942410F80152
S1131AA06081606270E041E050E087E292E00E9471
S1131AB0211087E292E00E94C60E21E030E0D111AD
S1131AC009C0A90102C0440F551FCA95E2F7EA01F3
S1131AD0C82B09C0F90102C0EE0FFF1FCA95E2F737
S1131AE0EF01C095C823F8016081606270E087E26D
S1131AF092E00E94A80F8F2D0E94DC0C8C2F0E9474
S1131B00DC0C87E292E0DF91CF911F910F91FF905F
S1131B100C942410DF91CF911F910F91FF900895A1
S1131B20CF93DF93EC016881606270E087E292E01A
S1131B300E94A80F82E10E94DC0C87E292E00E94DE
S1131B4024106881606270E042E050E087E292E035
S1131B500E94211087E292E00E94C60EC82F87E2FD
S1131B6092E00E94C60E982F88278C2BDF91CF918C
S1131B7008950F931F93CF93DF938C01C62F603189
S1131B8058F5683018F0C850D3E101C0D2E1F8012B
S1131B906081606270E087E292E00E94A80F8D2F5E
S1131BA00E94DC0C87E292E00E942410F80160811C
S1131BB0606270E041E050E087E292E00E94211010
S1131BC087E292E00E94C60E992702C095958795F8
S1131BD0CA95E2F7817001C080E0DF91CF911F9137
S1131BE00F910895FF920F931F93CF93DF938C016E
S1131BF0C62FD42F603108F052C0683020F0C8508E
S1131C009DE0F92E02C08CE0F82EF801608160623C
S1131C1070E087E292E00E94A80F8F2D0E94DC0CF6
S1131C2087E292E00E942410F8016081606270E013
S1131C3041E050E087E292E00E94211087E292E0C6
S1131C400E94C60E21E030E0D13049F4A90102C05F
S1131C50440F551FCA95E2F7EA01C82B09C0F901E0
S1131C6002C0EE0FFF1FCA95E2F7EF01C095C8232B
S1131C70F8016081606270E087E292E00E94A80F40
S1131C808F2D0E94DC0C8C2F0E94DC0C87E292E0EA
S1131C90DF91CF911F910F91FF900C942410DF914D
S1131CA0CF911F910F91FF900895EF92FF920F93A0
S1131CB01F93CF93DF938C01C62FE42E603108F07D
S1131CC056C0683028F0C850D5E193E1F92E03C01E
S1131CD0D4E182E1F82EF8016081606270E087E26D
S1131CE092E00E94A80F8D2F0E94DC0C87E292E004
S1131CF00E942410F8016081606270E041E050E0CD
S1131D0087E292E00E94211087E292E00E94C60ED0
S1131D10F1E021E030E0EF1209C0A90102C0440F54
S1131D20551FCA95E2F7EA01C82B09C0F90102C0A0
S1131D30EE0FFF1FCA95E2F7EF01C095C823F80123
S1131D406081606270E087E292E00E94A80F8F2DAC
S1131D500E94DC0C8C2F0E94DC0C87E292E0DF9165
S1131D60CF911F910F91FF90EF900C942410DF916D
S1131D70CF911F910F91FF90EF90089580915B0296
S1131D8090E020915C02821B9109089590915C027D
S1131D9080915B02981750F4E92FF0E0E35AFD4F6D
S1131DA0208130E09F5F90935C0202C02FEF3FEFF1
S1131DB0C9010895E0915C0280915B02E81730F458
S1131DC0F0E0E35AFD4F808190E008958FEF9FEF9C
S1131DD008950895CF93DF93EC01E0913302F091DD
S1131DE034023097F1F090915C0280915B02981775
S1131DF0C0F090E0292F30E02617370754F4DE01B5
S1131E00A20FB31F4C91D901A35ABD4F4C939F5FAE
S1131E10F1CF10925C0260935B02CB01DF91CF9112
S1131E200994DF91CF910895E0913502F091360243
S1131E30309729F0109239021092380209940895CB
S1131E40CF92DF92EF92FF920F931F93CF93DF9382
S1131E507C01CB018A0120913702222389F0EB0116
S1131E606B01C40ED51ECC15DD0569F06991D7014F
S1131E70ED91FC910190F081E02DC7010995F3CF1C
S1131E80642F0E94E810C801DF91CF911F910F9138
S1131E90FF90EF90DF90CF900895CF93DF931F9240
S1131EA0CDB7DEB76983209137022223D1F0209188
S1131EB03802203240F021E030E0FC0133832283F9
S1131EC080E090E015C080913902E82FF0E0E65CF4
S1131ED0FD4F998190838F5F8093390280933802FC
S1131EE005C061E0CE0101960E94E81081E090E017
S1131EF00F90DF91CF910895FC011382128288EE36
S1131F0093E0A0E0B0E084839583A683B7838AEE50
S1131F1091E091838083089510925C0210925B0299
S1131F2010923902109238020E942C1084E19FE032
S1131F300E9415118AEE9EE00C94101181E08093AA
S1131F40370260935A0210923902109238020895AF
S1131F500C949E0F0F93062F21E0409138026AE300
S1131F6072E080915A020E949210109239021092EB
S1131F703802109237020F9108954F925F926F9238
S1131F807F92AF92BF92CF92EF92FF920F931F93E3
S1131F90CF93DF935C01F62ED42F28013901EE2074
S1131FA021F10E949E0FCE2DC43008F0C3E0C15031
S1131FB0C0F028E0C29FC0011124A301920104C013
S1131FC056954795379527958A95D2F7CA01B90151
S1131FD0D501ED91FC910190F081E02DC5010995A9
S1131FE0E6CF60E0C5010E94AA0F4D2FD13208F060
S1131FF040E22C2D6DE572E08F2D0E944A10109264
S11320005C0280935B02DF91CF911F910F91FF904F
S1132010EF90CF90BF90AF907F906F905F904F9074
S11320200895CF92EF920F931F93C22EE12C00E0FC
S113203010E098010E94BD0F1F910F91EF90CF9077
S1132040089521E00C94111061E00C94AA0F87E22A
S113205092E00C947C0F08951092EA0281E0809340
S1132060E8021092E70261E082E10E94480861E020
S113207083E10E944808E9EBF0E080818E7F808351
S113208080818D7F808388E48093B80085E4809389
S1132090BC000895413208F043C09091EA029111C6
S11320A0FCCF91E09093EA022093E8022FEF209373
S11320B07D021092C202240F2093C1029093E90280
S11320C09091E902880F892B8093E9028091E702BD
S11320D0813061F41092E7028091E9028093BB00A1
S11320E08091BC0083FDF8CF85EC01C085EE809320
S11320F0BC008091EA028130E1F38091C20284172E
S113210010F44091C202A3ECB2E0962FFB018E2F93
S1132110891B841718F48D918193F9CF842F089526
S113212080E008950F93413208F04AC09091EA028A
S11321309111FCCF32E03093EA020093E8023FEFC2
S113214030937D021092C2024093C102562FA3EC39
S1132150B2E0FB013E2F351B341718F431913D9347
S1132160F9CF1092E9023091E902880F832B809312
S1132170E9028091E702813061F41092E7028091D4
S1132180E9028093BB008091BC0083FDF8CF85EC0D
S113219001C085EE8093BC00222321F08091EA02E5
S11321A08230D1F380917D028F3F79F080917D025E
S11321B0803241F080917D02803331F094E005C09B
S11321C091E003C092E001C093E0892F0F9108953C
S11321D040919F02262F30E0240F311D213231051A
S11321E0DCF42091EA022430C9F4FC0180E090E0A0
S11321F0861758F430919F022191DC01AF55BD4FF1
S1132200A30FB11D2C930196F3CF80919F02680F09
S113221060939F0280E0089581E0089582E008952C
S11322209093E4028093E30208959093E6028093EE
S1132230E502089585ED8093BC008091BC0084FD87
S1132240FCCF1092EA02089585EC8093BC001092B2
S1132250EA0208951F920F920FB60F9211242F9342
S11322603F934F935F936F937F938F939F93AF931A
S1132270BF93EF93FF938091B900887F803609F470
S11322809EC078F5883209F45DC090F4803109F479
S113229056C038F4882309F4F5C0883009F44FC0D7
S11322A0F5C0883109F44EC0803209F45FC0EEC035
S11322B0803409F46AC058F4803309F457C0883371
S11322C009F0E4C080937D020E942411DFC08035B0
S11322D009F44FC0883509F45DC0883409F0D6C0CC
S11322E0D3C0883909F4C4C0A8F4883709F467C096
S11322F038F4883609F463C0803709F460C0C6C076
S1132300883809F4B5C0803909F45FC0803809F011
S1132310BDC05BC0803B09F483C038F4803A09F443
S113232066C0883A09F47CC0B1C0803C09F4A4C0FA
S1132330883C09F4A1C0883B09F487C0A7C08091F8
S1132340E90210C09091C2028091C102981770F501
S1132350E091C20281E08E0F8093C202F0E0ED535F
S1132360FD4F80818093BB0085EC83C080937D0208
S11323708BC0E091C20281E08E0F8093C2028091F3
S1132380BB00F0E0ED53FD4F80839091C202809139
S1132390C1026BC0E091C20281E08E0F8093C20241
S11323A08091BB00F0E0ED53FD4F80838091E80203
S11323B081116AC081E08093E70284EA5EC083E011
S11323C08093EA0210927E02CFCF80917E02803207
S11323D008F04EC0E0917E0281E08E0F80937E0271
S11323E08091BB00F0E0E158FD4F8083BDCF0E9497
S11323F0241180917E02803230F4E0917E02F0E07C
S1132400E158FD4F108260917E0270E0E091E3029A
S1132410F091E4028FE792E0099510927E0236C0B3
S113242084E08093EA021092A00210929F02E0914D
S1132430E502F091E602099580919F02811105C0A1
S113244081E080939F021092A102E091A00281E0BA
S11324508E0F8093A002F0E0EF55FD4F80818093B2
S1132460BB009091A00280919F02981708F47CCF42
S113247085E88093BC000AC085EC8093BC00109270
S1132480EA0204C010927D020E941A11FF91EF919A
S1132490BF91AF919F918F917F916F915F914F9178
S11324A03F912F910F900FBE0F901F901895EE0F34
S11324B0FF1F0590F491E02D09940F931F93CF9380
S11324C0DF938230910510F482E090E0E091ED0218
S11324D0F091EE0220E030E0A0E0B0E0309719F196
S11324E0408151810281138148175907C8F084172C
S11324F0950769F4109731F012960C93129713967E
S11325001C9327C00093ED021093EE0222C0211504
S1132510310519F04217530718F49A01BD01EF0170
S1132520DF01F801DBCF21153105F9F0281B390B48
S11325302430310580F48A819B816115710521F075
S1132540FB019383828304C09093EE028093ED0297
S1132550FE01329644C0FE01E20FF31F8193919372
S113256022503109398328833AC02091EB023091FB
S1132570EC02232B41F420910201309103013093AA
S1132580EC022093EB02209100013091010121150E
S1132590310541F42DB73EB7409104015091050136
S11325A0241B350BE091EB02F091EC02E217F307E8
S11325B0A0F42E1B3F0B2817390778F0AC014E5FAF
S11325C05F4F2417350748F04E0F5F1F5093EC02FE
S11325D04093EB028193919302C0E0E0F0E0CF01DD
S11325E0DF91CF911F910F910895CF93DF930097BF
S11325F009F481C0FC01329713821282A091ED028A
S1132600B091EE02109781F420813181820F931FE3
S11326102091EB023091EC022817390751F5F09321
S1132620EC02E093EB0267C0ED0120E030E0CE174E
S1132630DF0740F44A815B819E0141155105F1F0A9
S1132640EA01F5CFD383C28340815181840F951F62
S1132650C817D90759F488819981840F951F029668
S1132660918380838A819B819383828321153105A1
S113267029F4F093EE02E093ED023DC0E901FB83FF
S1132680EA8349915991C40FD51FEC17FD0761F4F2
S113269080819181840F951F0296E9019983888333
S11326A0828193819B838A83E0E0F0E012968D918E
S11326B09C911397009719F0FD01DC01F7CF8D91E0
S11326C09C9111979D012E5F3F4F820F931F209184
S11326D0EB023091EC022817390769F4309729F49A
S11326E01092EE021092ED0202C013821282B09395
S11326F0EC02A093EB02DF91CF910895A0E0B0E04B
S1132700E4E8F3E10C940B17EC01009721F4CB01FE
S11327100E945D12B4C0FC01E60FF71F9C01225019
S11327203109E217F30708F4A8C0D9010D911C91EF
S1132730119706171707B0F00530110508F49BC070
S1132740C80104978617970708F495C00250110929
S1132750061B170B019311936D937C93CF010E9479
S1132760F51289C05B01A01AB10A4C01800E911EBA
S1132770A091ED02B091EE02612C712CE12CF12CB0
S1132780109709F446C08D919C911197A815B9052D
S1132790B1F56C0142E0C40ED11CCA14DB0478F11B
S11327A04C018A189B08640142E0C40ED11C1296A5
S11327B0BC9012971396AC91B5E0CB16D10440F0BF
S11327C0B282A38391828082D9016D937C9309C0E4
S11327D00E5F1F4F800F911FF90191838083EB2DB2
S11327E0FA2FE114F10431F0D7011396FC93EE9320
S11327F0129741C0F093EE02E093ED023CC06816DC
S1132800790608F43C017D0112960D90BC91A02D2F
S1132810B7CF8091EB029091EC0288169906E1F40F
S113282066167706C8F48091000190910101009723
S113283041F48DB79EB74091040150910501841B6A
S1132840950BE817F907C8F4F093EC02E093EB0258
S1132850F901718360830FC0CB010E945D127C017A
S1132860009759F0A801BE010E944414CE010E94B1
S1132870F512C70104C0CE0102C080E090E0CDB7DC
S1132880DEB7EEE00C942717FB01DC0102C00190D7
S11328900D9241505040D8F70895FB01DC0101909E
S11328A00D920020E1F70895AEE0B0E0EAE5F4E12E
S11328B00C9415170D891E8986E08C831A8309836D
S11328C08FEF9FE79E838D83AE01475E5F4F6F89D5
S11328D0788DCE0101960E947614EF81F885E00F81
S11328E0F11F10822E96E4E00C943117ABE0B0E0B7
S11328F0ECE7F4E10C9407176C017B018A01FC01FD
S113290017821682838181FFCCC1CE0101963C01DE
S1132910F6019381F70193FD859193FF81917F01E6
S1132920882309F4BAC1853239F493FD859193FF64
S113293081917F01853229F4B60190E00E946D16E1
S1132940E7CF912C212C312CFFE1F315D8F08B32F9
S113295079F038F4803279F08332A1F4232D2061A8
S11329601DC08D3261F0803369F4232D216016C0BF
S1132970832D8260382EE32DE4603E2E2AC0F32D91
S1132980F8601DC037FC2DC020ED280F2A3040F020
S11329908E32B9F436FC81C1232D2064322E19C045
S11329A036FE06C08AE0989E200D1124922E11C096
S11329B0EAE02E9E200D1124222EF32DF0623F2EEC
S11329C008C08C3621F4832D8068382E02C08836E6
S11329D041F4F70193FD859193FF81917F0181116A
S11329E0B3CF982F9F7D9554933028F40C5F1F4FDD
S11329F09FE399830DC0833631F0833771F08335BB
S1132A0009F059C021C0F801808189830E5F1F4FEE
S1132A1088248394912C530113C02801F2E04F0EB3
S1132A20511CF801A080B18036FE03C0692D70E00E
S1132A3002C06FEF7FEFC5010E9462164C01820154
S1132A40F32DFF773F2E16C0280122E0420E511CC1
S1132A50F801A080B18036FE03C0692D70E002C089
S1132A606FEF7FEFC5010E9457164C01F32DF068FC
S1132A703F2E820133FC1BC0822D90E088169906FC
S1132A80B0F4B60180E290E00E946D162A94F4CF6F
S1132A90F50137FC859137FE81915F01B60190E025
S1132AA00E946D1621102A9421E0821A9108811443
S1132AB0910471F7E8C0843611F0893641F5F801C4
S1132AC037FE07C060817181828193810C5F1F4F43
S1132AD008C060817181072E000C880B990B0E5F72
S1132AE01F4FF32DFF763F2E97FF09C090958095D9
S1132AF0709561957F4F8F4F9F4FF0683F2E2AE06E
S1132B0030E0A3010E94A916882E861845C0853797
S1132B1031F4232D2F7EB22E2AE030E025C0932DF0
S1132B20997FB92E8F36C1F018F4883579F0B5C085
S1132B30803719F0883721F0B0C0E92FE061BE2E4C
S1132B40B4FE0DC0FB2DF460BF2E09C034FE0AC0D4
S1132B50292F2660B22E06C028E030E005C020E10F
S1132B6030E002C020E132E0F801B7FE07C0608126
S1132B707181828193810C5F1F4F06C060817181D6
S1132B8080E090E00E5F1F4FA3010E94A916882EDB
S1132B908618FB2DFF773F2E36FE0DC0232D2E7F8A
S1132BA0A22E891458F434FE0BC032FC09C0832DC4
S1132BB08E7EA82E05C0B82CA32C03C0B82C01C04F
S1132BC0B92CA4FE0FC0FE01E80DF11D80818033F5
S1132BD021F49A2D997EA92E09C0A2FE06C0B394B1
S1132BE0B39404C08A2D867809F0B394A3FC11C071
S1132BF0A0FE06C0B21488F4280C922C9B180EC0B8
S1132C00B21460F4B60180E290E00E946D16B394B1
S1132C10F7CFB21418F42B1802C0982C212CA4FE60
S1132C2010C0B60180E390E00E946D16A2FE17C0AA
S1132C30A1FC03C088E790E002C088E590E0B601FB
S1132C400CC08A2D867859F0A1FE02C08BE201C027
S1132C5080E2A7FC8DE2B60190E00E946D16891413
S1132C6038F4B60180E390E00E946D169A94F7CF91
S1132C708A94F301E80DF11D8081B60190E00E9471
S1132C806D168110F5CF222009F442CEB60180E200
S1132C9090E00E946D162A94F6CFF6018681978102
S1132CA002C08FEF9FEF2B96E2E10C942317FC01F7
S1132CB00590615070400110D8F7809590958E0F63
S1132CC09F1F0895FC016150704001900110D8F7D6
S1132CD0809590958E0F9F1F08950F931F93CF9308
S1132CE0DF93FB01238121FD03C08FEF9FEF2CC0F5
S1132CF022FF16C04681578124813581421753072C
S1132D0044F4A081B1819D012F5F3F4F3183208323
S1132D108C93268137812F5F3F4F3783268314C0DE
S1132D208B01EC01FB010084F185E02D0995892BD1
S1132D30E1F6D80116968D919C91179701961796F6
S1132D409C938E931697CE01DF91CF911F910F9193
S1132D500895FA01AA27283051F1203181F1E8942D
S1132D606F936E7F6E5F7F4F8F4F9F4FAF4FB1E07A
S1132D703ED0B4E03CD0670F781F891F9A1FA11D75
S1132D80680F791F8A1F911DA11D6A0F711D811D76
S1132D90911DA11D20D009F468943F912AE0269F3B
S1132DA011243019305D3193DEF6CF010895462F9A
S1132DB04770405D4193B3E00FD0C9F7F6CF462F7B
S1132DC04F70405D4A3318F0495D31FD40524193E4
S1132DD002D0A9F7EACFB4E0A695979587957795A1
S1132DE06795BA95C9F700976105710508959B0128
S1132DF0AC010A2E06945795479537952795BA95B1
S1132E00C9F7620F731F841F951FA01D08952F9289
S1132E103F924F925F926F927F928F929F92AF9266
S1132E20BF92CF92DF92EF92FF920F931F93CF93B3
S1132E30DF93CDB7DEB7CA1BDB0B0FB6F894DEBF4A
S1132E400FBECDBF09942A88398848885F846E8470
S1132E507D848C849B84AA84B984C884DF80EE80BA
S1132E60FD800C811B81AA81B981CE0FD11D0FB6C3
S1132E70F894DEBF0FBECDBFED010895F894FFCFE7
S1132E800000EF022000010000400014005400552F
S1132E90703A4F70656E20446E436C6F7365204CBE
S1132EA066743A4461792052743A4E6967687400D2
S1132EB04D61696E204D656E750053656C3A4573BE
S1132EC063617065004F70656E696E6720446F6F53
S1132ED07200436C6F73696E6720446F6F720044B5
S1132EE06179204D6F64652020202020202020540B
S1132EF06D703A25734C68743A2573004E6967689F
S1132F0074204D6F6465202020202020546D703A79
S1132F1025734C68743A2573005741524E494E4705
S1132F203A2053414645545920414C45525420546B
S1132F305249474745524544200055703A4F706501
S1132F406E20446E436C6F73654C66743A446179C9
S1132F502052743A4E696768740000000000A60CA1
S1132F60AB06A706AA06000000004D0F200FA70617
S10B2F70E90EBE0EC60EDA0ED6
S9030000FC
