S013000064656D6F5F616E616C6F672E737265639B
S11300000C9460000C9427070C944E070C94880001
S11300100C9488000C9488000C9488000C9488003C
S11300200C9488000C9488000C9488000C9488002C
S11300300C9488000C9488000C9488000C9488001C
S11300400C9475070C9488000C9404060C943606E2
S11300500C9488000C9488000C9488000C948800FC
S11300600C9493110C948800000000080002010015
S1130070000304070000000000000000010204085F
S113008010204080010204081020010204081020FE
S1130090040404040404040402020202020203032A
S11300A00303030300000000250028002B000000C8
S11300B00000240027002A00A70466069010B70455
S11300C011241FBECFEFD8E0DEBFCDBF12E0A0E009
S11300D0B1E0ECEAFFE202C005900D92AE35B10743
S11300E0D9F724E0AEE5B2E001C01D92A030B2071A
S11300F0E1F710E0CFE5D0E004C02197FE010E94B3
S1130100E212CC35D107C9F70E9494060C94C917A2
S11301100C940000CF93DF93EC01C6960E940A0969
S1130120CE01C096DF91CF910C940A09EF92FF9211
S11301300F931F93CF93DF93EC017B018A010E94FD
S1130140EA0B40E060E0CE010E94F10BB701CE0162
S11301500E94E20641E060E0CE010E94F10BB8018A
S1130160CE010E94E20640E060E0CE01DF91CF9133
S11301701F910F91FF90EF900C94F10B0F931F932D
S1130180CF93DF93CDB7DEB72C970FB6F894DEBFCD
S11301900FBECDBF8C0163E372E0CE0107960E94CF
S11301A07809F80182A593A5009719F0019741F009
S11301B00EC0B801605D7F4FCE0107960E94CA0948
S11301C0B8016A5C7F4FCE0107960E94CA09F80104
S11301D046A557A584A595A54817590714F415A64F
S11301E014A6F80124A535A54217530741F42B851D
S11301F03C8594E0440F551F9A95E1F70AC02F5FA0
S11302003F4F84E0220F331F8A95E1F7A901405143
S11302105109BE01695F7F4FCE0101960E940D0A0C
S1130220BE016F5F7F4FCE0107960E94EA09CE019F
S113023001960E940A09F80142A560E0C8010E94E3
S1130240F10BBE01695F7F4FC8010E94E20640E0E6
S113025060E0C8010E94F10BF80104A515A50F5F29
S11302601F4FCE0107960E940A09C8012C960FB6AB
S1130270F894DEBF0FBECDBFDF91CF911F910F91D8
S113028008954F925F926F927F928F929F92AF9256
S1130290BF92CF92DF92EF92FF920F931F93CF936F
S11302A0DF93CDB7DEB72C970FB6F894DEBF0FBE41
S11302B0CDBF4C013B012A01B22EC0960E94CA094F
S11302C0B201C401C6960E94CA09F401F7A6E6A6C3
S11302D0D3A6C2A6F80180819181F401978F868FFD
S11302E0F80182819381F40191A380A3F8018481B0
S11302F09581F40193A382A3F80186819781F40187
S113030095A384A3F80180859185F40197A386A31E
S11303106B2DC4010E94800AF401A4AEA1101EC07A
S113032015A614A6B201CE0101960E94E109B301FB
S1130330CE0107960E94E109AE014F5F5F4FBE01F7
S1130340695F7F4FC4010E949600CE0107960E9408
S11303500A09CE0101960E940A0906C0C4010E943E
S1130360BE00F40195A784A72C960FB6F894DEBFBF
S11303700FBECDBFDF91CF911F910F91FF90EF90F2
S1130380DF90CF90BF90AF909F908F907F906F90B1
S11303905F904F9008958F929F92AF92CF92DF9289
S11303A0EF92FF920F931F93CF93DF93CDB7DEB7F6
S11303B0AC970FB6F894DEBF0FBECDBF4C01C80199
S11303C0442321F0C4010E94BE009EC08E010F5F31
S11303D01F4F6230710559F1ECF46115710509F490
S11303E059C06130710509F055C01A8219828FEF26
S11303F09FEF9C838B839E838D8398878F839A87BB
S113040089876DE371E0CE0181960E94780968E4E2
S113041071E021C06330710559F164307105D1F583
S11304209F938F933F932F9380E891E027C01A8284
S113043019828FEF9FEF9C838B839E838D83988794
S11304408F839A8789876DE371E0CE0181960E943C
S1130450780965E571E0CE0187960E947809A12CA0
S1130460CC24CA94DC2CE12CF12C23E030E03BC0FA
S11304709F938F933F932F9382E691E09F938F9363
S11304801F930F930E94DF140FB6F894DEBF0FBEC4
S1130490CDBF3AC08FEF9FEF9A83898381E090E0CC
S11304A09C838B8382E090E09E838D8383E090E045
S11304B098878F8384E090E09A87898763E171E06D
S11304C0CE0181960E94780963E371E0CE0187969C
S11304D00E947809A12CCC24C394D12CEE24E3945B
S11304E0F12C22E030E0AE014F5D5F4FBE01695D4B
S11304F07F4FC4010E944101CE0187960E940A09E0
S1130500CE0181960E940A09AC960FB6F894DEBF1C
S11305100FBECDBFDF91CF911F910F91FF90EF9050
S1130520DF90CF90AF909F908F9008950F931F937B
S1130530CF93DF93EC01FB01828193819B838A83B8
S113054084E492E09983888384818C8385818D837C
S113055086818E8388E03796DE01179601900D928E
S11305608A95E1F785E0FB013F96DE011F96019035
S11305700D928A95E1F7FB0184898C8B85898D8B9B
S113058086898E8B87898F8B808D888F818D898FCB
S1130590828D8A8F838D8B8F63E372E0CE01C09648
S11305A00E94780963E372E0CE01C6960E9478093E
S11305B020E042E060E1CE010E94270CCE010E94BF
S11305C0EA0B03E312E0980140E060E070E0CE0142
S11305D00E94CB01DF91CF911F910F9108950F934A
S11305E01F93CF93DF93EC010E94150D80FF06C08B
S11305F06E8D7F8D6F3F9FEF790701F583FF06C0F6
S113060068A179A16F3F9FEF7907C1F482FF06C00B
S11306106AA17BA16F3F9FEF790781F484FF06C035
S11306206CA17DA16F3F9FEF790741F481FF12C058
S11306306EA17FA16F3F8FEF780761F003E312E0B3
S1130640980140E0CE010E94CB01DF91CF911F9130
S11306500F910895CE01DF91CF911F910F910C94CA
S1130660BE000F931F93CF93DF93CDB7DEB7C95569
S1130670D1090FB6F894DEBF0FBECDBF26E040E827
S113068055E260E070E082E992E00E949B0580E61A
S113069092E0FC012281338122963FAF2EAF229754
S11306A024E432E03FAF2EAF248123962FAF23976B
S11306B0258124962FAF2497268125962FAF259741
S11306C028E0E7E6F2E0DE01AB5BBF4F01900D925C
S11306D02A95E1F725E0EFE6F2E0DE01A35BBF4FE8
S11306E001900D922A95E1F7FC01248963962FAFBE
S11306F06397258964962FAF6497268965962FAFF3
S11307006597278966962FAF6697208D67962FAFDA
S11307106797218D68962FAF6897228D69962FAFC2
S11307206997838D6A968FAF6A97BE01625C7F4F2B
S11307308E010F5F1F4FC8010E94960210935F0243
S113074000935E0260E08AE00E949E0860E089E017
S11307500E949E0862E082E00E949E0843E050E00E
S113076066E974E080E00E94070780E00E94720856
S113077081E080937D0210927C026EE971E082E94F
S113078092E00E94F406C8010E948A00C75ADF4F13
S11307900FB6F894DEBF0FBECDBFDF91CF911F918E
S11307A00F9108950F931F9368EB7BE080E090E036
S11307B00E94F0076CEA71E082E992E00E94F4067C
S11307C0209190023091910280918E0290918F023B
S11307D02817390739F064EB71E082E992E00E944E
S11307E0F40615C00E94BF0700918A0210918B0283
S11307F020918C0230918D02DC01CB01801B910B86
S1130800A20BB30B893B9B40A105B105C0F08091BD
S11308105E0290915F020E94EF0280918E0290919D
S11308208F0290939102809390020E94BF0760937D
S11308308A0270938B0280938C0290938D021F9195
S11308400F9108951F93CF93DF9361E08AE00E9494
S11308509E0861E089E00E949E0863ED71E082E9F0
S113086092E00E94F40661E08AE00E94DA0860E007
S113087089E00E94DA08C8EFDAE210E080917D0294
S1130880882399F061E070E080E090E00E94F00736
S1130890112349F060E08AE00E94DA0860E089E010
S11308A00E94DA0802C0219749F760E08AE00E94BA
S11308B0DA0860E089E00E94DA0860E08AE00E94D9
S11308C09E0860E089E0DF91CF911F910C949E080F
S11308D060E089E00E94DA0860E08AE00E94DA08B9
S11308E060E089E00E949E0860E08AE00E949E0821
S11308F068EE73E080E090E00E94F00762E072E04E
S113090082E992E00E94F40688EE93E00E942204B9
S113091060E089E00E949E0860E08AE00E949E08F0
S11309206CE072E082E992E00C94F40680917C021F
S1130930882361F060E089E00E94DA0860E08AE0E0
S11309400E94DA080E94680410927D02089563E30D
S113095072E084E892E00E94780963E372E08EE733
S113096092E00E94780980E692E00C94520A8EE7A5
S113097092E00E940A0984E892E00C940A09FC01BE
S1130980918D228D892F90E0805C9F4F821B91096D
S11309908F7399270895FC01918D828D981731F0FA
S11309A0828DE80FF11D858D90E008958FEF9FEF04
S11309B00895FC01918D828D981761F0828DDF017D
S11309C0A80FB11D5D968C91928D9F5F9F73928F3E
S11309D090E008958FEF9FEF0895FC01538D448DAF
S11309E0252F30E0842F90E0821B930B541710F0D6
S11309F0CF960895019708958CE596E0892B49F0E8
S1130A0080E090E0892B29F00E945C0681110C940F
S1130A1000000895FC01848DDF01A80FB11DA35AC5
S1130A20BF4F2C91848D90E001968F739927848F0A
S1130A30A689B7892C93A089B1898C91837080642D
S1130A408C93938D848D981306C00288F389E02DCE
S1130A5080818F7D80830895EF92FF920F931F937F
S1130A60CF93DF93EC0181E0888F9B8D8C8D98135D
S1130A7005C0E889F989808185FD26C0F62E0B8D95
S1130A8010E00F5F1F4F0F731127E02E8C8DE812BB
S1130A900CC00FB607FCFACFE889F989808185FF7D
S1130AA0F5CFCE010E940A05F1CF8B8DFE01E80F30
S1130AB0F11DE35AFF4FF0829FB7F8940B8FEA8938
S1130AC0FB89808180620AC09FB7F894EE89FF8910
S1130AD06083E889F98980818370806480839FBF03
S1130AE081E090E0DF91CF911F910F91FF90EF9003
S1130AF00895CF93DF93EC01888D8823C9F0EA89A8
S1130B00FB89808185FD05C0A889B9898C9186FD02
S1130B100FC00FB607FCF5CF808185FFF2CFA889FF
S1130B20B9898C9185FFEDCFCE010E940A05E7CFEC
S1130B30DF91CF910895CF92DF92EF92FF921F93AE
S1130B40CF93DF93EC016A017B01122FE889F989C5
S1130B5082E080834115514E61057105B1F060E07A
S1130B6079E08DE390E0A70196010E94C012DA01BA
S1130B70C9010197A109B109B695A79597958795DC
S1130B809C01211580E13807A8F0E889F9891082D1
S1130B9060E874E88EE190E0A70196010E94C0121B
S1130BA0DA01C9010197A109B109B695A7959795ED
S1130BB087959C01EC85FD853083EE85FF85208338
S1130BC0188EEC89FD891083EA89FB898081806114
S1130BD08083EA89FB89808188608083EA89FB8934
S1130BE0808180688083EA89FB8980818F7D80830E
S1130BF0DF91CF911F91FF90EF90DF90CF900895F8
S1130C0080E090E0089508951F920F920FB60F921E
S1130C1011242F938F939F93EF93FF93E091A2025C
S1130C20F091A3028081E091A802F091A90282FDD3
S1130C3012C090818091AB028F5F8F732091AC02C0
S1130C40821751F0E091AB02F0E0EE56FD4F958F24
S1130C508093AB0201C08081FF91EF919F918F91AE
S1130C602F910F900FBE0F901F9018951F920F9207
S1130C700FB60F9211242F933F934F935F936F936B
S1130C807F938F939F93AF93BF93EF93FF9382E9E7
S1130C9092E00E940A05FF91EF91BF91AF919F915D
S1130CA08F917F916F915F914F913F912F910F9011
S1130CB00FBE0F901F90189582E992E00E94BF0426
S1130CC021E0892B09F420E0822F0895E2E9F2E083
S1130CD01382128288EE93E0A0E0B0E084839583CF
S1130CE0A683B78383E292E09183808385EC90E0CE
S1130CF09587848784EC90E09787868780EC90E0E2
S1130D00918B808B81EC90E0938B828B82EC90E0D2
S1130D10958B848B86EC90E0978B868B118E128E4C
S1130D20138E148E089508950E9437080E94930626
S1130D300E943103CCEFD4E00E94D2032097E1F368
S1130D400E94FC04F9CFCF92DF92EF92FF920F93AF
S1130D501F93CF93DF936C017A018B01C0E0D0E045
S1130D60CE15DF0581F0D8016D918D01D601ED918D
S1130D70FC910190F081E02DC6010995892B11F0B9
S1130D802196EECF7E01C701DF91CF911F910F9184
S1130D90FF90EF90DF90CF9008956115710579F081
S1130DA0FB0101900020E9F73197AF01461B570B77
S1130DB0DC01ED91FC910280F381E02D099480E047
S1130DC090E00895DB0114964D915C9115976D9117
S1130DD07C91DC01ED91FC910280F381E02D09947A
S1130DE061E372E00C94CD060F931F93CF93DF93CE
S1130DF0EC010E94CD068C01CE010E94F006800F0A
S1130E00911FDF91CF911F910F9108950895823022
S1130E10E8F4E82FF0E0EE0FFF1FEA5FFE4F718366
S1130E206083813041F0809169008C7F482B40932E
S1130E306900E89A089580916900837F440F551FE3
S1130E40440F551F482B40936900E99A08951F9257
S1130E500F920FB60F9211242F933F934F935F93EA
S1130E606F937F938F939F93AF93BF93EF93FF936E
S1130E70E0910601F09107010995FF91EF91BF916F
S1130E80AF919F918F917F916F915F914F913F911E
S1130E902F910F900FBE0F901F9018951F920F92D5
S1130EA00FB60F9211242F933F934F935F936F9339
S1130EB07F938F939F93AF93BF93EF93FF93E091AF
S1130EC00801F09109010995FF91EF91BF91AF914C
S1130ED09F918F917F916F915F914F913F912F914E
S1130EE00F900FBE0F901F9018951F920F920FB680
S1130EF00F9211242F933F938F939F93AF93BF939C
S1130F008091300390913103A0913203B091330367
S1130F1030912F0323E0230F2D3720F40196A11DD8
S1130F20B11D05C026E8230F0296A11DB11D209313
S1130F302F038093300390933103A0933203B09333
S1130F4033038091340390913503A0913603B0911B
S1130F5037030196A11DB11D80933403909335038B
S1130F60A0933603B0933703BF91AF919F918F91B4
S1130F703F912F910F900FBE0F901F9018952FB790
S1130F80F894609130037091310380913203909111
S1130F9033032FBF08953FB7F894809134039091A1
S1130FA03503A0913603B091370326B5A89B05C03D
S1130FB02F3F19F00196A11DB11D3FBFBA2FA92FD4
S1130FC0982F8827820F911DA11DB11DBC01CD0151
S1130FD042E0660F771F881F991F4A95D1F708953D
S1130FE08F929F92AF92BF92CF92DF92EF92FF9235
S1130FF06B017C010E94CB074B015C01C114D1043D
S1131000E104F10401F10E9494100E94CB07DC0179
S1131010CB0188199909AA09BB09883E9340A10507
S1131020B10560F321E0C21AD108E108F10888EEA5
S1131030880E83E0981EA11CB11CC114D104E104E4
S1131040F10419F7DBCFFF90EF90DF90CF90BF90C2
S1131050AF909F908F9008958230910538F0880F5B
S1131060991F880F991F05970197F1F708957894B0
S113107084B5826084BD84B5816084BD85B5826099
S113108085BD85B5816085BDEEE6F0E08081816037
S11310908083E1E8F0E01082808182608083808137
S11310A081608083E0E8F0E0808181608083E1EB0F
S11310B0F0E0808184608083E0EBF0E080818160F7
S11310C08083EAE7F0E080818460808380818260AD
S11310D08083808181608083808180688083109296
S11310E0C100089580930A010895833081F028F4A3
S11310F0813099F08230A1F008958730A9F08830CA
S1131100B9F08430D1F4809180008F7D03C0809148
S113111080008F7780938000089584B58F7702C014
S113112084B58F7D84BD08958091B0008F7703C00E
S11311308091B0008F7D8093B0000895CF93DF93AA
S113114090E0FC01E458FF4F2491FC01E057FF4F6D
S11311508491882361F190E0880F991FFC01E25586
S1131160FF4FC591D491FC01EC55FF4FA591B4916B
S1131170611109C09FB7F8948881209582238883E0
S1131180EC912E230BC0623061F49FB7F8948881F0
S1131190322F309583238883EC912E2B2C939FBF81
S11311A006C08FB7F894E8812E2B28838FBFDF9178
S11311B0CF9108951F93CF93DF93282F30E0F90147
S11311C0E859FF4F8491F901E458FF4FD491F90194
S11311D0E057FF4FC491CC23C1F0162F81110E9418
S11311E07508EC2FF0E0EE0FFF1FEC55FF4FA591B3
S11311F0B4919FB7F894111104C08C91D095D82361
S113120002C0EC91DE2BDC939FBFDF91CF911F9145
S113121008950895FC01808191810C948013CF93EB
S1131220DF93EC0188819981009711F00E9480136B
S1131230198218821D821C821B821A82DF91CF912F
S113124008950F931F93CF93DF93EC018B016F5F8E
S11312507F4F888199810E940914009731F0998306
S113126088831B830A8381E001C080E0DF91CF91F2
S11312701F910F910895CF93DF93EC018881998199
S1131280892B29F08A819B818617970760F4CE0108
S11312900E942109882341F08C819D81892B19F4B6
S11312A0E881F981108281E0DF91CF910895EF9276
S11312B0FF920F931F93CF93DF93EC017B018A017D
S11312C0BA010E943B09811104C0CE010E940F099A
S11312D007C01D830C83B701888199810E94D814AB
S11312E0CE01DF91CF911F910F91FF90EF90089560
S11312F0FC011182108213821282158214826115FC
S1131300710551F0FB0101900020E9F73197AF011D
S1131310461B570B0C94570908950F931F93CF93B3
S1131320DF938C01EB01FC01808191810097D1F066
S1131330688179816115710599F029E039E0232BE1
S113134079F0428153812C813D814217530740F04B
S11313500E94D8148C819D81F8019583848313C0E5
S11313600E94801388819981F801918380838A8106
S11313709B81938382838C819D819583848319824D
S113138018821B821A821D821C82DF91CF911F91C9
S11313900F910895CF93DF93EC01FB018617970714
S11313A061F0608171816115710529F04481558175
S11313B00E94570902C00E940F09CE01DF91CF910C
S11313C00895FC0111821082138212821582148204
S11313D00C94CA09CF93DF93EC018617970711F099
S11313E00E948D09CE01DF91CF910895CF93DF93B1
S11313F0EC016115710559F0FB0101900020E9F73A
S11314003197AF01461B570B0E94570902C00E9437
S11314100F09CE01DF91CF910895BF92CF92DF9251
S1131420EF92FF920F931F93CF93DF937C016B0195
S11314308A01E9012417350720F4812F8901C42F7B
S1131440D82F63E372E0C7010E947809D60114968D
S11314508D919C91159708171907C8F48C179D074F
S113146008F4EC01D601ED91FC911197EC0FFD1FEE
S1131470B08010826D917C91600F711FC7010E9432
S1131480F609D601ED91FC91EC0FFD1FB082C70166
S1131490DF91CF911F910F91FF90EF90DF90CF904C
S11314A0BF900895FC011382128284E492E0918338
S11314B08083128E148A8FE084838EE085838DE08E
S11314C086838CE087838BE080878AE0818789E04C
S11314D08287178681E0808B82E0818B83E0828B18
S11314E084E0838B0895FC01962F828D8F3F21F039
S11314F0CF014B960C94BE0E642F892F0C94DA08FE
S11315000F931F93CF93DF93D62F8C01055E1F4F4C
S1131510C1E062FB442740F94C2768E0C8010E94FF
S1131520BE0ED1FB442740F94C2767E0C8010E9456
S1131530BE0E4D2F41704C2766E0C801DF91CF915C
S11315401F910F910C94BE0EFC01962F828D8F3F3C
S113155021F0CF014B960C94970D642F892F0C9496
S11315609E08CF93DF93EC0140E06E810E94730AE2
S113157081E090E00E942C0841E06E81CE010E943F
S1131580730A81E090E00E942C0840E06E81CE0155
S11315900E94730A84E690E0DF91CF910C942C08AA
S11315A0AF92BF92CF92DF92EF92FF920F931F936D
S11315B0CF93DF938C01FC01828D9801295F3F4F0B
S11315C07901C62FD0E08F3F09F473C068013BE175
S11315D0C30ED11CC6010E94F90DF70140E050E092
S11315E0A1E0B0E0B190EE24E394F12CBD010B2C0A
S11315F002C0660F771F0A94E2F760957095862300
S113160097239E01042E02C0359527950A94E2F78C
S11316102170332702C0220F331FBA94E2F7822BC2
S1131620932B4F5F5F4F44305105E1F6E701F8011A
S1131630068002C0CC0FDD1F0A94E2F7C095D09556
S1131640C823D923BE01C6010E947C0D81E090E02D
S11316500E942C08C701F801068002C0880F991F58
S11316600A94E2F7C82BD92BBE01C6010E947C0D57
S113167081E090E00E942C08B701F801068002C0C6
S1131680660F771F0A94E2F7609570956C237D23AB
S1131690C6010E947C0D84E690E0DF91CF911F91FA
S11316A00F91FF90EF90DF90CF90BF90AF900C948C
S11316B02C08C12CD12C570141E0F70161917F0125
S11316C0C8010E94A40AAE010C2C02C0559547958E
S11316D00A94E2F74170F5016081C8010E94730A1F
S11316E0FFEFCF1ADF0A24E0C216D10421F7C801A4
S11316F0DF91CF911F910F91FF90EF90DF90CF90EA
S1131700BF90AF900C94B10AAF92BF92CF92DF9288
S1131710EF92FF920F931F93CF93DF93EC015C0141
S113172087E0A80EB11C00E010E0E62EF12C650164
S113173041E0F50161915F01CE010E94A40AA70175
S1131740002E02C0559547950A94E2F74170F601C0
S11317506081CE010E94730A0F5F1F4F083011058C
S113176031F7CE01DF91CF911F910F91FF90EF9050
S1131770DF90CF90BF90AF900C94B10A1F93CF939A
S1131780DF93EC01162F6C810E94730A6D816F3F09
S113179021F040E0CE010E94730A8C89612F84FFFE
S11317A006C0CE01DF91CF911F910C94840B70E0A1
S11317B084E0759567958A95E1F7CE010E94D00A79
S11317C0612FCE01DF91CF911F910C94D00A40E09C
S11317D00C94BE0B61E00E94E70B80ED97E00C9443
S11317E02C08CF93DF93CDB7DEB728970FB6F894C4
S11317F0DEBF0FBECDBF9C0188E0EBE0F1E0DE016F
S1131800119601900D928A95E1F7F901808D841764
S113181010F44FEF480FFE013196E40FF11DE40F71
S1131820F11D9081690F6068C90128960FB6F8947C
S1131830DEBF0FBECDBFDF91CF910C94E70BFC014F
S11318406589262F2460258B6C600C94E70B8F929E
S11318509F92AF92BF92CF92DF92EF92FF920F933B
S11318601F93CF93DF93EC01D42EC22E8A8D8F3F2A
S113187041F481E08D1508F05EC08C8988608C8B02
S11318805AC088E393E00E94F50F8E01055E1F4F56
S1131890C8010E94790D41E068E0C8010E94970DDB
S11318A041E066E0C8010E94970D41E067E0C8018D
S11318B00E94970D67E0CE010E94800A6D81662325
S11318C021F041E0C8010E94970D41E06C81C801FC
S11318D00E94970D41E06E81C8010E94970D7E0120
S11318E0E7E0EE0EF11C5E01FBE0AF0EB11CF70168
S11318F061917F0141E0C8010E94970DEA14FB0445
S1131900B1F77E01FFE0EF0EF11C5E0184E1A80E49
S1131910B11C470140E0F70161917F01C8010E94B9
S1131920970D41E0F4016081C8010E945B0EEA1446
S1131930FB0479F79ECFD88E198ECC2031F0F1E0DC
S1131940DF1203C08C8984608C8B80E593EC0E9449
S11319502C0840E06C81CE010E94730A40E06E8145
S1131960CE010E94730A6D816F3F21F040E0CE01E9
S11319700E94730A6C8964FD1DC063E0CE010E945D
S1131980D00A84E991E10E942C0863E0CE010E9410
S1131990D00A84E991E10E942C0863E0CE010E9400
S11319A0D00A86E990E00E942C0862E0CE010E94F1
S11319B0D00A16C06062CE010E94E70B84E991E16F
S11319C00E942C086C896062CE010E94E70B86E9B4
S11319D090E00E942C086C896062CE010E94E70BA3
S11319E06C896062CE010E94E70B84E08D8BCE018E
S11319F00E941F0CCE010E94EA0B82E08E8B66E0EF
S1131A00CE01DF91CF911F910F91FF90EF90DF9066
S1131A10CF90BF90AF909F908F900C94E70B41E0D4
S1131A200E94BE0B81E090E00895DF92EF92FF9256
S1131A300F931F93CF93DF937C012FE0E20EF11CF1
S1131A40C0E0D0E02FE1D22E8C01055E1F4FF701DC
S1131A5061917F01C8010E94220E282F30E00C2ED4
S1131A6002C0220F331F0A94E2F720953095D22248
S1131A702196C530D10559F78D2DDF91CF911F9156
S1131A800F91FF90EF90DF900895682F88E393E023
S1131A900C94B60FCF93DF93EC01683008F067E045
S1131AA0688388E393E00E94F50F6881606270E0C8
S1131AB088E393E00E94111080E00E94450D8FEFAF
S1131AC00E94450D88E393E00E948D106881606256
S1131AD070E088E393E00E94111081E00E94450DBC
S1131AE08FEF0E94450D88E393E0DF91CF910C9432
S1131AF08D1060E00C944A0DCF93DF93D62FC72F3F
S1131B00FC016081606270E088E393E00E94111040
S1131B1082E10E94450D8D2F0E94450D8C2F0E945D
S1131B20450D88E393E0DF91CF910C948D10FF92E3
S1131B300F931F93CF93DF938C01C62FD42F603163
S1131B4008F051C0683020F0C850FF24F39401C05D
S1131B50F12CF8016081606270E088E393E00E94F8
S1131B6011108F2D0E94450D88E393E00E948D1083
S1131B70F8016081606270E041E050E088E393E046
S1131B800E948A1088E393E00E942F0F21E030E046
S1131B90D11109C0A90102C0440F551FCA95E2F72B
S1131BA0EA01C82B09C0F90102C0EE0FFF1FCA9554
S1131BB0E2F7EF01C095C823F8016081606270E02C
S1131BC088E393E00E9411108F2D0E94450D8C2F05
S1131BD00E94450D88E393E0DF91CF911F910F910F
S1131BE0FF900C948D10DF91CF911F910F91FF9076
S1131BF00895CF93DF93EC016881606270E088E31D
S1131C0093E00E94111082E10E94450D88E393E065
S1131C100E948D106881606270E042E050E088E3C9
S1131C2093E00E948A1088E393E00E942F0FC82F4C
S1131C3088E393E00E942F0F982F88278C2BDF9145
S1131C40CF9108950F931F93CF93DF938C01C62FE9
S1131C50603158F5683018F0C850D3E101C0D2E1C2
S1131C60F8016081606270E088E393E00E941110E3
S1131C708D2F0E94450D88E393E00E948D10F8019A
S1131C806081606270E041E050E088E393E00E948C
S1131C908A1088E393E00E942F0F992702C095953C
S1131CA08795CA95E2F7817001C080E0DF91CF91FA
S1131CB01F910F910895FF920F931F93CF93DF937A
S1131CC08C01C62FD42F603108F052C0683020F048
S1131CD0C8509DE0F92E02C08CE0F82EF801608116
S1131CE0606270E088E393E00E9411108F2D0E94DF
S1131CF0450D88E393E00E948D10F80160816062D5
S1131D0070E041E050E088E393E00E948A1088E3A9
S1131D1093E00E942F0F21E030E0D13049F4A90173
S1131D2002C0440F551FCA95E2F7EA01C82B09C047
S1131D30F90102C0EE0FFF1FCA95E2F7EF01C0954B
S1131D40C823F8016081606270E088E393E00E9438
S1131D5011108F2D0E94450D8C2F0E94450D88E394
S1131D6093E0DF91CF911F910F91FF900C948D1010
S1131D70DF91CF911F910F91FF900895EF92FF9201
S1131D800F931F93CF93DF938C01C62FE42E603102
S1131D9008F056C0683028F0C850D5E193E1F92E18
S1131DA003C0D4E182E1F82EF8016081606270E042
S1131DB088E393E00E9411108D2F0E94450D88E363
S1131DC093E00E948D10F8016081606270E041E050
S1131DD050E088E393E00E948A1088E393E00E9435
S1131DE02F0FF1E021E030E0EF1209C0A90102C099
S1131DF0440F551FCA95E2F7EA01C82B09C0F9013F
S1131E0002C0EE0FFF1FCA95E2F7EF01C095C82389
S1131E10F8016081606270E088E393E00E94111031
S1131E208F2D0E94450D8C2F0E94450D88E393E071
S1131E30DF91CF911F910F91FF90EF900C948D1033
S1131E40DF91CF911F910F91FF90EF9008958091B2
S1131E506C0390E020916D03821B91090895909189
S1131E606D0380916C03981750F4E92FF0E0E25968
S1131E70FC4F208130E09F5F90936D0302C02FEFF1
S1131E803FEFC9010895E0916D0380916C03E81759
S1131E9030F4F0E0E259FC4F808190E008958FEF38
S1131EA09FEF08950895CF93DF93EC01E0914403ED
S1131EB0F09145033097F1F090916D0380916C039C
S1131EC09817C0F090E0292F30E02617370754F414
S1131ED0DE01A20FB31F4C91D901A259BC4F4C9300
S1131EE09F5FF1CF10926D0360936C03CB01DF9180
S1131EF0CF910994DF91CF910895E0914603F09139
S1131F004703309729F010924A0310924903099429
S1131F100895CF92DF92EF92FF920F931F93CF9386
S1131F20DF937C01CB018A0120914803222389F0AD
S1131F30EB016B01C40ED51ECC15DD0569F069916A
S1131F40D701ED91FC910190F081E02DC701099535
S1131F50F3CF642F0E945111C801DF91CF911F91DB
S1131F600F91FF90EF90DF90CF900895CF93DF9380
S1131F701F92CDB7DEB76983209148032223D1F0A5
S1131F8020914903203240F021E030E0FC0133830A
S1131F90228380E090E015C080914A03E82FF0E0AE
S1131FA0E55BFC4F998190838F5F80934A03809314
S1131FB0490305C061E0CE0101960E94511181E000
S1131FC090E00F90DF91CF910895FC01138212826B
S1131FD088EE93E0A0E0B0E084839583A683B78382
S1131FE080E592E091838083089510926D031092AE
S1131FF06C0310924A03109249030E9495108DE7D6
S11320009FE00E947E1183E59FE00C94791181E0AA
S11320108093480360936B0310924A031092490320
S113202008950C9407100F93062F21E04091490363
S11320306BE473E080916B030E94FB1010924A03DF
S113204010924903109248030F9108954F925F92A2
S11320506F927F92AF92BF92CF92EF92FF920F93C3
S11320601F93CF93DF935C01F62ED42F28013901FF
S1132070EE2021F10E940710CE2DC43008F0C3E0F9
S1132080C150C0F028E0C29FC0011124A3019201F5
S113209004C056954795379527958A95D2F7CA0176
S11320A0B901D501ED91FC910190F081E02DC501BC
S11320B00995E6CF60E0C5010E9413104D2FD1327F
S11320C008F040E22C2D6EE673E08F2D0E94B310D1
S11320D010926D0380936C03DF91CF911F910F9148
S11320E0FF90EF90CF90BF90AF907F906F905F90F4
S11320F04F900895CF92EF920F931F93C22EE12C2D
S113210000E010E098010E9426101F910F91EF90BB
S1132110CF90089521E00C947A1061E00C94131090
S113212088E393E00C94E50F08951092FB0381E09B
S11321308093F9031092F80361E082E10E94DA08C7
S113214061E083E10E94DA08E9EBF0E080818E7FB0
S1132150808380818D7F808388E48093B80085E4C8
S11321608093BC000895413208F043C09091FB0372
S11321709111FCCF91E09093FB032093F9032FEF8F
S113218020938E031092D303240F2093D2039093B1
S1132190FA039091FA03880F892B8093FA038091B4
S11321A0F803813061F41092F8038091FA0380936C
S11321B0BB008091BC0083FDF8CF85EC01C085EEA7
S11321C08093BC008091FB038130E1F38091D303C1
S11321D0841710F44091D303A4EDB3E0962FFB01D0
S11321E08E2F891B841718F48D918193F9CF842F36
S11321F0089580E008950F93413208F04AC0909109
S1132200FB039111FCCF32E03093FB030093F903FD
S11322103FEF30938E031092D3034093D203562F93
S1132220A4EDB3E0FB013E2F351B341718F43191B4
S11322303D93F9CF1092FA033091FA03880F832B60
S11322408093FA038091F803813061F41092F803CB
S11322508091FA038093BB008091BC0083FDF8CF8A
S113226085EC01C085EE8093BC00222321F080918F
S1132270FB038230D1F380918E038F3F79F08091FC
S11322808E03803241F080918E03803331F094E0EC
S113229005C091E003C092E001C093E0892F0F9143
S11322A008954091B003262F30E0240F311D2132D0
S11322B03105DCF42091FB032430C9F4FC0180E0F7
S11322C090E0861758F43091B0032191DC01AE54AC
S11322D0BC4FA30FB11D2C930196F3CF8091B00393
S11322E0680F6093B00380E0089581E0089582E070
S11322F008959093F5038093F40308959093F7035E
S11323008093F603089585ED8093BC008091BC0012
S113231084FDFCCF1092FB03089585EC8093BC00F0
S11323201092FB0308951F920F920FB60F9211247F
S11323302F933F934F935F936F937F938F939F93C9
S1132340AF93BF93EF93FF938091B900887F80365A
S113235009F49EC078F5883209F45DC090F48031A8
S113236009F456C038F4882309F4F5C0883009F418
S11323704FC0F5C0883109F44EC0803209F45FC003
S1132380EEC0803409F46AC058F4803309F457C0AD
S1132390883309F0E4C080938E030E948D11DFC05E
S11323A0803509F44FC0883509F45DC0883409F0DC
S11323B0D6C0D3C0883909F4C4C0A8F4883709F456
S11323C067C038F4883609F463C0803709F460C004
S11323D0C6C0883809F4B5C0803909F45FC08038B4
S11323E009F0BDC05BC0803B09F483C038F4803A77
S11323F009F466C0883A09F47CC0B1C0803C09F491
S1132400A4C0883C09F4A1C0883B09F487C0A7C0D4
S11324108091FA0310C09091D3038091D20398174E
S113242070F5E091D30381E08E0F8093D303F0E045
S1132430EC52FC4F80818093BB0085EC83C0809379
S11324408E038BC0E091D30381E08E0F8093D3037E
S11324508091BB00F0E0EC52FC4F80839091D30359
S11324608091D2036BC0E091D30381E08E0F8093FF
S1132470D3038091BB00F0E0EC52FC4F8083809149
S1132480F90381116AC081E08093F80384EA5EC095
S113249083E08093FB0310928F03CFCF80918F034F
S11324A0803208F04EC0E0918F0381E08E0F80935C
S11324B08F038091BB00F0E0E057FC4F8083BDCFD9
S11324C00E948D1180918F03803230F4E0918F034C
S11324D0F0E0E057FC4F108260918F0370E0E091D0
S11324E0F403F091F50380E993E0099510928F03CA
S11324F036C084E08093FB031092B1031092B003C2
S1132500E091F603F091F70309958091B0038111EE
S113251005C081E08093B0031092B203E091B1034F
S113252081E08E0F8093B103F0E0EE54FC4F808184
S11325308093BB009091B1038091B003981708F485
S11325407CCF85E88093BC000AC085EC8093BC00F6
S11325501092FB0304C010928E030E948311FF911A
S1132560EF91BF91AF919F918F917F916F915F9107
S11325704F913F912F910F900FBE0F901F90189580
S1132580A1E21A2EAA1BBB1BFD010DC0AA1FBB1F73
S1132590EE1FFF1FA217B307E407F50720F0A21BE5
S11325A0B30BE40BF50B661F771F881F991F1A9452
S11325B069F760957095809590959B01AC01BD017C
S11325C0CF010895EE0FFF1F0590F491E02D0994BB
S11325D00F931F93CF93DF938230910510F482E021
S11325E090E0E091FE03F091FF0320E030E0A0E0F2
S11325F0B0E0309719F1408151810281138148176D
S11326005907C8F08417950769F4109731F01296AA
S11326100C93129713961C9327C00093FE031093F8
S1132620FF0322C02115310519F04217530718F48E
S11326309A01BD01EF01DF01F801DBCF211531055E
S1132640F9F0281B390B2430310580F48A819B81F1
S11326506115710521F0FB019383828304C090937B
S1132660FF038093FE03FE01329644C0FE01E20F95
S1132670F31F8193919322503109398328833AC0FF
S11326802091FC033091FD03232B41F4209102019E
S1132690309103013093FD032093FC03209100014A
S11326A0309101012115310541F42DB73EB7409118
S11326B0040150910501241B350BE091FC03F091BA
S11326C0FD03E217F307A0F42E1B3F0B281739076D
S11326D078F0AC014E5F5F4F2417350748F04E0F7A
S11326E05F1F5093FD034093FC038193919302C0B9
S11326F0E0E0F0E0CF01DF91CF911F910F910895B9
S1132700CF93DF93009709F481C0FC0132971382C1
S11327101282A091FE03B091FF03109781F42081EF
S11327203181820F931F2091FC033091FD03281700
S1132730390751F5F093FD03E093FC0367C0ED0105
S113274020E030E0CE17DF0740F44A815B819E0130
S113275041155105F1F0EA01F5CFD383C2834081DD
S11327605181840F951FC817D90759F4888199811D
S1132770840F951F0296918380838A819B81938322
S113278082832115310529F4F093FF03E093FE03BE
S11327903DC0E901FB83EA8349915991C40FD51FD8
S11327A0EC17FD0761F480819181840F951F0296D7
S11327B0E90199838883828193819B838A83E0E002
S11327C0F0E012968D919C911397009719F0FD01FA
S11327D0DC01F7CF8D919C9111979D012E5F3F4FA6
S11327E0820F931F2091FC033091FD0328173907B2
S11327F069F4309729F41092FF031092FE0302C08B
S113280013821282B093FD03A093FC03DF91CF9156
S11328100895A0E0B0E0EFE0F4E10C949617EC0129
S1132820009721F4CB010E94E812B4C0FC01E60F2A
S1132830F71F9C0122503109E217F30708F4A8C0DE
S1132840D9010D911C91119706171707B0F00530A7
S1132850110508F49BC0C80104978617970708F46C
S113286095C002501109061B170B019311936D9328
S11328707C93CF010E94801389C05B01A01AB10A26
S11328804C01800E911EA091FE03B091FF03612CB8
S1132890712CE12CF12C109709F446C08D919C9178
S11328A01197A815B905B1F56C0142E0C40ED11C0D
S11328B0CA14DB0478F14C018A189B08640142E0D5
S11328C0C40ED11C1296BC9012971396AC91B5E02D
S11328D0CB16D10440F0B282A38391828082D901C5
S11328E06D937C9309C00E5F1F4F800F911FF901F8
S11328F091838083EB2DFA2FE114F10431F0D70199
S11329001396FC93EE93129741C0F093FF03E09368
S1132910FE033CC06816790608F43C017D0112965A
S11329200D90BC91A02DB7CF8091FC039091FD0335
S113293088169906E1F466167706C8F480910001BA
S113294090910101009741F48DB79EB74091040125
S113295050910501841B950BE817F907C8F4F0930F
S1132960FD03E093FC03F901718360830FC0CB0185
S11329700E94E8127C01009759F0A801BE010E9450
S1132980CF14CE010E948013C70104C0CE0102C03F
S113299080E090E0CDB7DEB7EEE00C94B217FB0117
S11329A0DC0102C001900D9241505040D8F70895C7
S11329B0FB01DC0101900D920020E1F70895AEE0E7
S11329C0B0E0E5EEF4E10C94A0170D891E8986E0D1
S11329D08C831A8309838FEF9FE79E838D83AE01D7
S11329E0475E5F4F6F89788DCE0101960E94011575
S11329F0EF81F885E00FF11F10822E96E4E00C942D
S1132A00BC17ABE0B0E0E7E0F5E10C9492176C0181
S1132A107B018A01FC0117821682838181FFCCC16C
S1132A20CE0101963C01F6019381F70193FD859156
S1132A3093FF81917F01882309F4BAC1853239F467
S1132A4093FD859193FF81917F01853229F4B6012D
S1132A5090E00E94F816E7CF912C212C312CFFE155
S1132A60F315D8F08B3279F038F4803279F0833270
S1132A70A1F4232D20611DC08D3261F0803369F4EF
S1132A80232D216016C0832D8260382EE32DE4604F
S1132A903E2E2AC0F32DF8601DC037FC2DC020ED5A
S1132AA0280F2A3040F08E32B9F436FC81C1232D30
S1132AB02064322E19C036FE06C08AE0989E200D8E
S1132AC01124922E11C0EAE02E9E200D1124222EF4
S1132AD0F32DF0623F2E08C08C3621F4832D8068DC
S1132AE0382E02C0883641F4F70193FD859193FF97
S1132AF081917F018111B3CF982F9F7D955493309D
S1132B0028F40C5F1F4F9FE399830DC0833631F087
S1132B10833771F0833509F059C021C0F8018081F1
S1132B2089830E5F1F4F88248394912C530113C013
S1132B302801F2E04F0E511CF801A080B18036FE4E
S1132B4003C0692D70E002C06FEF7FEFC5010E94E2
S1132B50ED164C018201F32DFF773F2E16C028019C
S1132B6022E0420E511CF801A080B18036FE03C061
S1132B70692D70E002C06FEF7FEFC5010E94E2167D
S1132B804C01F32DF0683F2E820133FC1BC0822DD3
S1132B9090E088169906B0F4B60180E290E00E94B5
S1132BA0F8162A94F4CFF50137FC859137FE81910C
S1132BB05F01B60190E00E94F81621102A9421E0EA
S1132BC0821A91088114910471F7E8C0843611F0D7
S1132BD0893641F5F80137FE07C060817181828131
S1132BE093810C5F1F4F08C060817181072E000C18
S1132BF0880B990B0E5F1F4FF32DFF763F2E97FF27
S1132C0009C090958095709561957F4F8F4F9F4F28
S1132C10F0683F2E2AE030E0A3010E943417882E8A
S1132C20861845C0853731F4232D2F7EB22E2AE035
S1132C3030E025C0932D997FB92E8F36C1F018F45A
S1132C40883579F0B5C0803719F0883721F0B0C0E5
S1132C50E92FE061BE2EB4FE0DC0FB2DF460BF2E43
S1132C6009C034FE0AC0292F2660B22E06C028E00F
S1132C7030E005C020E130E002C020E132E0F8019C
S1132C80B7FE07C060817181828193810C5F1F4F01
S1132C9006C06081718180E090E00E5F1F4FA30148
S1132CA00E943417882E8618FB2DFF773F2E36FEA0
S1132CB00DC0232D2E7FA22E891458F434FE0BC090
S1132CC032FC09C0832D8E7EA82E05C0B82CA32CFF
S1132CD003C0B82C01C0B92CA4FE0FC0FE01E80D3E
S1132CE0F11D8081803321F49A2D997EA92E09C08B
S1132CF0A2FE06C0B394B39404C08A2D867809F06A
S1132D00B394A3FC11C0A0FE06C0B21488F4280C2E
S1132D10922C9B180EC0B21460F4B60180E290E0CD
S1132D200E94F816B394F7CFB21418F42B1802C00B
S1132D30982C212CA4FE10C0B60180E390E00E94E0
S1132D40F816A2FE17C0A1FC03C088E790E002C0F9
S1132D5088E590E0B6010CC08A2D867859F0A1FE72
S1132D6002C08BE201C080E2A7FC8DE2B60190E0D4
S1132D700E94F816891438F4B60180E390E00E94AA
S1132D80F8169A94F7CF8A94F301E80DF11D808127
S1132D90B60190E00E94F8168110F5CF222009F4C4
S1132DA042CEB60180E290E00E94F8162A94F6CF53
S1132DB0F6018681978102C08FEF9FEF2B96E2E1A7
S1132DC00C94AE17FC010590615070400110D8F7C7
S1132DD0809590958E0F9F1F0895FC01615070405F
S1132DE001900110D8F7809590958E0F9F1F08953C
S1132DF00F931F93CF93DF93FB01238121FD03C026
S1132E008FEF9FEF2CC022FF16C04681578124818B
S1132E1035814217530744F4A081B1819D012F5F8E
S1132E203F4F318320838C93268137812F5F3F4F1F
S1132E303783268314C08B01EC01FB010084F185E8
S1132E40E02D0995892BE1F6D80116968D919C9178
S1132E501797019617969C938E931697CE01DF9140
S1132E60CF911F910F910895FA01AA27283051F1AB
S1132E70203181F1E8946F936E7F6E5F7F4F8F4FA7
S1132E809F4FAF4FB1E03ED0B4E03CD0670F781F06
S1132E90891F9A1FA11D680F791F8A1F911DA11DEB
S1132EA06A0F711D811D911DA11D20D009F4689424
S1132EB03F912AE0269F11243019305D3193DEF6CC
S1132EC0CF010895462F4770405D4193B3E00FD082
S1132ED0C9F7F6CF462F4F70405D4A3318F0495D6D
S1132EE031FD4052419302D0A9F7EACFB4E0A69550
S1132EF09795879577956795BA95C9F70097610572
S1132F00710508959B01AC010A2E069457954795C7
S1132F1037952795BA95C9F7620F731F841F951FBC
S1132F20A01D08952F923F924F925F926F927F92CD
S1132F308F929F92AF92BF92CF92DF92EF92FF92C5
S1132F400F931F93CF93DF93CDB7DEB7CA1BDB0B71
S1132F500FB6F894DEBF0FBECDBF09942A88398816
S1132F6048885F846E847D848C849B84AA84B9841D
S1132F70C884DF80EE80FD800C811B81AA81B98129
S1132F80CE0FD11D0FB6F894DEBF0FBECDBFED013D
S1132F90089510E0CFE5D0E004C0FE010E94E212E3
S10F2FA02196C036D107C9F7F894FFCF82
S1132FAC000000042000060706070100004000147E
S1132FBC00540055703A4F70656E20446E436C6F2C
S1132FCC73654C66743A4461792052743A4E69675D
S1132FDC6874004D61696E204D656E750053656CA7
S1132FEC3A457363617065004F70656E696E672056
S1132FFC446F6F7200436C6F73696E6720446F6F1C
S113300C7200446179204D6F6465202020202020BB
S113301C2020546D703A2573204C68743A25730043
S113302C4E69676874204D6F646520202020202031
S113303C546D703A2573204C68743A257300496EAC
S113304C697420436F6D706C65746500696E206CD7
S113305C6F6F70004E45574D454E5500436C6F7362
S113306C696E6700436C6F736520436F6D706C659C
S113307C74650052656C61792070696E7320736598
S113308C7420746F206F7574707574004F70656E56
S113309C696E67004F70656E20436F6D706C65745C
S11330AC6500456D657267656E637900456D657283
S11330BC67656E63792046696E69736865640000A0
S11330CC0000002C05A306ED047905BF04D904CB3C
S11330DC040D0A006E616E00696E66006F76660000
S11330EC000000000F0DA3060006030600000000FC
S11130FCB60F890F0006520F270F2F0F430F38
S9030000FC
